{
  "_format": "hh-sol-artifact-1",
  "contractName": "BillNft",
  "sourceName": "contracts/BillNft.sol",
  "abi": [
    {
      "anonymous": false,
      "inputs": [
        {
          "indexed": true,
          "internalType": "address",
          "name": "owner",
          "type": "address"
        },
        {
          "indexed": true,
          "internalType": "address",
          "name": "approved",
          "type": "address"
        },
        {
          "indexed": true,
          "internalType": "uint256",
          "name": "tokenId",
          "type": "uint256"
        }
      ],
      "name": "Approval",
      "type": "event"
    },
    {
      "anonymous": false,
      "inputs": [
        {
          "indexed": true,
          "internalType": "address",
          "name": "owner",
          "type": "address"
        },
        {
          "indexed": true,
          "internalType": "address",
          "name": "operator",
          "type": "address"
        },
        {
          "indexed": false,
          "internalType": "bool",
          "name": "approved",
          "type": "bool"
        }
      ],
      "name": "ApprovalForAll",
      "type": "event"
    },
    {
      "anonymous": false,
      "inputs": [
        {
          "indexed": false,
          "internalType": "string",
          "name": "newUri",
          "type": "string"
        }
      ],
      "name": "BaseTokenUriChanged",
      "type": "event"
    },
    {
      "anonymous": false,
      "inputs": [
        {
          "indexed": false,
          "internalType": "uint8",
          "name": "version",
          "type": "uint8"
        }
      ],
      "name": "Initialized",
      "type": "event"
    },
    {
      "anonymous": false,
      "inputs": [
        {
          "indexed": true,
          "internalType": "uint256",
          "name": "tokenId",
          "type": "uint256"
        },
        {
          "indexed": true,
          "internalType": "address",
          "name": "recipient",
          "type": "address"
        },
        {
          "indexed": false,
          "internalType": "uint256",
          "name": "claimAmount",
          "type": "uint256"
        }
      ],
      "name": "PayoutClaimed",
      "type": "event"
    },
    {
      "anonymous": false,
      "inputs": [
        {
          "indexed": true,
          "internalType": "bytes32",
          "name": "role",
          "type": "bytes32"
        },
        {
          "indexed": true,
          "internalType": "bytes32",
          "name": "previousAdminRole",
          "type": "bytes32"
        },
        {
          "indexed": true,
          "internalType": "bytes32",
          "name": "newAdminRole",
          "type": "bytes32"
        }
      ],
      "name": "RoleAdminChanged",
      "type": "event"
    },
    {
      "anonymous": false,
      "inputs": [
        {
          "indexed": true,
          "internalType": "bytes32",
          "name": "role",
          "type": "bytes32"
        },
        {
          "indexed": true,
          "internalType": "address",
          "name": "account",
          "type": "address"
        },
        {
          "indexed": true,
          "internalType": "address",
          "name": "sender",
          "type": "address"
        }
      ],
      "name": "RoleGranted",
      "type": "event"
    },
    {
      "anonymous": false,
      "inputs": [
        {
          "indexed": true,
          "internalType": "bytes32",
          "name": "role",
          "type": "bytes32"
        },
        {
          "indexed": true,
          "internalType": "address",
          "name": "account",
          "type": "address"
        },
        {
          "indexed": true,
          "internalType": "address",
          "name": "sender",
          "type": "address"
        }
      ],
      "name": "RoleRevoked",
      "type": "event"
    },
    {
      "anonymous": false,
      "inputs": [
        {
          "indexed": true,
          "internalType": "address",
          "name": "from",
          "type": "address"
        },
        {
          "indexed": true,
          "internalType": "address",
          "name": "to",
          "type": "address"
        },
        {
          "indexed": true,
          "internalType": "uint256",
          "name": "tokenId",
          "type": "uint256"
        }
      ],
      "name": "Transfer",
      "type": "event"
    },
    {
      "anonymous": false,
      "inputs": [],
      "name": "UriLocked",
      "type": "event"
    },
    {
      "inputs": [],
      "name": "DEFAULT_ADMIN_ROLE",
      "outputs": [
        {
          "internalType": "bytes32",
          "name": "",
          "type": "bytes32"
        }
      ],
      "stateMutability": "view",
      "type": "function"
    },
    {
      "inputs": [],
      "name": "FACTORY_ROLE",
      "outputs": [
        {
          "internalType": "bytes32",
          "name": "",
          "type": "bytes32"
        }
      ],
      "stateMutability": "view",
      "type": "function"
    },
    {
      "inputs": [],
      "name": "MINTER_ROLE",
      "outputs": [
        {
          "internalType": "bytes32",
          "name": "",
          "type": "bytes32"
        }
      ],
      "stateMutability": "view",
      "type": "function"
    },
    {
      "inputs": [],
      "name": "URI_SETTER_ROLE",
      "outputs": [
        {
          "internalType": "bytes32",
          "name": "",
          "type": "bytes32"
        }
      ],
      "stateMutability": "view",
      "type": "function"
    },
    {
      "inputs": [
        {
          "internalType": "address",
          "name": "minter",
          "type": "address"
        }
      ],
      "name": "addMinter",
      "outputs": [],
      "stateMutability": "nonpayable",
      "type": "function"
    },
    {
      "inputs": [
        {
          "internalType": "address",
          "name": "owner",
          "type": "address"
        }
      ],
      "name": "allTokensDataOfOwner",
      "outputs": [
        {
          "components": [
            {
              "internalType": "uint256",
              "name": "tokenId",
              "type": "uint256"
            },
            {
              "internalType": "address",
              "name": "billAddress",
              "type": "address"
            }
          ],
          "internalType": "struct IBillNft.TokenData[]",
          "name": "",
          "type": "tuple[]"
        }
      ],
      "stateMutability": "view",
      "type": "function"
    },
    {
      "inputs": [
        {
          "internalType": "address",
          "name": "to",
          "type": "address"
        },
        {
          "internalType": "uint256",
          "name": "tokenId",
          "type": "uint256"
        }
      ],
      "name": "approve",
      "outputs": [],
      "stateMutability": "nonpayable",
      "type": "function"
    },
    {
      "inputs": [
        {
          "internalType": "address",
          "name": "owner",
          "type": "address"
        }
      ],
      "name": "balanceOf",
      "outputs": [
        {
          "internalType": "uint256",
          "name": "",
          "type": "uint256"
        }
      ],
      "stateMutability": "view",
      "type": "function"
    },
    {
      "inputs": [
        {
          "internalType": "uint256",
          "name": "",
          "type": "uint256"
        }
      ],
      "name": "billAddresses",
      "outputs": [
        {
          "internalType": "address",
          "name": "",
          "type": "address"
        }
      ],
      "stateMutability": "view",
      "type": "function"
    },
    {
      "inputs": [
        {
          "internalType": "uint256",
          "name": "tokenId",
          "type": "uint256"
        }
      ],
      "name": "claim",
      "outputs": [],
      "stateMutability": "nonpayable",
      "type": "function"
    },
    {
      "inputs": [
        {
          "internalType": "uint256[]",
          "name": "_tokenIds",
          "type": "uint256[]"
        }
      ],
      "name": "claimMany",
      "outputs": [],
      "stateMutability": "nonpayable",
      "type": "function"
    },
    {
      "inputs": [
        {
          "internalType": "uint256",
          "name": "tokenId",
          "type": "uint256"
        }
      ],
      "name": "claimablePayout",
      "outputs": [
        {
          "internalType": "uint256",
          "name": "payout",
          "type": "uint256"
        }
      ],
      "stateMutability": "view",
      "type": "function"
    },
    {
      "inputs": [
        {
          "internalType": "uint256",
          "name": "tokenId",
          "type": "uint256"
        }
      ],
      "name": "getApproved",
      "outputs": [
        {
          "internalType": "address",
          "name": "",
          "type": "address"
        }
      ],
      "stateMutability": "view",
      "type": "function"
    },
    {
      "inputs": [
        {
          "internalType": "bytes32",
          "name": "role",
          "type": "bytes32"
        }
      ],
      "name": "getRoleAdmin",
      "outputs": [
        {
          "internalType": "bytes32",
          "name": "",
          "type": "bytes32"
        }
      ],
      "stateMutability": "view",
      "type": "function"
    },
    {
      "inputs": [
        {
          "internalType": "bytes32",
          "name": "role",
          "type": "bytes32"
        },
        {
          "internalType": "uint256",
          "name": "index",
          "type": "uint256"
        }
      ],
      "name": "getRoleMember",
      "outputs": [
        {
          "internalType": "address",
          "name": "",
          "type": "address"
        }
      ],
      "stateMutability": "view",
      "type": "function"
    },
    {
      "inputs": [
        {
          "internalType": "bytes32",
          "name": "role",
          "type": "bytes32"
        }
      ],
      "name": "getRoleMemberCount",
      "outputs": [
        {
          "internalType": "uint256",
          "name": "",
          "type": "uint256"
        }
      ],
      "stateMutability": "view",
      "type": "function"
    },
    {
      "inputs": [
        {
          "internalType": "address",
          "name": "owner",
          "type": "address"
        },
        {
          "internalType": "uint256",
          "name": "start",
          "type": "uint256"
        },
        {
          "internalType": "uint256",
          "name": "end",
          "type": "uint256"
        }
      ],
      "name": "getTokensOfOwnerByIndexes",
      "outputs": [
        {
          "components": [
            {
              "internalType": "uint256",
              "name": "tokenId",
              "type": "uint256"
            },
            {
              "internalType": "address",
              "name": "billAddress",
              "type": "address"
            }
          ],
          "internalType": "struct IBillNft.TokenData[]",
          "name": "",
          "type": "tuple[]"
        }
      ],
      "stateMutability": "view",
      "type": "function"
    },
    {
      "inputs": [
        {
          "internalType": "bytes32",
          "name": "role",
          "type": "bytes32"
        },
        {
          "internalType": "address",
          "name": "account",
          "type": "address"
        }
      ],
      "name": "grantRole",
      "outputs": [],
      "stateMutability": "nonpayable",
      "type": "function"
    },
    {
      "inputs": [
        {
          "internalType": "bytes32",
          "name": "role",
          "type": "bytes32"
        },
        {
          "internalType": "address",
          "name": "account",
          "type": "address"
        }
      ],
      "name": "hasRole",
      "outputs": [
        {
          "internalType": "bool",
          "name": "",
          "type": "bool"
        }
      ],
      "stateMutability": "view",
      "type": "function"
    },
    {
      "inputs": [
        {
          "internalType": "string",
          "name": "name",
          "type": "string"
        },
        {
          "internalType": "string",
          "name": "symbol",
          "type": "string"
        },
        {
          "internalType": "string",
          "name": "baseTokenURI",
          "type": "string"
        },
        {
          "internalType": "address",
          "name": "factory",
          "type": "address"
        },
        {
          "internalType": "address",
          "name": "owner",
          "type": "address"
        }
      ],
      "name": "initialize",
      "outputs": [],
      "stateMutability": "nonpayable",
      "type": "function"
    },
    {
      "inputs": [
        {
          "internalType": "address",
          "name": "owner",
          "type": "address"
        },
        {
          "internalType": "address",
          "name": "operator",
          "type": "address"
        }
      ],
      "name": "isApprovedForAll",
      "outputs": [
        {
          "internalType": "bool",
          "name": "",
          "type": "bool"
        }
      ],
      "stateMutability": "view",
      "type": "function"
    },
    {
      "inputs": [],
      "name": "lockURI",
      "outputs": [],
      "stateMutability": "nonpayable",
      "type": "function"
    },
    {
      "inputs": [
        {
          "internalType": "address",
          "name": "to",
          "type": "address"
        },
        {
          "internalType": "address",
          "name": "billAddress",
          "type": "address"
        }
      ],
      "name": "mint",
      "outputs": [
        {
          "internalType": "uint256",
          "name": "newTokenId",
          "type": "uint256"
        }
      ],
      "stateMutability": "nonpayable",
      "type": "function"
    },
    {
      "inputs": [
        {
          "internalType": "uint256",
          "name": "amount",
          "type": "uint256"
        },
        {
          "internalType": "address",
          "name": "to",
          "type": "address"
        },
        {
          "internalType": "address",
          "name": "billAddress",
          "type": "address"
        }
      ],
      "name": "mintMany",
      "outputs": [],
      "stateMutability": "nonpayable",
      "type": "function"
    },
    {
      "inputs": [],
      "name": "name",
      "outputs": [
        {
          "internalType": "string",
          "name": "",
          "type": "string"
        }
      ],
      "stateMutability": "view",
      "type": "function"
    },
    {
      "inputs": [
        {
          "internalType": "uint256",
          "name": "tokenId",
          "type": "uint256"
        }
      ],
      "name": "ownerOf",
      "outputs": [
        {
          "internalType": "address",
          "name": "",
          "type": "address"
        }
      ],
      "stateMutability": "view",
      "type": "function"
    },
    {
      "inputs": [
        {
          "internalType": "uint256",
          "name": "tokenId",
          "type": "uint256"
        }
      ],
      "name": "payoutToken",
      "outputs": [
        {
          "internalType": "address",
          "name": "token",
          "type": "address"
        }
      ],
      "stateMutability": "view",
      "type": "function"
    },
    {
      "inputs": [
        {
          "internalType": "uint256",
          "name": "tokenId",
          "type": "uint256"
        }
      ],
      "name": "pendingPayout",
      "outputs": [
        {
          "internalType": "uint256",
          "name": "pendingPayoutAmount",
          "type": "uint256"
        }
      ],
      "stateMutability": "view",
      "type": "function"
    },
    {
      "inputs": [
        {
          "internalType": "uint256",
          "name": "tokenId",
          "type": "uint256"
        }
      ],
      "name": "pendingVesting",
      "outputs": [
        {
          "internalType": "uint256",
          "name": "pendingSeconds",
          "type": "uint256"
        }
      ],
      "stateMutability": "view",
      "type": "function"
    },
    {
      "inputs": [
        {
          "internalType": "bytes32",
          "name": "role",
          "type": "bytes32"
        },
        {
          "internalType": "address",
          "name": "account",
          "type": "address"
        }
      ],
      "name": "renounceRole",
      "outputs": [],
      "stateMutability": "nonpayable",
      "type": "function"
    },
    {
      "inputs": [
        {
          "internalType": "bytes32",
          "name": "role",
          "type": "bytes32"
        },
        {
          "internalType": "address",
          "name": "account",
          "type": "address"
        }
      ],
      "name": "revokeRole",
      "outputs": [],
      "stateMutability": "nonpayable",
      "type": "function"
    },
    {
      "inputs": [
        {
          "internalType": "address",
          "name": "from",
          "type": "address"
        },
        {
          "internalType": "address",
          "name": "to",
          "type": "address"
        },
        {
          "internalType": "uint256",
          "name": "tokenId",
          "type": "uint256"
        }
      ],
      "name": "safeTransferFrom",
      "outputs": [],
      "stateMutability": "nonpayable",
      "type": "function"
    },
    {
      "inputs": [
        {
          "internalType": "address",
          "name": "from",
          "type": "address"
        },
        {
          "internalType": "address",
          "name": "to",
          "type": "address"
        },
        {
          "internalType": "uint256",
          "name": "tokenId",
          "type": "uint256"
        },
        {
          "internalType": "bytes",
          "name": "data",
          "type": "bytes"
        }
      ],
      "name": "safeTransferFrom",
      "outputs": [],
      "stateMutability": "nonpayable",
      "type": "function"
    },
    {
      "inputs": [
        {
          "internalType": "address",
          "name": "operator",
          "type": "address"
        },
        {
          "internalType": "bool",
          "name": "approved",
          "type": "bool"
        }
      ],
      "name": "setApprovalForAll",
      "outputs": [],
      "stateMutability": "nonpayable",
      "type": "function"
    },
    {
      "inputs": [
        {
          "internalType": "string",
          "name": "baseTokenURI",
          "type": "string"
        }
      ],
      "name": "setBaseURI",
      "outputs": [],
      "stateMutability": "nonpayable",
      "type": "function"
    },
    {
      "inputs": [
        {
          "internalType": "uint256",
          "name": "tokenId",
          "type": "uint256"
        },
        {
          "internalType": "string",
          "name": "_tokenURI",
          "type": "string"
        }
      ],
      "name": "setTokenURI",
      "outputs": [],
      "stateMutability": "nonpayable",
      "type": "function"
    },
    {
      "inputs": [
        {
          "internalType": "bytes4",
          "name": "interfaceId",
          "type": "bytes4"
        }
      ],
      "name": "supportsInterface",
      "outputs": [
        {
          "internalType": "bool",
          "name": "",
          "type": "bool"
        }
      ],
      "stateMutability": "view",
      "type": "function"
    },
    {
      "inputs": [],
      "name": "symbol",
      "outputs": [
        {
          "internalType": "string",
          "name": "",
          "type": "string"
        }
      ],
      "stateMutability": "view",
      "type": "function"
    },
    {
      "inputs": [
        {
          "internalType": "uint256",
          "name": "index",
          "type": "uint256"
        }
      ],
      "name": "tokenByIndex",
      "outputs": [
        {
          "internalType": "uint256",
          "name": "",
          "type": "uint256"
        }
      ],
      "stateMutability": "view",
      "type": "function"
    },
    {
      "inputs": [
        {
          "internalType": "address",
          "name": "owner",
          "type": "address"
        },
        {
          "internalType": "uint256",
          "name": "index",
          "type": "uint256"
        }
      ],
      "name": "tokenDataOfOwnerByIndex",
      "outputs": [
        {
          "components": [
            {
              "internalType": "uint256",
              "name": "tokenId",
              "type": "uint256"
            },
            {
              "internalType": "address",
              "name": "billAddress",
              "type": "address"
            }
          ],
          "internalType": "struct IBillNft.TokenData",
          "name": "tokenData",
          "type": "tuple"
        }
      ],
      "stateMutability": "view",
      "type": "function"
    },
    {
      "inputs": [
        {
          "internalType": "address",
          "name": "owner",
          "type": "address"
        },
        {
          "internalType": "uint256",
          "name": "index",
          "type": "uint256"
        }
      ],
      "name": "tokenOfOwnerByIndex",
      "outputs": [
        {
          "internalType": "uint256",
          "name": "",
          "type": "uint256"
        }
      ],
      "stateMutability": "view",
      "type": "function"
    },
    {
      "inputs": [
        {
          "internalType": "uint256",
          "name": "tokenId",
          "type": "uint256"
        }
      ],
      "name": "tokenURI",
      "outputs": [
        {
          "internalType": "string",
          "name": "",
          "type": "string"
        }
      ],
      "stateMutability": "view",
      "type": "function"
    },
    {
      "inputs": [],
      "name": "totalSupply",
      "outputs": [
        {
          "internalType": "uint256",
          "name": "",
          "type": "uint256"
        }
      ],
      "stateMutability": "view",
      "type": "function"
    },
    {
      "inputs": [
        {
          "internalType": "address",
          "name": "from",
          "type": "address"
        },
        {
          "internalType": "address",
          "name": "to",
          "type": "address"
        },
        {
          "internalType": "uint256",
          "name": "tokenId",
          "type": "uint256"
        }
      ],
      "name": "transferFrom",
      "outputs": [],
      "stateMutability": "nonpayable",
      "type": "function"
    },
    {
      "inputs": [],
      "name": "uriLocked",
      "outputs": [
        {
          "internalType": "bool",
          "name": "",
          "type": "bool"
        }
      ],
      "stateMutability": "view",
      "type": "function"
    },
    {
      "inputs": [
        {
          "internalType": "uint256",
          "name": "tokenId",
          "type": "uint256"
        }
      ],
      "name": "vestedPayout",
      "outputs": [
        {
          "internalType": "uint256",
          "name": "payout",
          "type": "uint256"
        }
      ],
      "stateMutability": "view",
      "type": "function"
    },
    {
      "inputs": [
        {
          "internalType": "uint256",
          "name": "tokenId",
          "type": "uint256"
        },
        {
          "internalType": "uint256",
          "name": "timestamp",
          "type": "uint256"
        }
      ],
      "name": "vestedPayoutAtTime",
      "outputs": [
        {
          "internalType": "uint256",
          "name": "payout",
          "type": "uint256"
        }
      ],
      "stateMutability": "view",
      "type": "function"
    },
    {
      "inputs": [
        {
          "internalType": "uint256",
          "name": "tokenId",
          "type": "uint256"
        }
      ],
      "name": "vestingPayout",
      "outputs": [
        {
          "internalType": "uint256",
          "name": "payout",
          "type": "uint256"
        }
      ],
      "stateMutability": "view",
      "type": "function"
    },
    {
      "inputs": [
        {
          "internalType": "uint256",
          "name": "tokenId",
          "type": "uint256"
        }
      ],
      "name": "vestingPeriod",
      "outputs": [
        {
          "internalType": "uint256",
          "name": "vestingStart",
          "type": "uint256"
        },
        {
          "internalType": "uint256",
          "name": "vestingEnd",
          "type": "uint256"
        }
      ],
      "stateMutability": "view",
      "type": "function"
    }
  ],
  "bytecode": "0x6080604052610130805460ff1916905534801561001b57600080fd5b506136bd8061002b6000396000f3fe608060405234801561001057600080fd5b50600436106102bb5760003560e01c80637f34571011610182578063a22cb465116100e9578063d5391393116100a2578063d744515f1161007c578063d744515f146106a5578063db900b9d146106b8578063e985e9c5146106cb578063ee1fe2ad1461070757600080fd5b8063d53913931461066a578063d547741f1461067f578063d6d0faee1461069257600080fd5b8063a22cb465146105e1578063ada881da146105f4578063b88d4fde1461061e578063c00fdb9a14610631578063c87b56dd14610644578063ca15c8731461065757600080fd5b806391d148541161013b57806391d1485414610585578063925489a81461059857806395d89b41146105ab578063983b2d56146105b35780639e0bd808146105c6578063a217fddf146105d957600080fd5b80637f3457101461050a5780638092ca921461053157806381d0526d146105445780638b9cb90b146105575780638e021c061461056a5780639010d07c1461057257600080fd5b80632f2ff15d1161022657806342842e0e116101df57806342842e0e146104835780634f6ccce71461049657806355f804b3146104a9578063576561d2146104bc5780636352211e146104e457806370a08231146104f757600080fd5b80632f2ff15d146104045780632f745c591461041757806336568abe1461042a578063379607f51461043d5780633a52915a146104505780633bf6b0ec1461046357600080fd5b806318160ddd1161027857806318160ddd146103855780631bd424621461038d57806320c5ab6a146103ad578063231bdda3146103bb57806323b872dd146103ce578063248a9ca3146103e157600080fd5b806301ffc9a7146102c057806304a0fb17146102e857806306fdde031461031d578063081812fc14610332578063095ea7b31461035d578063162094c414610372575b600080fd5b6102d36102ce366004612b94565b61071a565b60405190151581526020015b60405180910390f35b61030f7fdfbefbf47cfe66b701d8cfdbce1de81c821590819cb07e71cb01b6602fb0ee2781565b6040519081526020016102df565b610325610754565b6040516102df9190612c01565b610345610340366004612c14565b6107e6565b6040516001600160a01b0390911681526020016102df565b61037061036b366004612c42565b61080d565b005b610370610380366004612d1a565b610927565b60fd5461030f565b6103a061039b366004612d61565b6109f0565b6040516102df9190612d96565b610130546102d39060ff1681565b6103706103c9366004612df6565b610aba565b6103706103dc366004612e38565b610b48565b61030f6103ef366004612c14565b60009081526097602052604090206001015490565b610370610412366004612e79565b610b7a565b61030f610425366004612c42565b610b9f565b610370610438366004612e79565b610c35565b61037061044b366004612c14565b610caf565b61030f61045e366004612c14565b610dc5565b610476610471366004612c42565b610e73565b6040516102df9190612ea9565b610370610491366004612e38565b610ecc565b61030f6104a4366004612c14565b610ee7565b6103706104b7366004612ec9565b610f7a565b6104cf6104ca366004612c14565b61105b565b604080519283526020830191909152016102df565b6103456104f2366004612c14565b61110c565b61030f610505366004612efe565b61116c565b61030f7f7804d923f43a17d325d77e781528e0793b2edd9890ab45fc64efd7b4b427744c81565b6103a061053f366004612efe565b6111f2565b61030f610552366004612c14565b611214565b610345610565366004612c14565b61127d565b61037061131e565b610345610580366004612f1b565b6113a9565b6102d3610593366004612e79565b6113c1565b6103706105a6366004612f3d565b6113ec565b61032561142b565b6103706105c1366004612efe565b61143a565b61030f6105d4366004612c14565b6114dc565b61030f600081565b6103706105ef366004612fb2565b611545565b610345610602366004612c14565b61012e602052600090815260409020546001600160a01b031681565b61037061062c366004612fe5565b611550565b61030f61063f366004612c14565b611582565b610325610652366004612c14565b6115eb565b61030f610665366004612c14565b6116f5565b61030f60008051602061366883398151915281565b61037061068d366004612e79565b61170c565b6103706106a0366004613065565b611731565b61030f6106b3366004612f1b565b611981565b61030f6106c6366004612c14565b611a36565b6102d36106d9366004613115565b6001600160a01b039182166000908152606a6020908152604080832093909416825291909152205460ff1690565b61030f610715366004613115565b611a42565b60006001600160e01b0319821663f8600f8b60e01b148061073f575061073f82611aae565b8061074e575061074e82611ad3565b92915050565b60606065805461076390613143565b80601f016020809104026020016040519081016040528092919081815260200182805461078f90613143565b80156107dc5780601f106107b1576101008083540402835291602001916107dc565b820191906000526020600020905b8154815290600101906020018083116107bf57829003601f168201915b5050505050905090565b60006107f182611af8565b506000908152606960205260409020546001600160a01b031690565b60006108188261110c565b9050806001600160a01b0316836001600160a01b03160361088a5760405162461bcd60e51b815260206004820152602160248201527f4552433732313a20617070726f76616c20746f2063757272656e74206f776e656044820152603960f91b60648201526084015b60405180910390fd5b336001600160a01b03821614806108a657506108a681336106d9565b6109185760405162461bcd60e51b815260206004820152603e60248201527f4552433732313a20617070726f76652063616c6c6572206973206e6f7420746f60448201527f6b656e206f776e6572206e6f7220617070726f76656420666f7220616c6c00006064820152608401610881565b6109228383611b48565b505050565b6101305460ff161561096c5760405162461bcd60e51b815260206004820152600e60248201526d2737ba103430b83832b734b7339760911b6044820152606401610881565b6109967f7804d923f43a17d325d77e781528e0793b2edd9890ab45fc64efd7b4b427744c336113c1565b6109e25760405162461bcd60e51b815260206004820152601d60248201527f42696c6c4e66743a204f6e6c79207572692073657474657220726f6c650000006044820152606401610881565b6109ec8282611bb6565b5050565b606060006109fe8484613193565b67ffffffffffffffff811115610a1657610a16612c6e565b604051908082528060200260200182016040528015610a5b57816020015b6040805180820190915260008082526020820152815260200190600190039081610a345790505b509050835b83811015610ab1576000610a748783610e73565b90508083610a828885613193565b81518110610a9257610a926131a6565b6020026020010181905250508080610aa9906131bc565b915050610a60565b50949350505050565b610ad2600080516020613668833981519152336113c1565b610b1a5760405162461bcd60e51b815260206004820152601960248201527842696c6c4e66743a204f6e6c79206d696e74657220726f6c6560381b6044820152606401610881565b60005b83811015610b4257610b2f8383611bf5565b5080610b3a816131bc565b915050610b1d565b50505050565b610b53335b82611c44565b610b6f5760405162461bcd60e51b8152600401610881906131d5565b610922838383611cc2565b600082815260976020526040902060010154610b9581611e69565b6109228383611e73565b6000610baa8361116c565b8210610c0c5760405162461bcd60e51b815260206004820152602b60248201527f455243373231456e756d657261626c653a206f776e657220696e646578206f7560448201526a74206f6620626f756e647360a81b6064820152608401610881565b506001600160a01b0391909116600090815260fb60209081526040808320938352929052205490565b6001600160a01b0381163314610ca55760405162461bcd60e51b815260206004820152602f60248201527f416363657373436f6e74726f6c3a2063616e206f6e6c792072656e6f756e636560448201526e103937b632b9903337b91039b2b63360891b6064820152608401610881565b6109ec8282611e95565b610cb833610b4d565b610cf35760405162461bcd60e51b815260206004820152600c60248201526b139bdd08185c1c1c9bdd995960a21b6044820152606401610881565b600081815261012e602052604080822054905163379607f560e01b8152600481018490526001600160a01b039091169190829063379607f5906024016020604051808303816000875af1158015610d4e573d6000803e3d6000fd5b505050506040513d601f19601f82011682018060405250810190610d729190613223565b9050610d7d8361110c565b6001600160a01b0316837fe97cee5a4c0549d3fdc81e322b718ddf0aeb3418ec87dce4f9a7fb28d117c31283604051610db891815260200190565b60405180910390a3505050565b600081610dd181611eb7565b610ded5760405162461bcd60e51b81526004016108819061323c565b600083815261012e602052604090819020549051631d2948ad60e11b8152600481018590526001600160a01b03909116908190633a52915a906024015b602060405180830381865afa158015610e47573d6000803e3d6000fd5b505050506040513d601f19601f82011682018060405250810190610e6b9190613223565b949350505050565b60408051808201909152600080825260208201526000610e938484610b9f565b600081815261012e60209081526040918290205482518084019093529282526001600160a01b0390921691810191909152949350505050565b61092283838360405180602001604052806000815250611550565b6000610ef260fd5490565b8210610f555760405162461bcd60e51b815260206004820152602c60248201527f455243373231456e756d657261626c653a20676c6f62616c20696e646578206f60448201526b7574206f6620626f756e647360a01b6064820152608401610881565b60fd8281548110610f6857610f686131a6565b90600052602060002001549050919050565b610f856000336113c1565b610fcc5760405162461bcd60e51b815260206004820152601860248201527742696c6c4e66743a204f6e6c792061646d696e20726f6c6560401b6044820152606401610881565b6101305460ff16156110115760405162461bcd60e51b815260206004820152600e60248201526d2737ba103430b83832b734b7339760911b6044820152606401610881565b61012f61101e82826132ab565b507fbc3db6020edb6553e425d2c6b885f16f8b9fe08db2e27230763ee8a6f2c32e0961012f604051611050919061336b565b60405180910390a150565b6000808261106881611eb7565b6110845760405162461bcd60e51b81526004016108819061323c565b600084815261012e602052604090819020549051632bb2b0e960e11b8152600481018690526001600160a01b0390911690819063576561d2906024016040805180830381865afa1580156110dc573d6000803e3d6000fd5b505050506040513d601f19601f8201168201806040525081019061110091906133f6565b90969095509350505050565b6000818152606760205260408120546001600160a01b03168061074e5760405162461bcd60e51b8152602060048201526018602482015277115490cdcc8c4e881a5b9d985b1a59081d1bdad95b88125160421b6044820152606401610881565b60006001600160a01b0382166111d65760405162461bcd60e51b815260206004820152602960248201527f4552433732313a2061646472657373207a65726f206973206e6f7420612076616044820152683634b21037bbb732b960b91b6064820152608401610881565b506001600160a01b031660009081526068602052604090205490565b606060006111ff8361116c565b905061120d836000836109f0565b9392505050565b60008161122081611eb7565b61123c5760405162461bcd60e51b81526004016108819061323c565b600083815261012e6020526040908190205490516381d0526d60e01b8152600481018590526001600160a01b039091169081906381d0526d90602401610e2a565b60008161128981611eb7565b6112a55760405162461bcd60e51b81526004016108819061323c565b600083815261012e602090815260409182902054825163277d415b60e11b815292516001600160a01b0390911692634efa82b69260048083019391928290030181865afa1580156112fa573d6000803e3d6000fd5b505050506040513d601f19601f8201168201806040525081019061120d919061341a565b6113296000336113c1565b6113705760405162461bcd60e51b815260206004820152601860248201527742696c6c4e66743a204f6e6c792061646d696e20726f6c6560401b6044820152606401610881565b610130805460ff191660011790556040517f9619d747a1614e9f2c546f61e7c0c75ab0fc38b67f952b2e4cdd71558dcf1fc590600090a1565b600082815260c96020526040812061120d9083611ed4565b60009182526097602090815260408084206001600160a01b0393909316845291905290205460ff1690565b8060005b81811015610b425761141984848381811061140d5761140d6131a6565b90506020020135610caf565b80611423816131bc565b9150506113f0565b60606066805461076390613143565b6114456000336113c1565b8061147557506114757fdfbefbf47cfe66b701d8cfdbce1de81c821590819cb07e71cb01b6602fb0ee27336113c1565b6114c15760405162461bcd60e51b815260206004820152601a60248201527f4f6e6c792061646d696e206f7220666163746f727920726f6c650000000000006044820152606401610881565b6114d960008051602061366883398151915282611e73565b50565b6000816114e881611eb7565b6115045760405162461bcd60e51b81526004016108819061323c565b600083815261012e6020526040908190205490516313c17b0160e31b8152600481018590526001600160a01b03909116908190639e0bd80890602401610e2a565b6109ec338383611ee0565b61155a3383611c44565b6115765760405162461bcd60e51b8152600401610881906131d5565b610b4284848484611fa6565b60008161158e81611eb7565b6115aa5760405162461bcd60e51b81526004016108819061323c565b600083815261012e602052604090819020549051636007edcd60e11b8152600481018590526001600160a01b0390911690819063c00fdb9a90602401610e2a565b60606115f682611eb7565b6116425760405162461bcd60e51b815260206004820152601f60248201527f55524920717565727920666f72206e6f6e6578697374656e7420746f6b656e006044820152606401610881565b600082815261013160205260408120805461165c90613143565b80601f016020809104026020016040519081016040528092919081815260200182805461168890613143565b80156116d55780601f106116aa576101008083540402835291602001916116d5565b820191906000526020600020905b8154815290600101906020018083116116b857829003601f168201915b505050505090506000815111156116ec5792915050565b61120d83611fd9565b600081815260c96020526040812061074e9061203f565b60008281526097602052604090206001015461172781611e69565b6109228383611e95565b600054610100900460ff16158080156117515750600054600160ff909116105b8061176b5750303b15801561176b575060005460ff166001145b6117ce5760405162461bcd60e51b815260206004820152602e60248201527f496e697469616c697a61626c653a20636f6e747261637420697320616c72656160448201526d191e481a5b9a5d1a585b1a5e995960921b6064820152608401610881565b6000805460ff1916600117905580156117f1576000805461ff0019166101001790555b6117fb8686612049565b61180361207a565b61180b61207a565b61012f61181885826132ab565b506001600160a01b03831661186f5760405162461bcd60e51b815260206004820152601c60248201527f666163746f72792063616e6e6f742062652061646472657373283029000000006044820152606401610881565b6118997fdfbefbf47cfe66b701d8cfdbce1de81c821590819cb07e71cb01b6602fb0ee27846120a3565b6001600160a01b0382166118ef5760405162461bcd60e51b815260206004820152601a60248201527f6f776e65722063616e6e6f7420626520616464726573732830290000000000006044820152606401610881565b6118fa6000836120a3565b6119247f7804d923f43a17d325d77e781528e0793b2edd9890ab45fc64efd7b4b427744c836120a3565b61193361012d80546001019055565b8015611979576000805461ff0019169055604051600181527f7f26b83ff96e1f2b6a682f133852f6798a09c465da95921460cefb38474024989060200160405180910390a15b505050505050565b60008261198d81611eb7565b6119a95760405162461bcd60e51b81526004016108819061323c565b600084815261012e60205260409081902054905163d744515f60e01b815260048101869052602481018590526001600160a01b0390911690819063d744515f90604401602060405180830381865afa158015611a09573d6000803e3d6000fd5b505050506040513d601f19601f82011682018060405250810190611a2d9190613223565b95945050505050565b600061074e8242611981565b6000611a5c600080516020613668833981519152336113c1565b611aa45760405162461bcd60e51b815260206004820152601960248201527842696c6c4e66743a204f6e6c79206d696e74657220726f6c6560381b6044820152606401610881565b61120d8383611bf5565b60006001600160e01b03198216635a05180f60e01b148061074e575061074e826120ad565b60006001600160e01b0319821663780e9d6360e01b148061074e575061074e82611aae565b611b0181611eb7565b6114d95760405162461bcd60e51b8152602060048201526018602482015277115490cdcc8c4e881a5b9d985b1a59081d1bdad95b88125160421b6044820152606401610881565b600081815260696020526040902080546001600160a01b0319166001600160a01b0384169081179091558190611b7d8261110c565b6001600160a01b03167f8c5be1e5ebec7d5bd14f71427d1e84f3dd0314c0f7b2291e5b200ac8c7c3b92560405160405180910390a45050565b81611bc081611eb7565b611bdc5760405162461bcd60e51b81526004016108819061323c565b600083815261013160205260409020610b4283826132ab565b6000611c0161012d5490565b9050611c0d83826120d2565b600081815261012e6020526040902080546001600160a01b0319166001600160a01b03841617905561012d8054600101905561074e565b600080611c508361110c565b9050806001600160a01b0316846001600160a01b03161480611c9757506001600160a01b038082166000908152606a602090815260408083209388168352929052205460ff165b80610e6b5750836001600160a01b0316611cb0846107e6565b6001600160a01b031614949350505050565b826001600160a01b0316611cd58261110c565b6001600160a01b031614611d395760405162461bcd60e51b815260206004820152602560248201527f4552433732313a207472616e736665722066726f6d20696e636f72726563742060448201526437bbb732b960d91b6064820152608401610881565b6001600160a01b038216611d9b5760405162461bcd60e51b8152602060048201526024808201527f4552433732313a207472616e7366657220746f20746865207a65726f206164646044820152637265737360e01b6064820152608401610881565b611da6838383612211565b611db1600082611b48565b6001600160a01b0383166000908152606860205260408120805460019290611dda908490613193565b90915550506001600160a01b0382166000908152606860205260408120805460019290611e08908490613437565b909155505060008181526067602052604080822080546001600160a01b0319166001600160a01b0386811691821790925591518493918716917fddf252ad1be2c89b69c2b068fc378daa952ba7f163c4a11628f55a4df523b3ef91a4505050565b6114d981336122c9565b611e7d828261232d565b600082815260c96020526040902061092290826123b3565b611e9f82826123c8565b600082815260c960205260409020610922908261242f565b6000908152606760205260409020546001600160a01b0316151590565b600061120d8383612444565b816001600160a01b0316836001600160a01b031603611f415760405162461bcd60e51b815260206004820152601960248201527f4552433732313a20617070726f766520746f2063616c6c6572000000000000006044820152606401610881565b6001600160a01b038381166000818152606a6020908152604080832094871680845294825291829020805460ff191686151590811790915591519182527f17307eab39ab6107e8899845ad3d59bd9653f200f220920489ca2b5937696c319101610db8565b611fb1848484611cc2565b611fbd8484848461246e565b610b425760405162461bcd60e51b81526004016108819061344a565b6060611fe482611af8565b6000611fee61256f565b9050600081511161200e576040518060200160405280600081525061120d565b806120188461257f565b60405160200161202992919061349c565b6040516020818303038152906040529392505050565b600061074e825490565b600054610100900460ff166120705760405162461bcd60e51b8152600401610881906134cb565b6109ec8282612680565b600054610100900460ff166120a15760405162461bcd60e51b8152600401610881906134cb565b565b6109ec8282611e73565b60006001600160e01b03198216637965db0b60e01b148061074e575061074e826126c0565b6001600160a01b0382166121285760405162461bcd60e51b815260206004820181905260248201527f4552433732313a206d696e7420746f20746865207a65726f20616464726573736044820152606401610881565b61213181611eb7565b1561217e5760405162461bcd60e51b815260206004820152601c60248201527f4552433732313a20746f6b656e20616c7265616479206d696e746564000000006044820152606401610881565b61218a60008383612211565b6001600160a01b03821660009081526068602052604081208054600192906121b3908490613437565b909155505060008181526067602052604080822080546001600160a01b0319166001600160a01b03861690811790915590518392907fddf252ad1be2c89b69c2b068fc378daa952ba7f163c4a11628f55a4df523b3ef908290a45050565b6001600160a01b03831661226c576122678160fd8054600083815260fe60205260408120829055600182018355919091527f9346ac6dd7de6b96975fec380d4d994c4c12e6a8897544f22915316cc6cca2800155565b61228f565b816001600160a01b0316836001600160a01b03161461228f5761228f8382612710565b6001600160a01b0382166122a657610922816127ad565b826001600160a01b0316826001600160a01b03161461092257610922828261285c565b6122d382826113c1565b6109ec576122eb816001600160a01b031660146128a0565b6122f68360206128a0565b604051602001612307929190613516565b60408051601f198184030181529082905262461bcd60e51b825261088191600401612c01565b61233782826113c1565b6109ec5760008281526097602090815260408083206001600160a01b03851684529091529020805460ff1916600117905561236f3390565b6001600160a01b0316816001600160a01b0316837f2f8788117e7eff1d82e926ec794901d17c78024a50270940304540a733656f0d60405160405180910390a45050565b600061120d836001600160a01b038416612a3c565b6123d282826113c1565b156109ec5760008281526097602090815260408083206001600160a01b0385168085529252808320805460ff1916905551339285917ff6391f5c32d9c69d2a47ea670b442974b53935d1edc7fd64eb21e047a839171b9190a45050565b600061120d836001600160a01b038416612a8b565b600082600001828154811061245b5761245b6131a6565b9060005260206000200154905092915050565b60006001600160a01b0384163b1561256457604051630a85bd0160e11b81526001600160a01b0385169063150b7a02906124b290339089908890889060040161358b565b6020604051808303816000875af19250505080156124ed575060408051601f3d908101601f191682019092526124ea918101906135c8565b60015b61254a573d80801561251b576040519150601f19603f3d011682016040523d82523d6000602084013e612520565b606091505b5080516000036125425760405162461bcd60e51b81526004016108819061344a565b805181602001fd5b6001600160e01b031916630a85bd0160e11b149050610e6b565b506001949350505050565b606061012f805461076390613143565b6060816000036125a65750506040805180820190915260018152600360fc1b602082015290565b8160005b81156125d057806125ba816131bc565b91506125c99050600a836135fb565b91506125aa565b60008167ffffffffffffffff8111156125eb576125eb612c6e565b6040519080825280601f01601f191660200182016040528015612615576020820181803683370190505b5090505b8415610e6b5761262a600183613193565b9150612637600a8661360f565b612642906030613437565b60f81b818381518110612657576126576131a6565b60200101906001600160f81b031916908160001a905350612679600a866135fb565b9450612619565b600054610100900460ff166126a75760405162461bcd60e51b8152600401610881906134cb565b60656126b383826132ab565b50606661092282826132ab565b60006001600160e01b031982166380ac58cd60e01b14806126f157506001600160e01b03198216635b5e139f60e01b145b8061074e57506301ffc9a760e01b6001600160e01b031983161461074e565b6000600161271d8461116c565b6127279190613193565b600083815260fc602052604090205490915080821461277a576001600160a01b038416600090815260fb60209081526040808320858452825280832054848452818420819055835260fc90915290208190555b50600091825260fc602090815260408084208490556001600160a01b03909416835260fb81528383209183525290812055565b60fd546000906127bf90600190613193565b600083815260fe602052604081205460fd80549394509092849081106127e7576127e76131a6565b906000526020600020015490508060fd8381548110612808576128086131a6565b600091825260208083209091019290925582815260fe909152604080822084905585825281205560fd80548061284057612840613623565b6001900381819060005260206000200160009055905550505050565b60006128678361116c565b6001600160a01b03909316600090815260fb60209081526040808320868452825280832085905593825260fc9052919091209190915550565b606060006128af836002613639565b6128ba906002613437565b67ffffffffffffffff8111156128d2576128d2612c6e565b6040519080825280601f01601f1916602001820160405280156128fc576020820181803683370190505b509050600360fc1b81600081518110612917576129176131a6565b60200101906001600160f81b031916908160001a905350600f60fb1b81600181518110612946576129466131a6565b60200101906001600160f81b031916908160001a905350600061296a846002613639565b612975906001613437565b90505b60018111156129ed576f181899199a1a9b1b9c1cb0b131b232b360811b85600f16601081106129a9576129a96131a6565b1a60f81b8282815181106129bf576129bf6131a6565b60200101906001600160f81b031916908160001a90535060049490941c936129e681613650565b9050612978565b50831561120d5760405162461bcd60e51b815260206004820181905260248201527f537472696e67733a20686578206c656e67746820696e73756666696369656e746044820152606401610881565b6000818152600183016020526040812054612a835750815460018181018455600084815260208082209093018490558454848252828601909352604090209190915561074e565b50600061074e565b60008181526001830160205260408120548015612b74576000612aaf600183613193565b8554909150600090612ac390600190613193565b9050818114612b28576000866000018281548110612ae357612ae36131a6565b9060005260206000200154905080876000018481548110612b0657612b066131a6565b6000918252602080832090910192909255918252600188019052604090208390555b8554869080612b3957612b39613623565b60019003818190600052602060002001600090559055856001016000868152602001908152602001600020600090556001935050505061074e565b600091505061074e565b6001600160e01b0319811681146114d957600080fd5b600060208284031215612ba657600080fd5b813561120d81612b7e565b60005b83811015612bcc578181015183820152602001612bb4565b50506000910152565b60008151808452612bed816020860160208601612bb1565b601f01601f19169290920160200192915050565b60208152600061120d6020830184612bd5565b600060208284031215612c2657600080fd5b5035919050565b6001600160a01b03811681146114d957600080fd5b60008060408385031215612c5557600080fd5b8235612c6081612c2d565b946020939093013593505050565b634e487b7160e01b600052604160045260246000fd5b600067ffffffffffffffff80841115612c9f57612c9f612c6e565b604051601f8501601f19908116603f01168101908282118183101715612cc757612cc7612c6e565b81604052809350858152868686011115612ce057600080fd5b858560208301376000602087830101525050509392505050565b600082601f830112612d0b57600080fd5b61120d83833560208501612c84565b60008060408385031215612d2d57600080fd5b82359150602083013567ffffffffffffffff811115612d4b57600080fd5b612d5785828601612cfa565b9150509250929050565b600080600060608486031215612d7657600080fd5b8335612d8181612c2d565b95602085013595506040909401359392505050565b602080825282518282018190526000919060409081850190868401855b82811015612de957612dd9848351805182526020908101516001600160a01b0316910152565b9284019290850190600101612db3565b5091979650505050505050565b600080600060608486031215612e0b57600080fd5b833592506020840135612e1d81612c2d565b91506040840135612e2d81612c2d565b809150509250925092565b600080600060608486031215612e4d57600080fd5b8335612e5881612c2d565b92506020840135612e6881612c2d565b929592945050506040919091013590565b60008060408385031215612e8c57600080fd5b823591506020830135612e9e81612c2d565b809150509250929050565b815181526020808301516001600160a01b0316908201526040810161074e565b600060208284031215612edb57600080fd5b813567ffffffffffffffff811115612ef257600080fd5b610e6b84828501612cfa565b600060208284031215612f1057600080fd5b813561120d81612c2d565b60008060408385031215612f2e57600080fd5b50508035926020909101359150565b60008060208385031215612f5057600080fd5b823567ffffffffffffffff80821115612f6857600080fd5b818501915085601f830112612f7c57600080fd5b813581811115612f8b57600080fd5b8660208260051b8501011115612fa057600080fd5b60209290920196919550909350505050565b60008060408385031215612fc557600080fd5b8235612fd081612c2d565b915060208301358015158114612e9e57600080fd5b60008060008060808587031215612ffb57600080fd5b843561300681612c2d565b9350602085013561301681612c2d565b925060408501359150606085013567ffffffffffffffff81111561303957600080fd5b8501601f8101871361304a57600080fd5b61305987823560208401612c84565b91505092959194509250565b600080600080600060a0868803121561307d57600080fd5b853567ffffffffffffffff8082111561309557600080fd5b6130a189838a01612cfa565b965060208801359150808211156130b757600080fd5b6130c389838a01612cfa565b955060408801359150808211156130d957600080fd5b506130e688828901612cfa565b93505060608601356130f781612c2d565b9150608086013561310781612c2d565b809150509295509295909350565b6000806040838503121561312857600080fd5b823561313381612c2d565b91506020830135612e9e81612c2d565b600181811c9082168061315757607f821691505b60208210810361317757634e487b7160e01b600052602260045260246000fd5b50919050565b634e487b7160e01b600052601160045260246000fd5b8181038181111561074e5761074e61317d565b634e487b7160e01b600052603260045260246000fd5b6000600182016131ce576131ce61317d565b5060010190565b6020808252602e908201527f4552433732313a2063616c6c6572206973206e6f7420746f6b656e206f776e6560408201526d1c881b9bdc88185c1c1c9bdd995960921b606082015260800190565b60006020828403121561323557600080fd5b5051919050565b6020808252600f908201526e125b9d985b1a59081d1bdad95b9259608a1b604082015260600190565b601f82111561092257600081815260208120601f850160051c8101602086101561328c5750805b601f850160051c820191505b8181101561197957828155600101613298565b815167ffffffffffffffff8111156132c5576132c5612c6e565b6132d9816132d38454613143565b84613265565b602080601f83116001811461330e57600084156132f65750858301515b600019600386901b1c1916600185901b178555611979565b600085815260208120601f198616915b8281101561333d5788860151825594840194600190910190840161331e565b508582101561335b5787850151600019600388901b60f8161c191681555b5050505050600190811b01905550565b600060208083526000845461337f81613143565b808487015260406001808416600081146133a057600181146133ba576133e8565b60ff1985168984015283151560051b8901830195506133e8565b896000528660002060005b858110156133e05781548b82018601529083019088016133c5565b8a0184019650505b509398975050505050505050565b6000806040838503121561340957600080fd5b505080516020909101519092909150565b60006020828403121561342c57600080fd5b815161120d81612c2d565b8082018082111561074e5761074e61317d565b60208082526032908201527f4552433732313a207472616e7366657220746f206e6f6e20455243373231526560408201527131b2b4bb32b91034b6b83632b6b2b73a32b960711b606082015260800190565b600083516134ae818460208801612bb1565b8351908301906134c2818360208801612bb1565b01949350505050565b6020808252602b908201527f496e697469616c697a61626c653a20636f6e7472616374206973206e6f74206960408201526a6e697469616c697a696e6760a81b606082015260800190565b7f416363657373436f6e74726f6c3a206163636f756e742000000000000000000081526000835161354e816017850160208801612bb1565b7001034b99036b4b9b9b4b733903937b6329607d1b601791840191820152835161357f816028840160208801612bb1565b01602801949350505050565b6001600160a01b03858116825284166020820152604081018390526080606082018190526000906135be90830184612bd5565b9695505050505050565b6000602082840312156135da57600080fd5b815161120d81612b7e565b634e487b7160e01b600052601260045260246000fd5b60008261360a5761360a6135e5565b500490565b60008261361e5761361e6135e5565b500690565b634e487b7160e01b600052603160045260246000fd5b808202811582820484141761074e5761074e61317d565b60008161365f5761365f61317d565b50600019019056fe9f2df0fed2c77648de5860a4cc508cd0818c85b8b8a1ab4ceeef8d981c8956a6a2646970667358221220016186b9b3ce3119ce450742d7a381ec0556099d8bb5ab2b6cd22d6624fd31df64736f6c63430008110033",
  "linkReferences": {},
  "deployedLinkReferences": {}
}