{
  "_format": "hh-sol-artifact-1",
  "contractName": "CustomBillRefillable",
  "sourceName": "contracts/CustomBillRefillable.sol",
  "abi": [
    {
      "anonymous": false,
      "inputs": [
        {
          "indexed": true,
          "internalType": "uint256",
          "name": "billId",
          "type": "uint256"
        },
        {
          "indexed": true,
          "internalType": "address",
          "name": "recipient",
          "type": "address"
        },
        {
          "indexed": false,
          "internalType": "uint256",
          "name": "payout",
          "type": "uint256"
        },
        {
          "indexed": false,
          "internalType": "uint256",
          "name": "remaining",
          "type": "uint256"
        }
      ],
      "name": "BillClaimed",
      "type": "event"
    },
    {
      "anonymous": false,
      "inputs": [
        {
          "indexed": false,
          "internalType": "uint256",
          "name": "deposit",
          "type": "uint256"
        },
        {
          "indexed": false,
          "internalType": "uint256",
          "name": "payout",
          "type": "uint256"
        },
        {
          "indexed": false,
          "internalType": "uint256",
          "name": "expires",
          "type": "uint256"
        },
        {
          "indexed": true,
          "internalType": "uint256",
          "name": "billId",
          "type": "uint256"
        }
      ],
      "name": "BillCreated",
      "type": "event"
    },
    {
      "anonymous": false,
      "inputs": [
        {
          "components": [
            {
              "internalType": "uint256",
              "name": "controlVariable",
              "type": "uint256"
            },
            {
              "internalType": "uint256",
              "name": "vestingTerm",
              "type": "uint256"
            },
            {
              "internalType": "uint256",
              "name": "minimumPrice",
              "type": "uint256"
            },
            {
              "internalType": "uint256",
              "name": "maxPayout",
              "type": "uint256"
            },
            {
              "internalType": "uint256",
              "name": "maxDebt",
              "type": "uint256"
            },
            {
              "internalType": "uint256",
              "name": "maxTotalPayout",
              "type": "uint256"
            },
            {
              "internalType": "uint256",
              "name": "initialDebt",
              "type": "uint256"
            }
          ],
          "indexed": false,
          "internalType": "struct ICustomBill.BillTerms",
          "name": "billTerms",
          "type": "tuple"
        },
        {
          "indexed": false,
          "internalType": "uint256",
          "name": "lastDecay",
          "type": "uint256"
        }
      ],
      "name": "BillInitialized",
      "type": "event"
    },
    {
      "anonymous": false,
      "inputs": [
        {
          "indexed": false,
          "internalType": "uint256",
          "name": "internalPrice",
          "type": "uint256"
        },
        {
          "indexed": false,
          "internalType": "uint256",
          "name": "debtRatio",
          "type": "uint256"
        }
      ],
      "name": "BillPriceChanged",
      "type": "event"
    },
    {
      "anonymous": false,
      "inputs": [
        {
          "indexed": false,
          "internalType": "address",
          "name": "payoutToken",
          "type": "address"
        },
        {
          "indexed": false,
          "internalType": "uint256",
          "name": "amountAdded",
          "type": "uint256"
        }
      ],
      "name": "BillRefilled",
      "type": "event"
    },
    {
      "anonymous": false,
      "inputs": [
        {
          "indexed": false,
          "internalType": "uint256",
          "name": "initialBCV",
          "type": "uint256"
        },
        {
          "indexed": false,
          "internalType": "uint256",
          "name": "newBCV",
          "type": "uint256"
        },
        {
          "indexed": false,
          "internalType": "uint256",
          "name": "adjustment",
          "type": "uint256"
        }
      ],
      "name": "ControlVariableAdjustment",
      "type": "event"
    },
    {
      "anonymous": false,
      "inputs": [
        {
          "indexed": true,
          "internalType": "address",
          "name": "newFeeTo",
          "type": "address"
        }
      ],
      "name": "FeeToChanged",
      "type": "event"
    },
    {
      "anonymous": false,
      "inputs": [
        {
          "indexed": false,
          "internalType": "uint8",
          "name": "version",
          "type": "uint8"
        }
      ],
      "name": "Initialized",
      "type": "event"
    },
    {
      "anonymous": false,
      "inputs": [
        {
          "indexed": false,
          "internalType": "uint256",
          "name": "newMaxTotalPayout",
          "type": "uint256"
        }
      ],
      "name": "MaxTotalPayoutChanged",
      "type": "event"
    },
    {
      "anonymous": false,
      "inputs": [
        {
          "indexed": true,
          "internalType": "address",
          "name": "previousOwner",
          "type": "address"
        },
        {
          "indexed": true,
          "internalType": "address",
          "name": "newOwner",
          "type": "address"
        }
      ],
      "name": "OwnershipTransferred",
      "type": "event"
    },
    {
      "anonymous": false,
      "inputs": [
        {
          "indexed": true,
          "internalType": "bytes32",
          "name": "role",
          "type": "bytes32"
        },
        {
          "indexed": true,
          "internalType": "bytes32",
          "name": "previousAdminRole",
          "type": "bytes32"
        },
        {
          "indexed": true,
          "internalType": "bytes32",
          "name": "newAdminRole",
          "type": "bytes32"
        }
      ],
      "name": "RoleAdminChanged",
      "type": "event"
    },
    {
      "anonymous": false,
      "inputs": [
        {
          "indexed": true,
          "internalType": "bytes32",
          "name": "role",
          "type": "bytes32"
        },
        {
          "indexed": true,
          "internalType": "address",
          "name": "account",
          "type": "address"
        },
        {
          "indexed": true,
          "internalType": "address",
          "name": "sender",
          "type": "address"
        }
      ],
      "name": "RoleGranted",
      "type": "event"
    },
    {
      "anonymous": false,
      "inputs": [
        {
          "indexed": true,
          "internalType": "bytes32",
          "name": "role",
          "type": "bytes32"
        },
        {
          "indexed": true,
          "internalType": "address",
          "name": "account",
          "type": "address"
        },
        {
          "indexed": true,
          "internalType": "address",
          "name": "sender",
          "type": "address"
        }
      ],
      "name": "RoleRevoked",
      "type": "event"
    },
    {
      "anonymous": false,
      "inputs": [
        {
          "indexed": false,
          "internalType": "uint256",
          "name": "currentBCV",
          "type": "uint256"
        },
        {
          "indexed": false,
          "internalType": "uint256",
          "name": "increment",
          "type": "uint256"
        },
        {
          "indexed": false,
          "internalType": "uint256",
          "name": "targetBCV",
          "type": "uint256"
        },
        {
          "indexed": false,
          "internalType": "uint256",
          "name": "buffer",
          "type": "uint256"
        }
      ],
      "name": "SetAdjustment",
      "type": "event"
    },
    {
      "anonymous": false,
      "inputs": [
        {
          "indexed": false,
          "internalType": "uint256[]",
          "name": "fees",
          "type": "uint256[]"
        },
        {
          "indexed": false,
          "internalType": "uint256[]",
          "name": "tierCeilings",
          "type": "uint256[]"
        }
      ],
      "name": "SetFees",
      "type": "event"
    },
    {
      "anonymous": false,
      "inputs": [
        {
          "indexed": true,
          "internalType": "address",
          "name": "pendingOwner",
          "type": "address"
        }
      ],
      "name": "SetPendingOwner",
      "type": "event"
    },
    {
      "anonymous": false,
      "inputs": [
        {
          "indexed": false,
          "internalType": "enum CustomBill.PARAMETER",
          "name": "parameter",
          "type": "uint8"
        },
        {
          "indexed": false,
          "internalType": "uint256",
          "name": "input",
          "type": "uint256"
        }
      ],
      "name": "TermsSet",
      "type": "event"
    },
    {
      "anonymous": false,
      "inputs": [
        {
          "indexed": true,
          "internalType": "address",
          "name": "owner",
          "type": "address"
        },
        {
          "indexed": true,
          "internalType": "address",
          "name": "approvedAccount",
          "type": "address"
        },
        {
          "indexed": false,
          "internalType": "bool",
          "name": "approved",
          "type": "bool"
        }
      ],
      "name": "UpdateClaimApproval",
      "type": "event"
    },
    {
      "inputs": [],
      "name": "DAO",
      "outputs": [
        {
          "internalType": "address",
          "name": "",
          "type": "address"
        }
      ],
      "stateMutability": "view",
      "type": "function"
    },
    {
      "inputs": [],
      "name": "DEFAULT_ADMIN_ROLE",
      "outputs": [
        {
          "internalType": "bytes32",
          "name": "",
          "type": "bytes32"
        }
      ],
      "stateMutability": "view",
      "type": "function"
    },
    {
      "inputs": [],
      "name": "MAX_FEE",
      "outputs": [
        {
          "internalType": "uint256",
          "name": "",
          "type": "uint256"
        }
      ],
      "stateMutability": "view",
      "type": "function"
    },
    {
      "inputs": [],
      "name": "REFILL_ROLE",
      "outputs": [
        {
          "internalType": "bytes32",
          "name": "",
          "type": "bytes32"
        }
      ],
      "stateMutability": "view",
      "type": "function"
    },
    {
      "inputs": [],
      "name": "acceptOwnership",
      "outputs": [],
      "stateMutability": "nonpayable",
      "type": "function"
    },
    {
      "inputs": [],
      "name": "adjustment",
      "outputs": [
        {
          "internalType": "uint256",
          "name": "rate",
          "type": "uint256"
        },
        {
          "internalType": "uint256",
          "name": "target",
          "type": "uint256"
        },
        {
          "internalType": "uint256",
          "name": "buffer",
          "type": "uint256"
        },
        {
          "internalType": "uint256",
          "name": "lastAdjustmentTimestamp",
          "type": "uint256"
        }
      ],
      "stateMutability": "view",
      "type": "function"
    },
    {
      "inputs": [],
      "name": "allIssuedBillIds",
      "outputs": [
        {
          "internalType": "uint256[]",
          "name": "",
          "type": "uint256[]"
        }
      ],
      "stateMutability": "view",
      "type": "function"
    },
    {
      "inputs": [
        {
          "internalType": "uint256[]",
          "name": "_billIds",
          "type": "uint256[]"
        }
      ],
      "name": "batchClaim",
      "outputs": [
        {
          "internalType": "uint256",
          "name": "payout",
          "type": "uint256"
        }
      ],
      "stateMutability": "nonpayable",
      "type": "function"
    },
    {
      "inputs": [
        {
          "internalType": "uint256[]",
          "name": "_billIds",
          "type": "uint256[]"
        }
      ],
      "name": "batchRedeem",
      "outputs": [
        {
          "internalType": "uint256",
          "name": "payout",
          "type": "uint256"
        }
      ],
      "stateMutability": "nonpayable",
      "type": "function"
    },
    {
      "inputs": [
        {
          "internalType": "uint256",
          "name": "",
          "type": "uint256"
        }
      ],
      "name": "billInfo",
      "outputs": [
        {
          "internalType": "uint256",
          "name": "payout",
          "type": "uint256"
        },
        {
          "internalType": "uint256",
          "name": "payoutClaimed",
          "type": "uint256"
        },
        {
          "internalType": "uint256",
          "name": "vesting",
          "type": "uint256"
        },
        {
          "internalType": "uint256",
          "name": "vestingTerm",
          "type": "uint256"
        },
        {
          "internalType": "uint256",
          "name": "vestingStartTimestamp",
          "type": "uint256"
        },
        {
          "internalType": "uint256",
          "name": "lastClaimTimestamp",
          "type": "uint256"
        },
        {
          "internalType": "uint256",
          "name": "truePricePaid",
          "type": "uint256"
        }
      ],
      "stateMutability": "view",
      "type": "function"
    },
    {
      "inputs": [],
      "name": "billNft",
      "outputs": [
        {
          "internalType": "contract IBillNft",
          "name": "",
          "type": "address"
        }
      ],
      "stateMutability": "view",
      "type": "function"
    },
    {
      "inputs": [],
      "name": "billPrice",
      "outputs": [
        {
          "internalType": "uint256",
          "name": "price_",
          "type": "uint256"
        }
      ],
      "stateMutability": "view",
      "type": "function"
    },
    {
      "inputs": [
        {
          "internalType": "address",
          "name": "_feeTo",
          "type": "address"
        }
      ],
      "name": "changeFeeTo",
      "outputs": [],
      "stateMutability": "nonpayable",
      "type": "function"
    },
    {
      "inputs": [
        {
          "internalType": "uint256",
          "name": "_billId",
          "type": "uint256"
        }
      ],
      "name": "claim",
      "outputs": [
        {
          "internalType": "uint256",
          "name": "",
          "type": "uint256"
        }
      ],
      "stateMutability": "nonpayable",
      "type": "function"
    },
    {
      "inputs": [
        {
          "internalType": "uint256",
          "name": "_billId",
          "type": "uint256"
        }
      ],
      "name": "claimablePayout",
      "outputs": [
        {
          "internalType": "uint256",
          "name": "claimablePayout_",
          "type": "uint256"
        }
      ],
      "stateMutability": "view",
      "type": "function"
    },
    {
      "inputs": [],
      "name": "currentDebt",
      "outputs": [
        {
          "internalType": "uint256",
          "name": "",
          "type": "uint256"
        }
      ],
      "stateMutability": "view",
      "type": "function"
    },
    {
      "inputs": [],
      "name": "currentFee",
      "outputs": [
        {
          "internalType": "uint256",
          "name": "currentFee_",
          "type": "uint256"
        }
      ],
      "stateMutability": "view",
      "type": "function"
    },
    {
      "inputs": [],
      "name": "customTreasury",
      "outputs": [
        {
          "internalType": "contract ICustomTreasury",
          "name": "",
          "type": "address"
        }
      ],
      "stateMutability": "view",
      "type": "function"
    },
    {
      "inputs": [],
      "name": "debtDecay",
      "outputs": [
        {
          "internalType": "uint256",
          "name": "decay_",
          "type": "uint256"
        }
      ],
      "stateMutability": "view",
      "type": "function"
    },
    {
      "inputs": [],
      "name": "debtRatio",
      "outputs": [
        {
          "internalType": "uint256",
          "name": "debtRatio_",
          "type": "uint256"
        }
      ],
      "stateMutability": "view",
      "type": "function"
    },
    {
      "inputs": [
        {
          "internalType": "uint256",
          "name": "_amount",
          "type": "uint256"
        },
        {
          "internalType": "uint256",
          "name": "_maxPrice",
          "type": "uint256"
        },
        {
          "internalType": "address",
          "name": "_depositor",
          "type": "address"
        }
      ],
      "name": "deposit",
      "outputs": [
        {
          "internalType": "uint256",
          "name": "",
          "type": "uint256"
        }
      ],
      "stateMutability": "nonpayable",
      "type": "function"
    },
    {
      "inputs": [],
      "name": "feeInPayout",
      "outputs": [
        {
          "internalType": "bool",
          "name": "",
          "type": "bool"
        }
      ],
      "stateMutability": "view",
      "type": "function"
    },
    {
      "inputs": [
        {
          "internalType": "uint256",
          "name": "",
          "type": "uint256"
        }
      ],
      "name": "feeTiers",
      "outputs": [
        {
          "internalType": "uint256",
          "name": "tierCeilings",
          "type": "uint256"
        },
        {
          "internalType": "uint256",
          "name": "fees",
          "type": "uint256"
        }
      ],
      "stateMutability": "view",
      "type": "function"
    },
    {
      "inputs": [],
      "name": "feeTo",
      "outputs": [
        {
          "internalType": "address",
          "name": "",
          "type": "address"
        }
      ],
      "stateMutability": "view",
      "type": "function"
    },
    {
      "inputs": [
        {
          "internalType": "address",
          "name": "user",
          "type": "address"
        }
      ],
      "name": "getBillIds",
      "outputs": [
        {
          "internalType": "uint256[]",
          "name": "",
          "type": "uint256[]"
        }
      ],
      "stateMutability": "view",
      "type": "function"
    },
    {
      "inputs": [
        {
          "internalType": "address",
          "name": "user",
          "type": "address"
        },
        {
          "internalType": "uint256",
          "name": "start",
          "type": "uint256"
        },
        {
          "internalType": "uint256",
          "name": "end",
          "type": "uint256"
        }
      ],
      "name": "getBillIdsInRange",
      "outputs": [
        {
          "internalType": "uint256[]",
          "name": "",
          "type": "uint256[]"
        }
      ],
      "stateMutability": "view",
      "type": "function"
    },
    {
      "inputs": [
        {
          "internalType": "uint256",
          "name": "billId",
          "type": "uint256"
        }
      ],
      "name": "getBillInfo",
      "outputs": [
        {
          "components": [
            {
              "internalType": "uint256",
              "name": "payout",
              "type": "uint256"
            },
            {
              "internalType": "uint256",
              "name": "payoutClaimed",
              "type": "uint256"
            },
            {
              "internalType": "uint256",
              "name": "vesting",
              "type": "uint256"
            },
            {
              "internalType": "uint256",
              "name": "vestingTerm",
              "type": "uint256"
            },
            {
              "internalType": "uint256",
              "name": "vestingStartTimestamp",
              "type": "uint256"
            },
            {
              "internalType": "uint256",
              "name": "lastClaimTimestamp",
              "type": "uint256"
            },
            {
              "internalType": "uint256",
              "name": "truePricePaid",
              "type": "uint256"
            }
          ],
          "internalType": "struct ICustomBill.Bill",
          "name": "",
          "type": "tuple"
        }
      ],
      "stateMutability": "view",
      "type": "function"
    },
    {
      "inputs": [],
      "name": "getFeeTierLength",
      "outputs": [
        {
          "internalType": "uint256",
          "name": "tierLength_",
          "type": "uint256"
        }
      ],
      "stateMutability": "view",
      "type": "function"
    },
    {
      "inputs": [],
      "name": "getMaxTotalPayout",
      "outputs": [
        {
          "internalType": "uint256",
          "name": "",
          "type": "uint256"
        }
      ],
      "stateMutability": "view",
      "type": "function"
    },
    {
      "inputs": [
        {
          "internalType": "bytes32",
          "name": "role",
          "type": "bytes32"
        }
      ],
      "name": "getRoleAdmin",
      "outputs": [
        {
          "internalType": "bytes32",
          "name": "",
          "type": "bytes32"
        }
      ],
      "stateMutability": "view",
      "type": "function"
    },
    {
      "inputs": [
        {
          "internalType": "bytes32",
          "name": "role",
          "type": "bytes32"
        },
        {
          "internalType": "uint256",
          "name": "index",
          "type": "uint256"
        }
      ],
      "name": "getRoleMember",
      "outputs": [
        {
          "internalType": "address",
          "name": "",
          "type": "address"
        }
      ],
      "stateMutability": "view",
      "type": "function"
    },
    {
      "inputs": [
        {
          "internalType": "bytes32",
          "name": "role",
          "type": "bytes32"
        }
      ],
      "name": "getRoleMemberCount",
      "outputs": [
        {
          "internalType": "uint256",
          "name": "",
          "type": "uint256"
        }
      ],
      "stateMutability": "view",
      "type": "function"
    },
    {
      "inputs": [
        {
          "internalType": "address[]",
          "name": "_billRefillers",
          "type": "address[]"
        }
      ],
      "name": "grantRefillRole",
      "outputs": [],
      "stateMutability": "nonpayable",
      "type": "function"
    },
    {
      "inputs": [
        {
          "internalType": "bytes32",
          "name": "role",
          "type": "bytes32"
        },
        {
          "internalType": "address",
          "name": "account",
          "type": "address"
        }
      ],
      "name": "grantRole",
      "outputs": [],
      "stateMutability": "nonpayable",
      "type": "function"
    },
    {
      "inputs": [
        {
          "internalType": "bytes32",
          "name": "role",
          "type": "bytes32"
        },
        {
          "internalType": "address",
          "name": "account",
          "type": "address"
        }
      ],
      "name": "hasRole",
      "outputs": [
        {
          "internalType": "bool",
          "name": "",
          "type": "bool"
        }
      ],
      "stateMutability": "view",
      "type": "function"
    },
    {
      "inputs": [
        {
          "internalType": "contract ICustomTreasury",
          "name": "_customTreasury",
          "type": "address"
        },
        {
          "components": [
            {
              "internalType": "address",
              "name": "payoutToken",
              "type": "address"
            },
            {
              "internalType": "address",
              "name": "principalToken",
              "type": "address"
            },
            {
              "internalType": "address",
              "name": "initialOwner",
              "type": "address"
            },
            {
              "internalType": "contract IVestingCurve",
              "name": "vestingCurve",
              "type": "address"
            },
            {
              "internalType": "uint256[]",
              "name": "tierCeilings",
              "type": "uint256[]"
            },
            {
              "internalType": "uint256[]",
              "name": "fees",
              "type": "uint256[]"
            },
            {
              "internalType": "bool",
              "name": "feeInPayout",
              "type": "bool"
            }
          ],
          "internalType": "struct ICustomBill.BillCreationDetails",
          "name": "_billCreationDetails",
          "type": "tuple"
        },
        {
          "components": [
            {
              "internalType": "uint256",
              "name": "controlVariable",
              "type": "uint256"
            },
            {
              "internalType": "uint256",
              "name": "vestingTerm",
              "type": "uint256"
            },
            {
              "internalType": "uint256",
              "name": "minimumPrice",
              "type": "uint256"
            },
            {
              "internalType": "uint256",
              "name": "maxPayout",
              "type": "uint256"
            },
            {
              "internalType": "uint256",
              "name": "maxDebt",
              "type": "uint256"
            },
            {
              "internalType": "uint256",
              "name": "maxTotalPayout",
              "type": "uint256"
            },
            {
              "internalType": "uint256",
              "name": "initialDebt",
              "type": "uint256"
            }
          ],
          "internalType": "struct ICustomBill.BillTerms",
          "name": "_billTerms",
          "type": "tuple"
        },
        {
          "components": [
            {
              "internalType": "address",
              "name": "feeTo",
              "type": "address"
            },
            {
              "internalType": "address",
              "name": "DAO",
              "type": "address"
            },
            {
              "internalType": "address",
              "name": "billNft",
              "type": "address"
            }
          ],
          "internalType": "struct ICustomBill.BillAccounts",
          "name": "_billAccounts",
          "type": "tuple"
        },
        {
          "internalType": "address[]",
          "name": "_billRefillers",
          "type": "address[]"
        }
      ],
      "name": "initialize",
      "outputs": [],
      "stateMutability": "nonpayable",
      "type": "function"
    },
    {
      "inputs": [
        {
          "internalType": "contract ICustomTreasury",
          "name": "_customTreasury",
          "type": "address"
        },
        {
          "components": [
            {
              "internalType": "address",
              "name": "payoutToken",
              "type": "address"
            },
            {
              "internalType": "address",
              "name": "principalToken",
              "type": "address"
            },
            {
              "internalType": "address",
              "name": "initialOwner",
              "type": "address"
            },
            {
              "internalType": "contract IVestingCurve",
              "name": "vestingCurve",
              "type": "address"
            },
            {
              "internalType": "uint256[]",
              "name": "tierCeilings",
              "type": "uint256[]"
            },
            {
              "internalType": "uint256[]",
              "name": "fees",
              "type": "uint256[]"
            },
            {
              "internalType": "bool",
              "name": "feeInPayout",
              "type": "bool"
            }
          ],
          "internalType": "struct ICustomBill.BillCreationDetails",
          "name": "_billCreationDetails",
          "type": "tuple"
        },
        {
          "components": [
            {
              "internalType": "uint256",
              "name": "controlVariable",
              "type": "uint256"
            },
            {
              "internalType": "uint256",
              "name": "vestingTerm",
              "type": "uint256"
            },
            {
              "internalType": "uint256",
              "name": "minimumPrice",
              "type": "uint256"
            },
            {
              "internalType": "uint256",
              "name": "maxPayout",
              "type": "uint256"
            },
            {
              "internalType": "uint256",
              "name": "maxDebt",
              "type": "uint256"
            },
            {
              "internalType": "uint256",
              "name": "maxTotalPayout",
              "type": "uint256"
            },
            {
              "internalType": "uint256",
              "name": "initialDebt",
              "type": "uint256"
            }
          ],
          "internalType": "struct ICustomBill.BillTerms",
          "name": "_billTerms",
          "type": "tuple"
        },
        {
          "components": [
            {
              "internalType": "address",
              "name": "feeTo",
              "type": "address"
            },
            {
              "internalType": "address",
              "name": "DAO",
              "type": "address"
            },
            {
              "internalType": "address",
              "name": "billNft",
              "type": "address"
            }
          ],
          "internalType": "struct ICustomBill.BillAccounts",
          "name": "_billAccounts",
          "type": "tuple"
        }
      ],
      "name": "initialize",
      "outputs": [],
      "stateMutability": "nonpayable",
      "type": "function"
    },
    {
      "inputs": [],
      "name": "lastDecay",
      "outputs": [
        {
          "internalType": "uint256",
          "name": "",
          "type": "uint256"
        }
      ],
      "stateMutability": "view",
      "type": "function"
    },
    {
      "inputs": [],
      "name": "maxPayout",
      "outputs": [
        {
          "internalType": "uint256",
          "name": "",
          "type": "uint256"
        }
      ],
      "stateMutability": "view",
      "type": "function"
    },
    {
      "inputs": [],
      "name": "owner",
      "outputs": [
        {
          "internalType": "address",
          "name": "",
          "type": "address"
        }
      ],
      "stateMutability": "view",
      "type": "function"
    },
    {
      "inputs": [
        {
          "internalType": "uint256",
          "name": "_amount",
          "type": "uint256"
        }
      ],
      "name": "payoutFor",
      "outputs": [
        {
          "internalType": "uint256",
          "name": "_payout",
          "type": "uint256"
        },
        {
          "internalType": "uint256",
          "name": "_fee",
          "type": "uint256"
        }
      ],
      "stateMutability": "view",
      "type": "function"
    },
    {
      "inputs": [],
      "name": "payoutToken",
      "outputs": [
        {
          "internalType": "contract IERC20MetadataUpgradeable",
          "name": "",
          "type": "address"
        }
      ],
      "stateMutability": "view",
      "type": "function"
    },
    {
      "inputs": [],
      "name": "pendingOwner",
      "outputs": [
        {
          "internalType": "address",
          "name": "",
          "type": "address"
        }
      ],
      "stateMutability": "view",
      "type": "function"
    },
    {
      "inputs": [
        {
          "internalType": "uint256",
          "name": "_billId",
          "type": "uint256"
        }
      ],
      "name": "pendingPayout",
      "outputs": [
        {
          "internalType": "uint256",
          "name": "pendingPayout_",
          "type": "uint256"
        }
      ],
      "stateMutability": "view",
      "type": "function"
    },
    {
      "inputs": [
        {
          "internalType": "uint256",
          "name": "_billId",
          "type": "uint256"
        }
      ],
      "name": "pendingVesting",
      "outputs": [
        {
          "internalType": "uint256",
          "name": "pendingVesting_",
          "type": "uint256"
        }
      ],
      "stateMutability": "view",
      "type": "function"
    },
    {
      "inputs": [],
      "name": "principalToken",
      "outputs": [
        {
          "internalType": "contract IERC20MetadataUpgradeable",
          "name": "",
          "type": "address"
        }
      ],
      "stateMutability": "view",
      "type": "function"
    },
    {
      "inputs": [
        {
          "internalType": "uint256",
          "name": "_billId",
          "type": "uint256"
        }
      ],
      "name": "redeem",
      "outputs": [
        {
          "internalType": "uint256",
          "name": "",
          "type": "uint256"
        }
      ],
      "stateMutability": "nonpayable",
      "type": "function"
    },
    {
      "inputs": [
        {
          "internalType": "address",
          "name": "",
          "type": "address"
        },
        {
          "internalType": "address",
          "name": "",
          "type": "address"
        }
      ],
      "name": "redeemerApproved",
      "outputs": [
        {
          "internalType": "bool",
          "name": "",
          "type": "bool"
        }
      ],
      "stateMutability": "view",
      "type": "function"
    },
    {
      "inputs": [
        {
          "internalType": "uint256",
          "name": "_refillAmount",
          "type": "uint256"
        }
      ],
      "name": "refillPayoutToken",
      "outputs": [],
      "stateMutability": "nonpayable",
      "type": "function"
    },
    {
      "inputs": [],
      "name": "renounceOwnership",
      "outputs": [],
      "stateMutability": "nonpayable",
      "type": "function"
    },
    {
      "inputs": [
        {
          "internalType": "bytes32",
          "name": "role",
          "type": "bytes32"
        },
        {
          "internalType": "address",
          "name": "account",
          "type": "address"
        }
      ],
      "name": "renounceRole",
      "outputs": [],
      "stateMutability": "nonpayable",
      "type": "function"
    },
    {
      "inputs": [
        {
          "internalType": "address[]",
          "name": "_billRefillers",
          "type": "address[]"
        }
      ],
      "name": "revokeRefillRole",
      "outputs": [],
      "stateMutability": "nonpayable",
      "type": "function"
    },
    {
      "inputs": [
        {
          "internalType": "bytes32",
          "name": "role",
          "type": "bytes32"
        },
        {
          "internalType": "address",
          "name": "account",
          "type": "address"
        }
      ],
      "name": "revokeRole",
      "outputs": [],
      "stateMutability": "nonpayable",
      "type": "function"
    },
    {
      "inputs": [
        {
          "internalType": "uint256",
          "name": "_rate",
          "type": "uint256"
        },
        {
          "internalType": "uint256",
          "name": "_target",
          "type": "uint256"
        },
        {
          "internalType": "uint256",
          "name": "_buffer",
          "type": "uint256"
        }
      ],
      "name": "setAdjustment",
      "outputs": [],
      "stateMutability": "nonpayable",
      "type": "function"
    },
    {
      "inputs": [
        {
          "internalType": "enum CustomBill.PARAMETER",
          "name": "_parameter",
          "type": "uint8"
        },
        {
          "internalType": "uint256",
          "name": "_input",
          "type": "uint256"
        }
      ],
      "name": "setBillTerms",
      "outputs": [],
      "stateMutability": "nonpayable",
      "type": "function"
    },
    {
      "inputs": [
        {
          "internalType": "address",
          "name": "approvedAccount",
          "type": "address"
        },
        {
          "internalType": "bool",
          "name": "approved",
          "type": "bool"
        }
      ],
      "name": "setClaimApproval",
      "outputs": [],
      "stateMutability": "nonpayable",
      "type": "function"
    },
    {
      "inputs": [
        {
          "internalType": "uint256[]",
          "name": "fees",
          "type": "uint256[]"
        },
        {
          "internalType": "uint256[]",
          "name": "tierCeilings",
          "type": "uint256[]"
        }
      ],
      "name": "setFeeTiers",
      "outputs": [],
      "stateMutability": "nonpayable",
      "type": "function"
    },
    {
      "inputs": [
        {
          "internalType": "uint256",
          "name": "_maxTotalPayout",
          "type": "uint256"
        }
      ],
      "name": "setMaxTotalPayout",
      "outputs": [],
      "stateMutability": "nonpayable",
      "type": "function"
    },
    {
      "inputs": [
        {
          "internalType": "address",
          "name": "newPendingOwner",
          "type": "address"
        }
      ],
      "name": "setPendingOwner",
      "outputs": [],
      "stateMutability": "nonpayable",
      "type": "function"
    },
    {
      "inputs": [
        {
          "internalType": "bytes4",
          "name": "interfaceId",
          "type": "bytes4"
        }
      ],
      "name": "supportsInterface",
      "outputs": [
        {
          "internalType": "bool",
          "name": "",
          "type": "bool"
        }
      ],
      "stateMutability": "view",
      "type": "function"
    },
    {
      "inputs": [],
      "name": "terms",
      "outputs": [
        {
          "internalType": "uint256",
          "name": "controlVariable",
          "type": "uint256"
        },
        {
          "internalType": "uint256",
          "name": "vestingTerm",
          "type": "uint256"
        },
        {
          "internalType": "uint256",
          "name": "minimumPrice",
          "type": "uint256"
        },
        {
          "internalType": "uint256",
          "name": "maxPayout",
          "type": "uint256"
        },
        {
          "internalType": "uint256",
          "name": "maxDebt",
          "type": "uint256"
        },
        {
          "internalType": "uint256",
          "name": "maxTotalPayout",
          "type": "uint256"
        },
        {
          "internalType": "uint256",
          "name": "initialDebt",
          "type": "uint256"
        }
      ],
      "stateMutability": "view",
      "type": "function"
    },
    {
      "inputs": [],
      "name": "totalDebt",
      "outputs": [
        {
          "internalType": "uint256",
          "name": "",
          "type": "uint256"
        }
      ],
      "stateMutability": "view",
      "type": "function"
    },
    {
      "inputs": [],
      "name": "totalPayoutGiven",
      "outputs": [
        {
          "internalType": "uint256",
          "name": "",
          "type": "uint256"
        }
      ],
      "stateMutability": "view",
      "type": "function"
    },
    {
      "inputs": [],
      "name": "totalPrincipalBilled",
      "outputs": [
        {
          "internalType": "uint256",
          "name": "",
          "type": "uint256"
        }
      ],
      "stateMutability": "view",
      "type": "function"
    },
    {
      "inputs": [
        {
          "internalType": "address",
          "name": "",
          "type": "address"
        }
      ],
      "name": "transferOwnership",
      "outputs": [],
      "stateMutability": "view",
      "type": "function"
    },
    {
      "inputs": [],
      "name": "trueBillPrice",
      "outputs": [
        {
          "internalType": "uint256",
          "name": "price_",
          "type": "uint256"
        }
      ],
      "stateMutability": "view",
      "type": "function"
    },
    {
      "inputs": [],
      "name": "userBillIds",
      "outputs": [
        {
          "internalType": "uint256[]",
          "name": "",
          "type": "uint256[]"
        }
      ],
      "stateMutability": "view",
      "type": "function"
    },
    {
      "inputs": [
        {
          "internalType": "uint256",
          "name": "_billId",
          "type": "uint256"
        },
        {
          "internalType": "uint256",
          "name": "_timestamp",
          "type": "uint256"
        }
      ],
      "name": "vestedPayoutAtTime",
      "outputs": [
        {
          "internalType": "uint256",
          "name": "vestedPayout_",
          "type": "uint256"
        }
      ],
      "stateMutability": "view",
      "type": "function"
    },
    {
      "inputs": [],
      "name": "vestingCurve",
      "outputs": [
        {
          "internalType": "contract IVestingCurve",
          "name": "",
          "type": "address"
        }
      ],
      "stateMutability": "view",
      "type": "function"
    },
    {
      "inputs": [
        {
          "internalType": "uint256",
          "name": "_billId",
          "type": "uint256"
        }
      ],
      "name": "vestingPayout",
      "outputs": [
        {
          "internalType": "uint256",
          "name": "vestingPayout_",
          "type": "uint256"
        }
      ],
      "stateMutability": "view",
      "type": "function"
    },
    {
      "inputs": [
        {
          "internalType": "uint256",
          "name": "_billId",
          "type": "uint256"
        }
      ],
      "name": "vestingPeriod",
      "outputs": [
        {
          "internalType": "uint256",
          "name": "vestingStart_",
          "type": "uint256"
        },
        {
          "internalType": "uint256",
          "name": "vestingEnd_",
          "type": "uint256"
        }
      ],
      "stateMutability": "view",
      "type": "function"
    }
  ],
  "bytecode": "0x608060405234801561001057600080fd5b506001606655614e93806100256000396000f3fe608060405234801561001057600080fd5b506004361061041d5760003560e01c80639010d07c1161022b578063cea55f5711610130578063e30c3978116100b8578063eb7fb18f11610087578063eb7fb18f14610966578063ed5b72d01461097b578063f2fde38b1461098e578063f5c2ab5b146109a1578063fc7b9c18146109aa57600080fd5b8063e30c39781461093d578063e392a2621461094e578063e3d18ede14610956578063e796059a1461095e57600080fd5b8063d744515f116100ff578063d744515f14610907578063da3c300d1461091a578063db006a751461064d578063dbc162de14610922578063e0176de81461093557600080fd5b8063cea55f57146108b7578063d3aac774146108bf578063d5025625146108d2578063d547741f146108f457600080fd5b8063bc063e1a116101b3578063c00fdb9a11610182578063c00fdb9a14610862578063c38594f014610875578063c42069ec1461087e578063c7fab9c214610891578063ca15c873146108a457600080fd5b8063bc063e1a1461082a578063bc29278214610834578063bcbe20ac14610847578063bd9c33761461085a57600080fd5b8063a217fddf116101fa578063a217fddf146107d6578063a2384817146107de578063a7684a39146107f1578063b7ac793714610804578063b8c461cd1461081757600080fd5b80639010d07c1461078a57806391d148541461079d57806398fabd3a146107b05780639e0bd808146107c357600080fd5b8063353fed6d11610331578063668448fc116102b95780637927ebf8116102885780637927ebf81461073857806379ba50971461074b57806381d0526d146107535780638da5cb5b146107665780638dbdbe6d1461077757600080fd5b8063668448fc146107025780636f798b6514610715578063715018a614610728578063759076e51461073057600080fd5b80633d7f86c4116103005780633d7f86c414610673578063451ee4a1146106865780634efa82b6146106bc57806352f61b05146106cf578063576561d2146106ef57600080fd5b8063353fed6d1461063257806336568abe1461063a578063379607f51461064d5780633a52915a1461066057600080fd5b80631dc2b6a6116103b4578063248a9ca311610383578063248a9ca3146105d35780632bab6bde146105f65780632f2ff15d146105ff578063310dbdb21461061257806333150f821461062557600080fd5b80631dc2b6a614610572578063230ed44a1461058557806323297bf8146105ad57806323b1cde4146105c057600080fd5b806305f187c9116103f057806305f187c91461049f57806309fc49bb146104cd578063133b6c28146104df5780631d57042c1461055f57600080fd5b8063017e7e581461042257806301f275b71461045257806301ffc9a71461046757806303601dd61461048a575b600080fd5b606a54610435906001600160a01b031681565b6040516001600160a01b0390911681526020015b60405180910390f35b61045a6109b3565b60405161044991906140ff565b61047a610475366004614112565b6109c3565b6040519015158152602001610449565b61049d610498366004614187565b6109ee565b005b61047a6104ad3660046141ed565b607f60209081526000928352604080842090915290825290205460ff1681565b607d545b604051908152602001610449565b61052a6104ed366004614226565b607e602052600090815260409020805460018201546002830154600384015460048501546005860154600690960154949593949293919290919087565b604080519788526020880196909652948601939093526060850191909152608084015260a083015260c082015260e001610449565b61049d61056d366004614330565b610a56565b606f54610435906001600160a01b031681565b610598610593366004614226565b610a6c565b60408051928352602083019190915201610449565b61049d6105bb366004614546565b610a9a565b61049d6105ce366004614641565b610afd565b6104d16105e1366004614226565b600090815260e7602052604090206001015490565b6104d160715481565b61049d61060d36600461465e565b610bde565b61049d610620366004614683565b610c03565b60825461047a9060ff1681565b6104d161132a565b61049d61064836600461465e565b6113e8565b6104d161065b366004614226565b611462565b6104d161066e366004614226565b61149f565b61049d6106813660046146f7565b6114c6565b607954607a54607b54607c5461069c9392919084565b604080519485526020850193909352918301526060820152608001610449565b606754610435906001600160a01b031681565b6106e26106dd366004614226565b611621565b6040516104499190614767565b6105986106fd366004614226565b6116c4565b61049d610710366004614775565b6116db565b61049d610723366004614187565b611747565b61049d6117aa565b6104d16117be565b610598610746366004614226565b6117d5565b61049d6119a4565b6104d1610761366004614226565b611a23565b6033546001600160a01b0316610435565b6104d16107853660046147a3565b611a36565b6104356107983660046147dc565b612225565b61047a6107ab36600461465e565b612245565b606b54610435906001600160a01b031681565b6104d16107d1366004614226565b612270565b6104d1600081565b61049d6107ec366004614226565b61227b565b606954610435906001600160a01b031681565b61045a6108123660046147fe565b612310565b6104d1610825366004614187565b6124da565b6104d1620f424081565b6104d1610842366004614187565b6124e2565b61049d610855366004614833565b612563565b6077546104d1565b6104d1610870366004614226565b612762565b6104d160705481565b61049d61088c366004614641565b612791565b61045a61089f366004614641565b6127e3565b6104d16108b2366004614226565b612864565b6104d161287c565b606c54610435906001600160a01b031681565b60725460735460745460755460765460775460785461052a9695949392919087565b61049d61090236600461465e565b612988565b6104d16109153660046147dc565b6129ad565b6104d16129c3565b606854610435906001600160a01b031681565b6104d1612a59565b6065546001600160a01b0316610435565b6104d1612adc565b61045a612b35565b6104d1612b41565b6104d1600080516020614e3e83398151915281565b61049d610989366004614226565b612b64565b61049d61099c366004614641565b612e84565b6104d160815481565b6104d160805481565b60606109be336127e3565b905090565b60006001600160e01b03198216635a05180f60e01b14806109e857506109e882612ee3565b92915050565b6109f6612f18565b60005b81811015610a5157610a3f600080516020614e3e833981519152848484818110610a2557610a25614863565b9050602002016020810190610a3a9190614641565b612f72565b80610a498161488f565b9150506109f9565b505050565b610a5e612f18565b610a688282612f95565b5050565b607d8181548110610a7c57600080fd5b60009182526020909120600290910201805460019091015490915082565b610aa685858585610c03565b60005b8151811015610af557610ae3600080516020614e3e833981519152838381518110610ad657610ad6614863565b60200260200101516132be565b80610aed8161488f565b915050610aa9565b505050505050565b606b546001600160a01b03163314610b475760405162461bcd60e51b81526020600482015260086024820152674f6e6c792044414f60c01b60448201526064015b60405180910390fd5b6001600160a01b038116610b945760405162461bcd60e51b815260206004820152601460248201527343616e6e6f74206265206164647265737328302960601b6044820152606401610b3e565b606a80546001600160a01b0319166001600160a01b0383169081179091556040517f3dedba2a214b4fff9bf20fc473c114824654e0bc70512b4a92f6d5978763c28d90600090a250565b600082815260e76020526040902060010154610bf9816132e1565b610a5183836132be565b600054610100900460ff1615808015610c235750600054600160ff909116105b80610c3d5750303b158015610c3d575060005460ff166001145b610ca05760405162461bcd60e51b815260206004820152602e60248201527f496e697469616c697a61626c653a20636f6e747261637420697320616c72656160448201526d191e481a5b9a5d1a585b1a5e995960921b6064820152608401610b3e565b6000805460ff191660011790558015610cc3576000805461ff0019166101001790555b6001600160a01b038516610d195760405162461bcd60e51b815260206004820152601d60248201527f637573746f6d54726561737572792063616e6e6f74206265207a65726f0000006044820152606401610b3e565b606980546001600160a01b0319166001600160a01b0387169081179091556040805163277d415b60e11b81529051634efa82b6916004808201926020929091908290030181865afa158015610d72573d6000803e3d6000fd5b505050506040513d601f19601f82011682018060405250810190610d9691906148a8565b6001600160a01b031684600001516001600160a01b031614610db757600080fd5b8351606780546001600160a01b0319166001600160a01b03928316179055602085015116610e275760405162461bcd60e51b815260206004820152601d60248201527f7072696e636970616c546f6b656e2063616e6e6f74206265207a65726f0000006044820152606401610b3e565b6020840151606880546001600160a01b0319166001600160a01b039283161790556060850151429116610ea257604051610e60906140b7565b604051809103906000f080158015610e7c573d6000803e3d6000fd5b50606f80546001600160a01b0319166001600160a01b0392909216919091179055610f67565b60608501516001600160a01b031663131f99ce670de0b6b3a7640000610fa0610ecd6107d0866148c5565b6040516001600160e01b031960e086901b16815260048101939093526024830191909152604482015260648101849052608401602060405180830381865afa158015610f1d573d6000803e3d6000fd5b505050506040513d601f19601f82011682018060405250810190610f4191906148d8565b506060850151606f80546001600160a01b0319166001600160a01b039092169190911790555b82516001600160a01b0316610fb55760405162461bcd60e51b8152602060048201526014602482015273666565546f2063616e6e6f74206265207a65726f60601b6044820152606401610b3e565b8251606a80546001600160a01b0319166001600160a01b0392831617905560208401511661101a5760405162461bcd60e51b815260206004820152601260248201527144414f2063616e6e6f74206265207a65726f60701b6044820152606401610b3e565b6020830151606b80546001600160a01b0319166001600160a01b039283161790556040840151166110865760405162461bcd60e51b815260206004820152601660248201527562696c6c4e66742063616e6e6f74206265207a65726f60501b6044820152606401610b3e565b604083810151606c80546001600160a01b0319166001600160a01b0392831617905590860151166110f05760405162461bcd60e51b81526020600482015260146024820152736f776e65722063616e6e6f74206265207a65726f60601b6044820152606401610b3e565b6110f86132ee565b611105856040015161331d565b6111178560a001518660800151612f95565b60c08501516082805460ff19169115159190911790556111356117be565b156111735760405162461bcd60e51b815260206004820152600e60248201526d044656274206d75737420626520360941b6044820152606401610b3e565b6201fa40846020015110156111ca5760405162461bcd60e51b815260206004820152601b60248201527f56657374696e67206d757374206265203e3d20333620686f75727300000000006044820152606401610b3e565b6103e8846060015111156112205760405162461bcd60e51b815260206004820181905260248201527f5061796f75742063616e6e6f742062652061626f766520312070657263656e746044820152606401610b3e565b83516112635760405162461bcd60e51b81526020600482015260126024820152714356206d7573742062652061626f7665203160701b6044820152606401610b3e565b83516072556020840151607355604080850151607455606085015160755560808086015160765560a086015160775560c0860151607881905590556081829055517f08d1f0e12b23bdec7b4bef60f003f59205e3fdd44da8e664fb30d134497e2f44906112d390869084906148f1565b60405180910390a1508015611323576000805461ff0019169055604051600181527f7f26b83ff96e1f2b6a682f133852f6798a09c465da95921460cefb3847402498906020015b60405180910390a15b5050505050565b6068546040805163313ce56760e01b815290516000926001600160a01b03169163313ce5679160048083019260209291908290030181865afa158015611374573d6000803e3d6000fd5b505050506040513d601f19601f82011682018060405250810190611398919061490d565b6113a390600a614a14565b6113ab61287c565b6072546113b89190614a23565b6113c990662386f26fc10000614a23565b6113d39190614a3a565b6074549091508110156113e557506074545b90565b6001600160a01b03811633146114585760405162461bcd60e51b815260206004820152602f60248201527f416363657373436f6e74726f6c3a2063616e206f6e6c792072656e6f756e636560448201526e103937b632b9903337b91039b2b63360891b6064820152608401610b3e565b610a688282612f72565b60006002606654036114865760405162461bcd60e51b8152600401610b3e90614a5c565b60026066556114948261336f565b600160665592915050565b60008060006114ad846135d3565b925092505080826114be9190614a93565b949350505050565b6114ce612f18565b600082116115175760405162461bcd60e51b81526020600482015260166024820152750546172676574206d7573742062652061626f766520360541b6044820152606401610b3e565b6072546000906103e89061152c90601e614a23565b6115369190614a3a565b905080600003611544575060015b8084111561158a5760405162461bcd60e51b8152602060048201526013602482015272496e6372656d656e7420746f6f206c6172676560681b6044820152606401610b3e565b604051806080016040528085815260200184815260200183815260200183426115b391906148c5565b90528051607955602080820151607a55604080830151607b55606092830151607c55607254815190815291820187905281018590529081018390527f5fba533edbb77a9e68ae1cc9ba57f66f28266750e94a54fd724c9f1bc930e2c49060800160405180910390a150505050565b6116616040518060e00160405280600081526020016000815260200160008152602001600081526020016000815260200160008152602001600081525090565b506000908152607e6020908152604091829020825160e081018452815481526001820154928101929092526002810154928201929092526003820154606082015260048201546080820152600582015460a082015260069091015460c082015290565b6000806116d0836135ef565b509094909350915050565b336000818152607f602090815260408083206001600160a01b03871680855290835292819020805460ff191686151590811790915590519081529192917f953b326c8aba9fa3dcdbb3372dfc3fc310139091d2178226539a6b09e553629b910160405180910390a35050565b61174f612f18565b60005b81811015610a5157611798600080516020614e3e83398151915284848481811061177e5761177e614863565b90506020020160208101906117939190614641565b6132be565b806117a28161488f565b915050611752565b6117b2612f18565b6117bc600061331d565b565b60006117c8612adc565b6080546109be91906148c5565b608254600090819060ff16156118c75760006117ef61132a565b6069546068546001600160a01b039182169163d1b317e5911661181a88670de0b6b3a7640000614a23565b6040516001600160e01b031960e085901b1681526001600160a01b0390921660048301526024820152604401602060405180830381865afa158015611863573d6000803e3d6000fd5b505050506040513d601f19601f8201168201806040525081019061188791906148d8565b6118919190614a3a565b9050620f424061189f6129c3565b6118a99083614a23565b6118b39190614a3a565b91506118bf82826148c5565b925050915091565b620f42406118d36129c3565b6118dd9085614a23565b6118e79190614a3a565b90506118f161132a565b6069546068546001600160a01b039182169163d1b317e5911661191485886148c5565b61192690670de0b6b3a7640000614a23565b6040516001600160e01b031960e085901b1681526001600160a01b0390921660048301526024820152604401602060405180830381865afa15801561196f573d6000803e3d6000fd5b505050506040513d601f19601f8201168201806040525081019061199391906148d8565b61199d9190614a3a565b9150915091565b6065546001600160a01b03163314611a0a5760405162461bcd60e51b8152602060048201526024808201527f50656e64696e674f776e61626c653a204d5553542062652070656e64696e674f6044820152633bb732b960e11b6064820152608401610b3e565b606580546001600160a01b03191690556117bc3361331d565b6000611a2e826135d3565b509392505050565b6000600260665403611a5a5760405162461bcd60e51b8152600401610b3e90614a5c565b60026066556001600160a01b038216611aa75760405162461bcd60e51b815260206004820152600f60248201526e496e76616c6964206164647265737360881b6044820152606401610b3e565b336001600160a01b0383161480611abe5750333b15155b611b0a5760405162461bcd60e51b815260206004820152601c60248201527f6e6f206465706f7369747320746f206f746865722061646472657373000000006044820152606401610b3e565b611b12613670565b6000611b1c612b41565b905080841015611b6e5760405162461bcd60e51b815260206004820152601c60248201527f536c697070616765206d6f7265207468616e206d6178207072696365000000006044820152606401610b3e565b6082548590600090819060ff1615611b9357611b89886117d5565b9092509050611bae565b611b9c886117d5565b9092509050611bab81846148c5565b92505b8760806000828254611bc09190614a93565b90915550506076546080541115611c105760405162461bcd60e51b815260206004820152601460248201527313585e0818d85c1858da5d1e481c995858da195960621b6044820152606401610b3e565b6067546040805163313ce56760e01b81529051612710926001600160a01b03169163313ce5679160048083019260209291908290030181865afa158015611c5b573d6000803e3d6000fd5b505050506040513d601f19601f82011682018060405250810190611c7f919061490d565b611c8a90600a614a14565b611c949190614a3a565b821015611cd45760405162461bcd60e51b815260206004820152600e60248201526d109a5b1b081d1bdbc81cdb585b1b60921b6044820152606401610b3e565b611cdc612a59565b821115611d1c5760405162461bcd60e51b815260206004820152600e60248201526d42696c6c20746f6f206c6172676560901b6044820152606401610b3e565b8160716000828254611d2e9190614a93565b90915550506077546071541115611d875760405162461bcd60e51b815260206004820152601960248201527f4d617820746f74616c207061796f7574206578636565646564000000000000006044820152606401610b3e565b8260706000828254611d999190614a93565b9091555050606854611db6906001600160a01b031633308b613694565b60685460695460405163095ea7b360e01b81526001600160a01b0391821660048201526024810186905291169063095ea7b3906044016020604051808303816000875af1158015611e0b573d6000803e3d6000fd5b505050506040513d601f19601f82011682018060405250810190611e2f9190614aa6565b506067546040516370a0823160e01b81523060048201526000916001600160a01b0316906370a0823190602401602060405180830381865afa158015611e79573d6000803e3d6000fd5b505050506040513d601f19601f82011682018060405250810190611e9d91906148d8565b60825490915060ff1615611f3157606954606854606a54604051630ca6553b60e11b81526001600160a01b039283166004820152602481018890526044810187905260648101869052908216608482015291169063194caa769060a401600060405180830381600087803b158015611f1457600080fd5b505af1158015611f28573d6000803e3d6000fd5b50505050611fc5565b606954606854604051630efe6a8b60e01b81526001600160a01b0391821660048201526024810187905260448101869052911690630efe6a8b90606401600060405180830381600087803b158015611f8857600080fd5b505af1158015611f9c573d6000803e3d6000fd5b5050505081600014611fc557606a54606854611fc5916001600160a01b03918216911684613705565b6067546040516370a0823160e01b815230600482015260009183916001600160a01b03909116906370a0823190602401602060405180830381865afa158015612012573d6000803e3d6000fd5b505050506040513d601f19601f8201168201806040525081019061203691906148d8565b61204091906148c5565b606c5460405163ee1fe2ad60e01b81526001600160a01b038b811660048301523060248301529293506000929091169063ee1fe2ad906044016020604051808303816000875af1158015612098573d6000803e3d6000fd5b505050506040513d601f19601f820116820180604052508101906120bc91906148d8565b90506040518060e00160405280838152602001600081526020016072600101548152602001607260010154815260200142815260200142815260200188815250607e6000838152602001908152602001600020600082015181600001556020820151816001015560408201518160020155606082015181600301556080820151816004015560a0820151816005015560c0820151816006015590505061216c81606d61373590919063ffffffff16565b50807fe58e2397580448f038c428fd00f6fa73f939e2bc4f98fb93a9c4d85182b62d6c8c84607260010154426121a29190614a93565b6040805193845260208401929092529082015260600160405180910390a26121c8613741565b7fbe028bbca27c3dbd0acb0d6d8caa7626e69d9dbbe76643953c503b65b67d7b4f6121f1613837565b6121f961287c565b6040805192835260208301919091520160405180910390a1505060016066555090979650505050505050565b60008281526101196020526040812061223e9083613863565b9392505050565b600091825260e7602090815260408084206001600160a01b0393909316845291905290205460ff1690565b60006114be826135d3565b612283612f18565b6071548110156122d55760405162461bcd60e51b815260206004820152601d60248201527f6d6178546f74616c5061796f7574203c3d20746f74616c5061796f75740000006044820152606401610b3e565b60778190556040518181527f4c9c68bc926ee1c2d7814929f0e2120214c83e14970e3b625e7fabb0d9d3304f9060200160405180910390a150565b6060600061231e84846148c5565b6001600160401b038111156123355761233561423f565b60405190808252806020026020018201604052801561235e578160200160208202803683370190505b5090506000845b8481101561243457606c54604051632f745c5960e01b81526001600160a01b038981166004830152602482018490526000921690632f745c5990604401602060405180830381865afa1580156123bf573d6000803e3d6000fd5b505050506040513d601f19601f820116820180604052508101906123e391906148d8565b90506123f0606d8261386f565b15612421578084848151811061240857612408614863565b60209081029190910101528261241d8161488f565b9350505b508061242c8161488f565b915050612365565b506000816001600160401b0381111561244f5761244f61423f565b604051908082528060200260200182016040528015612478578160200160208202803683370190505b50905060005b828110156124cf5783818151811061249857612498614863565b60200260200101518282815181106124b2576124b2614863565b6020908102919091010152806124c78161488f565b91505061247e565b509695505050505050565b600061223e83835b60006002606654036125065760405162461bcd60e51b8152600401610b3e90614a5c565b60026066558160005b818110156125565761253885858381811061252c5761252c614863565b9050602002013561336f565b6125429084614a93565b92508061254e8161488f565b91505061250f565b5050600160665592915050565b61256b612f18565b600082600481111561257f5761257f614ac3565b036125e1576201fa408110156125d75760405162461bcd60e51b815260206004820152601b60248201527f56657374696e67206d757374206265203e3d20333620686f75727300000000006044820152606401610b3e565b6073819055612725565b60018260048111156125f5576125f5614ac3565b03612656576103e881111561264c5760405162461bcd60e51b815260206004820181905260248201527f5061796f75742063616e6e6f742062652061626f766520312070657263656e746044820152606401610b3e565b6075819055612725565b600282600481111561266a5761266a614ac3565b03612679576076819055612725565b600382600481111561268d5761268d614ac3565b0361269c576074819055612725565b60048260048111156126b0576126b0614ac3565b036127255760715481101561271f5760405162461bcd60e51b815260206004820152602f60248201527f6d6178546f74616c5061796f75742063616e6e6f742062652062656c6f77207460448201526e37ba30b62830bcb7baba23b4bb32b760891b6064820152608401610b3e565b60778190555b7f903c480df86492bc6f2f0240f18a751973dce69801170a49d03fe0c2110fbe4b8282604051612756929190614ad9565b60405180910390a15050565b60008061276e836135ef565b50915050600091504281111561278b5761278842826148c5565b91505b50919050565b612799612f18565b606580546001600160a01b0319166001600160a01b0383169081179091556040517f5f4861af37461865f168c6e320428b3141f409a1763bd61b6359d38ad38ae74c90600090a250565b606c546040516370a0823160e01b81526001600160a01b0383811660048301526060926000929116906370a0823190602401602060405180830381865afa158015612832573d6000803e3d6000fd5b505050506040513d601f19601f8201168201806040525081019061285691906148d8565b905061278883600083612310565b6000818152610119602052604081206109e890613887565b606754604080516318160ddd60e01b815290516000926001600160a01b0316916318160ddd9160048083019260209291908290030181865afa1580156128c6573d6000803e3d6000fd5b505050506040513d601f19601f820116820180604052508101906128ea91906148d8565b606760009054906101000a90046001600160a01b03166001600160a01b031663313ce5676040518163ffffffff1660e01b8152600401602060405180830381865afa15801561293d573d6000803e3d6000fd5b505050506040513d601f19601f82011682018060405250810190612961919061490d565b61296c90600a614a14565b6129746117be565b61297e9190614a23565b6109be9190614a3a565b600082815260e760205260409020600101546129a3816132e1565b610a518383612f72565b60006129b98383613891565b5090949350505050565b607d54600090815b81811015612a5457607d81815481106129e6576129e6614863565b906000526020600020906002020160000154607054111580612a115750612a0e6001836148c5565b81145b15612a4257607d8181548110612a2957612a29614863565b9060005260206000209060020201600101549250505090565b80612a4c8161488f565b9150506129cb565b505090565b6000620186a0607260030154606760009054906101000a90046001600160a01b03166001600160a01b03166318160ddd6040518163ffffffff1660e01b8152600401602060405180830381865afa158015612ab8573d6000803e3d6000fd5b505050506040513d601f19601f8201168201806040525081019061297491906148d8565b6073546000908103612aef575060805490565b600060815442612aff91906148c5565b905060726001015481608054612b159190614a23565b612b1f9190614a3a565b9150608054821115612b315760805491505b5090565b60606109be606d6139b6565b6000612b4b6129c3565b612b5890620f42406148c5565b620f424061297461132a565b600260665403612b865760405162461bcd60e51b8152600401610b3e90614a5c565b6002606655600080516020614e3e833981519152612ba3816132e1565b60008211612be15760405162461bcd60e51b815260206004820152600b60248201526a0416d6f756e7420697320360ac1b6044820152606401610b3e565b606954604051634d12b4a960e01b81523060048201526001600160a01b0390911690634d12b4a9906024016020604051808303816000875af1158015612c2b573d6000803e3d6000fd5b505050506040513d601f19601f82011682018060405250810190612c4f9190614aa6565b612c8e5760405162461bcd60e51b815260206004820152601060248201526f109a5b1b081a5cc8191a5cd8589b195960821b6044820152606401610b3e565b6067546069546040516370a0823160e01b81526001600160a01b03918216600482015260009291909116906370a0823190602401602060405180830381865afa158015612cdf573d6000803e3d6000fd5b505050506040513d601f19601f82011682018060405250810190612d0391906148d8565b606954606754919250612d25916001600160a01b039081169133911686613694565b6067546069546040516370a0823160e01b81526001600160a01b039182166004820152600092849216906370a0823190602401602060405180830381865afa158015612d75573d6000803e3d6000fd5b505050506040513d601f19601f82011682018060405250810190612d9991906148d8565b612da391906148c5565b905060008111612de65760405162461bcd60e51b815260206004820152600e60248201526d4e6f20726566696c6c206d61646560901b6044820152606401610b3e565b607754600090612df7908390614a93565b6077819055606754604080516001600160a01b039092168252602082018590529192507f96aee2fd7a8198062a6b889ad08a0b7a7a11ad9dcf41d84313df8331e98f32da910160405180910390a16040518181527f4c9c68bc926ee1c2d7814929f0e2120214c83e14970e3b625e7fabb0d9d3304f9060200160405180910390a150506001606655505050565b612e8c612f18565b60405162461bcd60e51b815260206004820152602660248201527f50656e64696e674f776e61626c653a204d5553542073657450656e64696e674f604482015265776e6572282960d01b6064820152608401610b3e565b60006001600160e01b03198216637965db0b60e01b14806109e857506301ffc9a760e01b6001600160e01b03198316146109e8565b6033546001600160a01b031633146117bc5760405162461bcd60e51b815260206004820181905260248201527f4f776e61626c653a2063616c6c6572206973206e6f7420746865206f776e65726044820152606401610b3e565b612f7c82826139c3565b600082815261011960205260409020610a519082613a2a565b8151815114612fe65760405162461bcd60e51b815260206004820152601960248201527f74696572206c656e67746820213d20666565206c656e677468000000000000006044820152606401610b3e565b607d541561303e5760005b607d5481101561303c57607d80548061300c5761300c614b05565b600082815260208120600260001990930192830201818155600101559055806130348161488f565b915050612ff1565b505b6000805b825181101561323a57620f424084828151811061306157613061614863565b6020026020010151106130a45760405162461bcd60e51b815260206004820152600b60248201526a496e76616c69642066656560a81b6044820152606401610b3e565b8015806130c957508281815181106130be576130be614863565b602002602001015182105b61310d5760405162461bcd60e51b815260206004820152601560248201527437b7363c9034b731b932b0b9b4b7339037b93232b960591b6044820152606401610b3e565b82818151811061311f5761311f614863565b6020026020010151915080613133607d5490565b11156131b757604051806040016040528084838151811061315657613156614863565b6020026020010151815260200185838151811061317557613175614863565b6020026020010151815250607d828154811061319357613193614863565b60009182526020918290208351600290920201908155910151600190910155613228565b607d60405180604001604052808584815181106131d6576131d6614863565b602002602001015181526020018684815181106131f5576131f5614863565b60209081029190910181015190915282546001818101855560009485529382902083516002909202019081559101519101555b806132328161488f565b915050613042565b50607d548351146132805760405162461bcd60e51b815260206004820152601060248201526f0cccacaa8d2cae440dad2e6dac2e8c6d60831b6044820152606401610b3e565b7ffd7b9c6175d9445ac273df5f353522b43f063a82aafd6da98503abcfa154cf9283836040516132b1929190614b1b565b60405180910390a1505050565b6132c88282613a3f565b600082815261011960205260409020610a519082613ac5565b6132eb8133613ada565b50565b600054610100900460ff166133155760405162461bcd60e51b8152600401610b3e90614b49565b6117bc613b3e565b603380546001600160a01b038381166001600160a01b0319831681179093556040519116919082907f8be0079c531659141344cd1fd0a4f28419497f9722a3daafe3b4186f6b6457e090600090a35050565b6000818152607e6020526040812060058101546133c45760405162461bcd60e51b81526020600482015260136024820152721b9bdd0818481d985b1a5908189a5b1b081a59606a1b6044820152606401610b3e565b606c546040516331a9108f60e11b8152600481018590526000916001600160a01b031690636352211e90602401602060405180830381865afa15801561340e573d6000803e3d6000fd5b505050506040513d601f19601f8201168201806040525081019061343291906148a8565b9050336001600160a01b03821614806134555750606c546001600160a01b031633145b8061348357506001600160a01b0381166000908152607f6020908152604080832033845290915290205460ff165b6134be5760405162461bcd60e51b815260206004820152600c60248201526b1b9bdd08185c1c1c9bdd995960a21b6044820152606401610b3e565b60006134c985612270565b90506000811161350e5760405162461bcd60e51b815260206004820152601060248201526f6e6f7468696e6720746f20636c61696d60801b6044820152606401610b3e565b808360010160008282546135229190614a93565b9091555050600583015460009061353990426148c5565b9050836002015481101561355c5780846002015461355791906148c5565b61355f565b60005b6002850155426005850155606754613581906001600160a01b03168484613705565b83546040805184815260208101929092526001600160a01b0385169188917f0a341b92706c414514d09d2e85a3b296c7c31b3851032575f8ce164ad10ff39a910160405180910390a350949350505050565b60008060006135e28442613891565b9250925092509193909250565b6000818152607e60209081526040808320815160e08101835281548152600182015493810193909352600281015491830191909152600381015460608301819052600482015460808401819052600583015460a085015260069092015460c084015290929182916136609085614a93565b60a0909101519395909450915050565b613678612adc565b6080600082825461368991906148c5565b909155505042608155565b6040516001600160a01b03808516602483015283166044820152606481018290526136ff9085906323b872dd60e01b906084015b60408051601f198184030181529190526020810180516001600160e01b03166001600160e01b031990931692909217909152613b6e565b50505050565b6040516001600160a01b038316602482015260448101829052610a5190849063a9059cbb60e01b906064016136c8565b600061223e8383613c40565b607b54607c5460009161375391614a93565b607954909150158015906137675750804210155b156132eb57607254607954607a54829190808311156137b857600061378c82856148c5565b9050828111156137a7576137a083856148c5565b93506137b2565b600060795590925082905b506137ec565b60006137c484836148c5565b9050828111156137df576137d88385614a93565b93506137ea565b600060795590925082905b505b42607c5560728390556079546040805186815260208101869052908101919091527fd9ae9f30de33a5b9d16fac6a8058748338b6cfb851bd4e698575706a71f4f1109060600161131a565b600061384161132a565b60745490915081118015613856575060745415155b156113e557600060745590565b600061223e8383613c8f565b6000818152600183016020526040812054151561223e565b60006109e8825490565b6000828152607e60209081526040808320815160e081018352815480825260018301549482019490945260028201548184015260038201546060820181905260048084015460808401819052600585015460a085015260069094015460c0840152606f54945163098fcce760e11b815287968796949590946001600160a01b03169363131f99ce9361393e938793918d910193845260208401929092526040830152606082015260800190565b602060405180830381865afa15801561395b573d6000803e3d6000fd5b505050506040513d601f19601f8201168201806040525081019061397f91906148d8565b945061398b85826148c5565b602083015190945060009350858110156139ac576139a981876148c5565b93505b5050509250925092565b6060600061223e83613cb9565b6139cd8282612245565b15610a6857600082815260e7602090815260408083206001600160a01b0385168085529252808320805460ff1916905551339285917ff6391f5c32d9c69d2a47ea670b442974b53935d1edc7fd64eb21e047a839171b9190a45050565b600061223e836001600160a01b038416613d15565b613a498282612245565b610a6857600082815260e7602090815260408083206001600160a01b03851684529091529020805460ff19166001179055613a813390565b6001600160a01b0316816001600160a01b0316837f2f8788117e7eff1d82e926ec794901d17c78024a50270940304540a733656f0d60405160405180910390a45050565b600061223e836001600160a01b038416613c40565b613ae48282612245565b610a6857613afc816001600160a01b03166014613e08565b613b07836020613e08565b604051602001613b18929190614bb8565b60408051601f198184030181529082905262461bcd60e51b8252610b3e91600401614c2d565b600054610100900460ff16613b655760405162461bcd60e51b8152600401610b3e90614b49565b6117bc3361331d565b6000613bc3826040518060400160405280602081526020017f5361666545524332303a206c6f772d6c6576656c2063616c6c206661696c6564815250856001600160a01b0316613fa39092919063ffffffff16565b805190915015610a515780806020019051810190613be19190614aa6565b610a515760405162461bcd60e51b815260206004820152602a60248201527f5361666545524332303a204552433230206f7065726174696f6e20646964206e6044820152691bdd081cdd58d8d9595960b21b6064820152608401610b3e565b6000818152600183016020526040812054613c87575081546001818101845560008481526020808220909301849055845484825282860190935260409020919091556109e8565b5060006109e8565b6000826000018281548110613ca657613ca6614863565b9060005260206000200154905092915050565b606081600001805480602002602001604051908101604052809291908181526020018280548015613d0957602002820191906000526020600020905b815481526020019060010190808311613cf5575b50505050509050919050565b60008181526001830160205260408120548015613dfe576000613d396001836148c5565b8554909150600090613d4d906001906148c5565b9050818114613db2576000866000018281548110613d6d57613d6d614863565b9060005260206000200154905080876000018481548110613d9057613d90614863565b6000918252602080832090910192909255918252600188019052604090208390555b8554869080613dc357613dc3614b05565b6001900381819060005260206000200160009055905585600101600086815260200190815260200160002060009055600193505050506109e8565b60009150506109e8565b60606000613e17836002614a23565b613e22906002614a93565b6001600160401b03811115613e3957613e3961423f565b6040519080825280601f01601f191660200182016040528015613e63576020820181803683370190505b509050600360fc1b81600081518110613e7e57613e7e614863565b60200101906001600160f81b031916908160001a905350600f60fb1b81600181518110613ead57613ead614863565b60200101906001600160f81b031916908160001a9053506000613ed1846002614a23565b613edc906001614a93565b90505b6001811115613f54576f181899199a1a9b1b9c1cb0b131b232b360811b85600f1660108110613f1057613f10614863565b1a60f81b828281518110613f2657613f26614863565b60200101906001600160f81b031916908160001a90535060049490941c93613f4d81614c60565b9050613edf565b50831561223e5760405162461bcd60e51b815260206004820181905260248201527f537472696e67733a20686578206c656e67746820696e73756666696369656e746044820152606401610b3e565b60606114be8484600085856001600160a01b0385163b6140055760405162461bcd60e51b815260206004820152601d60248201527f416464726573733a2063616c6c20746f206e6f6e2d636f6e74726163740000006044820152606401610b3e565b600080866001600160a01b031685876040516140219190614c77565b60006040518083038185875af1925050503d806000811461405e576040519150601f19603f3d011682016040523d82523d6000602084013e614063565b606091505b509150915061407382828661407e565b979650505050505050565b6060831561408d57508161223e565b82511561409d5782518084602001fd5b8160405162461bcd60e51b8152600401610b3e9190614c2d565b6101aa80614c9483390190565b600081518084526020808501945080840160005b838110156140f4578151875295820195908201906001016140d8565b509495945050505050565b60208152600061223e60208301846140c4565b60006020828403121561412457600080fd5b81356001600160e01b03198116811461223e57600080fd5b60008083601f84011261414e57600080fd5b5081356001600160401b0381111561416557600080fd5b6020830191508360208260051b850101111561418057600080fd5b9250929050565b6000806020838503121561419a57600080fd5b82356001600160401b038111156141b057600080fd5b6141bc8582860161413c565b90969095509350505050565b6001600160a01b03811681146132eb57600080fd5b80356141e8816141c8565b919050565b6000806040838503121561420057600080fd5b823561420b816141c8565b9150602083013561421b816141c8565b809150509250929050565b60006020828403121561423857600080fd5b5035919050565b634e487b7160e01b600052604160045260246000fd5b60405160e081016001600160401b03811182821017156142775761427761423f565b60405290565b604051601f8201601f191681016001600160401b03811182821017156142a5576142a561423f565b604052919050565b60006001600160401b038211156142c6576142c661423f565b5060051b60200190565b600082601f8301126142e157600080fd5b813560206142f66142f1836142ad565b61427d565b82815260059290921b8401810191818101908684111561431557600080fd5b8286015b848110156124cf5780358352918301918301614319565b6000806040838503121561434357600080fd5b82356001600160401b038082111561435a57600080fd5b614366868387016142d0565b9350602085013591508082111561437c57600080fd5b50614389858286016142d0565b9150509250929050565b80151581146132eb57600080fd5b80356141e881614393565b600060e082840312156143be57600080fd5b6143c6614255565b90506143d1826141dd565b81526143df602083016141dd565b60208201526143f0604083016141dd565b6040820152614401606083016141dd565b606082015260808201356001600160401b038082111561442057600080fd5b61442c858386016142d0565b608084015260a084013591508082111561444557600080fd5b50614452848285016142d0565b60a08301525061446460c083016143a1565b60c082015292915050565b600060e0828403121561448157600080fd5b614489614255565b9050813581526020820135602082015260408201356040820152606082013560608201526080820135608082015260a082013560a082015260c082013560c082015292915050565b6000606082840312156144e357600080fd5b604051606081018181106001600160401b03821117156145055761450561423f565b6040529050808235614516816141c8565b81526020830135614526816141c8565b60208201526040830135614539816141c8565b6040919091015292915050565b60008060008060006101a0868803121561455f57600080fd5b853561456a816141c8565b94506020868101356001600160401b038082111561458757600080fd5b6145938a838b016143ac565b96506145a28a60408b0161446f565b95506145b28a6101208b016144d1565b94506101808901359150808211156145c957600080fd5b508701601f810189136145db57600080fd5b80356145e96142f1826142ad565b81815260059190911b8201830190838101908b83111561460857600080fd5b928401925b8284101561462f578335614620816141c8565b8252928401929084019061460d565b80955050505050509295509295909350565b60006020828403121561465357600080fd5b813561223e816141c8565b6000806040838503121561467157600080fd5b82359150602083013561421b816141c8565b600080600080610180858703121561469a57600080fd5b84356146a5816141c8565b935060208501356001600160401b038111156146c057600080fd5b6146cc878288016143ac565b9350506146dc866040870161446f565b91506146ec8661012087016144d1565b905092959194509250565b60008060006060848603121561470c57600080fd5b505081359360208301359350604090920135919050565b805182526020810151602083015260408101516040830152606081015160608301526080810151608083015260a081015160a083015260c081015160c08301525050565b60e081016109e88284614723565b6000806040838503121561478857600080fd5b8235614793816141c8565b9150602083013561421b81614393565b6000806000606084860312156147b857600080fd5b833592506020840135915060408401356147d1816141c8565b809150509250925092565b600080604083850312156147ef57600080fd5b50508035926020909101359150565b60008060006060848603121561481357600080fd5b833561481e816141c8565b95602085013595506040909401359392505050565b6000806040838503121561484657600080fd5b82356005811061485557600080fd5b946020939093013593505050565b634e487b7160e01b600052603260045260246000fd5b634e487b7160e01b600052601160045260246000fd5b6000600182016148a1576148a1614879565b5060010190565b6000602082840312156148ba57600080fd5b815161223e816141c8565b818103818111156109e8576109e8614879565b6000602082840312156148ea57600080fd5b5051919050565b61010081016149008285614723565b8260e08301529392505050565b60006020828403121561491f57600080fd5b815160ff8116811461223e57600080fd5b600181815b8085111561496b57816000190482111561495157614951614879565b8085161561495e57918102915b93841c9390800290614935565b509250929050565b600082614982575060016109e8565b8161498f575060006109e8565b81600181146149a557600281146149af576149cb565b60019150506109e8565b60ff8411156149c0576149c0614879565b50506001821b6109e8565b5060208310610133831016604e8410600b84101617156149ee575081810a6109e8565b6149f88383614930565b8060001904821115614a0c57614a0c614879565b029392505050565b600061223e60ff841683614973565b80820281158282048414176109e8576109e8614879565b600082614a5757634e487b7160e01b600052601260045260246000fd5b500490565b6020808252601f908201527f5265656e7472616e637947756172643a207265656e7472616e742063616c6c00604082015260600190565b808201808211156109e8576109e8614879565b600060208284031215614ab857600080fd5b815161223e81614393565b634e487b7160e01b600052602160045260246000fd5b6040810160058410614afb57634e487b7160e01b600052602160045260246000fd5b9281526020015290565b634e487b7160e01b600052603160045260246000fd5b604081526000614b2e60408301856140c4565b8281036020840152614b4081856140c4565b95945050505050565b6020808252602b908201527f496e697469616c697a61626c653a20636f6e7472616374206973206e6f74206960408201526a6e697469616c697a696e6760a81b606082015260800190565b60005b83811015614baf578181015183820152602001614b97565b50506000910152565b7f416363657373436f6e74726f6c3a206163636f756e7420000000000000000000815260008351614bf0816017850160208801614b94565b7001034b99036b4b9b9b4b733903937b6329607d1b6017918401918201528351614c21816028840160208801614b94565b01602801949350505050565b6020815260008251806020840152614c4c816040850160208701614b94565b601f01601f19169190910160400192915050565b600081614c6f57614c6f614879565b506000190190565b60008251614c89818460208701614b94565b919091019291505056fe608060405234801561001057600080fd5b5061018a806100206000396000f3fe608060405234801561001057600080fd5b506004361061002b5760003560e01c8063131f99ce14610030575b600080fd5b61004361003e3660046100a7565b610055565b60405190815260200160405180910390f35b60008282116100665750600061009f565b61007084846100ef565b821061007d57508361009f565b836100888484610108565b610092908761011b565b61009c9190610132565b90505b949350505050565b600080600080608085870312156100bd57600080fd5b5050823594602084013594506040840135936060013592509050565b634e487b7160e01b600052601160045260246000fd5b80820180821115610102576101026100d9565b92915050565b81810381811115610102576101026100d9565b8082028115828204841417610102576101026100d9565b60008261014f57634e487b7160e01b600052601260045260246000fd5b50049056fea264697066735822122089f9c17b49e02c830fb6bf17ebb70d081c6f116ce5108eb533f1d1365cfd4a0164736f6c6343000811003328f6978129d5c5602659b712f70ce633d0a3e38010897c5aaac4729d6d9e789ea26469706673582212209b91b7d430873402a0087d3be108207af7f901b6f0d132b8d3655ad91820e05864736f6c63430008110033",
  "linkReferences": {},
  "deployedLinkReferences": {}
}