{
  "_format": "hh-sol-artifact-1",
  "contractName": "CustomTreasury",
  "sourceName": "contracts/CustomTreasury.sol",
  "abi": [
    {
      "anonymous": false,
      "inputs": [
        {
          "indexed": true,
          "internalType": "address",
          "name": "billContract",
          "type": "address"
        },
        {
          "indexed": false,
          "internalType": "bool",
          "name": "enabled",
          "type": "bool"
        }
      ],
      "name": "BillContractToggled",
      "type": "event"
    },
    {
      "anonymous": false,
      "inputs": [
        {
          "indexed": true,
          "internalType": "address",
          "name": "billContract",
          "type": "address"
        },
        {
          "indexed": false,
          "internalType": "uint256",
          "name": "amountPrincipalToken",
          "type": "uint256"
        },
        {
          "indexed": false,
          "internalType": "uint256",
          "name": "amountPayoutToken",
          "type": "uint256"
        }
      ],
      "name": "Deposit",
      "type": "event"
    },
    {
      "anonymous": false,
      "inputs": [
        {
          "indexed": false,
          "internalType": "uint8",
          "name": "version",
          "type": "uint8"
        }
      ],
      "name": "Initialized",
      "type": "event"
    },
    {
      "anonymous": false,
      "inputs": [
        {
          "indexed": true,
          "internalType": "address",
          "name": "previousOwner",
          "type": "address"
        },
        {
          "indexed": true,
          "internalType": "address",
          "name": "newOwner",
          "type": "address"
        }
      ],
      "name": "OwnershipTransferred",
      "type": "event"
    },
    {
      "anonymous": false,
      "inputs": [
        {
          "indexed": true,
          "internalType": "address",
          "name": "billContract",
          "type": "address"
        },
        {
          "indexed": false,
          "internalType": "address",
          "name": "feeReceiver",
          "type": "address"
        },
        {
          "indexed": false,
          "internalType": "uint256",
          "name": "amountPayoutToken",
          "type": "uint256"
        }
      ],
      "name": "PayoutFee",
      "type": "event"
    },
    {
      "anonymous": false,
      "inputs": [
        {
          "indexed": true,
          "internalType": "address",
          "name": "pendingOwner",
          "type": "address"
        }
      ],
      "name": "SetPendingOwner",
      "type": "event"
    },
    {
      "anonymous": false,
      "inputs": [
        {
          "indexed": true,
          "internalType": "address",
          "name": "token",
          "type": "address"
        },
        {
          "indexed": true,
          "internalType": "address",
          "name": "destination",
          "type": "address"
        },
        {
          "indexed": false,
          "internalType": "uint256",
          "name": "amount",
          "type": "uint256"
        }
      ],
      "name": "Withdraw",
      "type": "event"
    },
    {
      "inputs": [],
      "name": "acceptOwnership",
      "outputs": [],
      "stateMutability": "nonpayable",
      "type": "function"
    },
    {
      "inputs": [
        {
          "internalType": "address",
          "name": "",
          "type": "address"
        }
      ],
      "name": "billContract",
      "outputs": [
        {
          "internalType": "bool",
          "name": "",
          "type": "bool"
        }
      ],
      "stateMutability": "view",
      "type": "function"
    },
    {
      "inputs": [
        {
          "internalType": "contract IERC20Upgradeable",
          "name": "_principalTokenAddress",
          "type": "address"
        },
        {
          "internalType": "uint256",
          "name": "_amountPrincipalToken",
          "type": "uint256"
        },
        {
          "internalType": "uint256",
          "name": "_amountPayoutToken",
          "type": "uint256"
        }
      ],
      "name": "deposit",
      "outputs": [],
      "stateMutability": "nonpayable",
      "type": "function"
    },
    {
      "inputs": [
        {
          "internalType": "contract IERC20Upgradeable",
          "name": "_principalTokenAddress",
          "type": "address"
        },
        {
          "internalType": "uint256",
          "name": "_amountPrincipalToken",
          "type": "uint256"
        },
        {
          "internalType": "uint256",
          "name": "_amountPayoutToken",
          "type": "uint256"
        },
        {
          "internalType": "uint256",
          "name": "_feePayoutToken",
          "type": "uint256"
        },
        {
          "internalType": "address",
          "name": "_feeReceiver",
          "type": "address"
        }
      ],
      "name": "deposit_FeeInPayout",
      "outputs": [],
      "stateMutability": "nonpayable",
      "type": "function"
    },
    {
      "inputs": [
        {
          "internalType": "contract IERC20MetadataUpgradeable",
          "name": "_payoutToken",
          "type": "address"
        },
        {
          "internalType": "address",
          "name": "_initialOwner",
          "type": "address"
        },
        {
          "internalType": "address",
          "name": "_payoutAddress",
          "type": "address"
        }
      ],
      "name": "initialize",
      "outputs": [],
      "stateMutability": "nonpayable",
      "type": "function"
    },
    {
      "inputs": [],
      "name": "owner",
      "outputs": [
        {
          "internalType": "address",
          "name": "",
          "type": "address"
        }
      ],
      "stateMutability": "view",
      "type": "function"
    },
    {
      "inputs": [],
      "name": "payoutAddress",
      "outputs": [
        {
          "internalType": "address",
          "name": "",
          "type": "address"
        }
      ],
      "stateMutability": "view",
      "type": "function"
    },
    {
      "inputs": [],
      "name": "payoutToken",
      "outputs": [
        {
          "internalType": "contract IERC20MetadataUpgradeable",
          "name": "",
          "type": "address"
        }
      ],
      "stateMutability": "view",
      "type": "function"
    },
    {
      "inputs": [],
      "name": "pendingOwner",
      "outputs": [
        {
          "internalType": "address",
          "name": "",
          "type": "address"
        }
      ],
      "stateMutability": "view",
      "type": "function"
    },
    {
      "inputs": [],
      "name": "renounceOwnership",
      "outputs": [],
      "stateMutability": "nonpayable",
      "type": "function"
    },
    {
      "inputs": [
        {
          "internalType": "address",
          "name": "newPendingOwner",
          "type": "address"
        }
      ],
      "name": "setPendingOwner",
      "outputs": [],
      "stateMutability": "nonpayable",
      "type": "function"
    },
    {
      "inputs": [
        {
          "internalType": "address",
          "name": "_billContract",
          "type": "address"
        },
        {
          "internalType": "bool",
          "name": "_isActive",
          "type": "bool"
        }
      ],
      "name": "toggleBillContract",
      "outputs": [],
      "stateMutability": "nonpayable",
      "type": "function"
    },
    {
      "inputs": [
        {
          "internalType": "address",
          "name": "",
          "type": "address"
        }
      ],
      "name": "transferOwnership",
      "outputs": [],
      "stateMutability": "view",
      "type": "function"
    },
    {
      "inputs": [
        {
          "internalType": "contract IERC20MetadataUpgradeable",
          "name": "_principalTokenAddress",
          "type": "address"
        },
        {
          "internalType": "uint256",
          "name": "_amount",
          "type": "uint256"
        }
      ],
      "name": "valueOfToken",
      "outputs": [
        {
          "internalType": "uint256",
          "name": "value_",
          "type": "uint256"
        }
      ],
      "stateMutability": "view",
      "type": "function"
    },
    {
      "inputs": [
        {
          "internalType": "address",
          "name": "_token",
          "type": "address"
        },
        {
          "internalType": "address",
          "name": "_destination",
          "type": "address"
        },
        {
          "internalType": "uint256",
          "name": "_amount",
          "type": "uint256"
        }
      ],
      "name": "withdraw",
      "outputs": [],
      "stateMutability": "nonpayable",
      "type": "function"
    }
  ],
  "bytecode": "0x608060405234801561001057600080fd5b5061141e806100206000396000f3fe608060405234801561001057600080fd5b50600436106100f55760003560e01c806379ba509711610097578063d1b317e511610066578063d1b317e5146101f2578063d9caed1214610213578063e30c397814610226578063f2fde38b1461023757600080fd5b806379ba5097146101b35780638da5cb5b146101bb578063c0c53b8b146101cc578063c42069ec146101df57600080fd5b80634d12b4a9116100d35780634d12b4a9146101355780634efa82b61461016d5780635b8d02d714610198578063715018a6146101ab57600080fd5b8063047bc23a146100fa5780630efe6a8b1461010f578063194caa7614610122575b600080fd5b61010d610108366004610ff0565b61024a565b005b61010d61011d366004611029565b6104af565b61010d61013036600461105e565b610521565b6101586101433660046110b4565b60686020526000908152604090205460ff1681565b60405190151581526020015b60405180910390f35b606654610180906001600160a01b031681565b6040516001600160a01b039091168152602001610164565b606754610180906001600160a01b031681565b61010d610594565b61010d6105a8565b6033546001600160a01b0316610180565b61010d6101da3660046110d1565b610627565b61010d6101ed3660046110b4565b610879565b61020561020036600461111c565b6108cb565b604051908152602001610164565b61010d610221366004611148565b6109d7565b6065546001600160a01b0316610180565b61010d6102453660046110b4565b610a45565b610252610aa4565b6001600160a01b03821660009081526068602052604090205460ff16801515821515036102bf5760405162461bcd60e51b8152602060048201526016602482015275109a5b1b081cdd185d19481b9bdd0818da185b99d95960521b60448201526064015b60405180910390fd5b811561044f57306001600160a01b0316836001600160a01b031663a7684a396040518163ffffffff1660e01b81526004016020604051808303816000875af115801561030f573d6000803e3d6000fd5b505050506040513d601f19601f820116820180604052508101906103339190611189565b6001600160a01b0316146103895760405162461bcd60e51b815260206004820152601960248201527f54726561737572792061646472657373206d69736d617463680000000000000060448201526064016102b6565b6066546040805163277d415b60e11b815290516001600160a01b0392831692861691634efa82b69160048083019260209291908290030181865afa1580156103d5573d6000803e3d6000fd5b505050506040513d601f19601f820116820180604052508101906103f99190611189565b6001600160a01b03161461044f5760405162461bcd60e51b815260206004820152601d60248201527f5061796f757420746f6b656e2061646472657373206d69736d6174636800000060448201526064016102b6565b6001600160a01b038316600081815260686020908152604091829020805460ff191686151590811790915591519182527fd693c032a2fbdc6f4a0a0103dd733fec46bf1d6f4588be593cdec7f14e34ce8e910160405180910390a2505050565b3360009081526068602052604090205460ff1661050e5760405162461bcd60e51b815260206004820152601c60248201527f6d73672e73656e646572206e6f742062696c6c20636f6e74726163740000000060448201526064016102b6565b61051c838383600080610afe565b505050565b3360009081526068602052604090205460ff166105805760405162461bcd60e51b815260206004820152601c60248201527f6d73672e73656e646572206e6f742062696c6c20636f6e74726163740000000060448201526064016102b6565b61058d8585858585610afe565b5050505050565b61059c610aa4565b6105a66000610c2b565b565b6065546001600160a01b0316331461060e5760405162461bcd60e51b8152602060048201526024808201527f50656e64696e674f776e61626c653a204d5553542062652070656e64696e674f6044820152633bb732b960e11b60648201526084016102b6565b606580546001600160a01b03191690556105a633610c2b565b600054610100900460ff16158080156106475750600054600160ff909116105b806106615750303b158015610661575060005460ff166001145b6106c45760405162461bcd60e51b815260206004820152602e60248201527f496e697469616c697a61626c653a20636f6e747261637420697320616c72656160448201526d191e481a5b9a5d1a585b1a5e995960921b60648201526084016102b6565b6000805460ff1916600117905580156106e7576000805461ff0019166101001790555b6001600160a01b03841661073d5760405162461bcd60e51b815260206004820181905260248201527f5061796f757420746f6b656e2063616e6e6f742061646472657373207a65726f60448201526064016102b6565b606680546001600160a01b0319166001600160a01b038681169190911790915583166107ab5760405162461bcd60e51b815260206004820152601c60248201527f696e697469616c4f776e65722063616e2774206164647265737320300000000060448201526064016102b6565b6107b3610c7d565b6107bc83610c2b565b6001600160a01b0382166108125760405162461bcd60e51b815260206004820152601d60248201527f7061796f7574416464726573732063616e27742061646472657373203000000060448201526064016102b6565b606780546001600160a01b0319166001600160a01b0384161790558015610873576000805461ff0019169055604051600181527f7f26b83ff96e1f2b6a682f133852f6798a09c465da95921460cefb38474024989060200160405180910390a15b50505050565b610881610aa4565b606580546001600160a01b0319166001600160a01b0383169081179091556040517f5f4861af37461865f168c6e320428b3141f409a1763bd61b6359d38ad38ae74c90600090a250565b6000826001600160a01b031663313ce5676040518163ffffffff1660e01b8152600401602060405180830381865afa15801561090b573d6000803e3d6000fd5b505050506040513d601f19601f8201168201806040525081019061092f91906111a6565b61093a90600a6112c5565b606660009054906101000a90046001600160a01b03166001600160a01b031663313ce5676040518163ffffffff1660e01b8152600401602060405180830381865afa15801561098d573d6000803e3d6000fd5b505050506040513d601f19601f820116820180604052508101906109b191906111a6565b6109bc90600a6112c5565b6109c690846112d4565b6109d091906112eb565b9392505050565b6109df610aa4565b6109f36001600160a01b0384168383610cac565b816001600160a01b0316836001600160a01b03167f9b1bfa7fa9ee420a16e124f794c35ac9f90472acc99140eb2f6447c714cad8eb83604051610a3891815260200190565b60405180910390a3505050565b610a4d610aa4565b60405162461bcd60e51b815260206004820152602660248201527f50656e64696e674f776e61626c653a204d5553542073657450656e64696e674f604482015265776e6572282960d01b60648201526084016102b6565b6033546001600160a01b031633146105a65760405162461bcd60e51b815260206004820181905260248201527f4f776e61626c653a2063616c6c6572206973206e6f7420746865206f776e657260448201526064016102b6565b606754610b1a906001600160a01b038781169133911687610d0f565b8115610bd2576001600160a01b038116610b765760405162461bcd60e51b815260206004820181905260248201527f4665652063616e6e6f742062652073656e7420746f206164647265737328302960448201526064016102b6565b606654610b8d906001600160a01b03168284610cac565b604080516001600160a01b03831681526020810184905233917fd17defc6befb948a4f12121013445a53f9f7bc125c073c13ef017136d8b156f1910160405180910390a25b606654610be9906001600160a01b03163385610cac565b604080518581526020810185905233917f90890809c654f11d6e72a28fa60149770a0d11ec6c92319d6ceb2bb0a4ea1a15910160405180910390a25050505050565b603380546001600160a01b038381166001600160a01b0319831681179093556040519116919082907f8be0079c531659141344cd1fd0a4f28419497f9722a3daafe3b4186f6b6457e090600090a35050565b600054610100900460ff16610ca45760405162461bcd60e51b81526004016102b69061130d565b6105a6610d47565b6040516001600160a01b03831660248201526044810182905261051c90849063a9059cbb60e01b906064015b60408051601f198184030181529190526020810180516001600160e01b03166001600160e01b031990931692909217909152610d77565b6040516001600160a01b03808516602483015283166044820152606481018290526108739085906323b872dd60e01b90608401610cd8565b600054610100900460ff16610d6e5760405162461bcd60e51b81526004016102b69061130d565b6105a633610c2b565b6000610dcc826040518060400160405280602081526020017f5361666545524332303a206c6f772d6c6576656c2063616c6c206661696c6564815250856001600160a01b0316610e499092919063ffffffff16565b80519091501561051c5780806020019051810190610dea9190611358565b61051c5760405162461bcd60e51b815260206004820152602a60248201527f5361666545524332303a204552433230206f7065726174696f6e20646964206e6044820152691bdd081cdd58d8d9595960b21b60648201526084016102b6565b6060610e588484600085610e60565b949350505050565b606082471015610ec15760405162461bcd60e51b815260206004820152602660248201527f416464726573733a20696e73756666696369656e742062616c616e636520666f6044820152651c8818d85b1b60d21b60648201526084016102b6565b6001600160a01b0385163b610f185760405162461bcd60e51b815260206004820152601d60248201527f416464726573733a2063616c6c20746f206e6f6e2d636f6e747261637400000060448201526064016102b6565b600080866001600160a01b03168587604051610f349190611399565b60006040518083038185875af1925050503d8060008114610f71576040519150601f19603f3d011682016040523d82523d6000602084013e610f76565b606091505b5091509150610f86828286610f91565b979650505050505050565b60608315610fa05750816109d0565b825115610fb05782518084602001fd5b8160405162461bcd60e51b81526004016102b691906113b5565b6001600160a01b0381168114610fdf57600080fd5b50565b8015158114610fdf57600080fd5b6000806040838503121561100357600080fd5b823561100e81610fca565b9150602083013561101e81610fe2565b809150509250929050565b60008060006060848603121561103e57600080fd5b833561104981610fca565b95602085013595506040909401359392505050565b600080600080600060a0868803121561107657600080fd5b853561108181610fca565b945060208601359350604086013592506060860135915060808601356110a681610fca565b809150509295509295909350565b6000602082840312156110c657600080fd5b81356109d081610fca565b6000806000606084860312156110e657600080fd5b83356110f181610fca565b9250602084013561110181610fca565b9150604084013561111181610fca565b809150509250925092565b6000806040838503121561112f57600080fd5b823561113a81610fca565b946020939093013593505050565b60008060006060848603121561115d57600080fd5b833561116881610fca565b9250602084013561117881610fca565b929592945050506040919091013590565b60006020828403121561119b57600080fd5b81516109d081610fca565b6000602082840312156111b857600080fd5b815160ff811681146109d057600080fd5b634e487b7160e01b600052601160045260246000fd5b600181815b8085111561121a578160001904821115611200576112006111c9565b8085161561120d57918102915b93841c93908002906111e4565b509250929050565b600082611231575060016112bf565b8161123e575060006112bf565b8160018114611254576002811461125e5761127a565b60019150506112bf565b60ff84111561126f5761126f6111c9565b50506001821b6112bf565b5060208310610133831016604e8410600b841016171561129d575081810a6112bf565b6112a783836111df565b80600019048211156112bb576112bb6111c9565b0290505b92915050565b60006109d060ff841683611222565b80820281158282048414176112bf576112bf6111c9565b60008261130857634e487b7160e01b600052601260045260246000fd5b500490565b6020808252602b908201527f496e697469616c697a61626c653a20636f6e7472616374206973206e6f74206960408201526a6e697469616c697a696e6760a81b606082015260800190565b60006020828403121561136a57600080fd5b81516109d081610fe2565b60005b83811015611390578181015183820152602001611378565b50506000910152565b600082516113ab818460208701611375565b9190910192915050565b60208152600082518060208401526113d4816040850160208701611375565b601f01601f1916919091016040019291505056fea2646970667358221220667a98d8308cb357754d6d612e1c96db9cf66d216f9919e7a13d467880e0ae7a64736f6c63430008110033",
  "linkReferences": {},
  "deployedLinkReferences": {}
}