{
  "_format": "hh-sol-artifact-1",
  "contractName": "SoulZap_UniV2_Extended_V1_Lens",
  "sourceName": "contracts/full-versions/SoulZap_UniV2_Extended_V1_Lens.sol",
  "abi": [
    {
      "inputs": [
        {
          "internalType": "contract SoulZap_UniV2",
          "name": "_soulZap",
          "type": "address"
        },
        {
          "internalType": "contract IUniswapV2Router02",
          "name": "_router",
          "type": "address"
        },
        {
          "internalType": "address[]",
          "name": "_hopTokens",
          "type": "address[]"
        }
      ],
      "stateMutability": "nonpayable",
      "type": "constructor"
    },
    {
      "inputs": [],
      "name": "SoulAccessUnauthorized",
      "type": "error"
    },
    {
      "inputs": [],
      "name": "MAX_HOP_TOKENS",
      "outputs": [
        {
          "internalType": "uint256",
          "name": "",
          "type": "uint256"
        }
      ],
      "stateMutability": "view",
      "type": "function"
    },
    {
      "inputs": [],
      "name": "SOUL_ZAP_ADMIN_ROLE",
      "outputs": [
        {
          "internalType": "bytes32",
          "name": "",
          "type": "bytes32"
        }
      ],
      "stateMutability": "view",
      "type": "function"
    },
    {
      "inputs": [],
      "name": "WNATIVE",
      "outputs": [
        {
          "internalType": "contract IWETH",
          "name": "",
          "type": "address"
        }
      ],
      "stateMutability": "view",
      "type": "function"
    },
    {
      "inputs": [
        {
          "internalType": "address[]",
          "name": "_tokens",
          "type": "address[]"
        }
      ],
      "name": "addHopTokens",
      "outputs": [],
      "stateMutability": "nonpayable",
      "type": "function"
    },
    {
      "inputs": [
        {
          "internalType": "uint256",
          "name": "_amountIn",
          "type": "uint256"
        },
        {
          "internalType": "address[]",
          "name": "_path",
          "type": "address[]"
        }
      ],
      "name": "calculateOutputAmount",
      "outputs": [
        {
          "internalType": "uint256",
          "name": "amountOut",
          "type": "uint256"
        }
      ],
      "stateMutability": "view",
      "type": "function"
    },
    {
      "inputs": [],
      "name": "factory",
      "outputs": [
        {
          "internalType": "contract IUniswapV2Factory",
          "name": "",
          "type": "address"
        }
      ],
      "stateMutability": "view",
      "type": "function"
    },
    {
      "inputs": [
        {
          "internalType": "address",
          "name": "_fromToken",
          "type": "address"
        },
        {
          "internalType": "address",
          "name": "_toToken",
          "type": "address"
        }
      ],
      "name": "findPossibleHopTokens",
      "outputs": [
        {
          "internalType": "address[]",
          "name": "sharedHopTokens",
          "type": "address[]"
        },
        {
          "internalType": "address[]",
          "name": "fromHopTokens",
          "type": "address[]"
        },
        {
          "internalType": "address[]",
          "name": "toHopTokens",
          "type": "address[]"
        }
      ],
      "stateMutability": "view",
      "type": "function"
    },
    {
      "inputs": [
        {
          "internalType": "uint256",
          "name": "_index",
          "type": "uint256"
        }
      ],
      "name": "getHopTokenAtIndex",
      "outputs": [
        {
          "internalType": "address",
          "name": "",
          "type": "address"
        }
      ],
      "stateMutability": "view",
      "type": "function"
    },
    {
      "inputs": [],
      "name": "getHopTokensLength",
      "outputs": [
        {
          "internalType": "uint256",
          "name": "",
          "type": "uint256"
        }
      ],
      "stateMutability": "view",
      "type": "function"
    },
    {
      "inputs": [
        {
          "internalType": "address",
          "name": "tokenIn",
          "type": "address"
        },
        {
          "internalType": "uint256",
          "name": "amountIn",
          "type": "uint256"
        },
        {
          "internalType": "address",
          "name": "tokenOut",
          "type": "address"
        },
        {
          "internalType": "uint256",
          "name": "slippage",
          "type": "uint256"
        },
        {
          "internalType": "address",
          "name": "to",
          "type": "address"
        },
        {
          "internalType": "uint256",
          "name": "deadlineOffset",
          "type": "uint256"
        }
      ],
      "name": "getSwapData",
      "outputs": [
        {
          "components": [
            {
              "internalType": "contract IERC20",
              "name": "tokenIn",
              "type": "address"
            },
            {
              "internalType": "uint256",
              "name": "amountIn",
              "type": "uint256"
            },
            {
              "internalType": "address",
              "name": "tokenOut",
              "type": "address"
            },
            {
              "components": [
                {
                  "internalType": "address",
                  "name": "swapRouter",
                  "type": "address"
                },
                {
                  "internalType": "enum ISoulZap_UniV2.SwapType",
                  "name": "swapType",
                  "type": "uint8"
                },
                {
                  "internalType": "address[]",
                  "name": "path",
                  "type": "address[]"
                },
                {
                  "internalType": "uint256",
                  "name": "amountOut",
                  "type": "uint256"
                },
                {
                  "internalType": "uint256",
                  "name": "amountOutMin",
                  "type": "uint256"
                }
              ],
              "internalType": "struct ISoulZap_UniV2.SwapPath",
              "name": "path",
              "type": "tuple"
            },
            {
              "internalType": "address",
              "name": "to",
              "type": "address"
            },
            {
              "internalType": "uint256",
              "name": "deadline",
              "type": "uint256"
            }
          ],
          "internalType": "struct ISoulZap_UniV2.SwapParams",
          "name": "swapParams",
          "type": "tuple"
        },
        {
          "internalType": "bytes",
          "name": "encodedTx",
          "type": "bytes"
        },
        {
          "components": [
            {
              "internalType": "address",
              "name": "swapRouter",
              "type": "address"
            },
            {
              "internalType": "enum ISoulZap_UniV2.SwapType",
              "name": "swapType",
              "type": "uint8"
            },
            {
              "internalType": "address[]",
              "name": "path",
              "type": "address[]"
            },
            {
              "internalType": "uint256",
              "name": "amountOut",
              "type": "uint256"
            },
            {
              "internalType": "uint256",
              "name": "amountOutMin",
              "type": "uint256"
            }
          ],
          "internalType": "struct ISoulZap_UniV2.SwapPath",
          "name": "feeSwapPath",
          "type": "tuple"
        },
        {
          "internalType": "uint256",
          "name": "priceImpactPercentage",
          "type": "uint256"
        }
      ],
      "stateMutability": "view",
      "type": "function"
    },
    {
      "inputs": [
        {
          "internalType": "uint256",
          "name": "amountIn",
          "type": "uint256"
        },
        {
          "internalType": "address",
          "name": "tokenOut",
          "type": "address"
        },
        {
          "internalType": "uint256",
          "name": "slippage",
          "type": "uint256"
        },
        {
          "internalType": "address",
          "name": "to",
          "type": "address"
        },
        {
          "internalType": "uint256",
          "name": "deadlineOffset",
          "type": "uint256"
        }
      ],
      "name": "getSwapDataNative",
      "outputs": [
        {
          "components": [
            {
              "internalType": "contract IERC20",
              "name": "tokenIn",
              "type": "address"
            },
            {
              "internalType": "uint256",
              "name": "amountIn",
              "type": "uint256"
            },
            {
              "internalType": "address",
              "name": "tokenOut",
              "type": "address"
            },
            {
              "components": [
                {
                  "internalType": "address",
                  "name": "swapRouter",
                  "type": "address"
                },
                {
                  "internalType": "enum ISoulZap_UniV2.SwapType",
                  "name": "swapType",
                  "type": "uint8"
                },
                {
                  "internalType": "address[]",
                  "name": "path",
                  "type": "address[]"
                },
                {
                  "internalType": "uint256",
                  "name": "amountOut",
                  "type": "uint256"
                },
                {
                  "internalType": "uint256",
                  "name": "amountOutMin",
                  "type": "uint256"
                }
              ],
              "internalType": "struct ISoulZap_UniV2.SwapPath",
              "name": "path",
              "type": "tuple"
            },
            {
              "internalType": "address",
              "name": "to",
              "type": "address"
            },
            {
              "internalType": "uint256",
              "name": "deadline",
              "type": "uint256"
            }
          ],
          "internalType": "struct ISoulZap_UniV2.SwapParams",
          "name": "swapParams",
          "type": "tuple"
        },
        {
          "internalType": "bytes",
          "name": "encodedTx",
          "type": "bytes"
        },
        {
          "components": [
            {
              "internalType": "address",
              "name": "swapRouter",
              "type": "address"
            },
            {
              "internalType": "enum ISoulZap_UniV2.SwapType",
              "name": "swapType",
              "type": "uint8"
            },
            {
              "internalType": "address[]",
              "name": "path",
              "type": "address[]"
            },
            {
              "internalType": "uint256",
              "name": "amountOut",
              "type": "uint256"
            },
            {
              "internalType": "uint256",
              "name": "amountOutMin",
              "type": "uint256"
            }
          ],
          "internalType": "struct ISoulZap_UniV2.SwapPath",
          "name": "feeSwapPath",
          "type": "tuple"
        },
        {
          "internalType": "uint256",
          "name": "priceImpactPercentage",
          "type": "uint256"
        }
      ],
      "stateMutability": "view",
      "type": "function"
    },
    {
      "inputs": [
        {
          "internalType": "address",
          "name": "tokenIn",
          "type": "address"
        },
        {
          "internalType": "uint256",
          "name": "amountIn",
          "type": "uint256"
        },
        {
          "internalType": "contract IUniswapV2Pair",
          "name": "lp",
          "type": "address"
        },
        {
          "internalType": "uint256",
          "name": "slippage",
          "type": "uint256"
        },
        {
          "internalType": "address",
          "name": "to",
          "type": "address"
        },
        {
          "internalType": "uint256",
          "name": "deadlineOffset",
          "type": "uint256"
        }
      ],
      "name": "getZapData",
      "outputs": [
        {
          "components": [
            {
              "internalType": "contract IERC20",
              "name": "tokenIn",
              "type": "address"
            },
            {
              "internalType": "uint256",
              "name": "amountIn",
              "type": "uint256"
            },
            {
              "internalType": "address",
              "name": "token0",
              "type": "address"
            },
            {
              "internalType": "address",
              "name": "token1",
              "type": "address"
            },
            {
              "components": [
                {
                  "internalType": "address",
                  "name": "swapRouter",
                  "type": "address"
                },
                {
                  "internalType": "enum ISoulZap_UniV2.SwapType",
                  "name": "swapType",
                  "type": "uint8"
                },
                {
                  "internalType": "address[]",
                  "name": "path",
                  "type": "address[]"
                },
                {
                  "internalType": "uint256",
                  "name": "amountOut",
                  "type": "uint256"
                },
                {
                  "internalType": "uint256",
                  "name": "amountOutMin",
                  "type": "uint256"
                }
              ],
              "internalType": "struct ISoulZap_UniV2.SwapPath",
              "name": "path0",
              "type": "tuple"
            },
            {
              "components": [
                {
                  "internalType": "address",
                  "name": "swapRouter",
                  "type": "address"
                },
                {
                  "internalType": "enum ISoulZap_UniV2.SwapType",
                  "name": "swapType",
                  "type": "uint8"
                },
                {
                  "internalType": "address[]",
                  "name": "path",
                  "type": "address[]"
                },
                {
                  "internalType": "uint256",
                  "name": "amountOut",
                  "type": "uint256"
                },
                {
                  "internalType": "uint256",
                  "name": "amountOutMin",
                  "type": "uint256"
                }
              ],
              "internalType": "struct ISoulZap_UniV2.SwapPath",
              "name": "path1",
              "type": "tuple"
            },
            {
              "components": [
                {
                  "internalType": "address",
                  "name": "lpRouter",
                  "type": "address"
                },
                {
                  "internalType": "enum ISoulZap_UniV2.LPType",
                  "name": "lpType",
                  "type": "uint8"
                },
                {
                  "internalType": "uint256",
                  "name": "amountAMin",
                  "type": "uint256"
                },
                {
                  "internalType": "uint256",
                  "name": "amountBMin",
                  "type": "uint256"
                },
                {
                  "internalType": "uint256",
                  "name": "lpAmount",
                  "type": "uint256"
                }
              ],
              "internalType": "struct ISoulZap_UniV2.LiquidityPath",
              "name": "liquidityPath",
              "type": "tuple"
            },
            {
              "internalType": "address",
              "name": "to",
              "type": "address"
            },
            {
              "internalType": "uint256",
              "name": "deadline",
              "type": "uint256"
            }
          ],
          "internalType": "struct ISoulZap_UniV2.ZapParams",
          "name": "zapParams",
          "type": "tuple"
        },
        {
          "internalType": "bytes",
          "name": "encodedTx",
          "type": "bytes"
        },
        {
          "components": [
            {
              "internalType": "address",
              "name": "swapRouter",
              "type": "address"
            },
            {
              "internalType": "enum ISoulZap_UniV2.SwapType",
              "name": "swapType",
              "type": "uint8"
            },
            {
              "internalType": "address[]",
              "name": "path",
              "type": "address[]"
            },
            {
              "internalType": "uint256",
              "name": "amountOut",
              "type": "uint256"
            },
            {
              "internalType": "uint256",
              "name": "amountOutMin",
              "type": "uint256"
            }
          ],
          "internalType": "struct ISoulZap_UniV2.SwapPath",
          "name": "feeSwapPath",
          "type": "tuple"
        },
        {
          "internalType": "uint256[]",
          "name": "priceImpactPercentages",
          "type": "uint256[]"
        }
      ],
      "stateMutability": "view",
      "type": "function"
    },
    {
      "inputs": [
        {
          "internalType": "address",
          "name": "tokenIn",
          "type": "address"
        },
        {
          "internalType": "uint256",
          "name": "amountIn",
          "type": "uint256"
        },
        {
          "internalType": "contract ICustomBillRefillable",
          "name": "bond",
          "type": "address"
        },
        {
          "internalType": "uint256",
          "name": "slippage",
          "type": "uint256"
        },
        {
          "internalType": "address",
          "name": "to",
          "type": "address"
        },
        {
          "internalType": "uint256",
          "name": "deadlineOffset",
          "type": "uint256"
        }
      ],
      "name": "getZapDataBond",
      "outputs": [
        {
          "components": [
            {
              "internalType": "contract IERC20",
              "name": "tokenIn",
              "type": "address"
            },
            {
              "internalType": "uint256",
              "name": "amountIn",
              "type": "uint256"
            },
            {
              "internalType": "address",
              "name": "token0",
              "type": "address"
            },
            {
              "internalType": "address",
              "name": "token1",
              "type": "address"
            },
            {
              "components": [
                {
                  "internalType": "address",
                  "name": "swapRouter",
                  "type": "address"
                },
                {
                  "internalType": "enum ISoulZap_UniV2.SwapType",
                  "name": "swapType",
                  "type": "uint8"
                },
                {
                  "internalType": "address[]",
                  "name": "path",
                  "type": "address[]"
                },
                {
                  "internalType": "uint256",
                  "name": "amountOut",
                  "type": "uint256"
                },
                {
                  "internalType": "uint256",
                  "name": "amountOutMin",
                  "type": "uint256"
                }
              ],
              "internalType": "struct ISoulZap_UniV2.SwapPath",
              "name": "path0",
              "type": "tuple"
            },
            {
              "components": [
                {
                  "internalType": "address",
                  "name": "swapRouter",
                  "type": "address"
                },
                {
                  "internalType": "enum ISoulZap_UniV2.SwapType",
                  "name": "swapType",
                  "type": "uint8"
                },
                {
                  "internalType": "address[]",
                  "name": "path",
                  "type": "address[]"
                },
                {
                  "internalType": "uint256",
                  "name": "amountOut",
                  "type": "uint256"
                },
                {
                  "internalType": "uint256",
                  "name": "amountOutMin",
                  "type": "uint256"
                }
              ],
              "internalType": "struct ISoulZap_UniV2.SwapPath",
              "name": "path1",
              "type": "tuple"
            },
            {
              "components": [
                {
                  "internalType": "address",
                  "name": "lpRouter",
                  "type": "address"
                },
                {
                  "internalType": "enum ISoulZap_UniV2.LPType",
                  "name": "lpType",
                  "type": "uint8"
                },
                {
                  "internalType": "uint256",
                  "name": "amountAMin",
                  "type": "uint256"
                },
                {
                  "internalType": "uint256",
                  "name": "amountBMin",
                  "type": "uint256"
                },
                {
                  "internalType": "uint256",
                  "name": "lpAmount",
                  "type": "uint256"
                }
              ],
              "internalType": "struct ISoulZap_UniV2.LiquidityPath",
              "name": "liquidityPath",
              "type": "tuple"
            },
            {
              "internalType": "address",
              "name": "to",
              "type": "address"
            },
            {
              "internalType": "uint256",
              "name": "deadline",
              "type": "uint256"
            }
          ],
          "internalType": "struct ISoulZap_UniV2.ZapParams",
          "name": "zapParams",
          "type": "tuple"
        },
        {
          "internalType": "bytes",
          "name": "encodedTx",
          "type": "bytes"
        },
        {
          "components": [
            {
              "internalType": "address",
              "name": "swapRouter",
              "type": "address"
            },
            {
              "internalType": "enum ISoulZap_UniV2.SwapType",
              "name": "swapType",
              "type": "uint8"
            },
            {
              "internalType": "address[]",
              "name": "path",
              "type": "address[]"
            },
            {
              "internalType": "uint256",
              "name": "amountOut",
              "type": "uint256"
            },
            {
              "internalType": "uint256",
              "name": "amountOutMin",
              "type": "uint256"
            }
          ],
          "internalType": "struct ISoulZap_UniV2.SwapPath",
          "name": "feeSwapPath",
          "type": "tuple"
        },
        {
          "internalType": "uint256[]",
          "name": "priceImpactPercentages",
          "type": "uint256[]"
        },
        {
          "components": [
            {
              "internalType": "contract ICustomBillRefillable",
              "name": "bond",
              "type": "address"
            },
            {
              "internalType": "uint256",
              "name": "maxPrice",
              "type": "uint256"
            }
          ],
          "internalType": "struct SoulZap_Ext_ApeBond_Lens.ZapParams_Ext_Bonds",
          "name": "zapParamsBonds",
          "type": "tuple"
        }
      ],
      "stateMutability": "view",
      "type": "function"
    },
    {
      "inputs": [
        {
          "internalType": "uint256",
          "name": "amountIn",
          "type": "uint256"
        },
        {
          "internalType": "contract ICustomBillRefillable",
          "name": "bond",
          "type": "address"
        },
        {
          "internalType": "uint256",
          "name": "slippage",
          "type": "uint256"
        },
        {
          "internalType": "address",
          "name": "to",
          "type": "address"
        },
        {
          "internalType": "uint256",
          "name": "deadlineOffset",
          "type": "uint256"
        }
      ],
      "name": "getZapDataBondNative",
      "outputs": [
        {
          "components": [
            {
              "internalType": "contract IERC20",
              "name": "tokenIn",
              "type": "address"
            },
            {
              "internalType": "uint256",
              "name": "amountIn",
              "type": "uint256"
            },
            {
              "internalType": "address",
              "name": "token0",
              "type": "address"
            },
            {
              "internalType": "address",
              "name": "token1",
              "type": "address"
            },
            {
              "components": [
                {
                  "internalType": "address",
                  "name": "swapRouter",
                  "type": "address"
                },
                {
                  "internalType": "enum ISoulZap_UniV2.SwapType",
                  "name": "swapType",
                  "type": "uint8"
                },
                {
                  "internalType": "address[]",
                  "name": "path",
                  "type": "address[]"
                },
                {
                  "internalType": "uint256",
                  "name": "amountOut",
                  "type": "uint256"
                },
                {
                  "internalType": "uint256",
                  "name": "amountOutMin",
                  "type": "uint256"
                }
              ],
              "internalType": "struct ISoulZap_UniV2.SwapPath",
              "name": "path0",
              "type": "tuple"
            },
            {
              "components": [
                {
                  "internalType": "address",
                  "name": "swapRouter",
                  "type": "address"
                },
                {
                  "internalType": "enum ISoulZap_UniV2.SwapType",
                  "name": "swapType",
                  "type": "uint8"
                },
                {
                  "internalType": "address[]",
                  "name": "path",
                  "type": "address[]"
                },
                {
                  "internalType": "uint256",
                  "name": "amountOut",
                  "type": "uint256"
                },
                {
                  "internalType": "uint256",
                  "name": "amountOutMin",
                  "type": "uint256"
                }
              ],
              "internalType": "struct ISoulZap_UniV2.SwapPath",
              "name": "path1",
              "type": "tuple"
            },
            {
              "components": [
                {
                  "internalType": "address",
                  "name": "lpRouter",
                  "type": "address"
                },
                {
                  "internalType": "enum ISoulZap_UniV2.LPType",
                  "name": "lpType",
                  "type": "uint8"
                },
                {
                  "internalType": "uint256",
                  "name": "amountAMin",
                  "type": "uint256"
                },
                {
                  "internalType": "uint256",
                  "name": "amountBMin",
                  "type": "uint256"
                },
                {
                  "internalType": "uint256",
                  "name": "lpAmount",
                  "type": "uint256"
                }
              ],
              "internalType": "struct ISoulZap_UniV2.LiquidityPath",
              "name": "liquidityPath",
              "type": "tuple"
            },
            {
              "internalType": "address",
              "name": "to",
              "type": "address"
            },
            {
              "internalType": "uint256",
              "name": "deadline",
              "type": "uint256"
            }
          ],
          "internalType": "struct ISoulZap_UniV2.ZapParams",
          "name": "zapParams",
          "type": "tuple"
        },
        {
          "internalType": "bytes",
          "name": "encodedTx",
          "type": "bytes"
        },
        {
          "components": [
            {
              "internalType": "address",
              "name": "swapRouter",
              "type": "address"
            },
            {
              "internalType": "enum ISoulZap_UniV2.SwapType",
              "name": "swapType",
              "type": "uint8"
            },
            {
              "internalType": "address[]",
              "name": "path",
              "type": "address[]"
            },
            {
              "internalType": "uint256",
              "name": "amountOut",
              "type": "uint256"
            },
            {
              "internalType": "uint256",
              "name": "amountOutMin",
              "type": "uint256"
            }
          ],
          "internalType": "struct ISoulZap_UniV2.SwapPath",
          "name": "feeSwapPath",
          "type": "tuple"
        },
        {
          "internalType": "uint256[]",
          "name": "priceImpactPercentages",
          "type": "uint256[]"
        },
        {
          "components": [
            {
              "internalType": "contract ICustomBillRefillable",
              "name": "bond",
              "type": "address"
            },
            {
              "internalType": "uint256",
              "name": "maxPrice",
              "type": "uint256"
            }
          ],
          "internalType": "struct SoulZap_Ext_ApeBond_Lens.ZapParams_Ext_Bonds",
          "name": "zapParamsBonds",
          "type": "tuple"
        }
      ],
      "stateMutability": "view",
      "type": "function"
    },
    {
      "inputs": [
        {
          "internalType": "uint256",
          "name": "amountIn",
          "type": "uint256"
        },
        {
          "internalType": "contract IUniswapV2Pair",
          "name": "lp",
          "type": "address"
        },
        {
          "internalType": "uint256",
          "name": "slippage",
          "type": "uint256"
        },
        {
          "internalType": "address",
          "name": "to",
          "type": "address"
        },
        {
          "internalType": "uint256",
          "name": "deadlineOffset",
          "type": "uint256"
        }
      ],
      "name": "getZapDataNative",
      "outputs": [
        {
          "components": [
            {
              "internalType": "contract IERC20",
              "name": "tokenIn",
              "type": "address"
            },
            {
              "internalType": "uint256",
              "name": "amountIn",
              "type": "uint256"
            },
            {
              "internalType": "address",
              "name": "token0",
              "type": "address"
            },
            {
              "internalType": "address",
              "name": "token1",
              "type": "address"
            },
            {
              "components": [
                {
                  "internalType": "address",
                  "name": "swapRouter",
                  "type": "address"
                },
                {
                  "internalType": "enum ISoulZap_UniV2.SwapType",
                  "name": "swapType",
                  "type": "uint8"
                },
                {
                  "internalType": "address[]",
                  "name": "path",
                  "type": "address[]"
                },
                {
                  "internalType": "uint256",
                  "name": "amountOut",
                  "type": "uint256"
                },
                {
                  "internalType": "uint256",
                  "name": "amountOutMin",
                  "type": "uint256"
                }
              ],
              "internalType": "struct ISoulZap_UniV2.SwapPath",
              "name": "path0",
              "type": "tuple"
            },
            {
              "components": [
                {
                  "internalType": "address",
                  "name": "swapRouter",
                  "type": "address"
                },
                {
                  "internalType": "enum ISoulZap_UniV2.SwapType",
                  "name": "swapType",
                  "type": "uint8"
                },
                {
                  "internalType": "address[]",
                  "name": "path",
                  "type": "address[]"
                },
                {
                  "internalType": "uint256",
                  "name": "amountOut",
                  "type": "uint256"
                },
                {
                  "internalType": "uint256",
                  "name": "amountOutMin",
                  "type": "uint256"
                }
              ],
              "internalType": "struct ISoulZap_UniV2.SwapPath",
              "name": "path1",
              "type": "tuple"
            },
            {
              "components": [
                {
                  "internalType": "address",
                  "name": "lpRouter",
                  "type": "address"
                },
                {
                  "internalType": "enum ISoulZap_UniV2.LPType",
                  "name": "lpType",
                  "type": "uint8"
                },
                {
                  "internalType": "uint256",
                  "name": "amountAMin",
                  "type": "uint256"
                },
                {
                  "internalType": "uint256",
                  "name": "amountBMin",
                  "type": "uint256"
                },
                {
                  "internalType": "uint256",
                  "name": "lpAmount",
                  "type": "uint256"
                }
              ],
              "internalType": "struct ISoulZap_UniV2.LiquidityPath",
              "name": "liquidityPath",
              "type": "tuple"
            },
            {
              "internalType": "address",
              "name": "to",
              "type": "address"
            },
            {
              "internalType": "uint256",
              "name": "deadline",
              "type": "uint256"
            }
          ],
          "internalType": "struct ISoulZap_UniV2.ZapParams",
          "name": "zapParams",
          "type": "tuple"
        },
        {
          "internalType": "bytes",
          "name": "encodedTx",
          "type": "bytes"
        },
        {
          "components": [
            {
              "internalType": "address",
              "name": "swapRouter",
              "type": "address"
            },
            {
              "internalType": "enum ISoulZap_UniV2.SwapType",
              "name": "swapType",
              "type": "uint8"
            },
            {
              "internalType": "address[]",
              "name": "path",
              "type": "address[]"
            },
            {
              "internalType": "uint256",
              "name": "amountOut",
              "type": "uint256"
            },
            {
              "internalType": "uint256",
              "name": "amountOutMin",
              "type": "uint256"
            }
          ],
          "internalType": "struct ISoulZap_UniV2.SwapPath",
          "name": "feeSwapPath",
          "type": "tuple"
        },
        {
          "internalType": "uint256[]",
          "name": "priceImpactPercentages",
          "type": "uint256[]"
        }
      ],
      "stateMutability": "view",
      "type": "function"
    },
    {
      "inputs": [
        {
          "internalType": "address",
          "name": "_token",
          "type": "address"
        }
      ],
      "name": "isHopToken",
      "outputs": [
        {
          "internalType": "bool",
          "name": "",
          "type": "bool"
        }
      ],
      "stateMutability": "view",
      "type": "function"
    },
    {
      "inputs": [
        {
          "internalType": "address",
          "name": "_token0",
          "type": "address"
        },
        {
          "internalType": "address",
          "name": "_token1",
          "type": "address"
        }
      ],
      "name": "pairExists",
      "outputs": [
        {
          "internalType": "bool",
          "name": "",
          "type": "bool"
        }
      ],
      "stateMutability": "view",
      "type": "function"
    },
    {
      "inputs": [
        {
          "internalType": "address[]",
          "name": "_tokens",
          "type": "address[]"
        }
      ],
      "name": "removeHopTokens",
      "outputs": [],
      "stateMutability": "nonpayable",
      "type": "function"
    },
    {
      "inputs": [],
      "name": "router",
      "outputs": [
        {
          "internalType": "contract IUniswapV2Router02",
          "name": "",
          "type": "address"
        }
      ],
      "stateMutability": "view",
      "type": "function"
    },
    {
      "inputs": [],
      "name": "soulAccessRegistry",
      "outputs": [
        {
          "internalType": "address",
          "name": "",
          "type": "address"
        }
      ],
      "stateMutability": "view",
      "type": "function"
    },
    {
      "inputs": [],
      "name": "soulZap",
      "outputs": [
        {
          "internalType": "contract ISoulZap_UniV2",
          "name": "",
          "type": "address"
        }
      ],
      "stateMutability": "view",
      "type": "function"
    }
  ],
  "bytecode": "0x60e0604052601360a0527f534f554c5f5a41505f41444d494e5f524f4c450000000000000000000000000060c0527f9162b82d28c4229191f5443c914283af7dcda1d12ad2f1c473f980eb39315edc6001553480156200005e57600080fd5b5060405162003e8d38038062003e8d83398101604081905262000081916200060a565b828282826001600160a01b03166360d561da6040518163ffffffff1660e01b8152600401602060405180830381865afa158015620000c3573d6000803e3d6000fd5b505050506040513d601f19601f82011682018060405250810190620000e991906200070a565b600080546001600160a01b0319166001600160a01b03928316179055604080516302ce073d60e61b815290519185169163b381cf40916004808201926020929091908290030181865afa15801562000145573d6000803e3d6000fd5b505050506040513d601f19601f820116820180604052508101906200016b91906200070a565b6001600160a01b0316826001600160a01b031663ad5c46486040518163ffffffff1660e01b8152600401602060405180830381865afa158015620001b3573d6000803e3d6000fd5b505050506040513d601f19601f82011682018060405250810190620001d991906200070a565b6001600160a01b0316146200024a5760405162461bcd60e51b815260206004820152602c60248201527f536f756c5a61705f556e6956325f4c656e733a20574e415449564520213d207260448201526b6f757465722e57455448282960a01b60648201526084015b60405180910390fd5b600380546001600160a01b0319166001600160a01b0384169081179091556040805163c45a015560e01b8152905163c45a0155916004808201926020929091908290030181865afa158015620002a4573d6000803e3d6000fd5b505050506040513d601f19601f82011682018060405250810190620002ca91906200070a565b600280546001600160a01b0319166001600160a01b0392909216919091179055620002f5816200038b565b600480546001600160a01b0319166001600160a01b0385169081178255604080516302ce073d60e61b81529051919263b381cf409282820192602092908290030181865afa1580156200034c573d6000803e3d6000fd5b505050506040513d601f19601f820116820180604052508101906200037291906200070a565b6001600160a01b03166080525062000788945050505050565b601462000399600562000516565b8251620003a7919062000740565b1115620004015760405162461bcd60e51b815260206004820152602160248201527f4578636565646564206d6178696d756d20686f7020746f6b656e73206c696d696044820152601d60fa1b606482015260840162000241565b60005b81518110156200051257600082828151811062000425576200042562000756565b6020026020010151905060006001600160a01b0316816001600160a01b031603620004935760405162461bcd60e51b815260206004820152601e60248201527f486f7020546f6b656e2063616e6e6f7420626520616464726573732830290000604482015260640162000241565b6200049e8162000527565b15620004ed5760405162461bcd60e51b815260206004820152601a60248201527f486f7020546f6b656e20616c726561647920696e636c75646564000000000000604482015260640162000241565b620004fa60058262000536565b5050808062000509906200076c565b91505062000404565b5050565b600062000521825490565b92915050565b60006200052160058362000554565b60006200054d836001600160a01b03841662000577565b9392505050565b6001600160a01b038116600090815260018301602052604081205415156200054d565b6000818152600183016020526040812054620005c05750815460018181018455600084815260208082209093018490558454848252828601909352604090209190915562000521565b50600062000521565b6001600160a01b0381168114620005df57600080fd5b50565b634e487b7160e01b600052604160045260246000fd5b80516200060581620005c9565b919050565b6000806000606084860312156200062057600080fd5b83516200062d81620005c9565b809350506020808501516200064281620005c9565b60408601519093506001600160401b03808211156200066057600080fd5b818701915087601f8301126200067557600080fd5b8151818111156200068a576200068a620005e2565b8060051b604051601f19603f83011681018181108582111715620006b257620006b2620005e2565b60405291825284820192508381018501918a831115620006d157600080fd5b938501935b82851015620006fa57620006ea85620005f8565b84529385019392850192620006d6565b8096505050505050509250925092565b6000602082840312156200071d57600080fd5b81516200054d81620005c9565b634e487b7160e01b600052601160045260246000fd5b808201808211156200052157620005216200072a565b634e487b7160e01b600052603260045260246000fd5b6000600182016200078157620007816200072a565b5060010190565b6080516136d4620007b9600039600081816102b501528181611023015281816111dc015261178301526136d46000f3fe608060405234801561001057600080fd5b50600436106101775760003560e01c8063a57fc831116100d8578063c4e6ec3b1161008c578063e2ff2b0011610066578063e2ff2b0014610343578063e42055fa14610356578063f887ea401461036957600080fd5b8063c4e6ec3b146102ea578063ccde76581461030d578063e1b9b3f11461033057600080fd5b8063b3800d22116100bd578063b3800d221461029d578063b381cf40146102b0578063c45a0155146102d757600080fd5b8063a57fc83114610277578063a72a9d581461028a57600080fd5b80632f1ae9571161012f57806358fbf38a1161011457806358fbf38a1461022e57806360d561da1461024157806366a7bc4b1461025457600080fd5b80632f1ae957146102025780633cdc7d311461022657600080fd5b806323c019361161016057806323c01936146101ba57806325bc0fa3146101c2578063281c28d1146101d757600080fd5b8063183260921461017c578063232b2e3514610198575b600080fd5b61018560015481565b6040519081526020015b60405180910390f35b6101ab6101a6366004612b54565b61037c565b60405161018f93929190612bd1565b610185601481565b6101d56101d0366004612cf3565b610583565b005b6004546101ea906001600160a01b031681565b6040516001600160a01b03909116815260200161018f565b610215610210366004612d30565b6105fe565b60405161018f959493929190612fa5565b61018561067e565b6101ea61023c366004613019565b61068f565b6000546101ea906001600160a01b031681565b610267610262366004612b54565b610723565b604051901515815260200161018f565b610185610285366004613032565b6107c1565b6101d5610298366004612cf3565b6108b5565b6102676102ab366004613079565b6108ec565b6101ea7f000000000000000000000000000000000000000000000000000000000000000081565b6002546101ea906001600160a01b031681565b6102fd6102f8366004613096565b6108f9565b60405161018f949392919061315f565b61032061031b366004612d30565b6109aa565b60405161018f94939291906131aa565b6102fd61033e366004612d30565b610a12565b610215610351366004613096565b610a67565b610320610364366004613096565b610b39565b6003546101ea906001600160a01b031681565b6060806060600061038b61067e565b90508067ffffffffffffffff8111156103a6576103a6612c14565b6040519080825280602002602001820160405280156103cf578160200160208202803683370190505b5093508067ffffffffffffffff8111156103eb576103eb612c14565b604051908082528060200260200182016040528015610414578160200160208202803683370190505b5092508067ffffffffffffffff81111561043057610430612c14565b604051908082528060200260200182016040528015610459578160200160208202803683370190505b5091506000806000805b848110156105705760006104768261068f565b905060006104848c83610723565b905080156104c5578189868151811061049f5761049f613202565b6001600160a01b0390921660209283029190910190910152846104c18161322e565b9550505b60006104d1838d610723565b9050801561051257828986815181106104ec576104ec613202565b6001600160a01b03909216602092830291909101909101528461050e8161322e565b9550505b81801561051c5750805b1561055a57828b888151811061053457610534613202565b6001600160a01b0390921660209283029190910190910152866105568161322e565b9750505b50505080806105689061322e565b915050610463565b5091865284528252509194909350909150565b6001546105908133610bea565b6105ad5760405163224af60760e11b815260040160405180910390fd5b60005b82518110156105f9576105e68382815181106105ce576105ce613202565b60200260200101516005610c8090919063ffffffff16565b50806105f18161322e565b9150506105b0565b505050565b6106066129dd565b6040805160a08101825260008082526020820181905260609282018390528183018190526080820152604080518082019091526000808252602082015260609061066873eeeeeeeeeeeeeeeeeeeeeeeeeeeeeeeeeeeeeeee8b8b8b8b8b610a67565b939e929d50909b50995090975095505050505050565b600061068a6005610c95565b905090565b600061069961067e565b82106107125760405162461bcd60e51b815260206004820152602760248201527f536f756c5a61705f556e6956325f4c656e733a20696e646578206f7574206f6660448201527f20626f756e64730000000000000000000000000000000000000000000000000060648201526084015b60405180910390fd5b61071d600583610c9f565b92915050565b60025460405163e6a4390560e01b81526001600160a01b0384811660048301528381166024830152600092839291169063e6a4390590604401602060405180830381865afa158015610779573d6000803e3d6000fd5b505050506040513d601f19601f8201168201806040525081019061079d9190613252565b90506001600160a01b0381166107b757600091505061071d565b5060019392505050565b6003546040517fd06ca61f0000000000000000000000000000000000000000000000000000000081526000916001600160a01b03169063d06ca61f9061080d908690869060040161326f565b600060405180830381865afa92505050801561084b57506040513d6000823e601f3d908101601f191682016040526108489190810190613288565b60015b610885573d808015610879576040519150601f19603f3d011682016040523d82523d6000602084013e61087e565b606091505b505061071d565b8060018251610894919061330e565b815181106108a4576108a4613202565b602002602001015191505092915050565b6001546108c28133610bea565b6108df5760405163224af60760e11b815260040160405180910390fd5b6108e882610cab565b5050565b600061071d600583610e39565b610901612ad7565b6040805160a08101825260008082526020820181905260609282018390528183018190526080820152600061093a8a8a8a8a8a8a610e5b565b60405192965090935091506109559085908490602401613321565b60408051601f198184030181529190526020810180516001600160e01b03167f3066e0a000000000000000000000000000000000000000000000000000000000179052939a9399509097509550909350505050565b6109b26129dd565b6040805160a0810182526000808252602082018190526060928201839052818301819052608082015260606109ff73eeeeeeeeeeeeeeeeeeeeeeeeeeeeeeeeeeeeeeee8a8a8a8a8a610b39565b929c919b50995090975095505050505050565b610a1a612ad7565b6040805160a0810182526000808252602082018190526060928201839052818301819052608082015260006109ff73eeeeeeeeeeeeeeeeeeeeeeeeeeeeeeeeeeeeeeee8a8a8a8a8a6108f9565b610a6f6129dd565b6040805160a081018252600080825260208201819052606092820183905281830181905260808201526040805180820190915260008082526020820152606090610abd8b8b8b8b8b8b611162565b60208101516040519499509296509094509250610ae391879186918d919060240161334f565b60408051601f198184030181529190526020810180516001600160e01b03167fcc6fd87300000000000000000000000000000000000000000000000000000000179052949b949a50919850965094509092505050565b610b416129dd565b6040805160a081018252600080825260208201819052606092820183905281830181905260808201526060610b7a8a8a8a8a8a8a611517565b6040519296509093509150610b959085908490602401613391565b60408051601f198184030181529190526020810180516001600160e01b03167f9e01ec1d00000000000000000000000000000000000000000000000000000000179052939a9399509097509550909350505050565b600080546040517f91d14854000000000000000000000000000000000000000000000000000000008152600481018590526001600160a01b038481166024830152909116906391d1485490604401602060405180830381865afa158015610c55573d6000803e3d6000fd5b505050506040513d601f19601f82011682018060405250810190610c7991906133a4565b9392505050565b6000610c79836001600160a01b038416611ac1565b600061071d825490565b6000610c798383611bb4565b6014610cb76005610c95565b8251610cc391906133c6565b1115610d375760405162461bcd60e51b815260206004820152602160248201527f4578636565646564206d6178696d756d20686f7020746f6b656e73206c696d6960448201527f74000000000000000000000000000000000000000000000000000000000000006064820152608401610709565b60005b81518110156108e8576000828281518110610d5757610d57613202565b6020026020010151905060006001600160a01b0316816001600160a01b031603610dc35760405162461bcd60e51b815260206004820152601e60248201527f486f7020546f6b656e2063616e6e6f74206265206164647265737328302900006044820152606401610709565b610dcc816108ec565b15610e195760405162461bcd60e51b815260206004820152601a60248201527f486f7020546f6b656e20616c726561647920696e636c756465640000000000006044820152606401610709565b610e24600582611bde565b50508080610e319061322e565b915050610d3a565b6001600160a01b03811660009081526001830160205260408120541515610c79565b610e63612ad7565b610e966040805160a081019091526000808252602082019081526020016060815260200160008152602001600081525090565b6000808811610ef85760405162461bcd60e51b815260206004820152602860248201527f536f756c5a61705f556e6956325f4c656e733a20616d6f756e74496e206d7573604482015267074206265203e20360c41b6064820152608401610709565b6001600160a01b038716610f745760405162461bcd60e51b815260206004820152602d60248201527f536f756c5a61705f556e6956325f4c656e733a20746f6b656e2063616e27742060448201527f62652061646472657373283029000000000000000000000000000000000000006064820152608401610709565b866001600160a01b0316896001600160a01b031603610ffb5760405162461bcd60e51b815260206004820152602c60248201527f536f756c5a61705f556e6956325f4c656e733a20746f6b656e732063616e277460448201527f206265207468652073616d6500000000000000000000000000000000000000006064820152608401610709565b6001600160a01b03891673eeeeeeeeeeeeeeeeeeeeeeeeeeeeeeeeeeeeeeee148015611045577f000000000000000000000000000000000000000000000000000000000000000099505b61107260405180606001604052806000815260200160006001600160a01b03168152602001600081525090565b61107d8b8b8a611bf3565b60408101519195509150600090611094908c61330e565b90506110c96040805160a081019091526000808252602082019081526020016060815260200160008152602001600081525090565b6110d58d8c848d611e5c565b80965081925050506040518060c00160405280856110f3578e611109565b73eeeeeeeeeeeeeeeeeeeeeeeeeeeeeeeeeeeeeeee5b6001600160a01b031681526020018d81526020018c6001600160a01b031681526020018281526020018a6001600160a01b03168152602001894261114d91906133c6565b81525096505050505096509650969350505050565b61116a6129dd565b61119d6040805160a081019091526000808252602082019081526020016060815260200160008152602001600081525090565b60408051808201909152600080825260208201526060906001600160a01b038a1673eeeeeeeeeeeeeeeeeeeeeeeeeeeeeeeeeeeeeeee1480156111fe577f00000000000000000000000000000000000000000000000000000000000000009a505b6000896001600160a01b031663dbc162de6040518163ffffffff1660e01b8152600401602060405180830381865afa15801561123e573d6000803e3d6000fd5b505050506040513d601f19601f820116820180604052508101906112629190613252565b9050600060019050816001600160a01b0316630dfe16816040518163ffffffff1660e01b8152600401602060405180830381865afa9250505080156112c4575060408051601f3d908101601f191682019092526112c191810190613252565b60015b6112fe573d8080156112f2576040519150601f19603f3d011682016040523d82523d6000602084013e6112f7565b606091505b5050611304565b60009150505b801561144f576040805160028082526060820183529091602083019080368337019050509450611332612ad7565b6113408e8e858e8e8e610e5b565b8860008151811061135357611353613202565b6020908102919091010152975090506113956040805160a081019091526000808252602082019081526020016060815260200160008152602001600081525090565b6113c86040805160a081019091526000808252602082019081526020016000815260200160008152602001600081525090565b60405180610120016040528084600001516001600160a01b031681526020018460200151815260200184604001516001600160a01b0316815260200160006001600160a01b031681526020018460600151815260200183815260200182815260200184608001516001600160a01b031681526020018460a001518152509950505050611465565b61145d8d8d848d8d8d611517565b919850965094505b82156114835773eeeeeeeeeeeeeeeeeeeeeeeeeeeeeeeeeeeeeeee87525b60008b6001600160a01b031663e796059a6040518163ffffffff1660e01b8152600401602060405180830381865afa1580156114c3573d6000803e3d6000fd5b505050506040513d601f19601f820116820180604052508101906114e791906133d9565b604080518082019091526001600160a01b03909d168d5260208d015250959c949b50929950929650505050505050565b61151f6129dd565b6115526040805160a081019091526000808252602082019081526020016060815260200160008152602001600081525090565b6060600088116115b55760405162461bcd60e51b815260206004820152602860248201527f536f756c5a61705f556e6956325f4c656e733a20616d6f756e74496e206d7573604482015267074206265203e20360c41b6064820152608401610709565b6001600160a01b0387166116315760405162461bcd60e51b815260206004820152602a60248201527f536f756c5a61705f556e6956325f4c656e733a206c702063616e27742062652060448201527f61646472657373283029000000000000000000000000000000000000000000006064820152608401610709565b866001600160a01b031663c45a01556040518163ffffffff1660e01b8152600401602060405180830381865afa92505050801561168b575060408051601f3d908101601f1916820190925261168891810190613252565b60015b6116d75760405162461bcd60e51b815260206004820152601d60248201527f536f756c5a61705f556e6956325f4c656e733a204e6f7420616e204c500000006044820152606401610709565b6002546001600160a01b0382811691161461175a5760405162461bcd60e51b815260206004820152603460248201527f536f756c5a61705f556e6956325f4c656e733a204c5020666163746f7279206460448201527f6f65736e2774206d6174636820666163746f72790000000000000000000000006064820152608401610709565b506001600160a01b03891673eeeeeeeeeeeeeeeeeeeeeeeeeeeeeeeeeeeeeeee1480156117a5577f000000000000000000000000000000000000000000000000000000000000000099505b6117af85426133c6565b61010085015260208401899052806117c757896117dd565b73eeeeeeeeeeeeeeeeeeeeeeeeeeeeeeeeeeeeeeee5b6001600160a01b039081168552861660e085015260408051606081018252600080825260208201819052918101919091526118198b8b8a611bf3565b60408101519195509150600090611830908c61330e565b90506000808b6001600160a01b0316630dfe16816040518163ffffffff1660e01b8152600401602060405180830381865afa92505050801561188f575060408051601f3d908101601f1916820190925261188c91810190613252565b60015b6118c9573d8080156118bd576040519150601f19603f3d011682016040523d82523d6000602084013e6118c2565b606091505b50506118cc565b91505b8b6001600160a01b031663d21220a76040518163ffffffff1660e01b8152600401602060405180830381865afa925050508015611926575060408051601f3d908101601f1916820190925261192391810190613252565b60015b611960573d808015611954576040519150601f19603f3d011682016040523d82523d6000602084013e611959565b606091505b5050611963565b90505b6001600160a01b0382161580159061198357506001600160a01b03811615155b15611a685760006119956002856133f2565b6001600160a01b0380851660408c0152831660608b0152905060026040519080825280602002602001820160405280156119d9578160200160208202803683370190505b5096506119e88f84838f611e5c565b8a608001896000815181106119ff576119ff613202565b60200260200101828152508290525050611a1b8f83838f611e5c565b8a60a00189600181518110611a3257611a32613202565b60200260200101828152508290525050611a5d8d8a60800151608001518b60a0015160800151612141565b60c08a015250611ab0565b60405162461bcd60e51b815260206004820152601860248201527f6c702061646472657373206e6f742061637475616c206c7000000000000000006044820152606401610709565b505050505096509650969350505050565b60008181526001830160205260408120548015611baa576000611ae560018361330e565b8554909150600090611af99060019061330e565b9050818114611b5e576000866000018281548110611b1957611b19613202565b9060005260206000200154905080876000018481548110611b3c57611b3c613202565b6000918252602080832090910192909255918252600188019052604090208390555b8554869080611b6f57611b6f613414565b60019003818190600052602060002001600090559055856001016000868152602001908152602001600020600090556001935050505061071d565b600091505061071d565b6000826000018281548110611bcb57611bcb613202565b9060005260206000200154905092915050565b6000610c79836001600160a01b0384166123f2565b611c266040805160a081019091526000808252602082019081526020016060815260200160008152602001600081525090565b611c5360405180606001604052806000815260200160006001600160a01b03168152602001600081525090565b6000806000600460009054906101000a90046001600160a01b03166001600160a01b03166202eab76040518163ffffffff1660e01b8152600401600060405180830381865afa158015611caa573d6000803e3d6000fd5b505050506040513d6000823e601f3d908101601f19168201604052611cd2919081019061342a565b509250925092508160001480611d6c5750600480546040517f16ad82d70000000000000000000000000000000000000000000000000000000081526001600160a01b038b8116938201939093529116906316ad82d790602401602060405180830381865afa158015611d48573d6000803e3d6000fd5b505050506040513d601f19601f82011682018060405250810190611d6c91906133a4565b15611d7957505050611e54565b81845280611d8783896134ea565b611d9191906133f2565b60408501526000805b8451811015611e4e57848181518110611db557611db5613202565b6020908102919091018101516001600160a01b031690870181905260408701516000918291611de6918e918d611e5c565b915091506000611dfe89602001518460800151612441565b905084811115611e385780945082995060646127106003611e1f91906134ea565b611e2991906133f2565b821015611e3857505050611e4e565b5050508080611e469061322e565b915050611d9a565b50505050505b935093915050565b611e8f6040805160a081019091526000808252602082019081526020016060815260200160008152602001600081525090565b6000846001600160a01b0316866001600160a01b031603611eb95750608081018390526000612138565b6000602083018190526003546001600160a01b0316835280611edc888888612455565b604086018290526060860181905290925090508560005b6001866040015151611f05919061330e565b8110156120d657600086604001518281518110611f2457611f24613202565b6020026020010151905060008760400151836001611f4291906133c6565b81518110611f5257611f52613202565b602090810291909101015160025460405163e6a4390560e01b81526001600160a01b03858116600483015280841660248301529293506000928392169063e6a4390590604401602060405180830381865afa158015611fb5573d6000803e3d6000fd5b505050506040513d601f19601f82011682018060405250810190611fd99190613252565b6001600160a01b0316630902f1ac6040518163ffffffff1660e01b8152600401606060405180830381865afa158015612016573d6000803e3d6000fd5b505050506040513d601f19601f8201168201806040525081019061203a919061351f565b506dffffffffffffffffffffffffffff1691506dffffffffffffffffffffffffffff169150826001600160a01b0316846001600160a01b0316111561207b57905b8161208e670de0b6b3a7640000836134ea565b61209891906133f2565b6120a290876134ea565b955084156120bf576120bc670de0b6b3a7640000876133f2565b95505b5050505080806120ce9061322e565b915050611ef3565b50806120ec670de0b6b3a76400006127106134ea565b6120f690846134ea565b61210091906133f2565b61210c9061271061330e565b935061271061211b878261330e565b61212590846134ea565b61212f91906133f2565b60808601525050505b94509492505050565b6121746040805160a081019091526000808252602082019081526020016000815260200160008152602001600081525090565b600080856001600160a01b0316630902f1ac6040518163ffffffff1660e01b8152600401606060405180830381865afa1580156121b5573d6000803e3d6000fd5b505050506040513d601f19601f820116820180604052508101906121d9919061351f565b506dffffffffffffffffffffffffffff1691506dffffffffffffffffffffffffffff1691506000866001600160a01b03166318160ddd6040518163ffffffff1660e01b8152600401602060405180830381865afa15801561223e573d6000803e3d6000fd5b505050506040513d601f19601f8201168201806040525081019061226291906133d9565b600354604051632b58577b60e21b81526004810189905260248101869052604481018590529192506000916001600160a01b039091169063ad615dec90606401602060405180830381865afa1580156122bf573d6000803e3d6000fd5b505050506040513d601f19601f820116820180604052508101906122e391906133d9565b90508581111561236e57600354604051632b58577b60e21b81526004810188905260248101859052604481018690526001600160a01b039091169063ad615dec90606401602060405180830381865afa158015612344573d6000803e3d6000fd5b505050506040513d601f19601f8201168201806040525081019061236891906133d9565b96508590505b60008461237b848a6134ea565b61238591906133f2565b905060008461239485856134ea565b61239e91906133f2565b905060008183106123af57816123b1565b825b6040805160a0810182526003546001600160a01b03168152600060208201529081019b909b5260608b01949094525050506080870152509395945050505050565b60008181526001830160205260408120546124395750815460018181018455600084815260208082209093018490558454848252828601909352604090209190915561071d565b50600061071d565b6000610c798261245085612905565b612975565b60606000836001600160a01b0316856001600160a01b031603612479575081611e54565b6124838585610723565b1561251d57604080516002808252606082018352909160208301908036833701905050915084826000815181106124bc576124bc613202565b60200260200101906001600160a01b031690816001600160a01b03168152505083826001815181106124f0576124f0613202565b60200260200101906001600160a01b031690816001600160a01b03168152505061251a83836107c1565b90505b600080600061252c888861037c565b92509250925081516000148061254157508051155b156125a4576125508888610723565b61259c5760405162461bcd60e51b815260206004820152601260248201527f4e6f2073776170207061746820666f756e6400000000000000000000000000006044820152606401610709565b505050611e54565b8251156126c35760005b83518110156126c157604080516003808252608082019092526000916020820160608036833701905050905089816000815181106125ee576125ee613202565b60200260200101906001600160a01b031690816001600160a01b03168152505084828151811061262057612620613202565b60200260200101518160018151811061263b5761263b613202565b60200260200101906001600160a01b031690816001600160a01b031681525050888160028151811061266f5761266f613202565b60200260200101906001600160a01b031690816001600160a01b031681525050600061269b89836107c1565b9050868111156126ac578197508096505b505080806126b99061322e565b9150506125ae565b505b60005b82518110156128f957876001600160a01b03168382815181106126eb576126eb613202565b60200260200101516001600160a01b031603156128e75760005b82518110156128e55782818151811061272057612720613202565b60200260200101516001600160a01b03168a6001600160a01b0316148061278a575082818151811061275457612754613202565b60200260200101516001600160a01b031684838151811061277757612777613202565b60200260200101516001600160a01b0316145b6128d35760408051600480825260a08201909252600091602082016080803683370190505090508a816000815181106127c5576127c5613202565b60200260200101906001600160a01b031690816001600160a01b0316815250508483815181106127f7576127f7613202565b60200260200101518160018151811061281257612812613202565b60200260200101906001600160a01b031690816001600160a01b03168152505083828151811061284457612844613202565b60200260200101518160028151811061285f5761285f613202565b60200260200101906001600160a01b031690816001600160a01b031681525050898160038151811061289357612893613202565b60200260200101906001600160a01b031690816001600160a01b03168152505060006128bf8a836107c1565b9050878111156128d0578198508097505b50505b806128dd8161322e565b915050612705565b505b806128f18161322e565b9150506126c6565b50505050935093915050565b6000816001600160a01b031663313ce5676040518163ffffffff1660e01b8152600401602060405180830381865afa925050508015612961575060408051601f3d908101601f1916820190925261295e9181019061356f565b60015b61296d57506012919050565b90505b919050565b600060128260ff1611156129aa5761298e601283613592565b61299990600a61368f565b6129a390846133f2565b905061071d565b60128260ff1610156129d6576129c1826012613592565b6129cc90600a61368f565b6129a390846134ea565b508161071d565b60405180610120016040528060006001600160a01b031681526020016000815260200160006001600160a01b0316815260200160006001600160a01b03168152602001612a536040805160a081019091526000808252602082019081526020016060815260200160008152602001600081525090565b8152602001612a8b6040805160a081019091526000808252602082019081526020016060815260200160008152602001600081525090565b8152602001612ac36040805160a081019091526000808252602082019081526020016000815260200160008152602001600081525090565b815260006020820181905260409091015290565b6040518060c0016040528060006001600160a01b031681526020016000815260200160006001600160a01b03168152602001612ac36040805160a081019091526000808252602082019081526020016060815260200160008152602001600081525090565b6001600160a01b0381168114612b5157600080fd5b50565b60008060408385031215612b6757600080fd5b8235612b7281612b3c565b91506020830135612b8281612b3c565b809150509250929050565b600081518084526020808501945080840160005b83811015612bc65781516001600160a01b031687529582019590820190600101612ba1565b509495945050505050565b606081526000612be46060830186612b8d565b8281036020840152612bf68186612b8d565b90508281036040840152612c0a8185612b8d565b9695505050505050565b634e487b7160e01b600052604160045260246000fd5b604051601f8201601f1916810167ffffffffffffffff81118282101715612c5357612c53612c14565b604052919050565b600067ffffffffffffffff821115612c7557612c75612c14565b5060051b60200190565b600082601f830112612c9057600080fd5b81356020612ca5612ca083612c5b565b612c2a565b82815260059290921b84018101918181019086841115612cc457600080fd5b8286015b84811015612ce8578035612cdb81612b3c565b8352918301918301612cc8565b509695505050505050565b600060208284031215612d0557600080fd5b813567ffffffffffffffff811115612d1c57600080fd5b612d2884828501612c7f565b949350505050565b600080600080600060a08688031215612d4857600080fd5b853594506020860135612d5a81612b3c565b9350604086013592506060860135612d7181612b3c565b949793965091946080013592915050565b60018110612b5157634e487b7160e01b600052602160045260246000fd5b600060a083016001600160a01b03808451168552602080850151612dc381612d82565b8682015260408581015160a09188019190915280519384905281019260009060c08801905b80831015612e0a57855185168252948301946001929092019190830190612de8565b506060870151606089015260808701516080890152809550505050505092915050565b6001600160a01b0381511682526020810151612e4881612d82565b60208301526040818101519083015260608082015190830152608090810151910152565b80516001600160a01b0316825260006101a0602083015160208501526040830151612ea260408601826001600160a01b03169052565b506060830151612ebd60608601826001600160a01b03169052565b506080830151816080860152612ed582860182612da0565b91505060a083015184820360a0860152612eef8282612da0565b91505060c0830151612f0460c0860182612e2d565b5060e08301516001600160a01b03166101608501526101009092015161018090930192909252919050565b6000815180845260005b81811015612f5557602081850181015186830182015201612f39565b506000602082860101526020601f19601f83011685010191505092915050565b600081518084526020808501945080840160005b83811015612bc657815187529582019590820190600101612f89565b60c081526000612fb860c0830188612e6c565b8281036020840152612fca8188612f2f565b90508281036040840152612fde8187612da0565b90508281036060840152612ff28186612f75565b9150506001600160a01b038351166080830152602083015160a08301529695505050505050565b60006020828403121561302b57600080fd5b5035919050565b6000806040838503121561304557600080fd5b82359150602083013567ffffffffffffffff81111561306357600080fd5b61306f85828601612c7f565b9150509250929050565b60006020828403121561308b57600080fd5b8135610c7981612b3c565b60008060008060008060c087890312156130af57600080fd5b86356130ba81612b3c565b95506020870135945060408701356130d181612b3c565b93506060870135925060808701356130e881612b3c565b8092505060a087013590509295509295509295565b60006001600160a01b0380835116845260208301516020850152806040840151166040850152606083015160c0606086015261313c60c0860182612da0565b905081608085015116608086015260a084015160a0860152809250505092915050565b60808152600061317260808301876130fd565b82810360208401526131848187612f2f565b905082810360408401526131988186612da0565b91505082606083015295945050505050565b6080815260006131bd6080830187612e6c565b82810360208401526131cf8187612f2f565b905082810360408401526131e38186612da0565b905082810360608401526131f78185612f75565b979650505050505050565b634e487b7160e01b600052603260045260246000fd5b634e487b7160e01b600052601160045260246000fd5b60006001820161324057613240613218565b5060010190565b805161297081612b3c565b60006020828403121561326457600080fd5b8151610c7981612b3c565b828152604060208201526000612d286040830184612b8d565b6000602080838503121561329b57600080fd5b825167ffffffffffffffff8111156132b257600080fd5b8301601f810185136132c357600080fd5b80516132d1612ca082612c5b565b81815260059190911b820183019083810190878311156132f057600080fd5b928401925b828410156131f7578351825292840192908401906132f5565b8181038181111561071d5761071d613218565b60408152600061333460408301856130fd565b82810360208401526133468185612da0565b95945050505050565b6080815260006133626080830187612e6c565b82810360208401526133748187612da0565b6001600160a01b0395909516604084015250506060015292915050565b6040815260006133346040830185612e6c565b6000602082840312156133b657600080fd5b81518015158114610c7957600080fd5b8082018082111561071d5761071d613218565b6000602082840312156133eb57600080fd5b5051919050565b60008261340f57634e487b7160e01b600052601260045260246000fd5b500490565b634e487b7160e01b600052603160045260246000fd5b6000806000806080858703121561344057600080fd5b845167ffffffffffffffff81111561345757600080fd5b8501601f8101871361346857600080fd5b80516020613478612ca083612c5b565b82815260059290921b8301810191818101908a84111561349757600080fd5b938201935b838510156134be5784516134af81612b3c565b8252938201939082019061349c565b8098505050808801519550505050604085015191506134df60608601613247565b905092959194509250565b808202811582820484141761071d5761071d613218565b80516dffffffffffffffffffffffffffff8116811461297057600080fd5b60008060006060848603121561353457600080fd5b61353d84613501565b925061354b60208501613501565b9150604084015163ffffffff8116811461356457600080fd5b809150509250925092565b60006020828403121561358157600080fd5b815160ff81168114610c7957600080fd5b60ff828116828216039081111561071d5761071d613218565b600181815b808511156135e65781600019048211156135cc576135cc613218565b808516156135d957918102915b93841c93908002906135b0565b509250929050565b6000826135fd5750600161071d565b8161360a5750600061071d565b8160018114613620576002811461362a57613646565b600191505061071d565b60ff84111561363b5761363b613218565b50506001821b61071d565b5060208310610133831016604e8410600b8410161715613669575081810a61071d565b61367383836135ab565b806000190482111561368757613687613218565b029392505050565b6000610c7960ff8416836135ee56fea2646970667358221220c188a83d58b0097067155de8c845b94f49f678f9be92cecfa5e131fa2c18b2d364736f6c63430008130033",
  "linkReferences": {},
  "deployedLinkReferences": {}
}