{
  "_format": "hh-sol-artifact-1",
  "contractName": "SoulZap_UniV2_Lens",
  "sourceName": "contracts/SoulZap_UniV2_Lens.sol",
  "abi": [
    {
      "inputs": [
        {
          "internalType": "contract ISoulZap_UniV2",
          "name": "_soulZap",
          "type": "address"
        },
        {
          "internalType": "contract IUniswapV2Router02",
          "name": "_router",
          "type": "address"
        },
        {
          "internalType": "address[]",
          "name": "_startingHopTokens",
          "type": "address[]"
        }
      ],
      "stateMutability": "nonpayable",
      "type": "constructor"
    },
    {
      "inputs": [],
      "name": "SoulAccessUnauthorized",
      "type": "error"
    },
    {
      "inputs": [],
      "name": "MAX_HOP_TOKENS",
      "outputs": [
        {
          "internalType": "uint256",
          "name": "",
          "type": "uint256"
        }
      ],
      "stateMutability": "view",
      "type": "function"
    },
    {
      "inputs": [],
      "name": "SOUL_ZAP_ADMIN_ROLE",
      "outputs": [
        {
          "internalType": "bytes32",
          "name": "",
          "type": "bytes32"
        }
      ],
      "stateMutability": "view",
      "type": "function"
    },
    {
      "inputs": [],
      "name": "WNATIVE",
      "outputs": [
        {
          "internalType": "contract IWETH",
          "name": "",
          "type": "address"
        }
      ],
      "stateMutability": "view",
      "type": "function"
    },
    {
      "inputs": [
        {
          "internalType": "address[]",
          "name": "_tokens",
          "type": "address[]"
        }
      ],
      "name": "addHopTokens",
      "outputs": [],
      "stateMutability": "nonpayable",
      "type": "function"
    },
    {
      "inputs": [
        {
          "internalType": "uint256",
          "name": "_amountIn",
          "type": "uint256"
        },
        {
          "internalType": "address[]",
          "name": "_path",
          "type": "address[]"
        }
      ],
      "name": "calculateOutputAmount",
      "outputs": [
        {
          "internalType": "uint256",
          "name": "amountOut",
          "type": "uint256"
        }
      ],
      "stateMutability": "view",
      "type": "function"
    },
    {
      "inputs": [],
      "name": "factory",
      "outputs": [
        {
          "internalType": "contract IUniswapV2Factory",
          "name": "",
          "type": "address"
        }
      ],
      "stateMutability": "view",
      "type": "function"
    },
    {
      "inputs": [
        {
          "internalType": "address",
          "name": "_fromToken",
          "type": "address"
        },
        {
          "internalType": "address",
          "name": "_toToken",
          "type": "address"
        }
      ],
      "name": "findPossibleHopTokens",
      "outputs": [
        {
          "internalType": "address[]",
          "name": "sharedHopTokens",
          "type": "address[]"
        },
        {
          "internalType": "address[]",
          "name": "fromHopTokens",
          "type": "address[]"
        },
        {
          "internalType": "address[]",
          "name": "toHopTokens",
          "type": "address[]"
        }
      ],
      "stateMutability": "view",
      "type": "function"
    },
    {
      "inputs": [
        {
          "internalType": "uint256",
          "name": "_index",
          "type": "uint256"
        }
      ],
      "name": "getHopTokenAtIndex",
      "outputs": [
        {
          "internalType": "address",
          "name": "",
          "type": "address"
        }
      ],
      "stateMutability": "view",
      "type": "function"
    },
    {
      "inputs": [],
      "name": "getHopTokensLength",
      "outputs": [
        {
          "internalType": "uint256",
          "name": "",
          "type": "uint256"
        }
      ],
      "stateMutability": "view",
      "type": "function"
    },
    {
      "inputs": [
        {
          "internalType": "address",
          "name": "tokenIn",
          "type": "address"
        },
        {
          "internalType": "uint256",
          "name": "amountIn",
          "type": "uint256"
        },
        {
          "internalType": "address",
          "name": "tokenOut",
          "type": "address"
        },
        {
          "internalType": "uint256",
          "name": "slippage",
          "type": "uint256"
        },
        {
          "internalType": "address",
          "name": "to",
          "type": "address"
        },
        {
          "internalType": "uint256",
          "name": "deadlineOffset",
          "type": "uint256"
        }
      ],
      "name": "getSwapData",
      "outputs": [
        {
          "components": [
            {
              "internalType": "contract IERC20",
              "name": "tokenIn",
              "type": "address"
            },
            {
              "internalType": "uint256",
              "name": "amountIn",
              "type": "uint256"
            },
            {
              "internalType": "address",
              "name": "tokenOut",
              "type": "address"
            },
            {
              "components": [
                {
                  "internalType": "address",
                  "name": "swapRouter",
                  "type": "address"
                },
                {
                  "internalType": "enum ISoulZap_UniV2.SwapType",
                  "name": "swapType",
                  "type": "uint8"
                },
                {
                  "internalType": "address[]",
                  "name": "path",
                  "type": "address[]"
                },
                {
                  "internalType": "uint256",
                  "name": "amountOut",
                  "type": "uint256"
                },
                {
                  "internalType": "uint256",
                  "name": "amountOutMin",
                  "type": "uint256"
                }
              ],
              "internalType": "struct ISoulZap_UniV2.SwapPath",
              "name": "path",
              "type": "tuple"
            },
            {
              "internalType": "address",
              "name": "to",
              "type": "address"
            },
            {
              "internalType": "uint256",
              "name": "deadline",
              "type": "uint256"
            }
          ],
          "internalType": "struct ISoulZap_UniV2.SwapParams",
          "name": "swapParams",
          "type": "tuple"
        },
        {
          "internalType": "bytes",
          "name": "encodedTx",
          "type": "bytes"
        },
        {
          "components": [
            {
              "internalType": "address",
              "name": "swapRouter",
              "type": "address"
            },
            {
              "internalType": "enum ISoulZap_UniV2.SwapType",
              "name": "swapType",
              "type": "uint8"
            },
            {
              "internalType": "address[]",
              "name": "path",
              "type": "address[]"
            },
            {
              "internalType": "uint256",
              "name": "amountOut",
              "type": "uint256"
            },
            {
              "internalType": "uint256",
              "name": "amountOutMin",
              "type": "uint256"
            }
          ],
          "internalType": "struct ISoulZap_UniV2.SwapPath",
          "name": "feeSwapPath",
          "type": "tuple"
        },
        {
          "internalType": "uint256",
          "name": "priceImpactPercentage",
          "type": "uint256"
        }
      ],
      "stateMutability": "view",
      "type": "function"
    },
    {
      "inputs": [
        {
          "internalType": "uint256",
          "name": "amountIn",
          "type": "uint256"
        },
        {
          "internalType": "address",
          "name": "tokenOut",
          "type": "address"
        },
        {
          "internalType": "uint256",
          "name": "slippage",
          "type": "uint256"
        },
        {
          "internalType": "address",
          "name": "to",
          "type": "address"
        },
        {
          "internalType": "uint256",
          "name": "deadlineOffset",
          "type": "uint256"
        }
      ],
      "name": "getSwapDataNative",
      "outputs": [
        {
          "components": [
            {
              "internalType": "contract IERC20",
              "name": "tokenIn",
              "type": "address"
            },
            {
              "internalType": "uint256",
              "name": "amountIn",
              "type": "uint256"
            },
            {
              "internalType": "address",
              "name": "tokenOut",
              "type": "address"
            },
            {
              "components": [
                {
                  "internalType": "address",
                  "name": "swapRouter",
                  "type": "address"
                },
                {
                  "internalType": "enum ISoulZap_UniV2.SwapType",
                  "name": "swapType",
                  "type": "uint8"
                },
                {
                  "internalType": "address[]",
                  "name": "path",
                  "type": "address[]"
                },
                {
                  "internalType": "uint256",
                  "name": "amountOut",
                  "type": "uint256"
                },
                {
                  "internalType": "uint256",
                  "name": "amountOutMin",
                  "type": "uint256"
                }
              ],
              "internalType": "struct ISoulZap_UniV2.SwapPath",
              "name": "path",
              "type": "tuple"
            },
            {
              "internalType": "address",
              "name": "to",
              "type": "address"
            },
            {
              "internalType": "uint256",
              "name": "deadline",
              "type": "uint256"
            }
          ],
          "internalType": "struct ISoulZap_UniV2.SwapParams",
          "name": "swapParams",
          "type": "tuple"
        },
        {
          "internalType": "bytes",
          "name": "encodedTx",
          "type": "bytes"
        },
        {
          "components": [
            {
              "internalType": "address",
              "name": "swapRouter",
              "type": "address"
            },
            {
              "internalType": "enum ISoulZap_UniV2.SwapType",
              "name": "swapType",
              "type": "uint8"
            },
            {
              "internalType": "address[]",
              "name": "path",
              "type": "address[]"
            },
            {
              "internalType": "uint256",
              "name": "amountOut",
              "type": "uint256"
            },
            {
              "internalType": "uint256",
              "name": "amountOutMin",
              "type": "uint256"
            }
          ],
          "internalType": "struct ISoulZap_UniV2.SwapPath",
          "name": "feeSwapPath",
          "type": "tuple"
        },
        {
          "internalType": "uint256",
          "name": "priceImpactPercentage",
          "type": "uint256"
        }
      ],
      "stateMutability": "view",
      "type": "function"
    },
    {
      "inputs": [
        {
          "internalType": "address",
          "name": "tokenIn",
          "type": "address"
        },
        {
          "internalType": "uint256",
          "name": "amountIn",
          "type": "uint256"
        },
        {
          "internalType": "contract IUniswapV2Pair",
          "name": "lp",
          "type": "address"
        },
        {
          "internalType": "uint256",
          "name": "slippage",
          "type": "uint256"
        },
        {
          "internalType": "address",
          "name": "to",
          "type": "address"
        },
        {
          "internalType": "uint256",
          "name": "deadlineOffset",
          "type": "uint256"
        }
      ],
      "name": "getZapData",
      "outputs": [
        {
          "components": [
            {
              "internalType": "contract IERC20",
              "name": "tokenIn",
              "type": "address"
            },
            {
              "internalType": "uint256",
              "name": "amountIn",
              "type": "uint256"
            },
            {
              "internalType": "address",
              "name": "token0",
              "type": "address"
            },
            {
              "internalType": "address",
              "name": "token1",
              "type": "address"
            },
            {
              "components": [
                {
                  "internalType": "address",
                  "name": "swapRouter",
                  "type": "address"
                },
                {
                  "internalType": "enum ISoulZap_UniV2.SwapType",
                  "name": "swapType",
                  "type": "uint8"
                },
                {
                  "internalType": "address[]",
                  "name": "path",
                  "type": "address[]"
                },
                {
                  "internalType": "uint256",
                  "name": "amountOut",
                  "type": "uint256"
                },
                {
                  "internalType": "uint256",
                  "name": "amountOutMin",
                  "type": "uint256"
                }
              ],
              "internalType": "struct ISoulZap_UniV2.SwapPath",
              "name": "path0",
              "type": "tuple"
            },
            {
              "components": [
                {
                  "internalType": "address",
                  "name": "swapRouter",
                  "type": "address"
                },
                {
                  "internalType": "enum ISoulZap_UniV2.SwapType",
                  "name": "swapType",
                  "type": "uint8"
                },
                {
                  "internalType": "address[]",
                  "name": "path",
                  "type": "address[]"
                },
                {
                  "internalType": "uint256",
                  "name": "amountOut",
                  "type": "uint256"
                },
                {
                  "internalType": "uint256",
                  "name": "amountOutMin",
                  "type": "uint256"
                }
              ],
              "internalType": "struct ISoulZap_UniV2.SwapPath",
              "name": "path1",
              "type": "tuple"
            },
            {
              "components": [
                {
                  "internalType": "address",
                  "name": "lpRouter",
                  "type": "address"
                },
                {
                  "internalType": "enum ISoulZap_UniV2.LPType",
                  "name": "lpType",
                  "type": "uint8"
                },
                {
                  "internalType": "uint256",
                  "name": "amountAMin",
                  "type": "uint256"
                },
                {
                  "internalType": "uint256",
                  "name": "amountBMin",
                  "type": "uint256"
                },
                {
                  "internalType": "uint256",
                  "name": "lpAmount",
                  "type": "uint256"
                }
              ],
              "internalType": "struct ISoulZap_UniV2.LiquidityPath",
              "name": "liquidityPath",
              "type": "tuple"
            },
            {
              "internalType": "address",
              "name": "to",
              "type": "address"
            },
            {
              "internalType": "uint256",
              "name": "deadline",
              "type": "uint256"
            }
          ],
          "internalType": "struct ISoulZap_UniV2.ZapParams",
          "name": "zapParams",
          "type": "tuple"
        },
        {
          "internalType": "bytes",
          "name": "encodedTx",
          "type": "bytes"
        },
        {
          "components": [
            {
              "internalType": "address",
              "name": "swapRouter",
              "type": "address"
            },
            {
              "internalType": "enum ISoulZap_UniV2.SwapType",
              "name": "swapType",
              "type": "uint8"
            },
            {
              "internalType": "address[]",
              "name": "path",
              "type": "address[]"
            },
            {
              "internalType": "uint256",
              "name": "amountOut",
              "type": "uint256"
            },
            {
              "internalType": "uint256",
              "name": "amountOutMin",
              "type": "uint256"
            }
          ],
          "internalType": "struct ISoulZap_UniV2.SwapPath",
          "name": "feeSwapPath",
          "type": "tuple"
        },
        {
          "internalType": "uint256[]",
          "name": "priceImpactPercentages",
          "type": "uint256[]"
        }
      ],
      "stateMutability": "view",
      "type": "function"
    },
    {
      "inputs": [
        {
          "internalType": "uint256",
          "name": "amountIn",
          "type": "uint256"
        },
        {
          "internalType": "contract IUniswapV2Pair",
          "name": "lp",
          "type": "address"
        },
        {
          "internalType": "uint256",
          "name": "slippage",
          "type": "uint256"
        },
        {
          "internalType": "address",
          "name": "to",
          "type": "address"
        },
        {
          "internalType": "uint256",
          "name": "deadlineOffset",
          "type": "uint256"
        }
      ],
      "name": "getZapDataNative",
      "outputs": [
        {
          "components": [
            {
              "internalType": "contract IERC20",
              "name": "tokenIn",
              "type": "address"
            },
            {
              "internalType": "uint256",
              "name": "amountIn",
              "type": "uint256"
            },
            {
              "internalType": "address",
              "name": "token0",
              "type": "address"
            },
            {
              "internalType": "address",
              "name": "token1",
              "type": "address"
            },
            {
              "components": [
                {
                  "internalType": "address",
                  "name": "swapRouter",
                  "type": "address"
                },
                {
                  "internalType": "enum ISoulZap_UniV2.SwapType",
                  "name": "swapType",
                  "type": "uint8"
                },
                {
                  "internalType": "address[]",
                  "name": "path",
                  "type": "address[]"
                },
                {
                  "internalType": "uint256",
                  "name": "amountOut",
                  "type": "uint256"
                },
                {
                  "internalType": "uint256",
                  "name": "amountOutMin",
                  "type": "uint256"
                }
              ],
              "internalType": "struct ISoulZap_UniV2.SwapPath",
              "name": "path0",
              "type": "tuple"
            },
            {
              "components": [
                {
                  "internalType": "address",
                  "name": "swapRouter",
                  "type": "address"
                },
                {
                  "internalType": "enum ISoulZap_UniV2.SwapType",
                  "name": "swapType",
                  "type": "uint8"
                },
                {
                  "internalType": "address[]",
                  "name": "path",
                  "type": "address[]"
                },
                {
                  "internalType": "uint256",
                  "name": "amountOut",
                  "type": "uint256"
                },
                {
                  "internalType": "uint256",
                  "name": "amountOutMin",
                  "type": "uint256"
                }
              ],
              "internalType": "struct ISoulZap_UniV2.SwapPath",
              "name": "path1",
              "type": "tuple"
            },
            {
              "components": [
                {
                  "internalType": "address",
                  "name": "lpRouter",
                  "type": "address"
                },
                {
                  "internalType": "enum ISoulZap_UniV2.LPType",
                  "name": "lpType",
                  "type": "uint8"
                },
                {
                  "internalType": "uint256",
                  "name": "amountAMin",
                  "type": "uint256"
                },
                {
                  "internalType": "uint256",
                  "name": "amountBMin",
                  "type": "uint256"
                },
                {
                  "internalType": "uint256",
                  "name": "lpAmount",
                  "type": "uint256"
                }
              ],
              "internalType": "struct ISoulZap_UniV2.LiquidityPath",
              "name": "liquidityPath",
              "type": "tuple"
            },
            {
              "internalType": "address",
              "name": "to",
              "type": "address"
            },
            {
              "internalType": "uint256",
              "name": "deadline",
              "type": "uint256"
            }
          ],
          "internalType": "struct ISoulZap_UniV2.ZapParams",
          "name": "zapParams",
          "type": "tuple"
        },
        {
          "internalType": "bytes",
          "name": "encodedTx",
          "type": "bytes"
        },
        {
          "components": [
            {
              "internalType": "address",
              "name": "swapRouter",
              "type": "address"
            },
            {
              "internalType": "enum ISoulZap_UniV2.SwapType",
              "name": "swapType",
              "type": "uint8"
            },
            {
              "internalType": "address[]",
              "name": "path",
              "type": "address[]"
            },
            {
              "internalType": "uint256",
              "name": "amountOut",
              "type": "uint256"
            },
            {
              "internalType": "uint256",
              "name": "amountOutMin",
              "type": "uint256"
            }
          ],
          "internalType": "struct ISoulZap_UniV2.SwapPath",
          "name": "feeSwapPath",
          "type": "tuple"
        },
        {
          "internalType": "uint256[]",
          "name": "priceImpactPercentages",
          "type": "uint256[]"
        }
      ],
      "stateMutability": "view",
      "type": "function"
    },
    {
      "inputs": [
        {
          "internalType": "address",
          "name": "_token",
          "type": "address"
        }
      ],
      "name": "isHopToken",
      "outputs": [
        {
          "internalType": "bool",
          "name": "",
          "type": "bool"
        }
      ],
      "stateMutability": "view",
      "type": "function"
    },
    {
      "inputs": [
        {
          "internalType": "address",
          "name": "_token0",
          "type": "address"
        },
        {
          "internalType": "address",
          "name": "_token1",
          "type": "address"
        }
      ],
      "name": "pairExists",
      "outputs": [
        {
          "internalType": "bool",
          "name": "",
          "type": "bool"
        }
      ],
      "stateMutability": "view",
      "type": "function"
    },
    {
      "inputs": [
        {
          "internalType": "address[]",
          "name": "_tokens",
          "type": "address[]"
        }
      ],
      "name": "removeHopTokens",
      "outputs": [],
      "stateMutability": "nonpayable",
      "type": "function"
    },
    {
      "inputs": [],
      "name": "router",
      "outputs": [
        {
          "internalType": "contract IUniswapV2Router02",
          "name": "",
          "type": "address"
        }
      ],
      "stateMutability": "view",
      "type": "function"
    },
    {
      "inputs": [],
      "name": "soulAccessRegistry",
      "outputs": [
        {
          "internalType": "address",
          "name": "",
          "type": "address"
        }
      ],
      "stateMutability": "view",
      "type": "function"
    },
    {
      "inputs": [],
      "name": "soulZap",
      "outputs": [
        {
          "internalType": "contract ISoulZap_UniV2",
          "name": "",
          "type": "address"
        }
      ],
      "stateMutability": "view",
      "type": "function"
    }
  ],
  "bytecode": "0x60e0604052601360a0527f534f554c5f5a41505f41444d494e5f524f4c450000000000000000000000000060c0527f9162b82d28c4229191f5443c914283af7dcda1d12ad2f1c473f980eb39315edc6001553480156200005e57600080fd5b506040516200389138038062003891833981016040819052620000819162000604565b826001600160a01b03166360d561da6040518163ffffffff1660e01b8152600401602060405180830381865afa158015620000c0573d6000803e3d6000fd5b505050506040513d601f19601f82011682018060405250810190620000e6919062000704565b600080546001600160a01b0319166001600160a01b03928316179055604080516302ce073d60e61b815290519185169163b381cf40916004808201926020929091908290030181865afa15801562000142573d6000803e3d6000fd5b505050506040513d601f19601f8201168201806040525081019062000168919062000704565b6001600160a01b0316826001600160a01b031663ad5c46486040518163ffffffff1660e01b8152600401602060405180830381865afa158015620001b0573d6000803e3d6000fd5b505050506040513d601f19601f82011682018060405250810190620001d6919062000704565b6001600160a01b031614620002475760405162461bcd60e51b815260206004820152602c60248201527f536f756c5a61705f556e6956325f4c656e733a20574e415449564520213d207260448201526b6f757465722e57455448282960a01b60648201526084015b60405180910390fd5b600380546001600160a01b0319166001600160a01b0384169081179091556040805163c45a015560e01b8152905163c45a0155916004808201926020929091908290030181865afa158015620002a1573d6000803e3d6000fd5b505050506040513d601f19601f82011682018060405250810190620002c7919062000704565b600280546001600160a01b0319166001600160a01b0392909216919091179055620002f28162000385565b600480546001600160a01b0319166001600160a01b0385169081178255604080516302ce073d60e61b81529051919263b381cf409282820192602092908290030181865afa15801562000349573d6000803e3d6000fd5b505050506040513d601f19601f820116820180604052508101906200036f919062000704565b6001600160a01b03166080525062000782915050565b601462000393600562000510565b8251620003a191906200073a565b1115620003fb5760405162461bcd60e51b815260206004820152602160248201527f4578636565646564206d6178696d756d20686f7020746f6b656e73206c696d696044820152601d60fa1b60648201526084016200023e565b60005b81518110156200050c5760008282815181106200041f576200041f62000750565b6020026020010151905060006001600160a01b0316816001600160a01b0316036200048d5760405162461bcd60e51b815260206004820152601e60248201527f486f7020546f6b656e2063616e6e6f742062652061646472657373283029000060448201526064016200023e565b620004988162000521565b15620004e75760405162461bcd60e51b815260206004820152601a60248201527f486f7020546f6b656e20616c726561647920696e636c7564656400000000000060448201526064016200023e565b620004f460058262000530565b50508080620005039062000766565b915050620003fe565b5050565b60006200051b825490565b92915050565b60006200051b6005836200054e565b600062000547836001600160a01b03841662000571565b9392505050565b6001600160a01b0381166000908152600183016020526040812054151562000547565b6000818152600183016020526040812054620005ba575081546001818101845560008481526020808220909301849055845484825282860190935260409020919091556200051b565b5060006200051b565b6001600160a01b0381168114620005d957600080fd5b50565b634e487b7160e01b600052604160045260246000fd5b8051620005ff81620005c3565b919050565b6000806000606084860312156200061a57600080fd5b83516200062781620005c3565b809350506020808501516200063c81620005c3565b60408601519093506001600160401b03808211156200065a57600080fd5b818701915087601f8301126200066f57600080fd5b815181811115620006845762000684620005dc565b8060051b604051601f19603f83011681018181108582111715620006ac57620006ac620005dc565b60405291825284820192508381018501918a831115620006cb57600080fd5b938501935b82851015620006f457620006e485620005f2565b84529385019392850192620006d0565b8096505050505050509250925092565b6000602082840312156200071757600080fd5b81516200054781620005c3565b634e487b7160e01b600052601160045260246000fd5b808201808211156200051b576200051b62000724565b634e487b7160e01b600052603260045260246000fd5b6000600182016200077b576200077b62000724565b5060010190565b6080516130e5620007ac6000396000818161026b01528181610e9e015261124901526130e56000f3fe608060405234801561001057600080fd5b50600436106101515760003560e01c8063a57fc831116100cd578063c4e6ec3b11610081578063e1b9b3f111610066578063e1b9b3f1146102e6578063e42055fa146102f9578063f887ea401461030c57600080fd5b8063c4e6ec3b146102a0578063ccde7658146102c357600080fd5b8063b3800d22116100b2578063b3800d2214610253578063b381cf4014610266578063c45a01551461028d57600080fd5b8063a57fc8311461022d578063a72a9d581461024057600080fd5b8063281c28d11161012457806358fbf38a1161010957806358fbf38a146101e457806360d561da146101f757806366a7bc4b1461020a57600080fd5b8063281c28d1146101b15780633cdc7d31146101dc57600080fd5b80631832609214610156578063232b2e351461017257806323c019361461019457806325bc0fa31461019c575b600080fd5b61015f60015481565b6040519081526020015b60405180910390f35b61018561018036600461261a565b61031f565b60405161016993929190612697565b61015f601481565b6101af6101aa3660046127b9565b610526565b005b6004546101c4906001600160a01b031681565b6040516001600160a01b039091168152602001610169565b61015f6105a1565b6101c46101f23660046127f6565b6105b2565b6000546101c4906001600160a01b031681565b61021d61021836600461261a565b610646565b6040519015158152602001610169565b61015f61023b36600461280f565b6106e4565b6101af61024e3660046127b9565b6107d8565b61021d610261366004612856565b61080f565b6101c47f000000000000000000000000000000000000000000000000000000000000000081565b6002546101c4906001600160a01b031681565b6102b36102ae366004612873565b61081c565b6040516101699493929190612a2d565b6102d66102d1366004612a78565b6108e2565b6040516101699493929190612bcc565b6102b36102f4366004612a78565b61094a565b6102d6610307366004612873565b61099f565b6003546101c4906001600160a01b031681565b6060806060600061032e6105a1565b90508067ffffffffffffffff811115610349576103496126da565b604051908082528060200260200182016040528015610372578160200160208202803683370190505b5093508067ffffffffffffffff81111561038e5761038e6126da565b6040519080825280602002602001820160405280156103b7578160200160208202803683370190505b5092508067ffffffffffffffff8111156103d3576103d36126da565b6040519080825280602002602001820160405280156103fc578160200160208202803683370190505b5091506000806000805b84811015610513576000610419826105b2565b905060006104278c83610646565b90508015610468578189868151811061044257610442612c4a565b6001600160a01b03909216602092830291909101909101528461046481612c76565b9550505b6000610474838d610646565b905080156104b5578289868151811061048f5761048f612c4a565b6001600160a01b0390921660209283029190910190910152846104b181612c76565b9550505b8180156104bf5750805b156104fd57828b88815181106104d7576104d7612c4a565b6001600160a01b0390921660209283029190910190910152866104f981612c76565b9750505b505050808061050b90612c76565b915050610406565b5091865284528252509194909350909150565b6001546105338133610a65565b6105505760405163224af60760e11b815260040160405180910390fd5b60005b825181101561059c5761058983828151811061057157610571612c4a565b60200260200101516005610afb90919063ffffffff16565b508061059481612c76565b915050610553565b505050565b60006105ad6005610b10565b905090565b60006105bc6105a1565b82106106355760405162461bcd60e51b815260206004820152602760248201527f536f756c5a61705f556e6956325f4c656e733a20696e646578206f7574206f6660448201527f20626f756e64730000000000000000000000000000000000000000000000000060648201526084015b60405180910390fd5b610640600583610b1a565b92915050565b60025460405163e6a4390560e01b81526001600160a01b0384811660048301528381166024830152600092839291169063e6a4390590604401602060405180830381865afa15801561069c573d6000803e3d6000fd5b505050506040513d601f19601f820116820180604052508101906106c09190612c9a565b90506001600160a01b0381166106da576000915050610640565b5060019392505050565b6003546040517fd06ca61f0000000000000000000000000000000000000000000000000000000081526000916001600160a01b03169063d06ca61f906107309086908690600401612cb7565b600060405180830381865afa92505050801561076e57506040513d6000823e601f3d908101601f1916820160405261076b9190810190612cd0565b60015b6107a8573d80801561079c576040519150601f19603f3d011682016040523d82523d6000602084013e6107a1565b606091505b5050610640565b80600182516107b79190612d61565b815181106107c7576107c7612c4a565b602002602001015191505092915050565b6001546107e58133610a65565b6108025760405163224af60760e11b815260040160405180910390fd5b61080b82610b26565b5050565b6000610640600583610cb4565b6108246124a3565b6040805160a08101825260008082526020820181905260609282018390528183018190526080820152600061085d8a8a8a8a8a8a610cd6565b60405192965090935091506108789085908490602401612d74565b60408051601f198184030181529190526020810180517bffffffffffffffffffffffffffffffffffffffffffffffffffffffff167f3066e0a000000000000000000000000000000000000000000000000000000000179052939a9399509097509550909350505050565b6108ea61251c565b6040805160a08101825260008082526020820181905260609282018390528183018190526080820152606061093773eeeeeeeeeeeeeeeeeeeeeeeeeeeeeeeeeeeeeeee8a8a8a8a8a61099f565b929c919b50995090975095505050505050565b6109526124a3565b6040805160a08101825260008082526020820181905260609282018390528183018190526080820152600061093773eeeeeeeeeeeeeeeeeeeeeeeeeeeeeeeeeeeeeeee8a8a8a8a8a61081c565b6109a761251c565b6040805160a0810182526000808252602082018190526060928201839052818301819052608082015260606109e08a8a8a8a8a8a610fdd565b60405192965090935091506109fb9085908490602401612da2565b60408051601f198184030181529190526020810180517bffffffffffffffffffffffffffffffffffffffffffffffffffffffff167f9e01ec1d00000000000000000000000000000000000000000000000000000000179052939a9399509097509550909350505050565b600080546040517f91d14854000000000000000000000000000000000000000000000000000000008152600481018590526001600160a01b038481166024830152909116906391d1485490604401602060405180830381865afa158015610ad0573d6000803e3d6000fd5b505050506040513d601f19601f82011682018060405250810190610af49190612db5565b9392505050565b6000610af4836001600160a01b038416611587565b6000610640825490565b6000610af4838361167a565b6014610b326005610b10565b8251610b3e9190612dd7565b1115610bb25760405162461bcd60e51b815260206004820152602160248201527f4578636565646564206d6178696d756d20686f7020746f6b656e73206c696d6960448201527f7400000000000000000000000000000000000000000000000000000000000000606482015260840161062c565b60005b815181101561080b576000828281518110610bd257610bd2612c4a565b6020026020010151905060006001600160a01b0316816001600160a01b031603610c3e5760405162461bcd60e51b815260206004820152601e60248201527f486f7020546f6b656e2063616e6e6f7420626520616464726573732830290000604482015260640161062c565b610c478161080f565b15610c945760405162461bcd60e51b815260206004820152601a60248201527f486f7020546f6b656e20616c726561647920696e636c75646564000000000000604482015260640161062c565b610c9f6005826116a4565b50508080610cac90612c76565b915050610bb5565b6001600160a01b03811660009081526001830160205260408120541515610af4565b610cde6124a3565b610d116040805160a081019091526000808252602082019081526020016060815260200160008152602001600081525090565b6000808811610d735760405162461bcd60e51b815260206004820152602860248201527f536f756c5a61705f556e6956325f4c656e733a20616d6f756e74496e206d7573604482015267074206265203e20360c41b606482015260840161062c565b6001600160a01b038716610def5760405162461bcd60e51b815260206004820152602d60248201527f536f756c5a61705f556e6956325f4c656e733a20746f6b656e2063616e27742060448201527f6265206164647265737328302900000000000000000000000000000000000000606482015260840161062c565b866001600160a01b0316896001600160a01b031603610e765760405162461bcd60e51b815260206004820152602c60248201527f536f756c5a61705f556e6956325f4c656e733a20746f6b656e732063616e277460448201527f206265207468652073616d650000000000000000000000000000000000000000606482015260840161062c565b6001600160a01b03891673eeeeeeeeeeeeeeeeeeeeeeeeeeeeeeeeeeeeeeee148015610ec0577f000000000000000000000000000000000000000000000000000000000000000099505b610eed60405180606001604052806000815260200160006001600160a01b03168152602001600081525090565b610ef88b8b8a6116b9565b60408101519195509150600090610f0f908c612d61565b9050610f446040805160a081019091526000808252602082019081526020016060815260200160008152602001600081525090565b610f508d8c848d611922565b80965081925050506040518060c0016040528085610f6e578e610f84565b73eeeeeeeeeeeeeeeeeeeeeeeeeeeeeeeeeeeeeeee5b6001600160a01b031681526020018d81526020018c6001600160a01b031681526020018281526020018a6001600160a01b031681526020018942610fc89190612dd7565b81525096505050505096509650969350505050565b610fe561251c565b6110186040805160a081019091526000808252602082019081526020016060815260200160008152602001600081525090565b60606000881161107b5760405162461bcd60e51b815260206004820152602860248201527f536f756c5a61705f556e6956325f4c656e733a20616d6f756e74496e206d7573604482015267074206265203e20360c41b606482015260840161062c565b6001600160a01b0387166110f75760405162461bcd60e51b815260206004820152602a60248201527f536f756c5a61705f556e6956325f4c656e733a206c702063616e27742062652060448201527f6164647265737328302900000000000000000000000000000000000000000000606482015260840161062c565b866001600160a01b031663c45a01556040518163ffffffff1660e01b8152600401602060405180830381865afa925050508015611151575060408051601f3d908101601f1916820190925261114e91810190612c9a565b60015b61119d5760405162461bcd60e51b815260206004820152601d60248201527f536f756c5a61705f556e6956325f4c656e733a204e6f7420616e204c50000000604482015260640161062c565b6002546001600160a01b038281169116146112205760405162461bcd60e51b815260206004820152603460248201527f536f756c5a61705f556e6956325f4c656e733a204c5020666163746f7279206460448201527f6f65736e2774206d6174636820666163746f7279000000000000000000000000606482015260840161062c565b506001600160a01b03891673eeeeeeeeeeeeeeeeeeeeeeeeeeeeeeeeeeeeeeee14801561126b577f000000000000000000000000000000000000000000000000000000000000000099505b6112758542612dd7565b610100850152602084018990528061128d57896112a3565b73eeeeeeeeeeeeeeeeeeeeeeeeeeeeeeeeeeeeeeee5b6001600160a01b039081168552861660e085015260408051606081018252600080825260208201819052918101919091526112df8b8b8a6116b9565b604081015191955091506000906112f6908c612d61565b90506000808b6001600160a01b0316630dfe16816040518163ffffffff1660e01b8152600401602060405180830381865afa925050508015611355575060408051601f3d908101601f1916820190925261135291810190612c9a565b60015b61138f573d808015611383576040519150601f19603f3d011682016040523d82523d6000602084013e611388565b606091505b5050611392565b91505b8b6001600160a01b031663d21220a76040518163ffffffff1660e01b8152600401602060405180830381865afa9250505080156113ec575060408051601f3d908101601f191682019092526113e991810190612c9a565b60015b611426573d80801561141a576040519150601f19603f3d011682016040523d82523d6000602084013e61141f565b606091505b5050611429565b90505b6001600160a01b0382161580159061144957506001600160a01b03811615155b1561152e57600061145b600285612dea565b6001600160a01b0380851660408c0152831660608b01529050600260405190808252806020026020018201604052801561149f578160200160208202803683370190505b5096506114ae8f84838f611922565b8a608001896000815181106114c5576114c5612c4a565b602002602001018281525082905250506114e18f83838f611922565b8a60a001896001815181106114f8576114f8612c4a565b602002602001018281525082905250506115238d8a60800151608001518b60a0015160800151611c07565b60c08a015250611576565b60405162461bcd60e51b815260206004820152601860248201527f6c702061646472657373206e6f742061637475616c206c700000000000000000604482015260640161062c565b505050505096509650969350505050565b600081815260018301602052604081205480156116705760006115ab600183612d61565b85549091506000906115bf90600190612d61565b90508181146116245760008660000182815481106115df576115df612c4a565b906000526020600020015490508087600001848154811061160257611602612c4a565b6000918252602080832090910192909255918252600188019052604090208390555b855486908061163557611635612e0c565b600190038181906000526020600020016000905590558560010160008681526020019081526020016000206000905560019350505050610640565b6000915050610640565b600082600001828154811061169157611691612c4a565b9060005260206000200154905092915050565b6000610af4836001600160a01b038416611eb8565b6116ec6040805160a081019091526000808252602082019081526020016060815260200160008152602001600081525090565b61171960405180606001604052806000815260200160006001600160a01b03168152602001600081525090565b6000806000600460009054906101000a90046001600160a01b03166001600160a01b03166202eab76040518163ffffffff1660e01b8152600401600060405180830381865afa158015611770573d6000803e3d6000fd5b505050506040513d6000823e601f3d908101601f191682016040526117989190810190612e22565b5092509250925081600014806118325750600480546040517f16ad82d70000000000000000000000000000000000000000000000000000000081526001600160a01b038b8116938201939093529116906316ad82d790602401602060405180830381865afa15801561180e573d6000803e3d6000fd5b505050506040513d601f19601f820116820180604052508101906118329190612db5565b1561183f5750505061191a565b8184528061184d8389612ee2565b6118579190612dea565b60408501526000805b84518110156119145784818151811061187b5761187b612c4a565b6020908102919091018101516001600160a01b0316908701819052604087015160009182916118ac918e918d611922565b9150915060006118c489602001518460800151611f07565b9050848111156118fe57809450829950606461271060036118e59190612ee2565b6118ef9190612dea565b8210156118fe57505050611914565b505050808061190c90612c76565b915050611860565b50505050505b935093915050565b6119556040805160a081019091526000808252602082019081526020016060815260200160008152602001600081525090565b6000846001600160a01b0316866001600160a01b03160361197f5750608081018390526000611bfe565b6000602083018190526003546001600160a01b03168352806119a2888888611f1b565b604086018290526060860181905290925090508560005b60018660400151516119cb9190612d61565b811015611b9c576000866040015182815181106119ea576119ea612c4a565b6020026020010151905060008760400151836001611a089190612dd7565b81518110611a1857611a18612c4a565b602090810291909101015160025460405163e6a4390560e01b81526001600160a01b03858116600483015280841660248301529293506000928392169063e6a4390590604401602060405180830381865afa158015611a7b573d6000803e3d6000fd5b505050506040513d601f19601f82011682018060405250810190611a9f9190612c9a565b6001600160a01b0316630902f1ac6040518163ffffffff1660e01b8152600401606060405180830381865afa158015611adc573d6000803e3d6000fd5b505050506040513d601f19601f82011682018060405250810190611b009190612f17565b506dffffffffffffffffffffffffffff1691506dffffffffffffffffffffffffffff169150826001600160a01b0316846001600160a01b03161115611b4157905b81611b54670de0b6b3a764000083612ee2565b611b5e9190612dea565b611b689087612ee2565b95508415611b8557611b82670de0b6b3a764000087612dea565b95505b505050508080611b9490612c76565b9150506119b9565b5080611bb2670de0b6b3a7640000612710612ee2565b611bbc9084612ee2565b611bc69190612dea565b611bd290612710612d61565b9350612710611be18782612d61565b611beb9084612ee2565b611bf59190612dea565b60808601525050505b94509492505050565b611c3a6040805160a081019091526000808252602082019081526020016000815260200160008152602001600081525090565b600080856001600160a01b0316630902f1ac6040518163ffffffff1660e01b8152600401606060405180830381865afa158015611c7b573d6000803e3d6000fd5b505050506040513d601f19601f82011682018060405250810190611c9f9190612f17565b506dffffffffffffffffffffffffffff1691506dffffffffffffffffffffffffffff1691506000866001600160a01b03166318160ddd6040518163ffffffff1660e01b8152600401602060405180830381865afa158015611d04573d6000803e3d6000fd5b505050506040513d601f19601f82011682018060405250810190611d289190612f67565b600354604051632b58577b60e21b81526004810189905260248101869052604481018590529192506000916001600160a01b039091169063ad615dec90606401602060405180830381865afa158015611d85573d6000803e3d6000fd5b505050506040513d601f19601f82011682018060405250810190611da99190612f67565b905085811115611e3457600354604051632b58577b60e21b81526004810188905260248101859052604481018690526001600160a01b039091169063ad615dec90606401602060405180830381865afa158015611e0a573d6000803e3d6000fd5b505050506040513d601f19601f82011682018060405250810190611e2e9190612f67565b96508590505b600084611e41848a612ee2565b611e4b9190612dea565b9050600084611e5a8585612ee2565b611e649190612dea565b90506000818310611e755781611e77565b825b6040805160a0810182526003546001600160a01b03168152600060208201529081019b909b5260608b01949094525050506080870152509395945050505050565b6000818152600183016020526040812054611eff57508154600181810184556000848152602080822090930184905584548482528286019093526040902091909155610640565b506000610640565b6000610af482611f16856123cb565b61243b565b60606000836001600160a01b0316856001600160a01b031603611f3f57508161191a565b611f498585610646565b15611fe35760408051600280825260608201835290916020830190803683370190505091508482600081518110611f8257611f82612c4a565b60200260200101906001600160a01b031690816001600160a01b0316815250508382600181518110611fb657611fb6612c4a565b60200260200101906001600160a01b031690816001600160a01b031681525050611fe083836106e4565b90505b6000806000611ff2888861031f565b92509250925081516000148061200757508051155b1561206a576120168888610646565b6120625760405162461bcd60e51b815260206004820152601260248201527f4e6f2073776170207061746820666f756e640000000000000000000000000000604482015260640161062c565b50505061191a565b8251156121895760005b835181101561218757604080516003808252608082019092526000916020820160608036833701905050905089816000815181106120b4576120b4612c4a565b60200260200101906001600160a01b031690816001600160a01b0316815250508482815181106120e6576120e6612c4a565b60200260200101518160018151811061210157612101612c4a565b60200260200101906001600160a01b031690816001600160a01b031681525050888160028151811061213557612135612c4a565b60200260200101906001600160a01b031690816001600160a01b031681525050600061216189836106e4565b905086811115612172578197508096505b5050808061217f90612c76565b915050612074565b505b60005b82518110156123bf57876001600160a01b03168382815181106121b1576121b1612c4a565b60200260200101516001600160a01b031603156123ad5760005b82518110156123ab578281815181106121e6576121e6612c4a565b60200260200101516001600160a01b03168a6001600160a01b03161480612250575082818151811061221a5761221a612c4a565b60200260200101516001600160a01b031684838151811061223d5761223d612c4a565b60200260200101516001600160a01b0316145b6123995760408051600480825260a08201909252600091602082016080803683370190505090508a8160008151811061228b5761228b612c4a565b60200260200101906001600160a01b031690816001600160a01b0316815250508483815181106122bd576122bd612c4a565b6020026020010151816001815181106122d8576122d8612c4a565b60200260200101906001600160a01b031690816001600160a01b03168152505083828151811061230a5761230a612c4a565b60200260200101518160028151811061232557612325612c4a565b60200260200101906001600160a01b031690816001600160a01b031681525050898160038151811061235957612359612c4a565b60200260200101906001600160a01b031690816001600160a01b03168152505060006123858a836106e4565b905087811115612396578198508097505b50505b806123a381612c76565b9150506121cb565b505b806123b781612c76565b91505061218c565b50505050935093915050565b6000816001600160a01b031663313ce5676040518163ffffffff1660e01b8152600401602060405180830381865afa925050508015612427575060408051601f3d908101601f1916820190925261242491810190612f80565b60015b61243357506012919050565b90505b919050565b600060128260ff16111561247057612454601283612fa3565b61245f90600a6130a0565b6124699084612dea565b9050610640565b60128260ff16101561249c57612487826012612fa3565b61249290600a6130a0565b6124699084612ee2565b5081610640565b6040518060c0016040528060006001600160a01b031681526020016000815260200160006001600160a01b031681526020016125086040805160a081019091526000808252602082019081526020016060815260200160008152602001600081525090565b815260006020820181905260409091015290565b60405180610120016040528060006001600160a01b031681526020016000815260200160006001600160a01b0316815260200160006001600160a01b031681526020016125926040805160a081019091526000808252602082019081526020016060815260200160008152602001600081525090565b81526020016125ca6040805160a081019091526000808252602082019081526020016060815260200160008152602001600081525090565b81526020016125086040805160a081019091526000808252602082019081526020016000815260200160008152602001600081525090565b6001600160a01b038116811461261757600080fd5b50565b6000806040838503121561262d57600080fd5b823561263881612602565b9150602083013561264881612602565b809150509250929050565b600081518084526020808501945080840160005b8381101561268c5781516001600160a01b031687529582019590820190600101612667565b509495945050505050565b6060815260006126aa6060830186612653565b82810360208401526126bc8186612653565b905082810360408401526126d08185612653565b9695505050505050565b634e487b7160e01b600052604160045260246000fd5b604051601f8201601f1916810167ffffffffffffffff81118282101715612719576127196126da565b604052919050565b600067ffffffffffffffff82111561273b5761273b6126da565b5060051b60200190565b600082601f83011261275657600080fd5b8135602061276b61276683612721565b6126f0565b82815260059290921b8401810191818101908684111561278a57600080fd5b8286015b848110156127ae5780356127a181612602565b835291830191830161278e565b509695505050505050565b6000602082840312156127cb57600080fd5b813567ffffffffffffffff8111156127e257600080fd5b6127ee84828501612745565b949350505050565b60006020828403121561280857600080fd5b5035919050565b6000806040838503121561282257600080fd5b82359150602083013567ffffffffffffffff81111561284057600080fd5b61284c85828601612745565b9150509250929050565b60006020828403121561286857600080fd5b8135610af481612602565b60008060008060008060c0878903121561288c57600080fd5b863561289781612602565b95506020870135945060408701356128ae81612602565b93506060870135925060808701356128c581612602565b8092505060a087013590509295509295509295565b6001811061261757634e487b7160e01b600052602160045260246000fd5b600060a083016001600160a01b0380845116855260208085015161291b816128da565b8682015260408581015160a09188019190915280519384905281019260009060c08801905b8083101561296257855185168252948301946001929092019190830190612940565b506060870151606089015260808701516080890152809550505050505092915050565b60006001600160a01b0380835116845260208301516020850152806040840151166040850152606083015160c060608601526129c460c08601826128f8565b905081608085015116608086015260a084015160a0860152809250505092915050565b6000815180845260005b81811015612a0d576020818501810151868301820152016129f1565b506000602082860101526020601f19601f83011685010191505092915050565b608081526000612a406080830187612985565b8281036020840152612a5281876129e7565b90508281036040840152612a6681866128f8565b91505082606083015295945050505050565b600080600080600060a08688031215612a9057600080fd5b853594506020860135612aa281612602565b9350604086013592506060860135612ab981612602565b949793965091946080013592915050565b6001600160a01b0381511682526020810151612ae5816128da565b60208301526040818101519083015260608082015190830152608090810151910152565b80516001600160a01b0316825260006101a0602083015160208501526040830151612b3f60408601826001600160a01b03169052565b506060830151612b5a60608601826001600160a01b03169052565b506080830151816080860152612b72828601826128f8565b91505060a083015184820360a0860152612b8c82826128f8565b91505060c0830151612ba160c0860182612aca565b5060e08301516001600160a01b03166101608501526101009092015161018090930192909252919050565b608081526000612bdf6080830187612b09565b602083820381850152612bf282886129e7565b91508382036040850152612c0682876128f8565b8481036060860152855180825282870193509082019060005b81811015612c3b57845183529383019391830191600101612c1f565b50909998505050505050505050565b634e487b7160e01b600052603260045260246000fd5b634e487b7160e01b600052601160045260246000fd5b600060018201612c8857612c88612c60565b5060010190565b805161243681612602565b600060208284031215612cac57600080fd5b8151610af481612602565b8281526040602082015260006127ee6040830184612653565b60006020808385031215612ce357600080fd5b825167ffffffffffffffff811115612cfa57600080fd5b8301601f81018513612d0b57600080fd5b8051612d1961276682612721565b81815260059190911b82018301908381019087831115612d3857600080fd5b928401925b82841015612d5657835182529284019290840190612d3d565b979650505050505050565b8181038181111561064057610640612c60565b604081526000612d876040830185612985565b8281036020840152612d9981856128f8565b95945050505050565b604081526000612d876040830185612b09565b600060208284031215612dc757600080fd5b81518015158114610af457600080fd5b8082018082111561064057610640612c60565b600082612e0757634e487b7160e01b600052601260045260246000fd5b500490565b634e487b7160e01b600052603160045260246000fd5b60008060008060808587031215612e3857600080fd5b845167ffffffffffffffff811115612e4f57600080fd5b8501601f81018713612e6057600080fd5b80516020612e7061276683612721565b82815260059290921b8301810191818101908a841115612e8f57600080fd5b938201935b83851015612eb6578451612ea781612602565b82529382019390820190612e94565b809850505080880151955050505060408501519150612ed760608601612c8f565b905092959194509250565b808202811582820484141761064057610640612c60565b80516dffffffffffffffffffffffffffff8116811461243657600080fd5b600080600060608486031215612f2c57600080fd5b612f3584612ef9565b9250612f4360208501612ef9565b9150604084015163ffffffff81168114612f5c57600080fd5b809150509250925092565b600060208284031215612f7957600080fd5b5051919050565b600060208284031215612f9257600080fd5b815160ff81168114610af457600080fd5b60ff828116828216039081111561064057610640612c60565b600181815b80851115612ff7578160001904821115612fdd57612fdd612c60565b80851615612fea57918102915b93841c9390800290612fc1565b509250929050565b60008261300e57506001610640565b8161301b57506000610640565b8160018114613031576002811461303b57613057565b6001915050610640565b60ff84111561304c5761304c612c60565b50506001821b610640565b5060208310610133831016604e8410600b841016171561307a575081810a610640565b6130848383612fbc565b806000190482111561309857613098612c60565b029392505050565b6000610af460ff841683612fff56fea26469706673582212200c7f19f59d4850be9bbb572b5b5620d13018c3189b2f4b2cfc1fa0f6f6d3e38864736f6c63430008130033",
  "linkReferences": {},
  "deployedLinkReferences": {}
}