{
  "_format": "hh-sol-artifact-1",
  "contractName": "SoulZap_UniV2",
  "sourceName": "contracts/SoulZap_UniV2.sol",
  "abi": [
    {
      "inputs": [
        {
          "internalType": "address",
          "name": "_accessRegistry",
          "type": "address"
        },
        {
          "internalType": "contract IWETH",
          "name": "_wnative",
          "type": "address"
        },
        {
          "internalType": "contract ISoulFeeManager",
          "name": "_soulFeeManager",
          "type": "address"
        },
        {
          "internalType": "uint256",
          "name": "_epochStartTime",
          "type": "uint256"
        }
      ],
      "stateMutability": "nonpayable",
      "type": "constructor"
    },
    {
      "inputs": [],
      "name": "SoulAccessUnauthorized",
      "type": "error"
    },
    {
      "anonymous": false,
      "inputs": [
        {
          "indexed": false,
          "internalType": "uint256",
          "name": "volumeAccumulated",
          "type": "uint256"
        },
        {
          "indexed": false,
          "internalType": "uint256",
          "name": "lifetimeCumulativeVolume",
          "type": "uint256"
        },
        {
          "indexed": false,
          "internalType": "uint256",
          "name": "epochStartCumulativeVolume",
          "type": "uint256"
        },
        {
          "indexed": false,
          "internalType": "uint256",
          "name": "currentEpochStartTime",
          "type": "uint256"
        }
      ],
      "name": "AccumulateVolume",
      "type": "event"
    },
    {
      "anonymous": false,
      "inputs": [
        {
          "indexed": false,
          "internalType": "uint8",
          "name": "version",
          "type": "uint8"
        }
      ],
      "name": "Initialized",
      "type": "event"
    },
    {
      "anonymous": false,
      "inputs": [
        {
          "indexed": false,
          "internalType": "address",
          "name": "account",
          "type": "address"
        }
      ],
      "name": "Paused",
      "type": "event"
    },
    {
      "anonymous": false,
      "inputs": [
        {
          "indexed": true,
          "internalType": "address",
          "name": "router",
          "type": "address"
        },
        {
          "indexed": false,
          "internalType": "bool",
          "name": "whitelisted",
          "type": "bool"
        }
      ],
      "name": "RouterWhitelisted",
      "type": "event"
    },
    {
      "anonymous": false,
      "inputs": [
        {
          "components": [
            {
              "internalType": "contract IERC20",
              "name": "tokenIn",
              "type": "address"
            },
            {
              "internalType": "uint256",
              "name": "amountIn",
              "type": "uint256"
            },
            {
              "internalType": "address",
              "name": "tokenOut",
              "type": "address"
            },
            {
              "components": [
                {
                  "internalType": "address",
                  "name": "swapRouter",
                  "type": "address"
                },
                {
                  "internalType": "enum ISoulZap_UniV2.SwapType",
                  "name": "swapType",
                  "type": "uint8"
                },
                {
                  "internalType": "address[]",
                  "name": "path",
                  "type": "address[]"
                },
                {
                  "internalType": "uint256",
                  "name": "amountOut",
                  "type": "uint256"
                },
                {
                  "internalType": "uint256",
                  "name": "amountOutMin",
                  "type": "uint256"
                }
              ],
              "internalType": "struct ISoulZap_UniV2.SwapPath",
              "name": "path",
              "type": "tuple"
            },
            {
              "internalType": "address",
              "name": "to",
              "type": "address"
            },
            {
              "internalType": "uint256",
              "name": "deadline",
              "type": "uint256"
            }
          ],
          "indexed": false,
          "internalType": "struct ISoulZap_UniV2.SwapParams",
          "name": "swapParams",
          "type": "tuple"
        }
      ],
      "name": "Swap",
      "type": "event"
    },
    {
      "anonymous": false,
      "inputs": [
        {
          "indexed": true,
          "internalType": "address",
          "name": "receiver",
          "type": "address"
        },
        {
          "components": [
            {
              "internalType": "contract IERC721",
              "name": "nftAddress",
              "type": "address"
            },
            {
              "internalType": "uint256[]",
              "name": "ids",
              "type": "uint256[]"
            }
          ],
          "indexed": true,
          "internalType": "struct Sweeper.NFT[]",
          "name": "nfts",
          "type": "tuple[]"
        }
      ],
      "name": "SweepWithdrawNFTs",
      "type": "event"
    },
    {
      "anonymous": false,
      "inputs": [
        {
          "indexed": true,
          "internalType": "address",
          "name": "receiver",
          "type": "address"
        },
        {
          "indexed": false,
          "internalType": "uint256",
          "name": "balance",
          "type": "uint256"
        }
      ],
      "name": "SweepWithdrawNative",
      "type": "event"
    },
    {
      "anonymous": false,
      "inputs": [
        {
          "indexed": true,
          "internalType": "address",
          "name": "receiver",
          "type": "address"
        },
        {
          "indexed": true,
          "internalType": "contract IERC20",
          "name": "token",
          "type": "address"
        },
        {
          "indexed": false,
          "internalType": "uint256",
          "name": "balance",
          "type": "uint256"
        }
      ],
      "name": "SweepWithdrawToken",
      "type": "event"
    },
    {
      "anonymous": false,
      "inputs": [
        {
          "indexed": false,
          "internalType": "address",
          "name": "account",
          "type": "address"
        }
      ],
      "name": "Unpaused",
      "type": "event"
    },
    {
      "anonymous": false,
      "inputs": [
        {
          "components": [
            {
              "internalType": "contract IERC20",
              "name": "tokenIn",
              "type": "address"
            },
            {
              "internalType": "uint256",
              "name": "amountIn",
              "type": "uint256"
            },
            {
              "internalType": "address",
              "name": "token0",
              "type": "address"
            },
            {
              "internalType": "address",
              "name": "token1",
              "type": "address"
            },
            {
              "components": [
                {
                  "internalType": "address",
                  "name": "swapRouter",
                  "type": "address"
                },
                {
                  "internalType": "enum ISoulZap_UniV2.SwapType",
                  "name": "swapType",
                  "type": "uint8"
                },
                {
                  "internalType": "address[]",
                  "name": "path",
                  "type": "address[]"
                },
                {
                  "internalType": "uint256",
                  "name": "amountOut",
                  "type": "uint256"
                },
                {
                  "internalType": "uint256",
                  "name": "amountOutMin",
                  "type": "uint256"
                }
              ],
              "internalType": "struct ISoulZap_UniV2.SwapPath",
              "name": "path0",
              "type": "tuple"
            },
            {
              "components": [
                {
                  "internalType": "address",
                  "name": "swapRouter",
                  "type": "address"
                },
                {
                  "internalType": "enum ISoulZap_UniV2.SwapType",
                  "name": "swapType",
                  "type": "uint8"
                },
                {
                  "internalType": "address[]",
                  "name": "path",
                  "type": "address[]"
                },
                {
                  "internalType": "uint256",
                  "name": "amountOut",
                  "type": "uint256"
                },
                {
                  "internalType": "uint256",
                  "name": "amountOutMin",
                  "type": "uint256"
                }
              ],
              "internalType": "struct ISoulZap_UniV2.SwapPath",
              "name": "path1",
              "type": "tuple"
            },
            {
              "components": [
                {
                  "internalType": "address",
                  "name": "lpRouter",
                  "type": "address"
                },
                {
                  "internalType": "enum ISoulZap_UniV2.LPType",
                  "name": "lpType",
                  "type": "uint8"
                },
                {
                  "internalType": "uint256",
                  "name": "amountAMin",
                  "type": "uint256"
                },
                {
                  "internalType": "uint256",
                  "name": "amountBMin",
                  "type": "uint256"
                },
                {
                  "internalType": "uint256",
                  "name": "lpAmount",
                  "type": "uint256"
                }
              ],
              "internalType": "struct ISoulZap_UniV2.LiquidityPath",
              "name": "liquidityPath",
              "type": "tuple"
            },
            {
              "internalType": "address",
              "name": "to",
              "type": "address"
            },
            {
              "internalType": "uint256",
              "name": "deadline",
              "type": "uint256"
            }
          ],
          "indexed": false,
          "internalType": "struct ISoulZap_UniV2.ZapParams",
          "name": "zapParams",
          "type": "tuple"
        }
      ],
      "name": "Zap",
      "type": "event"
    },
    {
      "inputs": [],
      "name": "SOUL_ZAP_ADMIN_ROLE",
      "outputs": [
        {
          "internalType": "bytes32",
          "name": "",
          "type": "bytes32"
        }
      ],
      "stateMutability": "view",
      "type": "function"
    },
    {
      "inputs": [],
      "name": "SOUL_ZAP_PAUSER_ROLE",
      "outputs": [
        {
          "internalType": "bytes32",
          "name": "",
          "type": "bytes32"
        }
      ],
      "stateMutability": "view",
      "type": "function"
    },
    {
      "inputs": [],
      "name": "WNATIVE",
      "outputs": [
        {
          "internalType": "contract IWETH",
          "name": "",
          "type": "address"
        }
      ],
      "stateMutability": "view",
      "type": "function"
    },
    {
      "inputs": [],
      "name": "allowNativeSweep",
      "outputs": [
        {
          "internalType": "bool",
          "name": "",
          "type": "bool"
        }
      ],
      "stateMutability": "view",
      "type": "function"
    },
    {
      "inputs": [],
      "name": "getEpochVolume",
      "outputs": [
        {
          "internalType": "uint256",
          "name": "",
          "type": "uint256"
        }
      ],
      "stateMutability": "view",
      "type": "function"
    },
    {
      "inputs": [],
      "name": "getEpochVolumeInfo",
      "outputs": [
        {
          "internalType": "uint256",
          "name": "epochVolume",
          "type": "uint256"
        },
        {
          "internalType": "uint256",
          "name": "lifetimeCumulativeVolume",
          "type": "uint256"
        },
        {
          "internalType": "uint256",
          "name": "epochStartCumulativeVolume",
          "type": "uint256"
        },
        {
          "internalType": "uint256",
          "name": "lastEpochStartTime",
          "type": "uint256"
        },
        {
          "internalType": "uint256",
          "name": "timeLeftInEpoch",
          "type": "uint256"
        },
        {
          "internalType": "uint256",
          "name": "epochDuration",
          "type": "uint256"
        }
      ],
      "stateMutability": "view",
      "type": "function"
    },
    {
      "inputs": [],
      "name": "getFeeInfo",
      "outputs": [
        {
          "internalType": "address[]",
          "name": "feeTokens",
          "type": "address[]"
        },
        {
          "internalType": "uint256",
          "name": "currentFeePercentage",
          "type": "uint256"
        },
        {
          "internalType": "uint256",
          "name": "feeDenominator",
          "type": "uint256"
        },
        {
          "internalType": "address",
          "name": "feeCollector",
          "type": "address"
        }
      ],
      "stateMutability": "view",
      "type": "function"
    },
    {
      "inputs": [],
      "name": "getTimeLeftInEpoch",
      "outputs": [
        {
          "internalType": "uint256",
          "name": "",
          "type": "uint256"
        }
      ],
      "stateMutability": "view",
      "type": "function"
    },
    {
      "inputs": [
        {
          "internalType": "uint256",
          "name": "_index",
          "type": "uint256"
        }
      ],
      "name": "getWhitelistedRouterAtIndex",
      "outputs": [
        {
          "internalType": "address",
          "name": "",
          "type": "address"
        }
      ],
      "stateMutability": "view",
      "type": "function"
    },
    {
      "inputs": [],
      "name": "getWhitelistedRouterCount",
      "outputs": [
        {
          "internalType": "uint256",
          "name": "",
          "type": "uint256"
        }
      ],
      "stateMutability": "view",
      "type": "function"
    },
    {
      "inputs": [
        {
          "internalType": "address",
          "name": "_token",
          "type": "address"
        }
      ],
      "name": "isFeeToken",
      "outputs": [
        {
          "internalType": "bool",
          "name": "valid",
          "type": "bool"
        }
      ],
      "stateMutability": "view",
      "type": "function"
    },
    {
      "inputs": [
        {
          "internalType": "address",
          "name": "_router",
          "type": "address"
        }
      ],
      "name": "isRouterWhitelisted",
      "outputs": [
        {
          "internalType": "bool",
          "name": "",
          "type": "bool"
        }
      ],
      "stateMutability": "view",
      "type": "function"
    },
    {
      "inputs": [
        {
          "internalType": "address",
          "name": "token",
          "type": "address"
        }
      ],
      "name": "lockToken",
      "outputs": [],
      "stateMutability": "nonpayable",
      "type": "function"
    },
    {
      "inputs": [
        {
          "internalType": "address[]",
          "name": "tokens",
          "type": "address[]"
        }
      ],
      "name": "lockTokens",
      "outputs": [],
      "stateMutability": "nonpayable",
      "type": "function"
    },
    {
      "inputs": [
        {
          "internalType": "address",
          "name": "",
          "type": "address"
        }
      ],
      "name": "lockedTokens",
      "outputs": [
        {
          "internalType": "bool",
          "name": "",
          "type": "bool"
        }
      ],
      "stateMutability": "view",
      "type": "function"
    },
    {
      "inputs": [],
      "name": "pause",
      "outputs": [],
      "stateMutability": "nonpayable",
      "type": "function"
    },
    {
      "inputs": [],
      "name": "paused",
      "outputs": [
        {
          "internalType": "bool",
          "name": "",
          "type": "bool"
        }
      ],
      "stateMutability": "view",
      "type": "function"
    },
    {
      "inputs": [],
      "name": "refuseNativeSweep",
      "outputs": [],
      "stateMutability": "nonpayable",
      "type": "function"
    },
    {
      "inputs": [
        {
          "internalType": "address",
          "name": "_router",
          "type": "address"
        },
        {
          "internalType": "bool",
          "name": "_isWhitelisted",
          "type": "bool"
        }
      ],
      "name": "setRouterWhitelist",
      "outputs": [],
      "stateMutability": "nonpayable",
      "type": "function"
    },
    {
      "inputs": [],
      "name": "soulAccessRegistry",
      "outputs": [
        {
          "internalType": "address",
          "name": "",
          "type": "address"
        }
      ],
      "stateMutability": "view",
      "type": "function"
    },
    {
      "inputs": [],
      "name": "soulFeeManager",
      "outputs": [
        {
          "internalType": "contract ISoulFeeManager",
          "name": "",
          "type": "address"
        }
      ],
      "stateMutability": "view",
      "type": "function"
    },
    {
      "inputs": [
        {
          "components": [
            {
              "internalType": "contract IERC20",
              "name": "tokenIn",
              "type": "address"
            },
            {
              "internalType": "uint256",
              "name": "amountIn",
              "type": "uint256"
            },
            {
              "internalType": "address",
              "name": "tokenOut",
              "type": "address"
            },
            {
              "components": [
                {
                  "internalType": "address",
                  "name": "swapRouter",
                  "type": "address"
                },
                {
                  "internalType": "enum ISoulZap_UniV2.SwapType",
                  "name": "swapType",
                  "type": "uint8"
                },
                {
                  "internalType": "address[]",
                  "name": "path",
                  "type": "address[]"
                },
                {
                  "internalType": "uint256",
                  "name": "amountOut",
                  "type": "uint256"
                },
                {
                  "internalType": "uint256",
                  "name": "amountOutMin",
                  "type": "uint256"
                }
              ],
              "internalType": "struct ISoulZap_UniV2.SwapPath",
              "name": "path",
              "type": "tuple"
            },
            {
              "internalType": "address",
              "name": "to",
              "type": "address"
            },
            {
              "internalType": "uint256",
              "name": "deadline",
              "type": "uint256"
            }
          ],
          "internalType": "struct ISoulZap_UniV2.SwapParams",
          "name": "swapParams",
          "type": "tuple"
        },
        {
          "components": [
            {
              "internalType": "address",
              "name": "swapRouter",
              "type": "address"
            },
            {
              "internalType": "enum ISoulZap_UniV2.SwapType",
              "name": "swapType",
              "type": "uint8"
            },
            {
              "internalType": "address[]",
              "name": "path",
              "type": "address[]"
            },
            {
              "internalType": "uint256",
              "name": "amountOut",
              "type": "uint256"
            },
            {
              "internalType": "uint256",
              "name": "amountOutMin",
              "type": "uint256"
            }
          ],
          "internalType": "struct ISoulZap_UniV2.SwapPath",
          "name": "feeSwapPath",
          "type": "tuple"
        }
      ],
      "name": "swap",
      "outputs": [],
      "stateMutability": "payable",
      "type": "function"
    },
    {
      "inputs": [
        {
          "components": [
            {
              "internalType": "contract IERC721",
              "name": "nftAddress",
              "type": "address"
            },
            {
              "internalType": "uint256[]",
              "name": "ids",
              "type": "uint256[]"
            }
          ],
          "internalType": "struct Sweeper.NFT[]",
          "name": "nfts",
          "type": "tuple[]"
        },
        {
          "internalType": "address",
          "name": "to",
          "type": "address"
        }
      ],
      "name": "sweepNFTs",
      "outputs": [],
      "stateMutability": "nonpayable",
      "type": "function"
    },
    {
      "inputs": [
        {
          "internalType": "address payable",
          "name": "_to",
          "type": "address"
        }
      ],
      "name": "sweepNative",
      "outputs": [],
      "stateMutability": "nonpayable",
      "type": "function"
    },
    {
      "inputs": [
        {
          "internalType": "contract IERC20[]",
          "name": "tokens",
          "type": "address[]"
        },
        {
          "internalType": "address",
          "name": "to",
          "type": "address"
        }
      ],
      "name": "sweepTokens",
      "outputs": [],
      "stateMutability": "nonpayable",
      "type": "function"
    },
    {
      "inputs": [
        {
          "internalType": "contract IERC20[]",
          "name": "tokens",
          "type": "address[]"
        },
        {
          "components": [
            {
              "internalType": "contract IERC721",
              "name": "nftAddress",
              "type": "address"
            },
            {
              "internalType": "uint256[]",
              "name": "ids",
              "type": "uint256[]"
            }
          ],
          "internalType": "struct Sweeper.NFT[]",
          "name": "nfts",
          "type": "tuple[]"
        },
        {
          "internalType": "address",
          "name": "to",
          "type": "address"
        }
      ],
      "name": "sweepTokensAndNFTs",
      "outputs": [],
      "stateMutability": "nonpayable",
      "type": "function"
    },
    {
      "inputs": [],
      "name": "unpause",
      "outputs": [],
      "stateMutability": "nonpayable",
      "type": "function"
    },
    {
      "inputs": [
        {
          "components": [
            {
              "internalType": "contract IERC20",
              "name": "tokenIn",
              "type": "address"
            },
            {
              "internalType": "uint256",
              "name": "amountIn",
              "type": "uint256"
            },
            {
              "internalType": "address",
              "name": "token0",
              "type": "address"
            },
            {
              "internalType": "address",
              "name": "token1",
              "type": "address"
            },
            {
              "components": [
                {
                  "internalType": "address",
                  "name": "swapRouter",
                  "type": "address"
                },
                {
                  "internalType": "enum ISoulZap_UniV2.SwapType",
                  "name": "swapType",
                  "type": "uint8"
                },
                {
                  "internalType": "address[]",
                  "name": "path",
                  "type": "address[]"
                },
                {
                  "internalType": "uint256",
                  "name": "amountOut",
                  "type": "uint256"
                },
                {
                  "internalType": "uint256",
                  "name": "amountOutMin",
                  "type": "uint256"
                }
              ],
              "internalType": "struct ISoulZap_UniV2.SwapPath",
              "name": "path0",
              "type": "tuple"
            },
            {
              "components": [
                {
                  "internalType": "address",
                  "name": "swapRouter",
                  "type": "address"
                },
                {
                  "internalType": "enum ISoulZap_UniV2.SwapType",
                  "name": "swapType",
                  "type": "uint8"
                },
                {
                  "internalType": "address[]",
                  "name": "path",
                  "type": "address[]"
                },
                {
                  "internalType": "uint256",
                  "name": "amountOut",
                  "type": "uint256"
                },
                {
                  "internalType": "uint256",
                  "name": "amountOutMin",
                  "type": "uint256"
                }
              ],
              "internalType": "struct ISoulZap_UniV2.SwapPath",
              "name": "path1",
              "type": "tuple"
            },
            {
              "components": [
                {
                  "internalType": "address",
                  "name": "lpRouter",
                  "type": "address"
                },
                {
                  "internalType": "enum ISoulZap_UniV2.LPType",
                  "name": "lpType",
                  "type": "uint8"
                },
                {
                  "internalType": "uint256",
                  "name": "amountAMin",
                  "type": "uint256"
                },
                {
                  "internalType": "uint256",
                  "name": "amountBMin",
                  "type": "uint256"
                },
                {
                  "internalType": "uint256",
                  "name": "lpAmount",
                  "type": "uint256"
                }
              ],
              "internalType": "struct ISoulZap_UniV2.LiquidityPath",
              "name": "liquidityPath",
              "type": "tuple"
            },
            {
              "internalType": "address",
              "name": "to",
              "type": "address"
            },
            {
              "internalType": "uint256",
              "name": "deadline",
              "type": "uint256"
            }
          ],
          "internalType": "struct ISoulZap_UniV2.ZapParams",
          "name": "zapParams",
          "type": "tuple"
        },
        {
          "components": [
            {
              "internalType": "address",
              "name": "swapRouter",
              "type": "address"
            },
            {
              "internalType": "enum ISoulZap_UniV2.SwapType",
              "name": "swapType",
              "type": "uint8"
            },
            {
              "internalType": "address[]",
              "name": "path",
              "type": "address[]"
            },
            {
              "internalType": "uint256",
              "name": "amountOut",
              "type": "uint256"
            },
            {
              "internalType": "uint256",
              "name": "amountOutMin",
              "type": "uint256"
            }
          ],
          "internalType": "struct ISoulZap_UniV2.SwapPath",
          "name": "feeSwapPath",
          "type": "tuple"
        }
      ],
      "name": "zap",
      "outputs": [],
      "stateMutability": "payable",
      "type": "function"
    },
    {
      "stateMutability": "payable",
      "type": "receive"
    }
  ],
  "bytecode": "0x6224ea0060035560016004819055600555601360c0527f534f554c5f5a41505f41444d494e5f524f4c450000000000000000000000000060e0527f9162b82d28c4229191f5443c914283af7dcda1d12ad2f1c473f980eb39315edc600c556101406040526014610100527f534f554c5f5a41505f5041555345525f524f4c45000000000000000000000000610120527fdd3033d0f711bbbcef7a32dab5fb628703ce2ebe8da76963b825d3f16dec1dd7600d55348015620000bf57600080fd5b5060405162004ace38038062004ace833981016040819052620000e29162000324565b604080516000808252602082019092529050600c54600080546001600160a01b0319166001600160a01b03881617815560019190869085908181036200012c574260065562000132565b60068290555b600782905560008190036200014e576224ea0060035562000154565b60038190555b50506008805462ff00001916905560016009556001600160a01b03166080526200017e8362000298565b600b805460ff19169215159290921790915560a0525060408051633f22b90360e01b815290516001600160a01b03841691633f22b9039160048083019260209291908290030181865afa158015620001da573d6000803e3d6000fd5b505050506040513d601f19601f820116820180604052508101906200020091906200037e565b620002685760405162461bcd60e51b815260206004820152602e60248201527f536f756c5a61703a20736f756c4665654d616e61676572206973206e6f74204960448201526d29b7bab62332b2a6b0b730b3b2b960911b606482015260840160405180910390fd5b50600b80546001600160a01b0390921661010002610100600160a81b031990921691909117905550620003e79050565b60005b815181101562000307576001600a6000848481518110620002c057620002c0620003a9565b6020908102919091018101516001600160a01b03168252810191909152604001600020805460ff191691151591909117905580620002fe81620003bf565b9150506200029b565b5050565b6001600160a01b03811681146200032157600080fd5b50565b600080600080608085870312156200033b57600080fd5b845162000348816200030b565b60208601519094506200035b816200030b565b60408601519093506200036e816200030b565b6060959095015193969295505050565b6000602082840312156200039157600080fd5b81518015158114620003a257600080fd5b9392505050565b634e487b7160e01b600052603260045260246000fd5b600060018201620003e057634e487b7160e01b600052601160045260246000fd5b5060010190565b60805160a05161465f6200046f6000396000818161069b015281816107090152818161083a01528181610e2701528181610e7c01528181610f0901526113f90152600081816101ca0152818161058901528181611690015281816116b60152818161192801528181611fb7015281816128050152818161317d01526131ed015261465f6000f3fe6080604052600436106101ba5760003560e01c80636b131ed2116100ec578063927d9b2a1161008a578063b381cf4011610064578063b381cf4014610577578063d3c277e7146105ab578063d9119330146105c0578063e38659d0146105e057600080fd5b8063927d9b2a146105395780639e01ec1d1461054e578063a45a04711461056157600080fd5b8063732ea971116100c6578063732ea971146104a257806378c093cf146104e45780637b224339146105045780638456cb591461052457600080fd5b80636b131ed2146104485780637071f0c41461046d578063728efc5f1461048d57600080fd5b8063304f56dc116101595780633f4ba83a116101335780633f4ba83a146103ad5780635c975abb146103c25780635eb7413a146103e057806360d561da1461041057600080fd5b8063304f56dc146103605780633066e0a0146103805780633ca416111461039357600080fd5b806310693fcd1161019557806310693fcd146102e757806316ad82d7146103075780631832609214610327578063299b55281461034b57600080fd5b806202eab7146102695780630420aab1146102975780630aef023f146102b757600080fd5b3661026457336001600160a01b037f000000000000000000000000000000000000000000000000000000000000000016146102625760405162461bcd60e51b815260206004820152602260248201527f536f756c5a61703a204f6e6c7920726563656976652066726f6d20574e41544960448201527f564500000000000000000000000000000000000000000000000000000000000060648201526084015b60405180910390fd5b005b600080fd5b34801561027557600080fd5b5061027e610600565b60405161028e94939291906137fc565b60405180910390f35b3480156102a357600080fd5b506102626102b2366004613a86565b610699565b3480156102c357600080fd5b506102d76102d2366004613ad8565b6106f4565b604051901515815260200161028e565b3480156102f357600080fd5b50610262610302366004613ad8565b610707565b34801561031357600080fd5b506102d7610322366004613ad8565b6107b3565b34801561033357600080fd5b5061033d600c5481565b60405190815260200161028e565b34801561035757600080fd5b5061033d610827565b34801561036c57600080fd5b5061026261037b366004613b64565b610838565b61026261038e366004613c6b565b610c4d565b34801561039f57600080fd5b50600b546102d79060ff1681565b3480156103b957600080fd5b50610262610df0565b3480156103ce57600080fd5b5060085462010000900460ff166102d7565b3480156103ec57600080fd5b506102d76103fb366004613ad8565b600a6020526000908152604090205460ff1681565b34801561041c57600080fd5b50600054610430906001600160a01b031681565b6040516001600160a01b03909116815260200161028e565b34801561045457600080fd5b50600b546104309061010090046001600160a01b031681565b34801561047957600080fd5b50610262610488366004613d4e565b610e25565b34801561049957600080fd5b50610262610e7a565b3480156104ae57600080fd5b506104b7610ecf565b604080519687526020870195909552938501929092526060840152608083015260a082015260c00161028e565b3480156104f057600080fd5b506102626104ff366004613ad8565b610f07565b34801561051057600080fd5b5061026261051f366004613d92565b611022565b34801561053057600080fd5b506102626111c9565b34801561054557600080fd5b5061033d6111fb565b61026261055c366004613e22565b611246565b34801561056d57600080fd5b5061033d600d5481565b34801561058357600080fd5b506104307f000000000000000000000000000000000000000000000000000000000000000081565b3480156105b757600080fd5b5061033d6113d2565b3480156105cc57600080fd5b506102626105db366004613f31565b6113f7565b3480156105ec57600080fd5b506104306105fb366004613f66565b611448565b600b546060906000908190819061010090046001600160a01b031663d45c267a6106286113d2565b6040518263ffffffff1660e01b815260040161064691815260200190565b600060405180830381865afa158015610663573d6000803e3d6000fd5b505050506040513d6000823e601f3d908101601f1916820160405261068b9190810190613f8a565b929791965094509092509050565b7f00000000000000000000000000000000000000000000000000000000000000006106c481336114ad565b6106e15760405163224af60760e11b815260040160405180910390fd5b60606106ee818585610838565b50505050565b6000610701600183611543565b92915050565b7f000000000000000000000000000000000000000000000000000000000000000061073281336114ad565b61074f5760405163224af60760e11b815260040160405180910390fd5b6040805160018082528183019092526000916020808301908036833701905050905082816000815181106107855761078561404a565b60200260200101906001600160a01b031690816001600160a01b0316815250506107ae81611565565b505050565b600b546040516316ad82d760e01b81526001600160a01b038381166004830152600092610100900416906316ad82d790602401602060405180830381865afa158015610803573d6000803e3d6000fd5b505050506040513d601f19601f820116820180604052508101906107019190614060565b600061083360016115cd565b905090565b7f000000000000000000000000000000000000000000000000000000000000000061086381336114ad565b6108805760405163224af60760e11b815260040160405180910390fd5b60005b8451811015610a5e5760008582815181106108a0576108a061404a565b6020908102919091018101516001600160a01b0381166000908152600a90925260409091205490915060ff16156109195760405162461bcd60e51b815260206004820152601560248201527f546f6b656e732063616e277420626520737765707400000000000000000000006044820152606401610259565b6040516370a0823160e01b81523060048201526000906001600160a01b038316906370a0823190602401602060405180830381865afa158015610960573d6000803e3d6000fd5b505050506040513d601f19601f82011682018060405250810190610984919061407d565b60405163a9059cbb60e01b81526001600160a01b038781166004830152602482018390529192509083169063a9059cbb906044016020604051808303816000875af11580156109d7573d6000803e3d6000fd5b505050506040513d601f19601f820116820180604052508101906109fb9190614060565b50816001600160a01b0316856001600160a01b03167f5bf76ef0db3550a96f76d3c13dfa002b5e1df9e4c4d65dce31f074c670b8b64883604051610a4191815260200190565b60405180910390a350508080610a56906140ac565b915050610883565b5060005b8351811015610bfd576000848281518110610a7f57610a7f61404a565b602090810291909101810151516001600160a01b0381166000908152600a90925260409091205490915060ff1615610af95760405162461bcd60e51b815260206004820152601560248201527f546f6b656e732063616e277420626520737765707400000000000000000000006044820152606401610259565b6000858381518110610b0d57610b0d61404a565b602002602001015160200151905060005b8151811015610be757826001600160a01b03166342842e0e3088858581518110610b4a57610b4a61404a565b60209081029190910101516040517fffffffff0000000000000000000000000000000000000000000000000000000060e086901b1681526001600160a01b0393841660048201529290911660248301526044820152606401600060405180830381600087803b158015610bbc57600080fd5b505af1158015610bd0573d6000803e3d6000fd5b505050508080610bdf906140ac565b915050610b1e565b5050508080610bf5906140ac565b915050610a62565b5082604051610c0c91906140c5565b604051908190038120906001600160a01b038416907fb7d54fb67ddf621754e70da8666b8f260b9d90d503a96e15fdf8753d59af387790600090a350505050565b610c556115d7565b610c5d611630565b8151602083015173eeeeeeeeeeeeeeeeeeeeeeeeeeeeeeeeeeeeeeed196001600160a01b03831601610d00576000610c9361168b565b915050808214610cfa5760405162461bcd60e51b815260206004820152602c60248201527f536f756c5a61703a20616d6f756e74496e206e6f7420657175616c20746f207760448201526b1c985c1c1959105b5bdd5b9d60a21b6064820152608401610259565b50610d4e565b3415610d4e5760405162461bcd60e51b815260206004820152601e60248201527f536f756c5a61703a206d73672e76616c75652073686f756c64206265203000006044820152606401610259565b83516001600160a01b031673eeeeeeeeeeeeeeeeeeeeeeeeeeeeeeeeeeeeeeed1901610d8557610d808484600161172c565b610de0565b6000610d948560000151611b86565b60208601518651919250610db5916001600160a01b03169033903090611bf1565b80610dc38660000151611b86565b610dcd9190614139565b6020860152610dde8585600161172c565b505b5050610dec6001600955565b5050565b600c54610dfd81336114ad565b610e1a5760405163224af60760e11b815260040160405180910390fd5b610e22611ca2565b50565b7f0000000000000000000000000000000000000000000000000000000000000000610e5081336114ad565b610e6d5760405163224af60760e11b815260040160405180910390fd5b60606106ee848285610838565b7f0000000000000000000000000000000000000000000000000000000000000000610ea581336114ad565b610ec25760405163224af60760e11b815260040160405180910390fd5b50600b805460ff19169055565b600080600080600080610ee06113d2565b600454600554600654610ef16111fb565b600354949b939a50919850965094509092509050565b7f0000000000000000000000000000000000000000000000000000000000000000610f3281336114ad565b610f4f5760405163224af60760e11b815260040160405180910390fd5b600b5460ff16610fa15760405162461bcd60e51b815260206004820152600b60248201527f4e6f7420616c6c6f7765640000000000000000000000000000000000000000006044820152606401610259565b60405147906001600160a01b0384169082156108fc029083906000818181858888f19350505050158015610fd9573d6000803e3d6000fd5b50826001600160a01b03167fdc495bd3b5344fcb85ff9c1b44ebfd7d2d9ee001c0826360fdbc13665f9cb4ed8260405161101591815260200190565b60405180910390a2505050565b60408051808201909152601381527f534f554c5f5a41505f41444d494e5f524f4c450000000000000000000000000060208201526110807f9162b82d28c4229191f5443c914283af7dcda1d12ad2f1c473f980eb39315edc336114ad565b61109d5760405163224af60760e11b815260040160405180910390fd5b8115611136576110ae600184611cf6565b6110fa5760405162461bcd60e51b815260206004820152601a60248201527f526f7574657220616c72656164792077686974656c69737465640000000000006044820152606401610259565b604051600181526001600160a01b038416907fcf2b36bf2aa8353623d06f58eab9577176d9214e588362c013a7eeb0586463f190602001611015565b611141600184611d0b565b61118d5760405162461bcd60e51b815260206004820152601660248201527f526f75746572206e6f742077686974656c6973746564000000000000000000006044820152606401610259565b604051600081526001600160a01b038416907fcf2b36bf2aa8353623d06f58eab9577176d9214e588362c013a7eeb0586463f190602001611015565b600d546111d681336114ad565b6111f35760405163224af60760e11b815260040160405180910390fd5b610e22611d20565b600060075442101561120d5750600090565b60006007544261121d9190614139565b905060006003548261122f9190614162565b90508060035461123f9190614139565b9250505090565b61124e6115d7565b611256611630565b8151602083015173eeeeeeeeeeeeeeeeeeeeeeeeeeeeeeeeeeeeeeed196001600160a01b038316016112f957600061128c61168b565b9150508082146112f35760405162461bcd60e51b815260206004820152602c60248201527f536f756c5a61703a20616d6f756e74496e206e6f7420657175616c20746f207760448201526b1c985c1c1959105b5bdd5b9d60a21b6064820152608401610259565b50611347565b34156113475760405162461bcd60e51b815260206004820152601e60248201527f536f756c5a61703a206d73672e76616c75652073686f756c64206265203000006044820152606401610259565b83516001600160a01b031673eeeeeeeeeeeeeeeeeeeeeeeeeeeeeeeeeeeeeeed190161137957610d8084846001611d61565b60006113888560000151611b86565b602086015186519192506113a9916001600160a01b03169033903090611bf1565b806113b78660000151611b86565b6113c19190614139565b6020860152610dde85856001611d61565b60006113dc61293e565b156113e75750600090565b6005546004546108339190614139565b7f000000000000000000000000000000000000000000000000000000000000000061142281336114ad565b61143f5760405163224af60760e11b815260040160405180910390fd5b610dec82611565565b600061145460016115cd565b82106114a25760405162461bcd60e51b815260206004820152601360248201527f496e646578206f7574206f6620626f756e6473000000000000000000000000006044820152606401610259565b610701600183612958565b600080546040517f91d14854000000000000000000000000000000000000000000000000000000008152600481018590526001600160a01b038481166024830152909116906391d1485490604401602060405180830381865afa158015611518573d6000803e3d6000fd5b505050506040513d601f19601f8201168201806040525081019061153c9190614060565b9392505050565b6001600160a01b0381166000908152600183016020526040812054151561153c565b60005b8151811015610dec576001600a60008484815181106115895761158961404a565b6020908102919091018101516001600160a01b03168252810191909152604001600020805460ff1916911515919091179055806115c5816140ac565b915050611568565b6000610701825490565b6002600954036116295760405162461bcd60e51b815260206004820152601f60248201527f5265656e7472616e637947756172643a207265656e7472616e742063616c6c006044820152606401610259565b6002600955565b60085462010000900460ff16156116895760405162461bcd60e51b815260206004820152601060248201527f5061757361626c653a20706175736564000000000000000000000000000000006044820152606401610259565b565b6000807f000000000000000000000000000000000000000000000000000000000000000091503490507f00000000000000000000000000000000000000000000000000000000000000006001600160a01b031663d0e30db0826040518263ffffffff1660e01b81526004016000604051808303818588803b15801561170f57600080fd5b505af1158015611723573d6000803e3d6000fd5b50505050509091565b60008360200151116117805760405162461bcd60e51b815260206004820152601d60248201527f536f756c5a61703a20616d6f756e74496e206d757374206265203e20300000006044820152606401610259565b60808301516001600160a01b03166118005760405162461bcd60e51b815260206004820152602360248201527f536f756c5a61703a2043616e2774207377617020746f206e756c6c206164647260448201527f65737300000000000000000000000000000000000000000000000000000000006064820152608401610259565b60408301516001600160a01b03166118685760405162461bcd60e51b815260206004820152602560248201527f536f756c5a61703a20746f6b656e4f75742063616e2774206265206164647265604482015264737328302960d81b6064820152608401610259565b82604001516001600160a01b031683600001516001600160a01b0316036118f75760405162461bcd60e51b815260206004820152602160248201527f536f756c5a61703a20746f6b656e732063616e2774206265207468652073616d60448201527f65000000000000000000000000000000000000000000000000000000000000006064820152608401610259565b82516001600160a01b031673eeeeeeeeeeeeeeeeeeeeeeeeeeeeeeeeeeeeeeee14801561194b576001600160a01b037f00000000000000000000000000000000000000000000000000000000000000001684525b811561197e5761196984600001518560200151858760a00151612964565b8460200181815161197a9190614139565b9052505b6060840151516001600160a01b03166119ec5760405162461bcd60e51b815260206004820152602a60248201527f536f756c5a61703a207377617020726f757465722063616e206e6f74206265206044820152696164647265737328302960b01b6064820152608401610259565b83600001516001600160a01b0316846060015160400151600081518110611a1557611a1561404a565b60200260200101516001600160a01b031614611a735760405162461bcd60e51b815260206004820152601b60248201527f536f756c5a61703a2077726f6e67207061746820706174685b305d00000000006044820152606401610259565b60408085015160608601519091015180516001600160a01b0390921691611a9c90600190614139565b81518110611aac57611aac61404a565b60200260200101516001600160a01b031614611b0a5760405162461bcd60e51b815260206004820152601c60248201527f536f756c5a61703a2077726f6e67207061746820706174685b2d315d000000006044820152606401610259565b60608401515160208501518551611b2c926001600160a01b0390911691612c50565b611b488460600151856020015186608001518760a00151612cf4565b507f8f6b93a35e02889ccab3af6294b788054d73dcb358d18b5df8a827adf615e1fa84604051611b789190614237565b60405180910390a150505050565b6040516370a0823160e01b81523060048201526000906001600160a01b038316906370a0823190602401602060405180830381865afa158015611bcd573d6000803e3d6000fd5b505050506040513d601f19601f82011682018060405250810190610701919061407d565b6040516001600160a01b03808516602483015283166044820152606481018290526106ee9085907f23b872dd00000000000000000000000000000000000000000000000000000000906084015b60408051601f198184030181529190526020810180517bffffffffffffffffffffffffffffffffffffffffffffffffffffffff167fffffffff0000000000000000000000000000000000000000000000000000000090931692909217909152612ef3565b611caa612fdb565b6008805462ff0000191690557f5db9ee0a495bf2e6ff9c91a7834c1ba4fdd244a5e8aa4e537bd38aeae4b073aa335b6040516001600160a01b03909116815260200160405180910390a1565b600061153c836001600160a01b038416613033565b600061153c836001600160a01b038416613082565b611d28611630565b6008805462ff00001916620100001790557f62e78cea01bee320cd4e420270b5ea74000d11b0c9f74754ebdbfc544b05a258611cd93390565b6000836020015111611db55760405162461bcd60e51b815260206004820152601d60248201527f536f756c5a61703a20616d6f756e74496e206d757374206265203e20300000006044820152606401610259565b60e08301516001600160a01b0316611e355760405162461bcd60e51b815260206004820152602260248201527f536f756c5a61703a2043616e2774207a617020746f206e756c6c20616464726560448201527f73730000000000000000000000000000000000000000000000000000000000006064820152608401610259565b60c0830151516001600160a01b0316611eb65760405162461bcd60e51b815260206004820152602860248201527f536f756c5a61703a206c7020726f757465722063616e206e6f7420626520616460448201527f64726573732830290000000000000000000000000000000000000000000000006064820152608401610259565b60408301516001600160a01b0316611f1e5760405162461bcd60e51b815260206004820152602560248201527f536f756c5a61703a20746f6b656e302063616e206e6f74206265206164647265604482015264737328302960d81b6064820152608401610259565b60608301516001600160a01b0316611f865760405162461bcd60e51b815260206004820152602560248201527f536f756c5a61703a20746f6b656e312063616e206e6f74206265206164647265604482015264737328302960d81b6064820152608401610259565b82516001600160a01b031673eeeeeeeeeeeeeeeeeeeeeeeeeeeeeeeeeeeeeeee148015611fda576001600160a01b037f00000000000000000000000000000000000000000000000000000000000000001684525b61201a6040518060e00160405280600081526020016000815260200160008152602001600081526020016000815260200160008152602001600081525090565b821561204e576120398560000151866020015186886101000151612964565b8560200181815161204a9190614139565b9052505b600060c086015160200151801561206757612067614176565b036121fc5760006001600160a01b03168560c00151600001516001600160a01b031663c45a01556040518163ffffffff1660e01b8152600401602060405180830381865afa1580156120bd573d6000803e3d6000fd5b505050506040513d601f19601f820116820180604052508101906120e191906142a0565b604080880151606089015191517fe6a439050000000000000000000000000000000000000000000000000000000081526001600160a01b0391821660048201529181166024830152919091169063e6a4390590604401602060405180830381865afa158015612154573d6000803e3d6000fd5b505050506040513d601f19601f8201168201806040525081019061217891906142a0565b6001600160a01b0316036121ce5760405162461bcd60e51b815260206004820152601b60248201527f536f756c5a61703a205061697220646f65736e277420657869737400000000006044820152606401610259565b600285602001516121df91906142bd565b815260208501516121f2906002906142bd565b6020820152612244565b60405162461bcd60e51b815260206004820152601d60248201527f536f756c5a61703a204c5054797065206e6f7420737570706f727465640000006044820152606401610259565b84600001516001600160a01b031685604001516001600160a01b031614612433576080850151516001600160a01b03166122d35760405162461bcd60e51b815260206004820152602a60248201527f536f756c5a61703a207377617020726f757465722063616e206e6f74206265206044820152696164647265737328302960b01b6064820152608401610259565b84600001516001600160a01b03168560800151604001516000815181106122fc576122fc61404a565b60200260200101516001600160a01b03161461235a5760405162461bcd60e51b815260206004820152601c60248201527f536f756c5a61703a2077726f6e6720706174682070617468305b305d000000006044820152606401610259565b60408086015160808701519091015180516001600160a01b039092169161238390600190614139565b815181106123935761239361404a565b60200260200101516001600160a01b0316146123f15760405162461bcd60e51b815260206004820152601d60248201527f536f756c5a61703a2077726f6e6720706174682070617468305b2d315d0000006044820152606401610259565b60808501515181518651612410926001600160a01b0390911691612c50565b6124298560800151826000015130886101000151612cf4565b604082015261244d565b806020015185602001516124479190614139565b60408201525b84600001516001600160a01b031685606001516001600160a01b03161461263e5760a0850151516001600160a01b03166124dc5760405162461bcd60e51b815260206004820152602a60248201527f536f756c5a61703a207377617020726f757465722063616e206e6f74206265206044820152696164647265737328302960b01b6064820152608401610259565b84600001516001600160a01b03168560a00151604001516000815181106125055761250561404a565b60200260200101516001600160a01b0316146125635760405162461bcd60e51b815260206004820152601c60248201527f536f756c5a61703a2077726f6e6720706174682070617468315b305d000000006044820152606401610259565b606085015160a08601516040015180516001600160a01b039092169161258b90600190614139565b8151811061259b5761259b61404a565b60200260200101516001600160a01b0316146125f95760405162461bcd60e51b815260206004820152601d60248201527f536f756c5a61703a2077726f6e6720706174682070617468315b2d315d0000006044820152606401610259565b60a0850151516020820151865161261b926001600160a01b0390911691612c50565b6126348560a00151826020015130886101000151612cf4565b6060820152612655565b8051602086015161264f9190614139565b60608201525b60c0850151516040808301519087015161267a926001600160a01b0390911691612c50565b60c0850151516060808301519087015161269f926001600160a01b0390911691612c50565b600060c08601516020015180156126b8576126b8614176565b036127bb5760c085015180516040808801516060808a0151868401518783015185880151939097015160e08d01516101008e015196517fe8e337000000000000000000000000000000000000000000000000000000000081526001600160a01b039687166004820152938616602485015260448401929092526064830197909752608482019290925260a4810195909552811660c485015260e4840191909152169063e8e3370090610104016060604051808303816000875af1158015612783573d6000803e3d6000fd5b505050506040513d601f19601f820116820180604052508101906127a791906142d1565b60c084015260a08301526080820152612803565b60405162461bcd60e51b815260206004820152601d60248201527f536f756c5a61703a206c7054797065206e6f7420737570706f727465640000006044820152606401610259565b7f00000000000000000000000000000000000000000000000000000000000000006001600160a01b031685604001516001600160a01b0316036128845761286385606001518260a00151836060015161285c9190614139565b3385613175565b61287f85604001518260800151836040015161285c9190614139565b6128bc565b6128a085604001518260800151836040015161285c9190614139565b6128bc85606001518260a00151836060015161285c9190614139565b60c08501515160408601516128de916001600160a01b03909116906000612c50565b60c0850151516060860151612900916001600160a01b03909116906000612c50565b7f8e1dbffc2c04c9b0567968ef85f4ac2a2488fc8f387be763637e04a0f9217ca18560405161292f919061433e565b60405180910390a15050505050565b6000600354600654612950919061440b565b421015905090565b600061153c8383613313565b600080600080612972610600565b935093509350508260000361298d5760009350505050612c48565b81612998848961441e565b6129a291906142bd565b9350600286604001515110612bb15785604001516000815181106129c8576129c861404a565b60200260200101516001600160a01b0316886001600160a01b031614612a565760405162461bcd60e51b815260206004820152602b60248201527f536f756c5a61703a20496e76616c696420696e70757420746f6b656e20696e2060448201527f66656553776170506174680000000000000000000000000000000000000000006064820152608401610259565b6040860151805160009190612a6d90600190614139565b81518110612a7d57612a7d61404a565b6020908102919091010151600b546040516316ad82d760e01b81526001600160a01b038084166004830152929350610100909104909116906316ad82d790602401602060405180830381865afa158015612adb573d6000803e3d6000fd5b505050506040513d601f19601f82011682018060405250810190612aff9190614060565b612b715760405162461bcd60e51b815260206004820152602c60248201527f536f756c5a61703a20496e76616c6964206f757470757420746f6b656e20696e60448201527f20666565537761705061746800000000000000000000000000000000000000006064820152608401610259565b8651612b88906001600160a01b038b169087612c50565b6000612b968887858a612cf4565b9050612baa612ba5838361333d565b613351565b5050612c44565b612bbe8885836000613175565b600b546040516316ad82d760e01b81526001600160a01b038a81166004830152610100909204909116906316ad82d790602401602060405180830381865afa158015612c0e573d6000803e3d6000fd5b505050506040513d601f19601f82011682018060405250810190612c329190614060565b15612c4457612c44612ba5898661333d565b5050505b949350505050565b604080516001600160a01b038416602482015260448082018490528251808303909101815260649091019091526020810180517bffffffffffffffffffffffffffffffffffffffffffffffffffffffff1663095ea7b360e01b179052612cb684826133dd565b6106ee576040516001600160a01b038416602482015260006044820152612cea90859063095ea7b360e01b90606401611c3e565b6106ee8482612ef3565b6000612d0385600001516106f4565b612d4f5760405162461bcd60e51b815260206004820152601f60248201527f536f756c5a61703a20726f75746572206e6f742077686974656c6973746564006044820152606401610259565b60028560400151511015612da55760405162461bcd60e51b815260206004820152601a60248201527f536f756c5a61703a206e656564207061746830206f66203e3d320000000000006044820152606401610259565b6040850151805160009190612dbc90600190614139565b81518110612dcc57612dcc61404a565b602002602001015190506000612de28286613484565b9050600060208801518015612df957612df9614176565b03612e8b57865160808801516040808a015190517f5c11d7950000000000000000000000000000000000000000000000000000000081526001600160a01b0390931692635c11d79592612e54928b928b908b90600401614435565b600060405180830381600087803b158015612e6e57600080fd5b505af1158015612e82573d6000803e3d6000fd5b50505050612ed3565b60405162461bcd60e51b815260206004820152601f60248201527f536f756c5a61703a205377617054797065206e6f7420737570706f72746564006044820152606401610259565b80612ede8387613484565b612ee89190614139565b979650505050505050565b6000612f48826040518060400160405280602081526020017f5361666545524332303a206c6f772d6c6576656c2063616c6c206661696c6564815250856001600160a01b03166134f29092919063ffffffff16565b9050805160001480612f69575080806020019051810190612f699190614060565b6107ae5760405162461bcd60e51b815260206004820152602a60248201527f5361666545524332303a204552433230206f7065726174696f6e20646964206e60448201527f6f742073756363656564000000000000000000000000000000000000000000006064820152608401610259565b60085462010000900460ff166116895760405162461bcd60e51b815260206004820152601460248201527f5061757361626c653a206e6f74207061757365640000000000000000000000006044820152606401610259565b600081815260018301602052604081205461307a57508154600181810184556000848152602080822090930184905584548482528286019093526040902091909155610701565b506000610701565b6000818152600183016020526040812054801561316b5760006130a6600183614139565b85549091506000906130ba90600190614139565b905081811461311f5760008660000182815481106130da576130da61404a565b90600052602060002001549050808760000184815481106130fd576130fd61404a565b6000918252602080832090910192909255918252600188019052604090208390555b855486908061313057613130614471565b600190038181906000526020600020016000905590558560010160008681526020019081526020016000206000905560019350505050610701565b6000915050610701565b82156106ee577f00000000000000000000000000000000000000000000000000000000000000006001600160a01b0316846001600160a01b03161480156131b95750805b156132ff576040517f2e1a7d4d000000000000000000000000000000000000000000000000000000008152600481018490527f00000000000000000000000000000000000000000000000000000000000000006001600160a01b031690632e1a7d4d90602401600060405180830381600087803b15801561323957600080fd5b505af115801561324d573d6000803e3d6000fd5b505050506000826001600160a01b03168461132390604051600060405180830381858888f193505050503d80600081146132a3576040519150601f19603f3d011682016040523d82523d6000602084013e6132a8565b606091505b50509050806132f95760405162461bcd60e51b815260206004820152601560248201527f6e6174697665207472616e73666572206572726f7200000000000000000000006044820152606401610259565b506106ee565b6106ee6001600160a01b0385168385613501565b600082600001828154811061332a5761332a61404a565b9060005260206000200154905092915050565b600061153c8261334c85613531565b6135a1565b60075442101561335e5750565b61336661293e565b1561337357613373613609565b8060046000828254613385919061440b565b909155505060045460055460065460408051858152602081019490945283019190915260608201527f31ad7dd187ed11599baf3412296f22f1c2a7783407ac9a8dddea680d6adb87c79060800160405180910390a150565b6000806000846001600160a01b0316846040516133fa91906144ab565b6000604051808303816000865af19150503d8060008114613437576040519150601f19603f3d011682016040523d82523d6000602084013e61343c565b606091505b50915091508180156134665750805115806134665750808060200190518101906134669190614060565b801561347b57506001600160a01b0385163b15155b95945050505050565b6040516370a0823160e01b81526001600160a01b038281166004830152600091908416906370a0823190602401602060405180830381865afa1580156134ce573d6000803e3d6000fd5b505050506040513d601f19601f8201168201806040525081019061153c919061407d565b6060612c488484600085613638565b6040516001600160a01b0383166024820152604481018290526107ae90849063a9059cbb60e01b90606401611c3e565b6000816001600160a01b031663313ce5676040518163ffffffff1660e01b8152600401602060405180830381865afa92505050801561358d575060408051601f3d908101601f1916820190925261358a918101906144c7565b60015b61359957506012919050565b90505b919050565b600060128260ff1611156135d6576135ba6012836144ea565b6135c590600a6145e7565b6135cf90846142bd565b9050610701565b60128260ff161015613602576135ed8260126144ea565b6135f890600a6145e7565b6135cf908461441e565b5081610701565b60045460055560035460075461361f9042614139565b6136299190614162565b6136339042614139565b600655565b6060824710156136b05760405162461bcd60e51b815260206004820152602660248201527f416464726573733a20696e73756666696369656e742062616c616e636520666f60448201527f722063616c6c00000000000000000000000000000000000000000000000000006064820152608401610259565b600080866001600160a01b031685876040516136cc91906144ab565b60006040518083038185875af1925050503d8060008114613709576040519150601f19603f3d011682016040523d82523d6000602084013e61370e565b606091505b5091509150612ee88783838760608315613789578251600003613782576001600160a01b0385163b6137825760405162461bcd60e51b815260206004820152601d60248201527f416464726573733a2063616c6c20746f206e6f6e2d636f6e74726163740000006044820152606401610259565b5081612c48565b612c48838381511561379e5781518083602001fd5b8060405162461bcd60e51b815260040161025991906145f6565b600081518084526020808501945080840160005b838110156137f15781516001600160a01b0316875295820195908201906001016137cc565b509495945050505050565b60808152600061380f60808301876137b8565b60208301959095525060408101929092526001600160a01b0316606090910152919050565b634e487b7160e01b600052604160045260246000fd5b6040805190810167ffffffffffffffff8111828210171561386d5761386d613834565b60405290565b60405160a0810167ffffffffffffffff8111828210171561386d5761386d613834565b60405160c0810167ffffffffffffffff8111828210171561386d5761386d613834565b604051610120810167ffffffffffffffff8111828210171561386d5761386d613834565b604051601f8201601f1916810167ffffffffffffffff8111828210171561390657613906613834565b604052919050565b600067ffffffffffffffff82111561392857613928613834565b5060051b60200190565b6001600160a01b0381168114610e2257600080fd5b600082601f83011261395857600080fd5b8135602061396d6139688361390e565b6138dd565b828152600592831b850182019282820191908785111561398c57600080fd5b8387015b85811015613a6e57803567ffffffffffffffff808211156139b15760008081fd5b908901906040828c03601f19018113156139cb5760008081fd5b6139d361384a565b888401356139e081613932565b815283820135838111156139f45760008081fd5b8085019450508c603f850112613a0c57600092508283fd5b888401359250613a1e6139688461390e565b83815292861b8401820192898101908e851115613a3b5760008081fd5b948301945b84861015613a595785358252948a0194908a0190613a40565b828b0152508752505050928401928401613990565b5090979650505050505050565b803561359c81613932565b60008060408385031215613a9957600080fd5b823567ffffffffffffffff811115613ab057600080fd5b613abc85828601613947565b9250506020830135613acd81613932565b809150509250929050565b600060208284031215613aea57600080fd5b813561153c81613932565b600082601f830112613b0657600080fd5b81356020613b166139688361390e565b82815260059290921b84018101918181019086841115613b3557600080fd5b8286015b84811015613b59578035613b4c81613932565b8352918301918301613b39565b509695505050505050565b600080600060608486031215613b7957600080fd5b833567ffffffffffffffff80821115613b9157600080fd5b613b9d87838801613af5565b94506020860135915080821115613bb357600080fd5b50613bc086828701613947565b9250506040840135613bd181613932565b809150509250925092565b60018110610e2257600080fd5b600060a08284031215613bfb57600080fd5b613c03613873565b90508135613c1081613932565b81526020820135613c2081613bdc565b6020820152604082013567ffffffffffffffff811115613c3f57600080fd5b613c4b84828501613af5565b604083015250606082013560608201526080820135608082015292915050565b60008060408385031215613c7e57600080fd5b823567ffffffffffffffff80821115613c9657600080fd5b9084019060c08287031215613caa57600080fd5b613cb2613896565b8235613cbd81613932565b8152602083810135908201526040830135613cd781613932565b6040820152606083013582811115613cee57600080fd5b613cfa88828601613be9565b6060830152506080830135613d0e81613932565b8060808301525060a083013560a0820152809450506020850135915080821115613d3757600080fd5b50613d4485828601613be9565b9150509250929050565b60008060408385031215613d6157600080fd5b823567ffffffffffffffff811115613d7857600080fd5b613abc85828601613af5565b8015158114610e2257600080fd5b60008060408385031215613da557600080fd5b8235613db081613932565b91506020830135613acd81613d84565b600060a08284031215613dd257600080fd5b613dda613873565b90508135613de781613932565b81526020820135613df781613bdc565b8060208301525060408201356040820152606082013560608201526080820135608082015292915050565b60008060408385031215613e3557600080fd5b823567ffffffffffffffff80821115613e4d57600080fd5b908401906101a08287031215613e6257600080fd5b613e6a6138b9565b613e7383613a7b565b815260208301356020820152613e8b60408401613a7b565b6040820152613e9c60608401613a7b565b6060820152608083013582811115613eb357600080fd5b613ebf88828601613be9565b60808301525060a083013582811115613ed757600080fd5b613ee388828601613be9565b60a083015250613ef68760c08501613dc0565b60c0820152613f086101608401613a7b565b60e0820152610180830135610100820152809450506020850135915080821115613d3757600080fd5b600060208284031215613f4357600080fd5b813567ffffffffffffffff811115613f5a57600080fd5b612c4884828501613af5565b600060208284031215613f7857600080fd5b5035919050565b805161359c81613932565b60008060008060808587031215613fa057600080fd5b845167ffffffffffffffff811115613fb757600080fd5b8501601f81018713613fc857600080fd5b80516020613fd86139688361390e565b82815260059290921b8301810191818101908a841115613ff757600080fd5b938201935b8385101561401e57845161400f81613932565b82529382019390820190613ffc565b80985050508088015195505050506040850151915061403f60608601613f7f565b905092959194509250565b634e487b7160e01b600052603260045260246000fd5b60006020828403121561407257600080fd5b815161153c81613d84565b60006020828403121561408f57600080fd5b5051919050565b634e487b7160e01b600052601160045260246000fd5b6000600182016140be576140be614096565b5060010190565b81516000908290602080860184805b8481101561412c57825180516001600160a01b031687528401518051908501908390868901905b8083101561411b57835182529287019260019290920191908701906140fb565b5097505050918301916001016140d4565b5093979650505050505050565b8181038181111561070157610701614096565b634e487b7160e01b600052601260045260246000fd5b6000826141715761417161414c565b500690565b634e487b7160e01b600052602160045260246000fd5b60018110610e2257634e487b7160e01b600052602160045260246000fd5b600060a083016001600160a01b038084511685526020808501516141cd8161418c565b8682015260408581015160a09188019190915280519384905281019260009060c08801905b80831015614214578551851682529483019460019290920191908301906141f2565b506060870151606089015260808701516080890152809550505050505092915050565b6020815260006001600160a01b0380845116602084015260208401516040840152806040850151166060840152606084015160c0608085015261427d60e08501826141aa565b90508160808601511660a085015260a085015160c0850152809250505092915050565b6000602082840312156142b257600080fd5b815161153c81613932565b6000826142cc576142cc61414c565b500490565b6000806000606084860312156142e657600080fd5b8351925060208401519150604084015190509250925092565b6001600160a01b038151168252602081015161431a8161418c565b60208301526040818101519083015260608082015190830152608090810151910152565b602081526143586020820183516001600160a01b03169052565b602082015160408201526000604083015161437e60608401826001600160a01b03169052565b5060608301516001600160a01b03811660808401525060808301516101a08060a08501526143b06101c08501836141aa565b915060a0850151601f198584030160c08601526143cd83826141aa565b92505060c08501516143e260e08601826142ff565b5060e08501516001600160a01b0316610180850152610100909401519390920192909252919050565b8082018082111561070157610701614096565b808202811582820484141761070157610701614096565b85815284602082015260a06040820152600061445460a08301866137b8565b6001600160a01b0394909416606083015250608001529392505050565b634e487b7160e01b600052603160045260246000fd5b60005b838110156144a257818101518382015260200161448a565b50506000910152565b600082516144bd818460208701614487565b9190910192915050565b6000602082840312156144d957600080fd5b815160ff8116811461153c57600080fd5b60ff828116828216039081111561070157610701614096565b600181815b8085111561453e57816000190482111561452457614524614096565b8085161561453157918102915b93841c9390800290614508565b509250929050565b60008261455557506001610701565b8161456257506000610701565b816001811461457857600281146145825761459e565b6001915050610701565b60ff84111561459357614593614096565b50506001821b610701565b5060208310610133831016604e8410600b84101617156145c1575081810a610701565b6145cb8383614503565b80600019048211156145df576145df614096565b029392505050565b600061153c60ff841683614546565b6020815260008251806020840152614615816040850160208701614487565b601f01601f1916919091016040019291505056fea264697066735822122036f6614d082e06a9a909074947e111d8b67a0bdb6d12bbdd5bc7fec6f8949d2d64736f6c63430008130033",
  "linkReferences": {},
  "deployedLinkReferences": {}
}