{
  "_format": "hh-sol-artifact-1",
  "contractName": "SoulZap_UniV2_Extended_V1_Lens",
  "sourceName": "contracts/full-versions/SoulZap_UniV2_Extended_V1_Lens.sol",
  "abi": [
    {
      "inputs": [
        {
          "internalType": "contract SoulZap_UniV2",
          "name": "_soulZap",
          "type": "address"
        },
        {
          "internalType": "contract IUniswapV2Router02",
          "name": "_router",
          "type": "address"
        },
        {
          "internalType": "address[]",
          "name": "_hopTokens",
          "type": "address[]"
        }
      ],
      "stateMutability": "nonpayable",
      "type": "constructor"
    },
    {
      "inputs": [],
      "name": "SoulAccessUnauthorized",
      "type": "error"
    },
    {
      "inputs": [],
      "name": "DEADLINE",
      "outputs": [
        {
          "internalType": "uint256",
          "name": "",
          "type": "uint256"
        }
      ],
      "stateMutability": "view",
      "type": "function"
    },
    {
      "inputs": [],
      "name": "MAX_HOP_TOKENS",
      "outputs": [
        {
          "internalType": "uint256",
          "name": "",
          "type": "uint256"
        }
      ],
      "stateMutability": "view",
      "type": "function"
    },
    {
      "inputs": [],
      "name": "SOUL_ZAP_ADMIN_ROLE",
      "outputs": [
        {
          "internalType": "bytes32",
          "name": "",
          "type": "bytes32"
        }
      ],
      "stateMutability": "view",
      "type": "function"
    },
    {
      "inputs": [],
      "name": "WNATIVE",
      "outputs": [
        {
          "internalType": "contract IWETH",
          "name": "",
          "type": "address"
        }
      ],
      "stateMutability": "view",
      "type": "function"
    },
    {
      "inputs": [
        {
          "internalType": "address[]",
          "name": "_tokens",
          "type": "address[]"
        }
      ],
      "name": "addHopTokens",
      "outputs": [],
      "stateMutability": "nonpayable",
      "type": "function"
    },
    {
      "inputs": [
        {
          "internalType": "uint256",
          "name": "_amountIn",
          "type": "uint256"
        },
        {
          "internalType": "address[]",
          "name": "_path",
          "type": "address[]"
        }
      ],
      "name": "calculateOutputAmount",
      "outputs": [
        {
          "internalType": "uint256",
          "name": "amountOut",
          "type": "uint256"
        }
      ],
      "stateMutability": "view",
      "type": "function"
    },
    {
      "inputs": [],
      "name": "factory",
      "outputs": [
        {
          "internalType": "contract IUniswapV2Factory",
          "name": "",
          "type": "address"
        }
      ],
      "stateMutability": "view",
      "type": "function"
    },
    {
      "inputs": [
        {
          "internalType": "address",
          "name": "_fromToken",
          "type": "address"
        },
        {
          "internalType": "address",
          "name": "_toToken",
          "type": "address"
        }
      ],
      "name": "findPossibleHopTokens",
      "outputs": [
        {
          "internalType": "address[]",
          "name": "sharedHopTokens",
          "type": "address[]"
        },
        {
          "internalType": "address[]",
          "name": "fromHopTokens",
          "type": "address[]"
        },
        {
          "internalType": "address[]",
          "name": "toHopTokens",
          "type": "address[]"
        }
      ],
      "stateMutability": "view",
      "type": "function"
    },
    {
      "inputs": [
        {
          "internalType": "uint256",
          "name": "_index",
          "type": "uint256"
        }
      ],
      "name": "getHopTokenAtIndex",
      "outputs": [
        {
          "internalType": "address",
          "name": "",
          "type": "address"
        }
      ],
      "stateMutability": "view",
      "type": "function"
    },
    {
      "inputs": [],
      "name": "getHopTokensLength",
      "outputs": [
        {
          "internalType": "uint256",
          "name": "",
          "type": "uint256"
        }
      ],
      "stateMutability": "view",
      "type": "function"
    },
    {
      "inputs": [
        {
          "internalType": "address",
          "name": "tokenIn",
          "type": "address"
        },
        {
          "internalType": "uint256",
          "name": "amountIn",
          "type": "uint256"
        },
        {
          "internalType": "address",
          "name": "tokenOut",
          "type": "address"
        },
        {
          "internalType": "uint256",
          "name": "slippage",
          "type": "uint256"
        },
        {
          "internalType": "address",
          "name": "to",
          "type": "address"
        }
      ],
      "name": "getSwapData",
      "outputs": [
        {
          "components": [
            {
              "internalType": "contract IERC20",
              "name": "tokenIn",
              "type": "address"
            },
            {
              "internalType": "uint256",
              "name": "amountIn",
              "type": "uint256"
            },
            {
              "internalType": "address",
              "name": "tokenOut",
              "type": "address"
            },
            {
              "components": [
                {
                  "internalType": "address",
                  "name": "swapRouter",
                  "type": "address"
                },
                {
                  "internalType": "enum ISoulZap_UniV2.SwapType",
                  "name": "swapType",
                  "type": "uint8"
                },
                {
                  "internalType": "address[]",
                  "name": "path",
                  "type": "address[]"
                },
                {
                  "internalType": "uint256",
                  "name": "amountOut",
                  "type": "uint256"
                },
                {
                  "internalType": "uint256",
                  "name": "amountOutMin",
                  "type": "uint256"
                }
              ],
              "internalType": "struct ISoulZap_UniV2.SwapPath",
              "name": "path",
              "type": "tuple"
            },
            {
              "internalType": "address",
              "name": "to",
              "type": "address"
            },
            {
              "internalType": "uint256",
              "name": "deadline",
              "type": "uint256"
            }
          ],
          "internalType": "struct ISoulZap_UniV2.SwapParams",
          "name": "swapParams",
          "type": "tuple"
        },
        {
          "internalType": "bytes",
          "name": "encodedTx",
          "type": "bytes"
        },
        {
          "components": [
            {
              "internalType": "address",
              "name": "swapRouter",
              "type": "address"
            },
            {
              "internalType": "enum ISoulZap_UniV2.SwapType",
              "name": "swapType",
              "type": "uint8"
            },
            {
              "internalType": "address[]",
              "name": "path",
              "type": "address[]"
            },
            {
              "internalType": "uint256",
              "name": "amountOut",
              "type": "uint256"
            },
            {
              "internalType": "uint256",
              "name": "amountOutMin",
              "type": "uint256"
            }
          ],
          "internalType": "struct ISoulZap_UniV2.SwapPath",
          "name": "feeSwapPath",
          "type": "tuple"
        },
        {
          "internalType": "uint256",
          "name": "priceImpactPercentage",
          "type": "uint256"
        }
      ],
      "stateMutability": "view",
      "type": "function"
    },
    {
      "inputs": [
        {
          "internalType": "uint256",
          "name": "amountIn",
          "type": "uint256"
        },
        {
          "internalType": "address",
          "name": "tokenOut",
          "type": "address"
        },
        {
          "internalType": "uint256",
          "name": "slippage",
          "type": "uint256"
        },
        {
          "internalType": "address",
          "name": "to",
          "type": "address"
        }
      ],
      "name": "getSwapDataNative",
      "outputs": [
        {
          "components": [
            {
              "internalType": "contract IERC20",
              "name": "tokenIn",
              "type": "address"
            },
            {
              "internalType": "uint256",
              "name": "amountIn",
              "type": "uint256"
            },
            {
              "internalType": "address",
              "name": "tokenOut",
              "type": "address"
            },
            {
              "components": [
                {
                  "internalType": "address",
                  "name": "swapRouter",
                  "type": "address"
                },
                {
                  "internalType": "enum ISoulZap_UniV2.SwapType",
                  "name": "swapType",
                  "type": "uint8"
                },
                {
                  "internalType": "address[]",
                  "name": "path",
                  "type": "address[]"
                },
                {
                  "internalType": "uint256",
                  "name": "amountOut",
                  "type": "uint256"
                },
                {
                  "internalType": "uint256",
                  "name": "amountOutMin",
                  "type": "uint256"
                }
              ],
              "internalType": "struct ISoulZap_UniV2.SwapPath",
              "name": "path",
              "type": "tuple"
            },
            {
              "internalType": "address",
              "name": "to",
              "type": "address"
            },
            {
              "internalType": "uint256",
              "name": "deadline",
              "type": "uint256"
            }
          ],
          "internalType": "struct ISoulZap_UniV2.SwapParams",
          "name": "swapParams",
          "type": "tuple"
        },
        {
          "internalType": "bytes",
          "name": "encodedTx",
          "type": "bytes"
        },
        {
          "components": [
            {
              "internalType": "address",
              "name": "swapRouter",
              "type": "address"
            },
            {
              "internalType": "enum ISoulZap_UniV2.SwapType",
              "name": "swapType",
              "type": "uint8"
            },
            {
              "internalType": "address[]",
              "name": "path",
              "type": "address[]"
            },
            {
              "internalType": "uint256",
              "name": "amountOut",
              "type": "uint256"
            },
            {
              "internalType": "uint256",
              "name": "amountOutMin",
              "type": "uint256"
            }
          ],
          "internalType": "struct ISoulZap_UniV2.SwapPath",
          "name": "feeSwapPath",
          "type": "tuple"
        },
        {
          "internalType": "uint256",
          "name": "priceImpactPercentage",
          "type": "uint256"
        }
      ],
      "stateMutability": "view",
      "type": "function"
    },
    {
      "inputs": [
        {
          "internalType": "address",
          "name": "tokenIn",
          "type": "address"
        },
        {
          "internalType": "uint256",
          "name": "amountIn",
          "type": "uint256"
        },
        {
          "internalType": "contract IUniswapV2Pair",
          "name": "lp",
          "type": "address"
        },
        {
          "internalType": "uint256",
          "name": "slippage",
          "type": "uint256"
        },
        {
          "internalType": "address",
          "name": "to",
          "type": "address"
        }
      ],
      "name": "getZapData",
      "outputs": [
        {
          "components": [
            {
              "internalType": "contract IERC20",
              "name": "tokenIn",
              "type": "address"
            },
            {
              "internalType": "uint256",
              "name": "amountIn",
              "type": "uint256"
            },
            {
              "internalType": "address",
              "name": "token0",
              "type": "address"
            },
            {
              "internalType": "address",
              "name": "token1",
              "type": "address"
            },
            {
              "components": [
                {
                  "internalType": "address",
                  "name": "swapRouter",
                  "type": "address"
                },
                {
                  "internalType": "enum ISoulZap_UniV2.SwapType",
                  "name": "swapType",
                  "type": "uint8"
                },
                {
                  "internalType": "address[]",
                  "name": "path",
                  "type": "address[]"
                },
                {
                  "internalType": "uint256",
                  "name": "amountOut",
                  "type": "uint256"
                },
                {
                  "internalType": "uint256",
                  "name": "amountOutMin",
                  "type": "uint256"
                }
              ],
              "internalType": "struct ISoulZap_UniV2.SwapPath",
              "name": "path0",
              "type": "tuple"
            },
            {
              "components": [
                {
                  "internalType": "address",
                  "name": "swapRouter",
                  "type": "address"
                },
                {
                  "internalType": "enum ISoulZap_UniV2.SwapType",
                  "name": "swapType",
                  "type": "uint8"
                },
                {
                  "internalType": "address[]",
                  "name": "path",
                  "type": "address[]"
                },
                {
                  "internalType": "uint256",
                  "name": "amountOut",
                  "type": "uint256"
                },
                {
                  "internalType": "uint256",
                  "name": "amountOutMin",
                  "type": "uint256"
                }
              ],
              "internalType": "struct ISoulZap_UniV2.SwapPath",
              "name": "path1",
              "type": "tuple"
            },
            {
              "components": [
                {
                  "internalType": "address",
                  "name": "lpRouter",
                  "type": "address"
                },
                {
                  "internalType": "enum ISoulZap_UniV2.LPType",
                  "name": "lpType",
                  "type": "uint8"
                },
                {
                  "internalType": "uint256",
                  "name": "amountAMin",
                  "type": "uint256"
                },
                {
                  "internalType": "uint256",
                  "name": "amountBMin",
                  "type": "uint256"
                },
                {
                  "internalType": "uint256",
                  "name": "lpAmount",
                  "type": "uint256"
                }
              ],
              "internalType": "struct ISoulZap_UniV2.LiquidityPath",
              "name": "liquidityPath",
              "type": "tuple"
            },
            {
              "internalType": "address",
              "name": "to",
              "type": "address"
            },
            {
              "internalType": "uint256",
              "name": "deadline",
              "type": "uint256"
            }
          ],
          "internalType": "struct ISoulZap_UniV2.ZapParams",
          "name": "zapParams",
          "type": "tuple"
        },
        {
          "internalType": "bytes",
          "name": "encodedTx",
          "type": "bytes"
        },
        {
          "components": [
            {
              "internalType": "address",
              "name": "swapRouter",
              "type": "address"
            },
            {
              "internalType": "enum ISoulZap_UniV2.SwapType",
              "name": "swapType",
              "type": "uint8"
            },
            {
              "internalType": "address[]",
              "name": "path",
              "type": "address[]"
            },
            {
              "internalType": "uint256",
              "name": "amountOut",
              "type": "uint256"
            },
            {
              "internalType": "uint256",
              "name": "amountOutMin",
              "type": "uint256"
            }
          ],
          "internalType": "struct ISoulZap_UniV2.SwapPath",
          "name": "feeSwapPath",
          "type": "tuple"
        },
        {
          "internalType": "uint256[]",
          "name": "priceImpactPercentages",
          "type": "uint256[]"
        }
      ],
      "stateMutability": "view",
      "type": "function"
    },
    {
      "inputs": [
        {
          "internalType": "address",
          "name": "tokenIn",
          "type": "address"
        },
        {
          "internalType": "uint256",
          "name": "amountIn",
          "type": "uint256"
        },
        {
          "internalType": "contract ICustomBillRefillable",
          "name": "bond",
          "type": "address"
        },
        {
          "internalType": "uint256",
          "name": "slippage",
          "type": "uint256"
        },
        {
          "internalType": "address",
          "name": "to",
          "type": "address"
        }
      ],
      "name": "getZapDataBond",
      "outputs": [
        {
          "components": [
            {
              "internalType": "contract IERC20",
              "name": "tokenIn",
              "type": "address"
            },
            {
              "internalType": "uint256",
              "name": "amountIn",
              "type": "uint256"
            },
            {
              "internalType": "address",
              "name": "token0",
              "type": "address"
            },
            {
              "internalType": "address",
              "name": "token1",
              "type": "address"
            },
            {
              "components": [
                {
                  "internalType": "address",
                  "name": "swapRouter",
                  "type": "address"
                },
                {
                  "internalType": "enum ISoulZap_UniV2.SwapType",
                  "name": "swapType",
                  "type": "uint8"
                },
                {
                  "internalType": "address[]",
                  "name": "path",
                  "type": "address[]"
                },
                {
                  "internalType": "uint256",
                  "name": "amountOut",
                  "type": "uint256"
                },
                {
                  "internalType": "uint256",
                  "name": "amountOutMin",
                  "type": "uint256"
                }
              ],
              "internalType": "struct ISoulZap_UniV2.SwapPath",
              "name": "path0",
              "type": "tuple"
            },
            {
              "components": [
                {
                  "internalType": "address",
                  "name": "swapRouter",
                  "type": "address"
                },
                {
                  "internalType": "enum ISoulZap_UniV2.SwapType",
                  "name": "swapType",
                  "type": "uint8"
                },
                {
                  "internalType": "address[]",
                  "name": "path",
                  "type": "address[]"
                },
                {
                  "internalType": "uint256",
                  "name": "amountOut",
                  "type": "uint256"
                },
                {
                  "internalType": "uint256",
                  "name": "amountOutMin",
                  "type": "uint256"
                }
              ],
              "internalType": "struct ISoulZap_UniV2.SwapPath",
              "name": "path1",
              "type": "tuple"
            },
            {
              "components": [
                {
                  "internalType": "address",
                  "name": "lpRouter",
                  "type": "address"
                },
                {
                  "internalType": "enum ISoulZap_UniV2.LPType",
                  "name": "lpType",
                  "type": "uint8"
                },
                {
                  "internalType": "uint256",
                  "name": "amountAMin",
                  "type": "uint256"
                },
                {
                  "internalType": "uint256",
                  "name": "amountBMin",
                  "type": "uint256"
                },
                {
                  "internalType": "uint256",
                  "name": "lpAmount",
                  "type": "uint256"
                }
              ],
              "internalType": "struct ISoulZap_UniV2.LiquidityPath",
              "name": "liquidityPath",
              "type": "tuple"
            },
            {
              "internalType": "address",
              "name": "to",
              "type": "address"
            },
            {
              "internalType": "uint256",
              "name": "deadline",
              "type": "uint256"
            }
          ],
          "internalType": "struct ISoulZap_UniV2.ZapParams",
          "name": "zapParams",
          "type": "tuple"
        },
        {
          "internalType": "bytes",
          "name": "encodedTx",
          "type": "bytes"
        },
        {
          "components": [
            {
              "internalType": "address",
              "name": "swapRouter",
              "type": "address"
            },
            {
              "internalType": "enum ISoulZap_UniV2.SwapType",
              "name": "swapType",
              "type": "uint8"
            },
            {
              "internalType": "address[]",
              "name": "path",
              "type": "address[]"
            },
            {
              "internalType": "uint256",
              "name": "amountOut",
              "type": "uint256"
            },
            {
              "internalType": "uint256",
              "name": "amountOutMin",
              "type": "uint256"
            }
          ],
          "internalType": "struct ISoulZap_UniV2.SwapPath",
          "name": "feeSwapPath",
          "type": "tuple"
        },
        {
          "internalType": "uint256[]",
          "name": "priceImpactPercentages",
          "type": "uint256[]"
        },
        {
          "components": [
            {
              "internalType": "contract ICustomBillRefillable",
              "name": "bond",
              "type": "address"
            },
            {
              "internalType": "uint256",
              "name": "maxPrice",
              "type": "uint256"
            }
          ],
          "internalType": "struct SoulZap_Ext_ApeBond_Lens.ZapParams_Ext_Bonds",
          "name": "zapParamsBonds",
          "type": "tuple"
        }
      ],
      "stateMutability": "view",
      "type": "function"
    },
    {
      "inputs": [
        {
          "internalType": "uint256",
          "name": "amountIn",
          "type": "uint256"
        },
        {
          "internalType": "contract ICustomBillRefillable",
          "name": "bond",
          "type": "address"
        },
        {
          "internalType": "uint256",
          "name": "slippage",
          "type": "uint256"
        },
        {
          "internalType": "address",
          "name": "to",
          "type": "address"
        }
      ],
      "name": "getZapDataBondNative",
      "outputs": [
        {
          "components": [
            {
              "internalType": "contract IERC20",
              "name": "tokenIn",
              "type": "address"
            },
            {
              "internalType": "uint256",
              "name": "amountIn",
              "type": "uint256"
            },
            {
              "internalType": "address",
              "name": "token0",
              "type": "address"
            },
            {
              "internalType": "address",
              "name": "token1",
              "type": "address"
            },
            {
              "components": [
                {
                  "internalType": "address",
                  "name": "swapRouter",
                  "type": "address"
                },
                {
                  "internalType": "enum ISoulZap_UniV2.SwapType",
                  "name": "swapType",
                  "type": "uint8"
                },
                {
                  "internalType": "address[]",
                  "name": "path",
                  "type": "address[]"
                },
                {
                  "internalType": "uint256",
                  "name": "amountOut",
                  "type": "uint256"
                },
                {
                  "internalType": "uint256",
                  "name": "amountOutMin",
                  "type": "uint256"
                }
              ],
              "internalType": "struct ISoulZap_UniV2.SwapPath",
              "name": "path0",
              "type": "tuple"
            },
            {
              "components": [
                {
                  "internalType": "address",
                  "name": "swapRouter",
                  "type": "address"
                },
                {
                  "internalType": "enum ISoulZap_UniV2.SwapType",
                  "name": "swapType",
                  "type": "uint8"
                },
                {
                  "internalType": "address[]",
                  "name": "path",
                  "type": "address[]"
                },
                {
                  "internalType": "uint256",
                  "name": "amountOut",
                  "type": "uint256"
                },
                {
                  "internalType": "uint256",
                  "name": "amountOutMin",
                  "type": "uint256"
                }
              ],
              "internalType": "struct ISoulZap_UniV2.SwapPath",
              "name": "path1",
              "type": "tuple"
            },
            {
              "components": [
                {
                  "internalType": "address",
                  "name": "lpRouter",
                  "type": "address"
                },
                {
                  "internalType": "enum ISoulZap_UniV2.LPType",
                  "name": "lpType",
                  "type": "uint8"
                },
                {
                  "internalType": "uint256",
                  "name": "amountAMin",
                  "type": "uint256"
                },
                {
                  "internalType": "uint256",
                  "name": "amountBMin",
                  "type": "uint256"
                },
                {
                  "internalType": "uint256",
                  "name": "lpAmount",
                  "type": "uint256"
                }
              ],
              "internalType": "struct ISoulZap_UniV2.LiquidityPath",
              "name": "liquidityPath",
              "type": "tuple"
            },
            {
              "internalType": "address",
              "name": "to",
              "type": "address"
            },
            {
              "internalType": "uint256",
              "name": "deadline",
              "type": "uint256"
            }
          ],
          "internalType": "struct ISoulZap_UniV2.ZapParams",
          "name": "zapParams",
          "type": "tuple"
        },
        {
          "internalType": "bytes",
          "name": "encodedTx",
          "type": "bytes"
        },
        {
          "components": [
            {
              "internalType": "address",
              "name": "swapRouter",
              "type": "address"
            },
            {
              "internalType": "enum ISoulZap_UniV2.SwapType",
              "name": "swapType",
              "type": "uint8"
            },
            {
              "internalType": "address[]",
              "name": "path",
              "type": "address[]"
            },
            {
              "internalType": "uint256",
              "name": "amountOut",
              "type": "uint256"
            },
            {
              "internalType": "uint256",
              "name": "amountOutMin",
              "type": "uint256"
            }
          ],
          "internalType": "struct ISoulZap_UniV2.SwapPath",
          "name": "feeSwapPath",
          "type": "tuple"
        },
        {
          "internalType": "uint256[]",
          "name": "priceImpactPercentages",
          "type": "uint256[]"
        },
        {
          "components": [
            {
              "internalType": "contract ICustomBillRefillable",
              "name": "bond",
              "type": "address"
            },
            {
              "internalType": "uint256",
              "name": "maxPrice",
              "type": "uint256"
            }
          ],
          "internalType": "struct SoulZap_Ext_ApeBond_Lens.ZapParams_Ext_Bonds",
          "name": "zapParamsBonds",
          "type": "tuple"
        }
      ],
      "stateMutability": "view",
      "type": "function"
    },
    {
      "inputs": [
        {
          "internalType": "uint256",
          "name": "amountIn",
          "type": "uint256"
        },
        {
          "internalType": "contract IUniswapV2Pair",
          "name": "lp",
          "type": "address"
        },
        {
          "internalType": "uint256",
          "name": "slippage",
          "type": "uint256"
        },
        {
          "internalType": "address",
          "name": "to",
          "type": "address"
        }
      ],
      "name": "getZapDataNative",
      "outputs": [
        {
          "components": [
            {
              "internalType": "contract IERC20",
              "name": "tokenIn",
              "type": "address"
            },
            {
              "internalType": "uint256",
              "name": "amountIn",
              "type": "uint256"
            },
            {
              "internalType": "address",
              "name": "token0",
              "type": "address"
            },
            {
              "internalType": "address",
              "name": "token1",
              "type": "address"
            },
            {
              "components": [
                {
                  "internalType": "address",
                  "name": "swapRouter",
                  "type": "address"
                },
                {
                  "internalType": "enum ISoulZap_UniV2.SwapType",
                  "name": "swapType",
                  "type": "uint8"
                },
                {
                  "internalType": "address[]",
                  "name": "path",
                  "type": "address[]"
                },
                {
                  "internalType": "uint256",
                  "name": "amountOut",
                  "type": "uint256"
                },
                {
                  "internalType": "uint256",
                  "name": "amountOutMin",
                  "type": "uint256"
                }
              ],
              "internalType": "struct ISoulZap_UniV2.SwapPath",
              "name": "path0",
              "type": "tuple"
            },
            {
              "components": [
                {
                  "internalType": "address",
                  "name": "swapRouter",
                  "type": "address"
                },
                {
                  "internalType": "enum ISoulZap_UniV2.SwapType",
                  "name": "swapType",
                  "type": "uint8"
                },
                {
                  "internalType": "address[]",
                  "name": "path",
                  "type": "address[]"
                },
                {
                  "internalType": "uint256",
                  "name": "amountOut",
                  "type": "uint256"
                },
                {
                  "internalType": "uint256",
                  "name": "amountOutMin",
                  "type": "uint256"
                }
              ],
              "internalType": "struct ISoulZap_UniV2.SwapPath",
              "name": "path1",
              "type": "tuple"
            },
            {
              "components": [
                {
                  "internalType": "address",
                  "name": "lpRouter",
                  "type": "address"
                },
                {
                  "internalType": "enum ISoulZap_UniV2.LPType",
                  "name": "lpType",
                  "type": "uint8"
                },
                {
                  "internalType": "uint256",
                  "name": "amountAMin",
                  "type": "uint256"
                },
                {
                  "internalType": "uint256",
                  "name": "amountBMin",
                  "type": "uint256"
                },
                {
                  "internalType": "uint256",
                  "name": "lpAmount",
                  "type": "uint256"
                }
              ],
              "internalType": "struct ISoulZap_UniV2.LiquidityPath",
              "name": "liquidityPath",
              "type": "tuple"
            },
            {
              "internalType": "address",
              "name": "to",
              "type": "address"
            },
            {
              "internalType": "uint256",
              "name": "deadline",
              "type": "uint256"
            }
          ],
          "internalType": "struct ISoulZap_UniV2.ZapParams",
          "name": "zapParams",
          "type": "tuple"
        },
        {
          "internalType": "bytes",
          "name": "encodedTx",
          "type": "bytes"
        },
        {
          "components": [
            {
              "internalType": "address",
              "name": "swapRouter",
              "type": "address"
            },
            {
              "internalType": "enum ISoulZap_UniV2.SwapType",
              "name": "swapType",
              "type": "uint8"
            },
            {
              "internalType": "address[]",
              "name": "path",
              "type": "address[]"
            },
            {
              "internalType": "uint256",
              "name": "amountOut",
              "type": "uint256"
            },
            {
              "internalType": "uint256",
              "name": "amountOutMin",
              "type": "uint256"
            }
          ],
          "internalType": "struct ISoulZap_UniV2.SwapPath",
          "name": "feeSwapPath",
          "type": "tuple"
        },
        {
          "internalType": "uint256[]",
          "name": "priceImpactPercentages",
          "type": "uint256[]"
        }
      ],
      "stateMutability": "view",
      "type": "function"
    },
    {
      "inputs": [
        {
          "internalType": "address",
          "name": "_token",
          "type": "address"
        }
      ],
      "name": "isHopToken",
      "outputs": [
        {
          "internalType": "bool",
          "name": "",
          "type": "bool"
        }
      ],
      "stateMutability": "view",
      "type": "function"
    },
    {
      "inputs": [
        {
          "internalType": "address",
          "name": "_token0",
          "type": "address"
        },
        {
          "internalType": "address",
          "name": "_token1",
          "type": "address"
        }
      ],
      "name": "pairExists",
      "outputs": [
        {
          "internalType": "bool",
          "name": "",
          "type": "bool"
        }
      ],
      "stateMutability": "view",
      "type": "function"
    },
    {
      "inputs": [
        {
          "internalType": "address[]",
          "name": "_tokens",
          "type": "address[]"
        }
      ],
      "name": "removeHopTokens",
      "outputs": [],
      "stateMutability": "nonpayable",
      "type": "function"
    },
    {
      "inputs": [],
      "name": "router",
      "outputs": [
        {
          "internalType": "contract IUniswapV2Router02",
          "name": "",
          "type": "address"
        }
      ],
      "stateMutability": "view",
      "type": "function"
    },
    {
      "inputs": [],
      "name": "soulAccessRegistry",
      "outputs": [
        {
          "internalType": "address",
          "name": "",
          "type": "address"
        }
      ],
      "stateMutability": "view",
      "type": "function"
    },
    {
      "inputs": [],
      "name": "soulZap",
      "outputs": [
        {
          "internalType": "contract ISoulZap_UniV2",
          "name": "",
          "type": "address"
        }
      ],
      "stateMutability": "view",
      "type": "function"
    }
  ],
  "bytecode": "0x60e0604052601360a0527f534f554c5f5a41505f41444d494e5f524f4c450000000000000000000000000060c0527f9162b82d28c4229191f5443c914283af7dcda1d12ad2f1c473f980eb39315edc6001553480156200005d575f80fd5b5060405162003a9438038062003a948339810160408190526200008091620005e4565b828282826001600160a01b03166360d561da6040518163ffffffff1660e01b8152600401602060405180830381865afa158015620000c0573d5f803e3d5ffd5b505050506040513d601f19601f82011682018060405250810190620000e69190620006de565b5f80546001600160a01b0319166001600160a01b03928316179055604080516302ce073d60e61b815290519185169163b381cf40916004808201926020929091908290030181865afa1580156200013f573d5f803e3d5ffd5b505050506040513d601f19601f82011682018060405250810190620001659190620006de565b6001600160a01b0316826001600160a01b031663ad5c46486040518163ffffffff1660e01b8152600401602060405180830381865afa158015620001ab573d5f803e3d5ffd5b505050506040513d601f19601f82011682018060405250810190620001d19190620006de565b6001600160a01b031614620002425760405162461bcd60e51b815260206004820152602c60248201527f536f756c5a61705f556e6956325f4c656e733a20574e415449564520213d207260448201526b6f757465722e57455448282960a01b60648201526084015b60405180910390fd5b600380546001600160a01b0319166001600160a01b0384169081179091556040805163c45a015560e01b8152905163c45a0155916004808201926020929091908290030181865afa1580156200029a573d5f803e3d5ffd5b505050506040513d601f19601f82011682018060405250810190620002c09190620006de565b600280546001600160a01b0319166001600160a01b0392909216919091179055620002eb816200037f565b600480546001600160a01b0319166001600160a01b0385169081178255604080516302ce073d60e61b81529051919263b381cf409282820192602092908290030181865afa15801562000340573d5f803e3d5ffd5b505050506040513d601f19601f82011682018060405250810190620003669190620006de565b6001600160a01b03166080525062000730945050505050565b60146200038d6005620004fa565b82516200039b9190620006fc565b1115620003f55760405162461bcd60e51b815260206004820152602160248201527f4578636565646564206d6178696d756d20686f7020746f6b656e73206c696d696044820152601d60fa1b606482015260840162000239565b5f5b8151811015620004f6575f8282815181106200041757620004176200071c565b602002602001015190505f6001600160a01b0316816001600160a01b031603620004845760405162461bcd60e51b815260206004820152601e60248201527f486f7020546f6b656e2063616e6e6f7420626520616464726573732830290000604482015260640162000239565b6200048f816200050a565b15620004de5760405162461bcd60e51b815260206004820152601a60248201527f486f7020546f6b656e20616c726561647920696e636c75646564000000000000604482015260640162000239565b620004eb60058262000518565b5050600101620003f7565b5050565b5f62000504825490565b92915050565b5f6200050460058362000535565b5f6200052e836001600160a01b03841662000557565b9392505050565b6001600160a01b0381165f90815260018301602052604081205415156200052e565b5f8181526001830160205260408120546200059e57508154600181810184555f84815260208082209093018490558454848252828601909352604090209190915562000504565b505f62000504565b6001600160a01b0381168114620005bb575f80fd5b50565b634e487b7160e01b5f52604160045260245ffd5b8051620005df81620005a6565b919050565b5f805f60608486031215620005f7575f80fd5b83516200060481620005a6565b809350506020808501516200061981620005a6565b60408601519093506001600160401b038082111562000636575f80fd5b818701915087601f8301126200064a575f80fd5b8151818111156200065f576200065f620005be565b8060051b604051601f19603f83011681018181108582111715620006875762000687620005be565b60405291825284820192508381018501918a831115620006a5575f80fd5b938501935b82851015620006ce57620006be85620005d2565b84529385019392850192620006aa565b8096505050505050509250925092565b5f60208284031215620006ef575f80fd5b81516200052e81620005a6565b808201808211156200050457634e487b7160e01b5f52601160045260245ffd5b634e487b7160e01b5f52603260045260245ffd5b6080516133366200075e5f395f81816102e401528181610fc6015281816113e3015261179101526133365ff3fe608060405234801561000f575f80fd5b5060043610610179575f3560e01c8063a082c86e116100d2578063c2b063b411610088578063e71d594311610063578063e71d59431461033f578063eb6012f214610363578063f887ea4014610376575f80fd5b8063c2b063b414610306578063c45a015514610319578063d53cd9271461032c575f80fd5b8063a72a9d58116100b8578063a72a9d58146102b9578063b3800d22146102cc578063b381cf40146102df575f80fd5b8063a082c86e1461029d578063a57fc831146102a6575f80fd5b8063281c28d11161013257806358fbf38a1161010d57806358fbf38a1461025557806360d561da1461026857806366a7bc4b1461027a575f80fd5b8063281c28d1146101ff5780633cdc7d311461022a5780633f2b621f14610232575f80fd5b8063232b2e3511610162578063232b2e35146101c057806323c01936146101e257806325bc0fa3146101ea575f80fd5b80630af424d41461017d57806318326092146101a9575b5f80fd5b61019061018b366004612934565b610389565b6040516101a09493929190612acb565b60405180910390f35b6101b260015481565b6040519081526020016101a0565b6101d36101ce366004612b15565b6103ed565b6040516101a093929190612b8f565b6101b2601481565b6101fd6101f8366004612cae565b6105e3565b005b600454610212906001600160a01b031681565b6040516001600160a01b0390911681526020016101a0565b6101b2610653565b610245610240366004612934565b610663565b6040516101a09493929190612e18565b610212610263366004612e6f565b6106b6565b5f54610212906001600160a01b031681565b61028d610288366004612b15565b6106c8565b60405190151581526020016101a0565b6101b26104b081565b6101b26102b4366004612e86565b610762565b6101fd6102c7366004612cae565b610852565b61028d6102da366004612eca565b610889565b6102127f000000000000000000000000000000000000000000000000000000000000000081565b610190610314366004612ee5565b610895565b600254610212906001600160a01b031681565b61024561033a366004612ee5565b610951565b61035261034d366004612ee5565b6109cd565b6040516101a0959493929190612f40565b610352610371366004612934565b610aa9565b600354610212906001600160a01b031681565b6103916127d3565b6040805160a0810182525f80825260208201819052606092820183905281830181905260808201525f6103db73eeeeeeeeeeeeeeeeeeeeeeeeeeeeeeeeeeeeeeee89898989610895565b929b919a509850909650945050505050565b60608060605f6103fb610653565b90508067ffffffffffffffff81111561041657610416612bd1565b60405190808252806020026020018201604052801561043f578160200160208202803683370190505b5093508067ffffffffffffffff81111561045b5761045b612bd1565b604051908082528060200260200182016040528015610484578160200160208202803683370190505b5092508067ffffffffffffffff8111156104a0576104a0612bd1565b6040519080825280602002602001820160405280156104c9578160200160208202803683370190505b5091505f805f805b848110156105d0575f6104e3826106b6565b90505f6104f08c836106c8565b90508015610531578189868151811061050b5761050b612fb3565b6001600160a01b03909216602092830291909101909101528461052d81612fdb565b9550505b5f61053c838d6106c8565b9050801561057d578289868151811061055757610557612fb3565b6001600160a01b03909216602092830291909101909101528461057981612fdb565b9550505b8180156105875750805b156105c557828b888151811061059f5761059f612fb3565b6001600160a01b0390921660209283029190910190910152866105c181612fdb565b9750505b5050506001016104d1565b5091865284528252509194909350909150565b6001546105f08133610b25565b61060d5760405163224af60760e11b815260040160405180910390fd5b5f5b825181101561064e5761064583828151811061062d5761062d612fb3565b60200260200101516005610bb890919063ffffffff16565b5060010161060f565b505050565b5f61065e6005610bcc565b905090565b61066b612845565b6040805160a0810182525f808252602082018190526060928201839052818301819052608082015260606103db73eeeeeeeeeeeeeeeeeeeeeeeeeeeeeeeeeeeeeeee89898989610951565b5f6106c2600583610bd5565b92915050565b60025460405163e6a4390560e01b81526001600160a01b03848116600483015283811660248301525f92839291169063e6a4390590604401602060405180830381865afa15801561071b573d5f803e3d5ffd5b505050506040513d601f19601f8201168201806040525081019061073f9190613003565b90506001600160a01b038116610758575f9150506106c2565b5060019392505050565b6003546040517fd06ca61f0000000000000000000000000000000000000000000000000000000081525f916001600160a01b03169063d06ca61f906107ad908690869060040161301e565b5f60405180830381865afa9250505080156107e957506040513d5f823e601f3d908101601f191682016040526107e69190810190613036565b60015b610822573d808015610816576040519150601f19603f3d011682016040523d82523d5f602084013e61081b565b606091505b50506106c2565b806001825161083191906130b7565b8151811061084157610841612fb3565b602002602001015191505092915050565b60015461085f8133610b25565b61087c5760405163224af60760e11b815260040160405180910390fd5b61088582610be0565b5050565b5f6106c2600583610d65565b61089d6127d3565b6040805160a0810182525f80825260208201819052606092820183905281830181905260808201525f6108d38989898989610d86565b60405192965090935091507f3066e0a0000000000000000000000000000000000000000000000000000000009061091090869085906024016130ca565b604051602081830303815290604052906001600160e01b0319166020820180516001600160e01b038381831617835250505050925095509550955095915050565b610959612845565b6040805160a0810182525f8082526020820181905260609282018390528183018190526080820152606061099089898989896110ff565b60405192965090935091507f9e01ec1d000000000000000000000000000000000000000000000000000000009061091090869085906024016130f7565b6109d5612845565b6040805160a0810182525f8082526020820181905260609282018390528183018190526080820152604080518082019091525f8082526020820152606090610a208a8a8a8a8a61171b565b602081015160405194995092965090945092507fcc6fd8730000000000000000000000000000000000000000000000000000000091610a6791889187918d91602401613109565b604051602081830303815290604052906001600160e01b0319166020820180516001600160e01b03838183161783525050505093509550955095509550959050565b610ab1612845565b6040805160a0810182525f8082526020820181905260609282018390528183018190526080820152604080518082019091525f8082526020820152606090610b1073eeeeeeeeeeeeeeeeeeeeeeeeeeeeeeeeeeeeeeee8a8a8a8a6109cd565b94509450945094509450945094509450945094565b5f80546040517f91d14854000000000000000000000000000000000000000000000000000000008152600481018590526001600160a01b038481166024830152909116906391d1485490604401602060405180830381865afa158015610b8d573d5f803e3d5ffd5b505050506040513d601f19601f82011682018060405250810190610bb1919061314a565b9392505050565b5f610bb1836001600160a01b038416611ab6565b5f6106c2825490565b5f610bb18383611b99565b6014610bec6005610bcc565b8251610bf89190613169565b1115610c715760405162461bcd60e51b815260206004820152602160248201527f4578636565646564206d6178696d756d20686f7020746f6b656e73206c696d6960448201527f740000000000000000000000000000000000000000000000000000000000000060648201526084015b60405180910390fd5b5f5b8151811015610885575f828281518110610c8f57610c8f612fb3565b602002602001015190505f6001600160a01b0316816001600160a01b031603610cfa5760405162461bcd60e51b815260206004820152601e60248201527f486f7020546f6b656e2063616e6e6f74206265206164647265737328302900006044820152606401610c68565b610d0381610889565b15610d505760405162461bcd60e51b815260206004820152601a60248201527f486f7020546f6b656e20616c726561647920696e636c756465640000000000006044820152606401610c68565b610d5b600582611bbf565b5050600101610c73565b6001600160a01b0381165f9081526001830160205260408120541515610bb1565b610d8e6127d3565b610dbe6040805160a081019091525f80825260208201908152602001606081526020015f81526020015f81525090565b5f808711610e1f5760405162461bcd60e51b815260206004820152602860248201527f536f756c5a61705f556e6956325f4c656e733a20616d6f756e74496e206d7573604482015267074206265203e20360c41b6064820152608401610c68565b6001600160a01b038416610e9b5760405162461bcd60e51b815260206004820152602e60248201527f536f756c5a61705f556e6956325f4c656e733a2043616e27742073776170207460448201527f6f206e756c6c20616464726573730000000000000000000000000000000000006064820152608401610c68565b6001600160a01b038616610f175760405162461bcd60e51b815260206004820152602d60248201527f536f756c5a61705f556e6956325f4c656e733a20746f6b656e2063616e27742060448201527f62652061646472657373283029000000000000000000000000000000000000006064820152608401610c68565b856001600160a01b0316886001600160a01b031603610f9e5760405162461bcd60e51b815260206004820152602c60248201527f536f756c5a61705f556e6956325f4c656e733a20746f6b656e732063616e277460448201527f206265207468652073616d6500000000000000000000000000000000000000006064820152608401610c68565b6001600160a01b03881673eeeeeeeeeeeeeeeeeeeeeeeeeeeeeeeeeeeeeeee148015610fe8577f000000000000000000000000000000000000000000000000000000000000000098505b61101260405180606001604052805f81526020015f6001600160a01b031681526020015f81525090565b61101d8a8a89611bd3565b604081015191955091505f90611033908b6130b7565b90506110656040805160a081019091525f80825260208201908152602001606081526020015f81526020015f81525090565b6110718c8b848c611e0a565b80965081925050506040518060c001604052808561108f578d6110a5565b73eeeeeeeeeeeeeeeeeeeeeeeeeeeeeeeeeeeeeeee5b6001600160a01b031681526020018c81526020018b6001600160a01b03168152602001828152602001896001600160a01b031681526020016104b0426110eb9190613169565b815250965050505050955095509592505050565b611107612845565b6111376040805160a081019091525f80825260208201908152602001606081526020015f81526020015f81525090565b60605f87116111995760405162461bcd60e51b815260206004820152602860248201527f536f756c5a61705f556e6956325f4c656e733a20616d6f756e74496e206d7573604482015267074206265203e20360c41b6064820152608401610c68565b6001600160a01b0384166112155760405162461bcd60e51b815260206004820152602d60248201527f536f756c5a61705f556e6956325f4c656e733a2043616e2774207a617020746f60448201527f206e756c6c2061646472657373000000000000000000000000000000000000006064820152608401610c68565b6001600160a01b0386166112915760405162461bcd60e51b815260206004820152602a60248201527f536f756c5a61705f556e6956325f4c656e733a206c702063616e27742062652060448201527f61646472657373283029000000000000000000000000000000000000000000006064820152608401610c68565b856001600160a01b031663c45a01556040518163ffffffff1660e01b8152600401602060405180830381865afa9250505080156112eb575060408051601f3d908101601f191682019092526112e891810190613003565b60015b6113375760405162461bcd60e51b815260206004820152601d60248201527f536f756c5a61705f556e6956325f4c656e733a204e6f7420616e204c500000006044820152606401610c68565b6002546001600160a01b038281169116146113ba5760405162461bcd60e51b815260206004820152603460248201527f536f756c5a61705f556e6956325f4c656e733a204c5020666163746f7279206460448201527f6f65736e2774206d6174636820666163746f72790000000000000000000000006064820152608401610c68565b506001600160a01b03881673eeeeeeeeeeeeeeeeeeeeeeeeeeeeeeeeeeeeeeee148015611405577f000000000000000000000000000000000000000000000000000000000000000098505b6114116104b042613169565b6101008501526020840188905280611429578861143f565b73eeeeeeeeeeeeeeeeeeeeeeeeeeeeeeeeeeeeeeee5b6001600160a01b039081168552851660e0850152604080516060810182525f808252602082018190529181019190915261147a8a8a89611bd3565b604081015191955091505f90611490908b6130b7565b90505f808a6001600160a01b0316630dfe16816040518163ffffffff1660e01b8152600401602060405180830381865afa9250505080156114ee575060408051601f3d908101601f191682019092526114eb91810190613003565b60015b611527573d80801561151b576040519150601f19603f3d011682016040523d82523d5f602084013e611520565b606091505b505061152a565b91505b8a6001600160a01b031663d21220a76040518163ffffffff1660e01b8152600401602060405180830381865afa925050508015611584575060408051601f3d908101601f1916820190925261158191810190613003565b60015b6115bd573d8080156115b1576040519150601f19603f3d011682016040523d82523d5f602084013e6115b6565b606091505b50506115c0565b90505b6001600160a01b038216158015906115e057506001600160a01b03811615155b156116c3575f6115f160028561317c565b6001600160a01b0380851660408c0152831660608b015290506002604051908082528060200260200182016040528015611635578160200160208202803683370190505b5096506116448e84838e611e0a565b8a608001895f8151811061165a5761165a612fb3565b602002602001018281525082905250506116768e83838e611e0a565b8a60a0018960018151811061168d5761168d612fb3565b602002602001018281525082905250506116b88c8a60800151608001518b60a00151608001516120da565b60c08a01525061170b565b60405162461bcd60e51b815260206004820152601860248201527f6c702061646472657373206e6f742061637475616c206c7000000000000000006044820152606401610c68565b5050505050955095509592505050565b611723612845565b6117536040805160a081019091525f80825260208201908152602001606081526020015f81526020015f81525090565b604080518082019091525f80825260208201526060906001600160a01b03891673eeeeeeeeeeeeeeeeeeeeeeeeeeeeeeeeeeeeeeee1480156117b3577f000000000000000000000000000000000000000000000000000000000000000099505b5f886001600160a01b031663dbc162de6040518163ffffffff1660e01b8152600401602060405180830381865afa1580156117f0573d5f803e3d5ffd5b505050506040513d601f19601f820116820180604052508101906118149190613003565b90505f60019050816001600160a01b0316630dfe16816040518163ffffffff1660e01b8152600401602060405180830381865afa925050508015611875575060408051601f3d908101601f1916820190925261187291810190613003565b60015b6118ae573d8080156118a2576040519150601f19603f3d011682016040523d82523d5f602084013e6118a7565b606091505b50506118b3565b5f9150505b80156119f35760408051600280825260608201835290916020830190803683370190505094506118e16127d3565b6118ee8d8d858d8d610d86565b885f8151811061190057611900612fb3565b60209081029190910101529750905061193f6040805160a081019091525f80825260208201908152602001606081526020015f81526020015f81525090565b61196e6040805160a081019091525f808252602082019081526020015f81526020015f81526020015f81525090565b604051806101200160405280845f01516001600160a01b031681526020018460200151815260200184604001516001600160a01b031681526020015f6001600160a01b031681526020018460600151815260200183815260200182815260200184608001516001600160a01b031681526020018460a001518152509950505050611a08565b611a008c8c848c8c6110ff565b919850965094505b8215611a265773eeeeeeeeeeeeeeeeeeeeeeeeeeeeeeeeeeeeeeee87525b5f8a6001600160a01b031663e796059a6040518163ffffffff1660e01b8152600401602060405180830381865afa158015611a63573d5f803e3d5ffd5b505050506040513d601f19601f82011682018060405250810190611a87919061319b565b604080518082019091526001600160a01b03909c168c5260208c015250959b949a509298509295505050505050565b5f8181526001830160205260408120548015611b90575f611ad86001836130b7565b85549091505f90611aeb906001906130b7565b9050808214611b4a575f865f018281548110611b0957611b09612fb3565b905f5260205f200154905080875f018481548110611b2957611b29612fb3565b5f918252602080832090910192909255918252600188019052604090208390555b8554869080611b5b57611b5b6131b2565b600190038181905f5260205f20015f90559055856001015f8681526020019081526020015f205f9055600193505050506106c2565b5f9150506106c2565b5f825f018281548110611bae57611bae612fb3565b905f5260205f200154905092915050565b5f610bb1836001600160a01b038416612378565b611c036040805160a081019091525f80825260208201908152602001606081526020015f81526020015f81525090565b611c2d60405180606001604052805f81526020015f6001600160a01b031681526020015f81525090565b5f805f60045f9054906101000a90046001600160a01b03166001600160a01b03166202eab76040518163ffffffff1660e01b81526004015f60405180830381865afa158015611c7e573d5f803e3d5ffd5b505050506040513d5f823e601f3d908101601f19168201604052611ca591908101906131c6565b50925092509250815f1480611d3c5750600480546040517f16ad82d70000000000000000000000000000000000000000000000000000000081526001600160a01b038b8116938201939093529116906316ad82d790602401602060405180830381865afa158015611d18573d5f803e3d5ffd5b505050506040513d601f19601f82011682018060405250810190611d3c919061314a565b15611d4957505050611e02565b81845280611d578389613280565b611d61919061317c565b60408501525f5b8351811015611dfd57838181518110611d8357611d83612fb3565b6020908102919091018101516001600160a01b031690860181905260408601515f918291611db3918d918c611e0a565b91509150876080015182608001511115611df35781975060646127106003611ddb9190613280565b611de5919061317c565b811015611df3575050611dfd565b5050600101611d68565b505050505b935093915050565b611e3a6040805160a081019091525f80825260208201908152602001606081526020015f81526020015f81525090565b5f846001600160a01b0316866001600160a01b031603611e625750608081018390525f6120d1565b5f602083018190526003546001600160a01b0316835280611e848888886123c4565b60408601829052606086018190529092509050855f5b6001866040015151611eac91906130b7565b81101561206f575f86604001518281518110611eca57611eca612fb3565b602002602001015190505f8760400151836001611ee79190613169565b81518110611ef757611ef7612fb3565b602090810291909101015160025460405163e6a4390560e01b81526001600160a01b03858116600483015280841660248301529293505f928392169063e6a4390590604401602060405180830381865afa158015611f57573d5f803e3d5ffd5b505050506040513d601f19601f82011682018060405250810190611f7b9190613003565b6001600160a01b0316630902f1ac6040518163ffffffff1660e01b8152600401606060405180830381865afa158015611fb6573d5f803e3d5ffd5b505050506040513d601f19601f82011682018060405250810190611fda91906132b4565b506dffffffffffffffffffffffffffff1691506dffffffffffffffffffffffffffff169150826001600160a01b0316846001600160a01b0316111561201b57905b8161202e670de0b6b3a764000083613280565b612038919061317c565b6120429087613280565b9550841561205f5761205c670de0b6b3a76400008761317c565b95505b505060019092019150611e9a9050565b5080612085670de0b6b3a7640000612710613280565b61208f9084613280565b612099919061317c565b6120a5906127106130b7565b93506127106120b487826130b7565b6120be9084613280565b6120c8919061317c565b60808601525050505b94509492505050565b6121096040805160a081019091525f808252602082019081526020015f81526020015f81526020015f81525090565b5f80856001600160a01b0316630902f1ac6040518163ffffffff1660e01b8152600401606060405180830381865afa158015612147573d5f803e3d5ffd5b505050506040513d601f19601f8201168201806040525081019061216b91906132b4565b506dffffffffffffffffffffffffffff1691506dffffffffffffffffffffffffffff1691505f866001600160a01b03166318160ddd6040518163ffffffff1660e01b8152600401602060405180830381865afa1580156121cd573d5f803e3d5ffd5b505050506040513d601f19601f820116820180604052508101906121f1919061319b565b600354604051632b58577b60e21b81526004810189905260248101869052604481018590529192505f916001600160a01b039091169063ad615dec90606401602060405180830381865afa15801561224b573d5f803e3d5ffd5b505050506040513d601f19601f8201168201806040525081019061226f919061319b565b9050858111156122f857600354604051632b58577b60e21b81526004810188905260248101859052604481018690526001600160a01b039091169063ad615dec90606401602060405180830381865afa1580156122ce573d5f803e3d5ffd5b505050506040513d601f19601f820116820180604052508101906122f2919061319b565b96508590505b5f84612304848a613280565b61230e919061317c565b90505f8461231c8585613280565b612326919061317c565b90505f8183106123365781612338565b825b6040805160a0810182526003546001600160a01b031681525f60208201529081019b909b5260608b01949094525050506080870152509395945050505050565b5f8181526001830160205260408120546123bd57508154600181810184555f8481526020808220909301849055845484825282860190935260409020919091556106c2565b505f6106c2565b60605f836001600160a01b0316856001600160a01b0316036123e7575081611e02565b6123f185856106c8565b1561248a57604080516002808252606082018352909160208301908036833701905050915084825f8151811061242957612429612fb3565b60200260200101906001600160a01b031690816001600160a01b031681525050838260018151811061245d5761245d612fb3565b60200260200101906001600160a01b031690816001600160a01b0316815250506124878383610762565b90505b5f805f61249788886103ed565b92509250925081515f14806124ab57508051155b1561250e576124ba88886106c8565b6125065760405162461bcd60e51b815260206004820152601260248201527f4e6f2073776170207061746820666f756e6400000000000000000000000000006044820152606401610c68565b505050611e02565b82511561261e575f5b835181101561261c57604080516003808252608082019092525f916020820160608036833701905050905089815f8151811061255557612555612fb3565b60200260200101906001600160a01b031690816001600160a01b03168152505084828151811061258757612587612fb3565b6020026020010151816001815181106125a2576125a2612fb3565b60200260200101906001600160a01b031690816001600160a01b03168152505088816002815181106125d6576125d6612fb3565b60200260200101906001600160a01b031690816001600160a01b0316815250505f6126018983610762565b905086811115612612578197508096505b5050600101612517565b505b5f5b8251811015611dfd575f5b82518110156127ca5782818151811061264657612646612fb3565b60200260200101516001600160a01b031684838151811061266957612669612fb3565b60200260200101516001600160a01b031603156127c25760408051600480825260a082019092525f91602082016080803683370190505090508a815f815181106126b5576126b5612fb3565b60200260200101906001600160a01b031690816001600160a01b0316815250508483815181106126e7576126e7612fb3565b60200260200101518160018151811061270257612702612fb3565b60200260200101906001600160a01b031690816001600160a01b03168152505083828151811061273457612734612fb3565b60200260200101518160028151811061274f5761274f612fb3565b60200260200101906001600160a01b031690816001600160a01b031681525050898160038151811061278357612783612fb3565b60200260200101906001600160a01b031690816001600160a01b0316815250505f6127ae8a83610762565b9050878111156127bf578198508097505b50505b60010161262b565b50600101612620565b6040518060c001604052805f6001600160a01b031681526020015f81526020015f6001600160a01b031681526020016128326040805160a081019091525f80825260208201908152602001606081526020015f81526020015f81525090565b81525f6020820181905260409091015290565b6040518061012001604052805f6001600160a01b031681526020015f81526020015f6001600160a01b031681526020015f6001600160a01b031681526020016128b46040805160a081019091525f80825260208201908152602001606081526020015f81526020015f81525090565b81526020016128e96040805160a081019091525f80825260208201908152602001606081526020015f81526020015f81525090565b81526020016128326040805160a081019091525f808252602082019081526020015f81526020015f81526020015f81525090565b6001600160a01b0381168114612931575f80fd5b50565b5f805f8060808587031215612947575f80fd5b8435935060208501356129598161291d565b92506040850135915060608501356129708161291d565b939692955090935050565b6001811061293157634e487b7160e01b5f52602160045260245ffd5b5f60a083016001600160a01b038084511685526020808501516129b98161297b565b80602088015250604085015160a0604088015283815180865260c0890191506020830195505f92505b80831015612a04578551851682529483019460019290920191908301906129e2565b506060870151606089015260808701516080890152809550505050505092915050565b5f6001600160a01b0380835116845260208301516020850152806040840151166040850152606083015160c06060860152612a6560c0860182612997565b905081608085015116608086015260a084015160a0860152809250505092915050565b5f81518084525f5b81811015612aac57602081850181015186830182015201612a90565b505f602082860101526020601f19601f83011685010191505092915050565b608081525f612add6080830187612a27565b8281036020840152612aef8187612a88565b90508281036040840152612b038186612997565b91505082606083015295945050505050565b5f8060408385031215612b26575f80fd5b8235612b318161291d565b91506020830135612b418161291d565b809150509250929050565b5f815180845260208085019450602084015f5b83811015612b845781516001600160a01b031687529582019590820190600101612b5f565b509495945050505050565b606081525f612ba16060830186612b4c565b8281036020840152612bb38186612b4c565b90508281036040840152612bc78185612b4c565b9695505050505050565b634e487b7160e01b5f52604160045260245ffd5b604051601f8201601f1916810167ffffffffffffffff81118282101715612c0e57612c0e612bd1565b604052919050565b5f67ffffffffffffffff821115612c2f57612c2f612bd1565b5060051b60200190565b5f82601f830112612c48575f80fd5b81356020612c5d612c5883612c16565b612be5565b8083825260208201915060208460051b870101935086841115612c7e575f80fd5b602086015b84811015612ca3578035612c968161291d565b8352918301918301612c83565b509695505050505050565b5f60208284031215612cbe575f80fd5b813567ffffffffffffffff811115612cd4575f80fd5b612ce084828501612c39565b949350505050565b6001600160a01b0381511682526020810151612d038161297b565b60208301526040818101519083015260608082015190830152608090810151910152565b80516001600160a01b031682525f6101a0602083015160208501526040830151612d5c60408601826001600160a01b03169052565b506060830151612d7760608601826001600160a01b03169052565b506080830151816080860152612d8f82860182612997565b91505060a083015184820360a0860152612da98282612997565b91505060c0830151612dbe60c0860182612ce8565b5060e08301516001600160a01b03166101608501526101009092015161018090930192909252919050565b5f815180845260208085019450602084015f5b83811015612b8457815187529582019590820190600101612dfc565b608081525f612e2a6080830187612d27565b8281036020840152612e3c8187612a88565b90508281036040840152612e508186612997565b90508281036060840152612e648185612de9565b979650505050505050565b5f60208284031215612e7f575f80fd5b5035919050565b5f8060408385031215612e97575f80fd5b82359150602083013567ffffffffffffffff811115612eb4575f80fd5b612ec085828601612c39565b9150509250929050565b5f60208284031215612eda575f80fd5b8135610bb18161291d565b5f805f805f60a08688031215612ef9575f80fd5b8535612f048161291d565b9450602086013593506040860135612f1b8161291d565b9250606086013591506080860135612f328161291d565b809150509295509295909350565b60c081525f612f5260c0830188612d27565b8281036020840152612f648188612a88565b90508281036040840152612f788187612997565b90508281036060840152612f8c8186612de9565b9150506001600160a01b038351166080830152602083015160a08301529695505050505050565b634e487b7160e01b5f52603260045260245ffd5b634e487b7160e01b5f52601160045260245ffd5b5f60018201612fec57612fec612fc7565b5060010190565b8051612ffe8161291d565b919050565b5f60208284031215613013575f80fd5b8151610bb18161291d565b828152604060208201525f612ce06040830184612b4c565b5f6020808385031215613047575f80fd5b825167ffffffffffffffff81111561305d575f80fd5b8301601f8101851361306d575f80fd5b805161307b612c5882612c16565b81815260059190911b82018301908381019087831115613099575f80fd5b928401925b82841015612e645783518252928401929084019061309e565b818103818111156106c2576106c2612fc7565b604081525f6130dc6040830185612a27565b82810360208401526130ee8185612997565b95945050505050565b604081525f6130dc6040830185612d27565b608081525f61311b6080830187612d27565b828103602084015261312d8187612997565b6001600160a01b0395909516604084015250506060015292915050565b5f6020828403121561315a575f80fd5b81518015158114610bb1575f80fd5b808201808211156106c2576106c2612fc7565b5f8261319657634e487b7160e01b5f52601260045260245ffd5b500490565b5f602082840312156131ab575f80fd5b5051919050565b634e487b7160e01b5f52603160045260245ffd5b5f805f80608085870312156131d9575f80fd5b845167ffffffffffffffff8111156131ef575f80fd5b8501601f810187136131ff575f80fd5b8051602061320f612c5883612c16565b82815260059290921b8301810191818101908a84111561322d575f80fd5b938201935b838510156132545784516132458161291d565b82529382019390820190613232565b80985050508088015195505050506040850151915061327560608601612ff3565b905092959194509250565b80820281158282048414176106c2576106c2612fc7565b80516dffffffffffffffffffffffffffff81168114612ffe575f80fd5b5f805f606084860312156132c6575f80fd5b6132cf84613297565b92506132dd60208501613297565b9150604084015163ffffffff811681146132f5575f80fd5b80915050925092509256fea26469706673582212207c8a3d75e30d72d40206295dd4654561203652bb5333e75af97f51d880d7cf0e64736f6c63430008170033",
  "linkReferences": {},
  "deployedLinkReferences": {}
}