{
  "_format": "hh-sol-artifact-1",
  "contractName": "SoulZap_UniV2_Extended_V1",
  "sourceName": "contracts/full-versions/SoulZap_UniV2_Extended_V1.sol",
  "abi": [
    {
      "inputs": [
        {
          "internalType": "address",
          "name": "_accessRegistry",
          "type": "address"
        },
        {
          "internalType": "contract IWETH",
          "name": "_wnative",
          "type": "address"
        },
        {
          "internalType": "contract ISoulFeeManager",
          "name": "_soulFeeManager",
          "type": "address"
        },
        {
          "internalType": "uint256",
          "name": "_epochStartTime",
          "type": "uint256"
        }
      ],
      "stateMutability": "nonpayable",
      "type": "constructor"
    },
    {
      "inputs": [],
      "name": "SoulAccessUnauthorized",
      "type": "error"
    },
    {
      "anonymous": false,
      "inputs": [
        {
          "indexed": false,
          "internalType": "uint256",
          "name": "volumeAccumulated",
          "type": "uint256"
        },
        {
          "indexed": false,
          "internalType": "uint256",
          "name": "lifetimeCumulativeVolume",
          "type": "uint256"
        },
        {
          "indexed": false,
          "internalType": "uint256",
          "name": "epochStartCumulativeVolume",
          "type": "uint256"
        },
        {
          "indexed": false,
          "internalType": "uint256",
          "name": "currentEpochStartTime",
          "type": "uint256"
        }
      ],
      "name": "AccumulateVolume",
      "type": "event"
    },
    {
      "anonymous": false,
      "inputs": [
        {
          "indexed": true,
          "internalType": "address",
          "name": "bondNft",
          "type": "address"
        },
        {
          "indexed": false,
          "internalType": "bool",
          "name": "whitelisted",
          "type": "bool"
        }
      ],
      "name": "BondNftWhitelisted",
      "type": "event"
    },
    {
      "anonymous": false,
      "inputs": [
        {
          "indexed": false,
          "internalType": "uint8",
          "name": "version",
          "type": "uint8"
        }
      ],
      "name": "Initialized",
      "type": "event"
    },
    {
      "anonymous": false,
      "inputs": [
        {
          "indexed": false,
          "internalType": "address",
          "name": "account",
          "type": "address"
        }
      ],
      "name": "Paused",
      "type": "event"
    },
    {
      "anonymous": false,
      "inputs": [
        {
          "indexed": true,
          "internalType": "address",
          "name": "router",
          "type": "address"
        },
        {
          "indexed": false,
          "internalType": "bool",
          "name": "whitelisted",
          "type": "bool"
        }
      ],
      "name": "RouterWhitelisted",
      "type": "event"
    },
    {
      "anonymous": false,
      "inputs": [
        {
          "components": [
            {
              "internalType": "contract IERC20",
              "name": "tokenIn",
              "type": "address"
            },
            {
              "internalType": "uint256",
              "name": "amountIn",
              "type": "uint256"
            },
            {
              "internalType": "address",
              "name": "tokenOut",
              "type": "address"
            },
            {
              "components": [
                {
                  "internalType": "address",
                  "name": "swapRouter",
                  "type": "address"
                },
                {
                  "internalType": "enum ISoulZap_UniV2.SwapType",
                  "name": "swapType",
                  "type": "uint8"
                },
                {
                  "internalType": "address[]",
                  "name": "path",
                  "type": "address[]"
                },
                {
                  "internalType": "uint256",
                  "name": "amountOut",
                  "type": "uint256"
                },
                {
                  "internalType": "uint256",
                  "name": "amountOutMin",
                  "type": "uint256"
                }
              ],
              "internalType": "struct ISoulZap_UniV2.SwapPath",
              "name": "path",
              "type": "tuple"
            },
            {
              "internalType": "address",
              "name": "to",
              "type": "address"
            },
            {
              "internalType": "uint256",
              "name": "deadline",
              "type": "uint256"
            }
          ],
          "indexed": false,
          "internalType": "struct ISoulZap_UniV2.SwapParams",
          "name": "swapParams",
          "type": "tuple"
        }
      ],
      "name": "Swap",
      "type": "event"
    },
    {
      "anonymous": false,
      "inputs": [
        {
          "indexed": true,
          "internalType": "address",
          "name": "receiver",
          "type": "address"
        },
        {
          "components": [
            {
              "internalType": "contract IERC721",
              "name": "nftAddress",
              "type": "address"
            },
            {
              "internalType": "uint256[]",
              "name": "ids",
              "type": "uint256[]"
            }
          ],
          "indexed": true,
          "internalType": "struct Sweeper.NFT[]",
          "name": "nfts",
          "type": "tuple[]"
        }
      ],
      "name": "SweepWithdrawNFTs",
      "type": "event"
    },
    {
      "anonymous": false,
      "inputs": [
        {
          "indexed": true,
          "internalType": "address",
          "name": "receiver",
          "type": "address"
        },
        {
          "indexed": false,
          "internalType": "uint256",
          "name": "balance",
          "type": "uint256"
        }
      ],
      "name": "SweepWithdrawNative",
      "type": "event"
    },
    {
      "anonymous": false,
      "inputs": [
        {
          "indexed": true,
          "internalType": "address",
          "name": "receiver",
          "type": "address"
        },
        {
          "indexed": true,
          "internalType": "contract IERC20",
          "name": "token",
          "type": "address"
        },
        {
          "indexed": false,
          "internalType": "uint256",
          "name": "balance",
          "type": "uint256"
        }
      ],
      "name": "SweepWithdrawToken",
      "type": "event"
    },
    {
      "anonymous": false,
      "inputs": [
        {
          "indexed": false,
          "internalType": "address",
          "name": "account",
          "type": "address"
        }
      ],
      "name": "Unpaused",
      "type": "event"
    },
    {
      "anonymous": false,
      "inputs": [
        {
          "components": [
            {
              "internalType": "contract IERC20",
              "name": "tokenIn",
              "type": "address"
            },
            {
              "internalType": "uint256",
              "name": "amountIn",
              "type": "uint256"
            },
            {
              "internalType": "address",
              "name": "token0",
              "type": "address"
            },
            {
              "internalType": "address",
              "name": "token1",
              "type": "address"
            },
            {
              "components": [
                {
                  "internalType": "address",
                  "name": "swapRouter",
                  "type": "address"
                },
                {
                  "internalType": "enum ISoulZap_UniV2.SwapType",
                  "name": "swapType",
                  "type": "uint8"
                },
                {
                  "internalType": "address[]",
                  "name": "path",
                  "type": "address[]"
                },
                {
                  "internalType": "uint256",
                  "name": "amountOut",
                  "type": "uint256"
                },
                {
                  "internalType": "uint256",
                  "name": "amountOutMin",
                  "type": "uint256"
                }
              ],
              "internalType": "struct ISoulZap_UniV2.SwapPath",
              "name": "path0",
              "type": "tuple"
            },
            {
              "components": [
                {
                  "internalType": "address",
                  "name": "swapRouter",
                  "type": "address"
                },
                {
                  "internalType": "enum ISoulZap_UniV2.SwapType",
                  "name": "swapType",
                  "type": "uint8"
                },
                {
                  "internalType": "address[]",
                  "name": "path",
                  "type": "address[]"
                },
                {
                  "internalType": "uint256",
                  "name": "amountOut",
                  "type": "uint256"
                },
                {
                  "internalType": "uint256",
                  "name": "amountOutMin",
                  "type": "uint256"
                }
              ],
              "internalType": "struct ISoulZap_UniV2.SwapPath",
              "name": "path1",
              "type": "tuple"
            },
            {
              "components": [
                {
                  "internalType": "address",
                  "name": "lpRouter",
                  "type": "address"
                },
                {
                  "internalType": "enum ISoulZap_UniV2.LPType",
                  "name": "lpType",
                  "type": "uint8"
                },
                {
                  "internalType": "uint256",
                  "name": "amountAMin",
                  "type": "uint256"
                },
                {
                  "internalType": "uint256",
                  "name": "amountBMin",
                  "type": "uint256"
                },
                {
                  "internalType": "uint256",
                  "name": "lpAmount",
                  "type": "uint256"
                }
              ],
              "internalType": "struct ISoulZap_UniV2.LiquidityPath",
              "name": "liquidityPath",
              "type": "tuple"
            },
            {
              "internalType": "address",
              "name": "to",
              "type": "address"
            },
            {
              "internalType": "uint256",
              "name": "deadline",
              "type": "uint256"
            }
          ],
          "indexed": false,
          "internalType": "struct ISoulZap_UniV2.ZapParams",
          "name": "zapParams",
          "type": "tuple"
        }
      ],
      "name": "Zap",
      "type": "event"
    },
    {
      "anonymous": false,
      "inputs": [
        {
          "components": [
            {
              "internalType": "contract IERC20",
              "name": "tokenIn",
              "type": "address"
            },
            {
              "internalType": "uint256",
              "name": "amountIn",
              "type": "uint256"
            },
            {
              "internalType": "address",
              "name": "token0",
              "type": "address"
            },
            {
              "internalType": "address",
              "name": "token1",
              "type": "address"
            },
            {
              "components": [
                {
                  "internalType": "address",
                  "name": "swapRouter",
                  "type": "address"
                },
                {
                  "internalType": "enum ISoulZap_UniV2.SwapType",
                  "name": "swapType",
                  "type": "uint8"
                },
                {
                  "internalType": "address[]",
                  "name": "path",
                  "type": "address[]"
                },
                {
                  "internalType": "uint256",
                  "name": "amountOut",
                  "type": "uint256"
                },
                {
                  "internalType": "uint256",
                  "name": "amountOutMin",
                  "type": "uint256"
                }
              ],
              "internalType": "struct ISoulZap_UniV2.SwapPath",
              "name": "path0",
              "type": "tuple"
            },
            {
              "components": [
                {
                  "internalType": "address",
                  "name": "swapRouter",
                  "type": "address"
                },
                {
                  "internalType": "enum ISoulZap_UniV2.SwapType",
                  "name": "swapType",
                  "type": "uint8"
                },
                {
                  "internalType": "address[]",
                  "name": "path",
                  "type": "address[]"
                },
                {
                  "internalType": "uint256",
                  "name": "amountOut",
                  "type": "uint256"
                },
                {
                  "internalType": "uint256",
                  "name": "amountOutMin",
                  "type": "uint256"
                }
              ],
              "internalType": "struct ISoulZap_UniV2.SwapPath",
              "name": "path1",
              "type": "tuple"
            },
            {
              "components": [
                {
                  "internalType": "address",
                  "name": "lpRouter",
                  "type": "address"
                },
                {
                  "internalType": "enum ISoulZap_UniV2.LPType",
                  "name": "lpType",
                  "type": "uint8"
                },
                {
                  "internalType": "uint256",
                  "name": "amountAMin",
                  "type": "uint256"
                },
                {
                  "internalType": "uint256",
                  "name": "amountBMin",
                  "type": "uint256"
                },
                {
                  "internalType": "uint256",
                  "name": "lpAmount",
                  "type": "uint256"
                }
              ],
              "internalType": "struct ISoulZap_UniV2.LiquidityPath",
              "name": "liquidityPath",
              "type": "tuple"
            },
            {
              "internalType": "address",
              "name": "to",
              "type": "address"
            },
            {
              "internalType": "uint256",
              "name": "deadline",
              "type": "uint256"
            }
          ],
          "indexed": false,
          "internalType": "struct ISoulZap_UniV2.ZapParams",
          "name": "zapParams",
          "type": "tuple"
        },
        {
          "indexed": false,
          "internalType": "contract ICustomBillRefillable",
          "name": "bond",
          "type": "address"
        },
        {
          "indexed": false,
          "internalType": "uint256",
          "name": "maxPrice",
          "type": "uint256"
        }
      ],
      "name": "ZapBond",
      "type": "event"
    },
    {
      "inputs": [],
      "name": "SOUL_ZAP_ADMIN_ROLE",
      "outputs": [
        {
          "internalType": "bytes32",
          "name": "",
          "type": "bytes32"
        }
      ],
      "stateMutability": "view",
      "type": "function"
    },
    {
      "inputs": [],
      "name": "SOUL_ZAP_PAUSER_ROLE",
      "outputs": [
        {
          "internalType": "bytes32",
          "name": "",
          "type": "bytes32"
        }
      ],
      "stateMutability": "view",
      "type": "function"
    },
    {
      "inputs": [],
      "name": "WNATIVE",
      "outputs": [
        {
          "internalType": "contract IWETH",
          "name": "",
          "type": "address"
        }
      ],
      "stateMutability": "view",
      "type": "function"
    },
    {
      "inputs": [],
      "name": "allowNativeSweep",
      "outputs": [
        {
          "internalType": "bool",
          "name": "",
          "type": "bool"
        }
      ],
      "stateMutability": "view",
      "type": "function"
    },
    {
      "inputs": [],
      "name": "getEpochVolume",
      "outputs": [
        {
          "internalType": "uint256",
          "name": "",
          "type": "uint256"
        }
      ],
      "stateMutability": "view",
      "type": "function"
    },
    {
      "inputs": [],
      "name": "getEpochVolumeInfo",
      "outputs": [
        {
          "internalType": "uint256",
          "name": "epochVolume",
          "type": "uint256"
        },
        {
          "internalType": "uint256",
          "name": "lifetimeCumulativeVolume",
          "type": "uint256"
        },
        {
          "internalType": "uint256",
          "name": "epochStartCumulativeVolume",
          "type": "uint256"
        },
        {
          "internalType": "uint256",
          "name": "lastEpochStartTime",
          "type": "uint256"
        },
        {
          "internalType": "uint256",
          "name": "timeLeftInEpoch",
          "type": "uint256"
        },
        {
          "internalType": "uint256",
          "name": "epochDuration",
          "type": "uint256"
        }
      ],
      "stateMutability": "view",
      "type": "function"
    },
    {
      "inputs": [],
      "name": "getFeeInfo",
      "outputs": [
        {
          "internalType": "address[]",
          "name": "feeTokens",
          "type": "address[]"
        },
        {
          "internalType": "uint256",
          "name": "currentFeePercentage",
          "type": "uint256"
        },
        {
          "internalType": "uint256",
          "name": "feeDenominator",
          "type": "uint256"
        },
        {
          "internalType": "address",
          "name": "feeCollector",
          "type": "address"
        }
      ],
      "stateMutability": "view",
      "type": "function"
    },
    {
      "inputs": [],
      "name": "getTimeLeftInEpoch",
      "outputs": [
        {
          "internalType": "uint256",
          "name": "",
          "type": "uint256"
        }
      ],
      "stateMutability": "view",
      "type": "function"
    },
    {
      "inputs": [
        {
          "internalType": "uint256",
          "name": "_index",
          "type": "uint256"
        }
      ],
      "name": "getWhitelistedBondNftAtIndex",
      "outputs": [
        {
          "internalType": "address",
          "name": "",
          "type": "address"
        }
      ],
      "stateMutability": "view",
      "type": "function"
    },
    {
      "inputs": [],
      "name": "getWhitelistedBondNftCount",
      "outputs": [
        {
          "internalType": "uint256",
          "name": "",
          "type": "uint256"
        }
      ],
      "stateMutability": "view",
      "type": "function"
    },
    {
      "inputs": [
        {
          "internalType": "uint256",
          "name": "_index",
          "type": "uint256"
        }
      ],
      "name": "getWhitelistedRouterAtIndex",
      "outputs": [
        {
          "internalType": "address",
          "name": "",
          "type": "address"
        }
      ],
      "stateMutability": "view",
      "type": "function"
    },
    {
      "inputs": [],
      "name": "getWhitelistedRouterCount",
      "outputs": [
        {
          "internalType": "uint256",
          "name": "",
          "type": "uint256"
        }
      ],
      "stateMutability": "view",
      "type": "function"
    },
    {
      "inputs": [
        {
          "internalType": "contract ICustomBillRefillable",
          "name": "_bond",
          "type": "address"
        }
      ],
      "name": "isBondNftWhitelisted",
      "outputs": [
        {
          "internalType": "bool",
          "name": "",
          "type": "bool"
        }
      ],
      "stateMutability": "view",
      "type": "function"
    },
    {
      "inputs": [
        {
          "internalType": "address",
          "name": "_token",
          "type": "address"
        }
      ],
      "name": "isFeeToken",
      "outputs": [
        {
          "internalType": "bool",
          "name": "valid",
          "type": "bool"
        }
      ],
      "stateMutability": "view",
      "type": "function"
    },
    {
      "inputs": [
        {
          "internalType": "address",
          "name": "_router",
          "type": "address"
        }
      ],
      "name": "isRouterWhitelisted",
      "outputs": [
        {
          "internalType": "bool",
          "name": "",
          "type": "bool"
        }
      ],
      "stateMutability": "view",
      "type": "function"
    },
    {
      "inputs": [
        {
          "internalType": "address",
          "name": "token",
          "type": "address"
        }
      ],
      "name": "lockToken",
      "outputs": [],
      "stateMutability": "nonpayable",
      "type": "function"
    },
    {
      "inputs": [
        {
          "internalType": "address[]",
          "name": "tokens",
          "type": "address[]"
        }
      ],
      "name": "lockTokens",
      "outputs": [],
      "stateMutability": "nonpayable",
      "type": "function"
    },
    {
      "inputs": [
        {
          "internalType": "address",
          "name": "",
          "type": "address"
        }
      ],
      "name": "lockedTokens",
      "outputs": [
        {
          "internalType": "bool",
          "name": "",
          "type": "bool"
        }
      ],
      "stateMutability": "view",
      "type": "function"
    },
    {
      "inputs": [],
      "name": "pause",
      "outputs": [],
      "stateMutability": "nonpayable",
      "type": "function"
    },
    {
      "inputs": [],
      "name": "paused",
      "outputs": [
        {
          "internalType": "bool",
          "name": "",
          "type": "bool"
        }
      ],
      "stateMutability": "view",
      "type": "function"
    },
    {
      "inputs": [],
      "name": "refuseNativeSweep",
      "outputs": [],
      "stateMutability": "nonpayable",
      "type": "function"
    },
    {
      "inputs": [
        {
          "internalType": "address",
          "name": "_bondNft",
          "type": "address"
        },
        {
          "internalType": "bool",
          "name": "_isWhitelisted",
          "type": "bool"
        }
      ],
      "name": "setBondNftWhitelist",
      "outputs": [],
      "stateMutability": "nonpayable",
      "type": "function"
    },
    {
      "inputs": [
        {
          "internalType": "address",
          "name": "_router",
          "type": "address"
        },
        {
          "internalType": "bool",
          "name": "_isWhitelisted",
          "type": "bool"
        }
      ],
      "name": "setRouterWhitelist",
      "outputs": [],
      "stateMutability": "nonpayable",
      "type": "function"
    },
    {
      "inputs": [],
      "name": "soulAccessRegistry",
      "outputs": [
        {
          "internalType": "address",
          "name": "",
          "type": "address"
        }
      ],
      "stateMutability": "view",
      "type": "function"
    },
    {
      "inputs": [],
      "name": "soulFeeManager",
      "outputs": [
        {
          "internalType": "contract ISoulFeeManager",
          "name": "",
          "type": "address"
        }
      ],
      "stateMutability": "view",
      "type": "function"
    },
    {
      "inputs": [
        {
          "components": [
            {
              "internalType": "contract IERC20",
              "name": "tokenIn",
              "type": "address"
            },
            {
              "internalType": "uint256",
              "name": "amountIn",
              "type": "uint256"
            },
            {
              "internalType": "address",
              "name": "tokenOut",
              "type": "address"
            },
            {
              "components": [
                {
                  "internalType": "address",
                  "name": "swapRouter",
                  "type": "address"
                },
                {
                  "internalType": "enum ISoulZap_UniV2.SwapType",
                  "name": "swapType",
                  "type": "uint8"
                },
                {
                  "internalType": "address[]",
                  "name": "path",
                  "type": "address[]"
                },
                {
                  "internalType": "uint256",
                  "name": "amountOut",
                  "type": "uint256"
                },
                {
                  "internalType": "uint256",
                  "name": "amountOutMin",
                  "type": "uint256"
                }
              ],
              "internalType": "struct ISoulZap_UniV2.SwapPath",
              "name": "path",
              "type": "tuple"
            },
            {
              "internalType": "address",
              "name": "to",
              "type": "address"
            },
            {
              "internalType": "uint256",
              "name": "deadline",
              "type": "uint256"
            }
          ],
          "internalType": "struct ISoulZap_UniV2.SwapParams",
          "name": "swapParams",
          "type": "tuple"
        },
        {
          "components": [
            {
              "internalType": "address",
              "name": "swapRouter",
              "type": "address"
            },
            {
              "internalType": "enum ISoulZap_UniV2.SwapType",
              "name": "swapType",
              "type": "uint8"
            },
            {
              "internalType": "address[]",
              "name": "path",
              "type": "address[]"
            },
            {
              "internalType": "uint256",
              "name": "amountOut",
              "type": "uint256"
            },
            {
              "internalType": "uint256",
              "name": "amountOutMin",
              "type": "uint256"
            }
          ],
          "internalType": "struct ISoulZap_UniV2.SwapPath",
          "name": "feeSwapPath",
          "type": "tuple"
        }
      ],
      "name": "swap",
      "outputs": [],
      "stateMutability": "payable",
      "type": "function"
    },
    {
      "inputs": [
        {
          "components": [
            {
              "internalType": "contract IERC721",
              "name": "nftAddress",
              "type": "address"
            },
            {
              "internalType": "uint256[]",
              "name": "ids",
              "type": "uint256[]"
            }
          ],
          "internalType": "struct Sweeper.NFT[]",
          "name": "nfts",
          "type": "tuple[]"
        },
        {
          "internalType": "address",
          "name": "to",
          "type": "address"
        }
      ],
      "name": "sweepNFTs",
      "outputs": [],
      "stateMutability": "nonpayable",
      "type": "function"
    },
    {
      "inputs": [
        {
          "internalType": "address payable",
          "name": "_to",
          "type": "address"
        }
      ],
      "name": "sweepNative",
      "outputs": [],
      "stateMutability": "nonpayable",
      "type": "function"
    },
    {
      "inputs": [
        {
          "internalType": "contract IERC20[]",
          "name": "tokens",
          "type": "address[]"
        },
        {
          "internalType": "address",
          "name": "to",
          "type": "address"
        }
      ],
      "name": "sweepTokens",
      "outputs": [],
      "stateMutability": "nonpayable",
      "type": "function"
    },
    {
      "inputs": [
        {
          "internalType": "contract IERC20[]",
          "name": "tokens",
          "type": "address[]"
        },
        {
          "components": [
            {
              "internalType": "contract IERC721",
              "name": "nftAddress",
              "type": "address"
            },
            {
              "internalType": "uint256[]",
              "name": "ids",
              "type": "uint256[]"
            }
          ],
          "internalType": "struct Sweeper.NFT[]",
          "name": "nfts",
          "type": "tuple[]"
        },
        {
          "internalType": "address",
          "name": "to",
          "type": "address"
        }
      ],
      "name": "sweepTokensAndNFTs",
      "outputs": [],
      "stateMutability": "nonpayable",
      "type": "function"
    },
    {
      "inputs": [],
      "name": "unpause",
      "outputs": [],
      "stateMutability": "nonpayable",
      "type": "function"
    },
    {
      "inputs": [
        {
          "components": [
            {
              "internalType": "contract IERC20",
              "name": "tokenIn",
              "type": "address"
            },
            {
              "internalType": "uint256",
              "name": "amountIn",
              "type": "uint256"
            },
            {
              "internalType": "address",
              "name": "token0",
              "type": "address"
            },
            {
              "internalType": "address",
              "name": "token1",
              "type": "address"
            },
            {
              "components": [
                {
                  "internalType": "address",
                  "name": "swapRouter",
                  "type": "address"
                },
                {
                  "internalType": "enum ISoulZap_UniV2.SwapType",
                  "name": "swapType",
                  "type": "uint8"
                },
                {
                  "internalType": "address[]",
                  "name": "path",
                  "type": "address[]"
                },
                {
                  "internalType": "uint256",
                  "name": "amountOut",
                  "type": "uint256"
                },
                {
                  "internalType": "uint256",
                  "name": "amountOutMin",
                  "type": "uint256"
                }
              ],
              "internalType": "struct ISoulZap_UniV2.SwapPath",
              "name": "path0",
              "type": "tuple"
            },
            {
              "components": [
                {
                  "internalType": "address",
                  "name": "swapRouter",
                  "type": "address"
                },
                {
                  "internalType": "enum ISoulZap_UniV2.SwapType",
                  "name": "swapType",
                  "type": "uint8"
                },
                {
                  "internalType": "address[]",
                  "name": "path",
                  "type": "address[]"
                },
                {
                  "internalType": "uint256",
                  "name": "amountOut",
                  "type": "uint256"
                },
                {
                  "internalType": "uint256",
                  "name": "amountOutMin",
                  "type": "uint256"
                }
              ],
              "internalType": "struct ISoulZap_UniV2.SwapPath",
              "name": "path1",
              "type": "tuple"
            },
            {
              "components": [
                {
                  "internalType": "address",
                  "name": "lpRouter",
                  "type": "address"
                },
                {
                  "internalType": "enum ISoulZap_UniV2.LPType",
                  "name": "lpType",
                  "type": "uint8"
                },
                {
                  "internalType": "uint256",
                  "name": "amountAMin",
                  "type": "uint256"
                },
                {
                  "internalType": "uint256",
                  "name": "amountBMin",
                  "type": "uint256"
                },
                {
                  "internalType": "uint256",
                  "name": "lpAmount",
                  "type": "uint256"
                }
              ],
              "internalType": "struct ISoulZap_UniV2.LiquidityPath",
              "name": "liquidityPath",
              "type": "tuple"
            },
            {
              "internalType": "address",
              "name": "to",
              "type": "address"
            },
            {
              "internalType": "uint256",
              "name": "deadline",
              "type": "uint256"
            }
          ],
          "internalType": "struct ISoulZap_UniV2.ZapParams",
          "name": "zapParams",
          "type": "tuple"
        },
        {
          "components": [
            {
              "internalType": "address",
              "name": "swapRouter",
              "type": "address"
            },
            {
              "internalType": "enum ISoulZap_UniV2.SwapType",
              "name": "swapType",
              "type": "uint8"
            },
            {
              "internalType": "address[]",
              "name": "path",
              "type": "address[]"
            },
            {
              "internalType": "uint256",
              "name": "amountOut",
              "type": "uint256"
            },
            {
              "internalType": "uint256",
              "name": "amountOutMin",
              "type": "uint256"
            }
          ],
          "internalType": "struct ISoulZap_UniV2.SwapPath",
          "name": "feeSwapPath",
          "type": "tuple"
        }
      ],
      "name": "zap",
      "outputs": [],
      "stateMutability": "payable",
      "type": "function"
    },
    {
      "inputs": [
        {
          "components": [
            {
              "internalType": "contract IERC20",
              "name": "tokenIn",
              "type": "address"
            },
            {
              "internalType": "uint256",
              "name": "amountIn",
              "type": "uint256"
            },
            {
              "internalType": "address",
              "name": "token0",
              "type": "address"
            },
            {
              "internalType": "address",
              "name": "token1",
              "type": "address"
            },
            {
              "components": [
                {
                  "internalType": "address",
                  "name": "swapRouter",
                  "type": "address"
                },
                {
                  "internalType": "enum ISoulZap_UniV2.SwapType",
                  "name": "swapType",
                  "type": "uint8"
                },
                {
                  "internalType": "address[]",
                  "name": "path",
                  "type": "address[]"
                },
                {
                  "internalType": "uint256",
                  "name": "amountOut",
                  "type": "uint256"
                },
                {
                  "internalType": "uint256",
                  "name": "amountOutMin",
                  "type": "uint256"
                }
              ],
              "internalType": "struct ISoulZap_UniV2.SwapPath",
              "name": "path0",
              "type": "tuple"
            },
            {
              "components": [
                {
                  "internalType": "address",
                  "name": "swapRouter",
                  "type": "address"
                },
                {
                  "internalType": "enum ISoulZap_UniV2.SwapType",
                  "name": "swapType",
                  "type": "uint8"
                },
                {
                  "internalType": "address[]",
                  "name": "path",
                  "type": "address[]"
                },
                {
                  "internalType": "uint256",
                  "name": "amountOut",
                  "type": "uint256"
                },
                {
                  "internalType": "uint256",
                  "name": "amountOutMin",
                  "type": "uint256"
                }
              ],
              "internalType": "struct ISoulZap_UniV2.SwapPath",
              "name": "path1",
              "type": "tuple"
            },
            {
              "components": [
                {
                  "internalType": "address",
                  "name": "lpRouter",
                  "type": "address"
                },
                {
                  "internalType": "enum ISoulZap_UniV2.LPType",
                  "name": "lpType",
                  "type": "uint8"
                },
                {
                  "internalType": "uint256",
                  "name": "amountAMin",
                  "type": "uint256"
                },
                {
                  "internalType": "uint256",
                  "name": "amountBMin",
                  "type": "uint256"
                },
                {
                  "internalType": "uint256",
                  "name": "lpAmount",
                  "type": "uint256"
                }
              ],
              "internalType": "struct ISoulZap_UniV2.LiquidityPath",
              "name": "liquidityPath",
              "type": "tuple"
            },
            {
              "internalType": "address",
              "name": "to",
              "type": "address"
            },
            {
              "internalType": "uint256",
              "name": "deadline",
              "type": "uint256"
            }
          ],
          "internalType": "struct ISoulZap_UniV2.ZapParams",
          "name": "zapParams",
          "type": "tuple"
        },
        {
          "components": [
            {
              "internalType": "address",
              "name": "swapRouter",
              "type": "address"
            },
            {
              "internalType": "enum ISoulZap_UniV2.SwapType",
              "name": "swapType",
              "type": "uint8"
            },
            {
              "internalType": "address[]",
              "name": "path",
              "type": "address[]"
            },
            {
              "internalType": "uint256",
              "name": "amountOut",
              "type": "uint256"
            },
            {
              "internalType": "uint256",
              "name": "amountOutMin",
              "type": "uint256"
            }
          ],
          "internalType": "struct ISoulZap_UniV2.SwapPath",
          "name": "feeSwapPath",
          "type": "tuple"
        },
        {
          "internalType": "contract ICustomBillRefillable",
          "name": "bond",
          "type": "address"
        },
        {
          "internalType": "uint256",
          "name": "maxPrice",
          "type": "uint256"
        }
      ],
      "name": "zapBond",
      "outputs": [],
      "stateMutability": "payable",
      "type": "function"
    },
    {
      "stateMutability": "payable",
      "type": "receive"
    }
  ],
  "bytecode": "0x6224ea0060055560016006819055600755601360c0527f534f554c5f5a41505f41444d494e5f524f4c450000000000000000000000000060e0527f9162b82d28c4229191f5443c914283af7dcda1d12ad2f1c473f980eb39315edc600e556101406040526014610100527f534f554c5f5a41505f5041555345525f524f4c45000000000000000000000000610120527fdd3033d0f711bbbcef7a32dab5fb628703ce2ebe8da76963b825d3f16dec1dd7600f55348015620000bf57600080fd5b50604051620058ad380380620058ad833981016040819052620000e29162000347565b83838383600060405190808252806020026020018201604052801562000112578160200160208202803683370190505b50600e54600080546001600160a01b0319166001600160a01b03881617815560019190869085908181036200014b574260085562000151565b60088290555b600982905560008190036200016d576224ea0060055562000173565b60058190555b5050600a805462ff0000191690556001600b556001600160a01b03166080526200019d83620002bb565b600d805460ff19169215159290921790915560a0525060408051633f22b90360e01b815290516001600160a01b03841691633f22b9039160048083019260209291908290030181865afa158015620001f9573d6000803e3d6000fd5b505050506040513d601f19601f820116820180604052508101906200021f9190620003a1565b620002875760405162461bcd60e51b815260206004820152602e60248201527f536f756c5a61703a20736f756c4665654d616e61676572206973206e6f74204960448201526d29b7bab62332b2a6b0b730b3b2b960911b606482015260840160405180910390fd5b50600d80546001600160a01b0390921661010002610100600160a81b0319909216919091179055506200040a945050505050565b60005b81518110156200032a576001600c6000848481518110620002e357620002e3620003cc565b6020908102919091018101516001600160a01b03168252810191909152604001600020805460ff1916911515919091179055806200032181620003e2565b915050620002be565b5050565b6001600160a01b03811681146200034457600080fd5b50565b600080600080608085870312156200035e57600080fd5b84516200036b816200032e565b60208601519094506200037e816200032e565b604086015190935062000391816200032e565b6060959095015193969295505050565b600060208284031215620003b457600080fd5b81518015158114620003c557600080fd5b9392505050565b634e487b7160e01b600052603260045260246000fd5b6000600182016200040357634e487b7160e01b600052601160045260246000fd5b5060010190565b60805160a05161541b620004926000396000818161076a015281816107d801528181610aba015281816110b3015281816111080152818161119501526118850152600081816102110152818161060501528181611bab01528181611bd101528181611e430152818161247801528181612cc601528181613e050152613e75015261541b6000f3fe6080604052600436106102015760003560e01c80636b131ed21161011d5780639e01ec1d116100b0578063cc6fd8731161007f578063d911933011610064578063d91193301461066f578063e38659d01461068f578063fa1b0cc9146106af57600080fd5b8063cc6fd87314610647578063d3c277e71461065a57600080fd5b80639e01ec1d146105ca578063a45a0471146105dd578063b381cf40146105f3578063c1dacec81461062757600080fd5b806378c093cf116100ec57806378c093cf146105605780637b224339146105805780638456cb59146105a0578063927d9b2a146105b557600080fd5b80636b131ed2146104c45780637071f0c4146104e9578063728efc5f14610509578063732ea9711461051e57600080fd5b8063304f56dc116101955780635c975abb116101645780635c975abb146104295780635eb7413a1461044757806360d561da14610477578063637e2f43146104af57600080fd5b8063304f56dc146103c75780633066e0a0146103e75780633ca41611146103fa5780633f4ba83a1461041457600080fd5b806316ad82d7116101d157806316ad82d71461034e578063183260921461036e5780631ce5dc5a14610392578063299b5528146103b257600080fd5b806202eab7146102b05780630420aab1146102de5780630aef023f146102fe57806310693fcd1461032e57600080fd5b366102ab57336001600160a01b037f000000000000000000000000000000000000000000000000000000000000000016146102a95760405162461bcd60e51b815260206004820152602260248201527f536f756c5a61703a204f6e6c7920726563656976652066726f6d20574e41544960448201527f564500000000000000000000000000000000000000000000000000000000000060648201526084015b60405180910390fd5b005b600080fd5b3480156102bc57600080fd5b506102c56106cf565b6040516102d59493929190614484565b60405180910390f35b3480156102ea57600080fd5b506102a96102f936600461470e565b610768565b34801561030a57600080fd5b5061031e610319366004614760565b6107c3565b60405190151581526020016102d5565b34801561033a57600080fd5b506102a9610349366004614760565b6107d6565b34801561035a57600080fd5b5061031e610369366004614760565b610882565b34801561037a57600080fd5b50610384600e5481565b6040519081526020016102d5565b34801561039e57600080fd5b506102a96103ad36600461478b565b6108f6565b3480156103be57600080fd5b50610384610aa7565b3480156103d357600080fd5b506102a96103e2366004614828565b610ab8565b6102a96103f5366004614993565b610ecd565b34801561040657600080fd5b50600d5461031e9060ff1681565b34801561042057600080fd5b506102a9611070565b34801561043557600080fd5b50600a5462010000900460ff1661031e565b34801561045357600080fd5b5061031e610462366004614760565b600c6020526000908152604090205460ff1681565b34801561048357600080fd5b50600054610497906001600160a01b031681565b6040516001600160a01b0390911681526020016102d5565b3480156104bb57600080fd5b506103846110a5565b3480156104d057600080fd5b50600d546104979061010090046001600160a01b031681565b3480156104f557600080fd5b506102a9610504366004614a76565b6110b1565b34801561051557600080fd5b506102a9611106565b34801561052a57600080fd5b5061053361115b565b604080519687526020870195909552938501929092526060840152608083015260a082015260c0016102d5565b34801561056c57600080fd5b506102a961057b366004614760565b611193565b34801561058c57600080fd5b506102a961059b36600461478b565b6112a1565b3480156105ac57600080fd5b506102a9611447565b3480156105c157600080fd5b50610384611479565b6102a96105d8366004614beb565b6114c4565b3480156105e957600080fd5b50610384600f5481565b3480156105ff57600080fd5b506104977f000000000000000000000000000000000000000000000000000000000000000081565b34801561063357600080fd5b5061031e610642366004614760565b611650565b6102a9610655366004614c38565b6116bf565b34801561066657600080fd5b5061038461185e565b34801561067b57600080fd5b506102a961068a366004614cb6565b611883565b34801561069b57600080fd5b506104976106aa366004614ceb565b6118d4565b3480156106bb57600080fd5b506104976106ca366004614ceb565b611939565b600d546060906000908190819061010090046001600160a01b031663d45c267a6106f761185e565b6040518263ffffffff1660e01b815260040161071591815260200190565b600060405180830381865afa158015610732573d6000803e3d6000fd5b505050506040513d6000823e601f3d908101601f1916820160405261075a9190810190614d0f565b929791965094509092509050565b7f0000000000000000000000000000000000000000000000000000000000000000610793813361199e565b6107b05760405163224af60760e11b815260040160405180910390fd5b60606107bd818585610ab8565b50505050565b60006107d0600383611a34565b92915050565b7f0000000000000000000000000000000000000000000000000000000000000000610801813361199e565b61081e5760405163224af60760e11b815260040160405180910390fd5b60408051600180825281830190925260009160208083019080368337019050509050828160008151811061085457610854614dcf565b60200260200101906001600160a01b031690816001600160a01b03168152505061087d81611a56565b505050565b600d546040516316ad82d760e01b81526001600160a01b038381166004830152600092610100900416906316ad82d790602401602060405180830381865afa1580156108d2573d6000803e3d6000fd5b505050506040513d601f19601f820116820180604052508101906107d09190614de5565b60408051808201909152601381527f534f554c5f5a41505f41444d494e5f524f4c450000000000000000000000000060208201526109557f9162b82d28c4229191f5443c914283af7dcda1d12ad2f1c473f980eb39315edc5b3361199e565b6109725760405163224af60760e11b815260040160405180910390fd5b8115610a1457610983600184611abe565b6109cf5760405162461bcd60e51b815260206004820152601b60248201527f426f6e644e667420616c72656164792077686974656c6973746564000000000060448201526064016102a0565b604051600181526001600160a01b038416907f2d9fd319ac1d77401938fc890b085975b59d44783507766c698f93fdfe89c244906020015b60405180910390a2505050565b610a1f600184611ad3565b610a6b5760405162461bcd60e51b815260206004820152601760248201527f426f6e644e6674206e6f742077686974656c697374656400000000000000000060448201526064016102a0565b604051600081526001600160a01b038416907f2d9fd319ac1d77401938fc890b085975b59d44783507766c698f93fdfe89c24490602001610a07565b6000610ab36003611ae8565b905090565b7f0000000000000000000000000000000000000000000000000000000000000000610ae3813361199e565b610b005760405163224af60760e11b815260040160405180910390fd5b60005b8451811015610cde576000858281518110610b2057610b20614dcf565b6020908102919091018101516001600160a01b0381166000908152600c90925260409091205490915060ff1615610b995760405162461bcd60e51b815260206004820152601560248201527f546f6b656e732063616e2774206265207377657074000000000000000000000060448201526064016102a0565b6040516370a0823160e01b81523060048201526000906001600160a01b038316906370a0823190602401602060405180830381865afa158015610be0573d6000803e3d6000fd5b505050506040513d601f19601f82011682018060405250810190610c049190614e02565b60405163a9059cbb60e01b81526001600160a01b038781166004830152602482018390529192509083169063a9059cbb906044016020604051808303816000875af1158015610c57573d6000803e3d6000fd5b505050506040513d601f19601f82011682018060405250810190610c7b9190614de5565b50816001600160a01b0316856001600160a01b03167f5bf76ef0db3550a96f76d3c13dfa002b5e1df9e4c4d65dce31f074c670b8b64883604051610cc191815260200190565b60405180910390a350508080610cd690614e31565b915050610b03565b5060005b8351811015610e7d576000848281518110610cff57610cff614dcf565b602090810291909101810151516001600160a01b0381166000908152600c90925260409091205490915060ff1615610d795760405162461bcd60e51b815260206004820152601560248201527f546f6b656e732063616e2774206265207377657074000000000000000000000060448201526064016102a0565b6000858381518110610d8d57610d8d614dcf565b602002602001015160200151905060005b8151811015610e6757826001600160a01b03166342842e0e3088858581518110610dca57610dca614dcf565b60209081029190910101516040517fffffffff0000000000000000000000000000000000000000000000000000000060e086901b1681526001600160a01b0393841660048201529290911660248301526044820152606401600060405180830381600087803b158015610e3c57600080fd5b505af1158015610e50573d6000803e3d6000fd5b505050508080610e5f90614e31565b915050610d9e565b5050508080610e7590614e31565b915050610ce2565b5082604051610e8c9190614e4a565b604051908190038120906001600160a01b038416907fb7d54fb67ddf621754e70da8666b8f260b9d90d503a96e15fdf8753d59af387790600090a350505050565b610ed5611af2565b610edd611b4b565b8151602083015173eeeeeeeeeeeeeeeeeeeeeeeeeeeeeeeeeeeeeeed196001600160a01b03831601610f80576000610f13611ba6565b915050808214610f7a5760405162461bcd60e51b815260206004820152602c60248201527f536f756c5a61703a20616d6f756e74496e206e6f7420657175616c20746f207760448201526b1c985c1c1959105b5bdd5b9d60a21b60648201526084016102a0565b50610fce565b3415610fce5760405162461bcd60e51b815260206004820152601e60248201527f536f756c5a61703a206d73672e76616c75652073686f756c642062652030000060448201526064016102a0565b83516001600160a01b031673eeeeeeeeeeeeeeeeeeeeeeeeeeeeeeeeeeeeeeed19016110055761100084846001611c47565b611060565b600061101485600001516120a1565b60208601518651919250611035916001600160a01b0316903390309061210c565b8061104386600001516120a1565b61104d9190614ebe565b602086015261105e85856001611c47565b505b505061106c6001600b55565b5050565b600e5461107d813361199e565b61109a5760405163224af60760e11b815260040160405180910390fd5b6110a26121bd565b50565b6000610ab36001611ae8565b7f00000000000000000000000000000000000000000000000000000000000000006110dc813361199e565b6110f95760405163224af60760e11b815260040160405180910390fd5b60606107bd848285610ab8565b7f0000000000000000000000000000000000000000000000000000000000000000611131813361199e565b61114e5760405163224af60760e11b815260040160405180910390fd5b50600d805460ff19169055565b60008060008060008061116c61185e565b60065460075460085461117d611479565b600554949b939a50919850965094509092509050565b7f00000000000000000000000000000000000000000000000000000000000000006111be813361199e565b6111db5760405163224af60760e11b815260040160405180910390fd5b600d5460ff1661122d5760405162461bcd60e51b815260206004820152600b60248201527f4e6f7420616c6c6f77656400000000000000000000000000000000000000000060448201526064016102a0565b60405147906001600160a01b0384169082156108fc029083906000818181858888f19350505050158015611265573d6000803e3d6000fd5b50826001600160a01b03167fdc495bd3b5344fcb85ff9c1b44ebfd7d2d9ee001c0826360fdbc13665f9cb4ed82604051610a0791815260200190565b60408051808201909152601381527f534f554c5f5a41505f41444d494e5f524f4c450000000000000000000000000060208201526112fe7f9162b82d28c4229191f5443c914283af7dcda1d12ad2f1c473f980eb39315edc61094f565b61131b5760405163224af60760e11b815260040160405180910390fd5b81156113b45761132c600384611abe565b6113785760405162461bcd60e51b815260206004820152601a60248201527f526f7574657220616c72656164792077686974656c697374656400000000000060448201526064016102a0565b604051600181526001600160a01b038416907fcf2b36bf2aa8353623d06f58eab9577176d9214e588362c013a7eeb0586463f190602001610a07565b6113bf600384611ad3565b61140b5760405162461bcd60e51b815260206004820152601660248201527f526f75746572206e6f742077686974656c69737465640000000000000000000060448201526064016102a0565b604051600081526001600160a01b038416907fcf2b36bf2aa8353623d06f58eab9577176d9214e588362c013a7eeb0586463f190602001610a07565b600f54611454813361199e565b6114715760405163224af60760e11b815260040160405180910390fd5b6110a2612211565b600060095442101561148b5750600090565b60006009544261149b9190614ebe565b90506000600554826114ad9190614ee7565b9050806005546114bd9190614ebe565b9250505090565b6114cc611af2565b6114d4611b4b565b8151602083015173eeeeeeeeeeeeeeeeeeeeeeeeeeeeeeeeeeeeeeed196001600160a01b0383160161157757600061150a611ba6565b9150508082146115715760405162461bcd60e51b815260206004820152602c60248201527f536f756c5a61703a20616d6f756e74496e206e6f7420657175616c20746f207760448201526b1c985c1c1959105b5bdd5b9d60a21b60648201526084016102a0565b506115c5565b34156115c55760405162461bcd60e51b815260206004820152601e60248201527f536f756c5a61703a206d73672e76616c75652073686f756c642062652030000060448201526064016102a0565b83516001600160a01b031673eeeeeeeeeeeeeeeeeeeeeeeeeeeeeeeeeeeeeeed19016115f75761100084846001612252565b600061160685600001516120a1565b60208601518651919250611627916001600160a01b0316903390309061210c565b8061163586600001516120a1565b61163f9190614ebe565b602086015261105e85856001612252565b60006107d0826001600160a01b031663d3aac7746040518163ffffffff1660e01b8152600401602060405180830381865afa158015611693573d6000803e3d6000fd5b505050506040513d601f19601f820116820180604052508101906116b79190614efb565b600190611a34565b6116c7611af2565b6116cf611b4b565b8351602085015173eeeeeeeeeeeeeeeeeeeeeeeeeeeeeeeeeeeeeeed196001600160a01b03831601611772576000611705611ba6565b91505080821461176c5760405162461bcd60e51b815260206004820152602c60248201527f536f756c5a61703a20616d6f756e74496e206e6f7420657175616c20746f207760448201526b1c985c1c1959105b5bdd5b9d60a21b60648201526084016102a0565b506117c0565b34156117c05760405162461bcd60e51b815260206004820152601e60248201527f536f756c5a61703a206d73672e76616c75652073686f756c642062652030000060448201526064016102a0565b85516001600160a01b031673eeeeeeeeeeeeeeeeeeeeeeeeeeeeeeeeeeeeeeed19016117f7576117f286868686612dff565b611852565b600061180687600001516120a1565b60208801518851919250611827916001600160a01b0316903390309061210c565b8061183588600001516120a1565b61183f9190614ebe565b602088015261185087878787612dff565b505b50506107bd6001600b55565b60006118686135c6565b156118735750600090565b600754600654610ab39190614ebe565b7f00000000000000000000000000000000000000000000000000000000000000006118ae813361199e565b6118cb5760405163224af60760e11b815260040160405180910390fd5b61106c82611a56565b60006118e06003611ae8565b821061192e5760405162461bcd60e51b815260206004820152601360248201527f496e646578206f7574206f6620626f756e64730000000000000000000000000060448201526064016102a0565b6107d06003836135e0565b60006119456001611ae8565b82106119935760405162461bcd60e51b815260206004820152601360248201527f496e646578206f7574206f6620626f756e64730000000000000000000000000060448201526064016102a0565b6107d06001836135e0565b600080546040517f91d14854000000000000000000000000000000000000000000000000000000008152600481018590526001600160a01b038481166024830152909116906391d1485490604401602060405180830381865afa158015611a09573d6000803e3d6000fd5b505050506040513d601f19601f82011682018060405250810190611a2d9190614de5565b9392505050565b6001600160a01b03811660009081526001830160205260408120541515611a2d565b60005b815181101561106c576001600c6000848481518110611a7a57611a7a614dcf565b6020908102919091018101516001600160a01b03168252810191909152604001600020805460ff191691151591909117905580611ab681614e31565b915050611a59565b6000611a2d836001600160a01b0384166135ec565b6000611a2d836001600160a01b03841661363b565b60006107d0825490565b6002600b5403611b445760405162461bcd60e51b815260206004820152601f60248201527f5265656e7472616e637947756172643a207265656e7472616e742063616c6c0060448201526064016102a0565b6002600b55565b600a5462010000900460ff1615611ba45760405162461bcd60e51b815260206004820152601060248201527f5061757361626c653a207061757365640000000000000000000000000000000060448201526064016102a0565b565b6000807f000000000000000000000000000000000000000000000000000000000000000091503490507f00000000000000000000000000000000000000000000000000000000000000006001600160a01b031663d0e30db0826040518263ffffffff1660e01b81526004016000604051808303818588803b158015611c2a57600080fd5b505af1158015611c3e573d6000803e3d6000fd5b50505050509091565b6000836020015111611c9b5760405162461bcd60e51b815260206004820152601d60248201527f536f756c5a61703a20616d6f756e74496e206d757374206265203e203000000060448201526064016102a0565b60808301516001600160a01b0316611d1b5760405162461bcd60e51b815260206004820152602360248201527f536f756c5a61703a2043616e2774207377617020746f206e756c6c206164647260448201527f657373000000000000000000000000000000000000000000000000000000000060648201526084016102a0565b60408301516001600160a01b0316611d835760405162461bcd60e51b815260206004820152602560248201527f536f756c5a61703a20746f6b656e4f75742063616e2774206265206164647265604482015264737328302960d81b60648201526084016102a0565b82604001516001600160a01b031683600001516001600160a01b031603611e125760405162461bcd60e51b815260206004820152602160248201527f536f756c5a61703a20746f6b656e732063616e2774206265207468652073616d60448201527f650000000000000000000000000000000000000000000000000000000000000060648201526084016102a0565b82516001600160a01b031673eeeeeeeeeeeeeeeeeeeeeeeeeeeeeeeeeeeeeeee148015611e66576001600160a01b037f00000000000000000000000000000000000000000000000000000000000000001684525b8115611e9957611e8484600001518560200151858760a0015161372e565b84602001818151611e959190614ebe565b9052505b6060840151516001600160a01b0316611f075760405162461bcd60e51b815260206004820152602a60248201527f536f756c5a61703a207377617020726f757465722063616e206e6f74206265206044820152696164647265737328302960b01b60648201526084016102a0565b83600001516001600160a01b0316846060015160400151600081518110611f3057611f30614dcf565b60200260200101516001600160a01b031614611f8e5760405162461bcd60e51b815260206004820152601b60248201527f536f756c5a61703a2077726f6e67207061746820706174685b305d000000000060448201526064016102a0565b60408085015160608601519091015180516001600160a01b0390921691611fb790600190614ebe565b81518110611fc757611fc7614dcf565b60200260200101516001600160a01b0316146120255760405162461bcd60e51b815260206004820152601c60248201527f536f756c5a61703a2077726f6e67207061746820706174685b2d315d0000000060448201526064016102a0565b60608401515160208501518551612047926001600160a01b0390911691613a1a565b6120638460600151856020015186608001518760a00151613abe565b507f8f6b93a35e02889ccab3af6294b788054d73dcb358d18b5df8a827adf615e1fa846040516120939190614fd9565b60405180910390a150505050565b6040516370a0823160e01b81523060048201526000906001600160a01b038316906370a0823190602401602060405180830381865afa1580156120e8573d6000803e3d6000fd5b505050506040513d601f19601f820116820180604052508101906107d09190614e02565b6040516001600160a01b03808516602483015283166044820152606481018290526107bd9085907f23b872dd00000000000000000000000000000000000000000000000000000000906084015b60408051601f198184030181529190526020810180517bffffffffffffffffffffffffffffffffffffffffffffffffffffffff167fffffffff0000000000000000000000000000000000000000000000000000000090931692909217909152613cbd565b6121c5613da5565b600a805462ff0000191690557f5db9ee0a495bf2e6ff9c91a7834c1ba4fdd244a5e8aa4e537bd38aeae4b073aa335b6040516001600160a01b03909116815260200160405180910390a1565b612219611b4b565b600a805462ff00001916620100001790557f62e78cea01bee320cd4e420270b5ea74000d11b0c9f74754ebdbfc544b05a2586121f43390565b60008360200151116122a65760405162461bcd60e51b815260206004820152601d60248201527f536f756c5a61703a20616d6f756e74496e206d757374206265203e203000000060448201526064016102a0565b60e08301516001600160a01b031661230b5760405162461bcd60e51b815260206004820152602260248201527f536f756c5a61703a2043616e2774207a617020746f206e756c6c206164647265604482015261737360f01b60648201526084016102a0565b60c0830151516001600160a01b03166123775760405162461bcd60e51b815260206004820152602860248201527f536f756c5a61703a206c7020726f757465722063616e206e6f74206265206164604482015267647265737328302960c01b60648201526084016102a0565b60408301516001600160a01b03166123df5760405162461bcd60e51b815260206004820152602560248201527f536f756c5a61703a20746f6b656e302063616e206e6f74206265206164647265604482015264737328302960d81b60648201526084016102a0565b60608301516001600160a01b03166124475760405162461bcd60e51b815260206004820152602560248201527f536f756c5a61703a20746f6b656e312063616e206e6f74206265206164647265604482015264737328302960d81b60648201526084016102a0565b82516001600160a01b031673eeeeeeeeeeeeeeeeeeeeeeeeeeeeeeeeeeeeeeee14801561249b576001600160a01b037f00000000000000000000000000000000000000000000000000000000000000001684525b6124db6040518060e00160405280600081526020016000815260200160008152602001600081526020016000815260200160008152602001600081525090565b821561250f576124fa856000015186602001518688610100015161372e565b8560200181815161250b9190614ebe565b9052505b600060c086015160200151801561252857612528614f18565b036126bd5760006001600160a01b03168560c00151600001516001600160a01b031663c45a01556040518163ffffffff1660e01b8152600401602060405180830381865afa15801561257e573d6000803e3d6000fd5b505050506040513d601f19601f820116820180604052508101906125a29190614efb565b604080880151606089015191517fe6a439050000000000000000000000000000000000000000000000000000000081526001600160a01b0391821660048201529181166024830152919091169063e6a4390590604401602060405180830381865afa158015612615573d6000803e3d6000fd5b505050506040513d601f19601f820116820180604052508101906126399190614efb565b6001600160a01b03160361268f5760405162461bcd60e51b815260206004820152601b60248201527f536f756c5a61703a205061697220646f65736e2774206578697374000000000060448201526064016102a0565b600285602001516126a09190615042565b815260208501516126b390600290615042565b6020820152612705565b60405162461bcd60e51b815260206004820152601d60248201527f536f756c5a61703a204c5054797065206e6f7420737570706f7274656400000060448201526064016102a0565b84600001516001600160a01b031685604001516001600160a01b0316146128f4576080850151516001600160a01b03166127945760405162461bcd60e51b815260206004820152602a60248201527f536f756c5a61703a207377617020726f757465722063616e206e6f74206265206044820152696164647265737328302960b01b60648201526084016102a0565b84600001516001600160a01b03168560800151604001516000815181106127bd576127bd614dcf565b60200260200101516001600160a01b03161461281b5760405162461bcd60e51b815260206004820152601c60248201527f536f756c5a61703a2077726f6e6720706174682070617468305b305d0000000060448201526064016102a0565b60408086015160808701519091015180516001600160a01b039092169161284490600190614ebe565b8151811061285457612854614dcf565b60200260200101516001600160a01b0316146128b25760405162461bcd60e51b815260206004820152601d60248201527f536f756c5a61703a2077726f6e6720706174682070617468305b2d315d00000060448201526064016102a0565b608085015151815186516128d1926001600160a01b0390911691613a1a565b6128ea8560800151826000015130886101000151613abe565b604082015261290e565b806020015185602001516129089190614ebe565b60408201525b84600001516001600160a01b031685606001516001600160a01b031614612aff5760a0850151516001600160a01b031661299d5760405162461bcd60e51b815260206004820152602a60248201527f536f756c5a61703a207377617020726f757465722063616e206e6f74206265206044820152696164647265737328302960b01b60648201526084016102a0565b84600001516001600160a01b03168560a00151604001516000815181106129c6576129c6614dcf565b60200260200101516001600160a01b031614612a245760405162461bcd60e51b815260206004820152601c60248201527f536f756c5a61703a2077726f6e6720706174682070617468315b305d0000000060448201526064016102a0565b606085015160a08601516040015180516001600160a01b0390921691612a4c90600190614ebe565b81518110612a5c57612a5c614dcf565b60200260200101516001600160a01b031614612aba5760405162461bcd60e51b815260206004820152601d60248201527f536f756c5a61703a2077726f6e6720706174682070617468315b2d315d00000060448201526064016102a0565b60a08501515160208201518651612adc926001600160a01b0390911691613a1a565b612af58560a00151826020015130886101000151613abe565b6060820152612b16565b80516020860151612b109190614ebe565b60608201525b60c08501515160408083015190870151612b3b926001600160a01b0390911691613a1a565b60c08501515160608083015190870151612b60926001600160a01b0390911691613a1a565b600060c0860151602001518015612b7957612b79614f18565b03612c7c5760c085015180516040808801516060808a0151868401518783015185880151939097015160e08d01516101008e015196517fe8e337000000000000000000000000000000000000000000000000000000000081526001600160a01b039687166004820152938616602485015260448401929092526064830197909752608482019290925260a4810195909552811660c485015260e4840191909152169063e8e3370090610104016060604051808303816000875af1158015612c44573d6000803e3d6000fd5b505050506040513d601f19601f82011682018060405250810190612c689190615056565b60c084015260a08301526080820152612cc4565b60405162461bcd60e51b815260206004820152601d60248201527f536f756c5a61703a206c7054797065206e6f7420737570706f7274656400000060448201526064016102a0565b7f00000000000000000000000000000000000000000000000000000000000000006001600160a01b031685604001516001600160a01b031603612d4557612d2485606001518260a001518360600151612d1d9190614ebe565b3385613dfd565b612d40856040015182608001518360400151612d1d9190614ebe565b612d7d565b612d61856040015182608001518360400151612d1d9190614ebe565b612d7d85606001518260a001518360600151612d1d9190614ebe565b60c0850151516040860151612d9f916001600160a01b03909116906000613a1a565b60c0850151516060860151612dc1916001600160a01b03909116906000613a1a565b7f8e1dbffc2c04c9b0567968ef85f4ac2a2488fc8f387be763637e04a0f9217ca185604051612df09190615186565b60405180910390a15050505050565b6000846020015111612e535760405162461bcd60e51b815260206004820152601d60248201527f536f756c5a61703a20616d6f756e74496e206d757374206265203e203000000060448201526064016102a0565b60e08401516001600160a01b0316612eb85760405162461bcd60e51b815260206004820152602260248201527f536f756c5a61703a2043616e2774207a617020746f206e756c6c206164647265604482015261737360f01b60648201526084016102a0565b60c0840151516001600160a01b0316612f245760405162461bcd60e51b815260206004820152602860248201527f536f756c5a61703a206c7020726f757465722063616e206e6f74206265206164604482015267647265737328302960c01b60648201526084016102a0565b60408401516001600160a01b0316612f8c5760405162461bcd60e51b815260206004820152602560248201527f536f756c5a61703a20746f6b656e302063616e206e6f74206265206164647265604482015264737328302960d81b60648201526084016102a0565b60608401516001600160a01b0316612ff45760405162461bcd60e51b815260206004820152602560248201527f536f756c5a61703a20746f6b656e312063616e206e6f74206265206164647265604482015264737328302960d81b60648201526084016102a0565b6000826001600160a01b031663dbc162de6040518163ffffffff1660e01b8152600401602060405180830381865afa158015613034573d6000803e3d6000fd5b505050506040513d601f19601f820116820180604052508101906130589190614efb565b9050600061306584611650565b9050600060019050826001600160a01b0316630dfe16816040518163ffffffff1660e01b8152600401602060405180830381865afa9250505080156130c7575060408051601f3d908101601f191682019092526130c491810190614efb565b60015b613101573d8080156130f5576040519150601f19603f3d011682016040523d82523d6000602084013e6130fa565b606091505b5050613107565b60009150505b600081156131cf576040805160c08101825289516001600160a01b0390811682526020808c0151908301528a83015181169282018390526080808c0151606084015260e08c01518216908301526101008b015160a08301529091908616146131b15760405162461bcd60e51b815260206004820152601d60248201527f417065426f6e643a2057726f6e6720746f6b656e20666f7220426f6e6400000060448201526064016102a0565b6080810180513090915291506131c981898615611c47565b50613456565b836001600160a01b0316630dfe16816040518163ffffffff1660e01b8152600401602060405180830381865afa15801561320d573d6000803e3d6000fd5b505050506040513d601f19601f820116820180604052508101906132319190614efb565b6001600160a01b031688604001516001600160a01b03161480156132cb5750836001600160a01b031663d21220a76040518163ffffffff1660e01b8152600401602060405180830381865afa15801561328e573d6000803e3d6000fd5b505050506040513d601f19601f820116820180604052508101906132b29190614efb565b6001600160a01b031688606001516001600160a01b0316145b806133cd5750836001600160a01b0316630dfe16816040518163ffffffff1660e01b8152600401602060405180830381865afa15801561330f573d6000803e3d6000fd5b505050506040513d601f19601f820116820180604052508101906133339190614efb565b6001600160a01b031688606001516001600160a01b03161480156133cd5750836001600160a01b031663d21220a76040518163ffffffff1660e01b8152600401602060405180830381865afa158015613390573d6000803e3d6000fd5b505050506040513d601f19601f820116820180604052508101906133b49190614efb565b6001600160a01b031688604001516001600160a01b0316145b61343f5760405162461bcd60e51b815260206004820152602d60248201527f417065426f6e643a2057726f6e67204c5020626f6e645072696e636970616c5460448201527f6f6b656e20666f7220426f6e640000000000000000000000000000000000000060648201526084016102a0565b5060e0870180513090915261345688888515612252565b6040516370a0823160e01b81523060048201526000906001600160a01b038616906370a0823190602401602060405180830381865afa15801561349d573d6000803e3d6000fd5b505050506040513d601f19601f820116820180604052508101906134c19190614e02565b90506134d76001600160a01b0386168883613a1a565b6040517f8dbdbe6d00000000000000000000000000000000000000000000000000000000815260048101829052602481018790526001600160a01b038381166044830152881690638dbdbe6d906064016020604051808303816000875af1158015613546573d6000803e3d6000fd5b505050506040513d601f19601f8201168201806040525081019061356a9190614e02565b506135806001600160a01b038616886000613a1a565b7f1368402a506ccc1c7ac016a83cb662991aec2765beef4d5442d8a98cad2344558988886040516135b393929190615199565b60405180910390a1505050505050505050565b60006005546008546135d891906151c7565b421015905090565b6000611a2d8383613f9b565b6000818152600183016020526040812054613633575081546001818101845560008481526020808220909301849055845484825282860190935260409020919091556107d0565b5060006107d0565b6000818152600183016020526040812054801561372457600061365f600183614ebe565b855490915060009061367390600190614ebe565b90508181146136d857600086600001828154811061369357613693614dcf565b90600052602060002001549050808760000184815481106136b6576136b6614dcf565b6000918252602080832090910192909255918252600188019052604090208390555b85548690806136e9576136e96151da565b6001900381819060005260206000200160009055905585600101600086815260200190815260200160002060009055600193505050506107d0565b60009150506107d0565b60008060008061373c6106cf565b93509350935050826000036137575760009350505050613a12565b8161376284896151f0565b61376c9190615042565b935060028660400151511061397b57856040015160008151811061379257613792614dcf565b60200260200101516001600160a01b0316886001600160a01b0316146138205760405162461bcd60e51b815260206004820152602b60248201527f536f756c5a61703a20496e76616c696420696e70757420746f6b656e20696e2060448201527f666565537761705061746800000000000000000000000000000000000000000060648201526084016102a0565b604086015180516000919061383790600190614ebe565b8151811061384757613847614dcf565b6020908102919091010151600d546040516316ad82d760e01b81526001600160a01b038084166004830152929350610100909104909116906316ad82d790602401602060405180830381865afa1580156138a5573d6000803e3d6000fd5b505050506040513d601f19601f820116820180604052508101906138c99190614de5565b61393b5760405162461bcd60e51b815260206004820152602c60248201527f536f756c5a61703a20496e76616c6964206f757470757420746f6b656e20696e60448201527f206665655377617050617468000000000000000000000000000000000000000060648201526084016102a0565b8651613952906001600160a01b038b169087613a1a565b60006139608887858a613abe565b905061397461396f8383613fc5565b613fd9565b5050613a0e565b6139888885836000613dfd565b600d546040516316ad82d760e01b81526001600160a01b038a81166004830152610100909204909116906316ad82d790602401602060405180830381865afa1580156139d8573d6000803e3d6000fd5b505050506040513d601f19601f820116820180604052508101906139fc9190614de5565b15613a0e57613a0e61396f8986613fc5565b5050505b949350505050565b604080516001600160a01b038416602482015260448082018490528251808303909101815260649091019091526020810180517bffffffffffffffffffffffffffffffffffffffffffffffffffffffff1663095ea7b360e01b179052613a808482614065565b6107bd576040516001600160a01b038416602482015260006044820152613ab490859063095ea7b360e01b90606401612159565b6107bd8482613cbd565b6000613acd85600001516107c3565b613b195760405162461bcd60e51b815260206004820152601f60248201527f536f756c5a61703a20726f75746572206e6f742077686974656c69737465640060448201526064016102a0565b60028560400151511015613b6f5760405162461bcd60e51b815260206004820152601a60248201527f536f756c5a61703a206e656564207061746830206f66203e3d3200000000000060448201526064016102a0565b6040850151805160009190613b8690600190614ebe565b81518110613b9657613b96614dcf565b602002602001015190506000613bac828661410c565b9050600060208801518015613bc357613bc3614f18565b03613c5557865160808801516040808a015190517f5c11d7950000000000000000000000000000000000000000000000000000000081526001600160a01b0390931692635c11d79592613c1e928b928b908b90600401615207565b600060405180830381600087803b158015613c3857600080fd5b505af1158015613c4c573d6000803e3d6000fd5b50505050613c9d565b60405162461bcd60e51b815260206004820152601f60248201527f536f756c5a61703a205377617054797065206e6f7420737570706f727465640060448201526064016102a0565b80613ca8838761410c565b613cb29190614ebe565b979650505050505050565b6000613d12826040518060400160405280602081526020017f5361666545524332303a206c6f772d6c6576656c2063616c6c206661696c6564815250856001600160a01b031661417a9092919063ffffffff16565b9050805160001480613d33575080806020019051810190613d339190614de5565b61087d5760405162461bcd60e51b815260206004820152602a60248201527f5361666545524332303a204552433230206f7065726174696f6e20646964206e60448201527f6f7420737563636565640000000000000000000000000000000000000000000060648201526084016102a0565b600a5462010000900460ff16611ba45760405162461bcd60e51b815260206004820152601460248201527f5061757361626c653a206e6f742070617573656400000000000000000000000060448201526064016102a0565b82156107bd577f00000000000000000000000000000000000000000000000000000000000000006001600160a01b0316846001600160a01b0316148015613e415750805b15613f87576040517f2e1a7d4d000000000000000000000000000000000000000000000000000000008152600481018490527f00000000000000000000000000000000000000000000000000000000000000006001600160a01b031690632e1a7d4d90602401600060405180830381600087803b158015613ec157600080fd5b505af1158015613ed5573d6000803e3d6000fd5b505050506000826001600160a01b03168461132390604051600060405180830381858888f193505050503d8060008114613f2b576040519150601f19603f3d011682016040523d82523d6000602084013e613f30565b606091505b5050905080613f815760405162461bcd60e51b815260206004820152601560248201527f6e6174697665207472616e73666572206572726f72000000000000000000000060448201526064016102a0565b506107bd565b6107bd6001600160a01b0385168385614189565b6000826000018281548110613fb257613fb2614dcf565b9060005260206000200154905092915050565b6000611a2d82613fd4856141b9565b614229565b600954421015613fe65750565b613fee6135c6565b15613ffb57613ffb614291565b806006600082825461400d91906151c7565b909155505060065460075460085460408051858152602081019490945283019190915260608201527f31ad7dd187ed11599baf3412296f22f1c2a7783407ac9a8dddea680d6adb87c79060800160405180910390a150565b6000806000846001600160a01b0316846040516140829190615267565b6000604051808303816000865af19150503d80600081146140bf576040519150601f19603f3d011682016040523d82523d6000602084013e6140c4565b606091505b50915091508180156140ee5750805115806140ee5750808060200190518101906140ee9190614de5565b801561410357506001600160a01b0385163b15155b95945050505050565b6040516370a0823160e01b81526001600160a01b038281166004830152600091908416906370a0823190602401602060405180830381865afa158015614156573d6000803e3d6000fd5b505050506040513d601f19601f82011682018060405250810190611a2d9190614e02565b6060613a1284846000856142c0565b6040516001600160a01b03831660248201526044810182905261087d90849063a9059cbb60e01b90606401612159565b6000816001600160a01b031663313ce5676040518163ffffffff1660e01b8152600401602060405180830381865afa925050508015614215575060408051601f3d908101601f1916820190925261421291810190615283565b60015b61422157506012919050565b90505b919050565b600060128260ff16111561425e576142426012836152a6565b61424d90600a6153a3565b6142579084615042565b90506107d0565b60128260ff16101561428a576142758260126152a6565b61428090600a6153a3565b61425790846151f0565b50816107d0565b6006546007556005546009546142a79042614ebe565b6142b19190614ee7565b6142bb9042614ebe565b600855565b6060824710156143385760405162461bcd60e51b815260206004820152602660248201527f416464726573733a20696e73756666696369656e742062616c616e636520666f60448201527f722063616c6c000000000000000000000000000000000000000000000000000060648201526084016102a0565b600080866001600160a01b031685876040516143549190615267565b60006040518083038185875af1925050503d8060008114614391576040519150601f19603f3d011682016040523d82523d6000602084013e614396565b606091505b5091509150613cb2878383876060831561441157825160000361440a576001600160a01b0385163b61440a5760405162461bcd60e51b815260206004820152601d60248201527f416464726573733a2063616c6c20746f206e6f6e2d636f6e747261637400000060448201526064016102a0565b5081613a12565b613a1283838151156144265781518083602001fd5b8060405162461bcd60e51b81526004016102a091906153b2565b600081518084526020808501945080840160005b838110156144795781516001600160a01b031687529582019590820190600101614454565b509495945050505050565b6080815260006144976080830187614440565b60208301959095525060408101929092526001600160a01b0316606090910152919050565b634e487b7160e01b600052604160045260246000fd5b6040805190810167ffffffffffffffff811182821017156144f5576144f56144bc565b60405290565b60405160a0810167ffffffffffffffff811182821017156144f5576144f56144bc565b60405160c0810167ffffffffffffffff811182821017156144f5576144f56144bc565b604051610120810167ffffffffffffffff811182821017156144f5576144f56144bc565b604051601f8201601f1916810167ffffffffffffffff8111828210171561458e5761458e6144bc565b604052919050565b600067ffffffffffffffff8211156145b0576145b06144bc565b5060051b60200190565b6001600160a01b03811681146110a257600080fd5b600082601f8301126145e057600080fd5b813560206145f56145f083614596565b614565565b828152600592831b850182019282820191908785111561461457600080fd5b8387015b858110156146f657803567ffffffffffffffff808211156146395760008081fd5b908901906040828c03601f19018113156146535760008081fd5b61465b6144d2565b88840135614668816145ba565b8152838201358381111561467c5760008081fd5b8085019450508c603f85011261469457600092508283fd5b8884013592506146a66145f084614596565b83815292861b8401820192898101908e8511156146c35760008081fd5b948301945b848610156146e15785358252948a0194908a01906146c8565b828b0152508752505050928401928401614618565b5090979650505050505050565b8035614224816145ba565b6000806040838503121561472157600080fd5b823567ffffffffffffffff81111561473857600080fd5b614744858286016145cf565b9250506020830135614755816145ba565b809150509250929050565b60006020828403121561477257600080fd5b8135611a2d816145ba565b80151581146110a257600080fd5b6000806040838503121561479e57600080fd5b82356147a9816145ba565b915060208301356147558161477d565b600082601f8301126147ca57600080fd5b813560206147da6145f083614596565b82815260059290921b840181019181810190868411156147f957600080fd5b8286015b8481101561481d578035614810816145ba565b83529183019183016147fd565b509695505050505050565b60008060006060848603121561483d57600080fd5b833567ffffffffffffffff8082111561485557600080fd5b614861878388016147b9565b9450602086013591508082111561487757600080fd5b50614884868287016145cf565b9250506040840135614895816145ba565b809150509250925092565b600181106110a257600080fd5b600082601f8301126148be57600080fd5b813560206148ce6145f083614596565b82815260059290921b840181019181810190868411156148ed57600080fd5b8286015b8481101561481d578035614904816145ba565b83529183019183016148f1565b600060a0828403121561492357600080fd5b61492b6144fb565b90508135614938816145ba565b81526020820135614948816148a0565b6020820152604082013567ffffffffffffffff81111561496757600080fd5b614973848285016148ad565b604083015250606082013560608201526080820135608082015292915050565b600080604083850312156149a657600080fd5b823567ffffffffffffffff808211156149be57600080fd5b9084019060c082870312156149d257600080fd5b6149da61451e565b82356149e5816145ba565b81526020838101359082015260408301356149ff816145ba565b6040820152606083013582811115614a1657600080fd5b614a2288828601614911565b6060830152506080830135614a36816145ba565b8060808301525060a083013560a0820152809450506020850135915080821115614a5f57600080fd5b50614a6c85828601614911565b9150509250929050565b60008060408385031215614a8957600080fd5b823567ffffffffffffffff811115614aa057600080fd5b614744858286016147b9565b600060a08284031215614abe57600080fd5b614ac66144fb565b90508135614ad3816145ba565b81526020820135614ae3816148a0565b8060208301525060408201356040820152606082013560608201526080820135608082015292915050565b60006101a08284031215614b2157600080fd5b614b29614541565b9050614b3482614703565b815260208201356020820152614b4c60408301614703565b6040820152614b5d60608301614703565b6060820152608082013567ffffffffffffffff80821115614b7d57600080fd5b614b8985838601614911565b608084015260a0840135915080821115614ba257600080fd5b50614baf84828501614911565b60a083015250614bc28360c08401614aac565b60c0820152614bd46101608301614703565b60e082015261018082013561010082015292915050565b60008060408385031215614bfe57600080fd5b823567ffffffffffffffff80821115614c1657600080fd5b614c2286838701614b0e565b93506020850135915080821115614a5f57600080fd5b60008060008060808587031215614c4e57600080fd5b843567ffffffffffffffff80821115614c6657600080fd5b614c7288838901614b0e565b95506020870135915080821115614c8857600080fd5b50614c9587828801614911565b9350506040850135614ca6816145ba565b9396929550929360600135925050565b600060208284031215614cc857600080fd5b813567ffffffffffffffff811115614cdf57600080fd5b613a12848285016148ad565b600060208284031215614cfd57600080fd5b5035919050565b8051614224816145ba565b60008060008060808587031215614d2557600080fd5b845167ffffffffffffffff811115614d3c57600080fd5b8501601f81018713614d4d57600080fd5b80516020614d5d6145f083614596565b82815260059290921b8301810191818101908a841115614d7c57600080fd5b938201935b83851015614da3578451614d94816145ba565b82529382019390820190614d81565b809850505080880151955050505060408501519150614dc460608601614d04565b905092959194509250565b634e487b7160e01b600052603260045260246000fd5b600060208284031215614df757600080fd5b8151611a2d8161477d565b600060208284031215614e1457600080fd5b5051919050565b634e487b7160e01b600052601160045260246000fd5b600060018201614e4357614e43614e1b565b5060010190565b81516000908290602080860184805b84811015614eb157825180516001600160a01b031687528401518051908501908390868901905b80831015614ea05783518252928701926001929092019190870190614e80565b509750505091830191600101614e59565b5093979650505050505050565b818103818111156107d0576107d0614e1b565b634e487b7160e01b600052601260045260246000fd5b600082614ef657614ef6614ed1565b500690565b600060208284031215614f0d57600080fd5b8151611a2d816145ba565b634e487b7160e01b600052602160045260246000fd5b600181106110a257634e487b7160e01b600052602160045260246000fd5b600060a083016001600160a01b03808451168552602080850151614f6f81614f2e565b8682015260408581015160a09188019190915280519384905281019260009060c08801905b80831015614fb657855185168252948301946001929092019190830190614f94565b506060870151606089015260808701516080890152809550505050505092915050565b6020815260006001600160a01b0380845116602084015260208401516040840152806040850151166060840152606084015160c0608085015261501f60e0850182614f4c565b90508160808601511660a085015260a085015160c0850152809250505092915050565b60008261505157615051614ed1565b500490565b60008060006060848603121561506b57600080fd5b8351925060208401519150604084015190509250925092565b6001600160a01b038151168252602081015161509f81614f2e565b60208301526040818101519083015260608082015190830152608090810151910152565b80516001600160a01b0316825260006101a06020830151602085015260408301516150f960408601826001600160a01b03169052565b50606083015161511460608601826001600160a01b03169052565b50608083015181608086015261512c82860182614f4c565b91505060a083015184820360a08601526151468282614f4c565b91505060c083015161515b60c0860182615084565b5060e08301516001600160a01b03166101608501526101009092015161018090930192909252919050565b602081526000611a2d60208301846150c3565b6060815260006151ac60608301866150c3565b6001600160a01b039490941660208301525060400152919050565b808201808211156107d0576107d0614e1b565b634e487b7160e01b600052603160045260246000fd5b80820281158282048414176107d0576107d0614e1b565b85815284602082015260a06040820152600061522660a0830186614440565b6001600160a01b0394909416606083015250608001529392505050565b60005b8381101561525e578181015183820152602001615246565b50506000910152565b60008251615279818460208701615243565b9190910192915050565b60006020828403121561529557600080fd5b815160ff81168114611a2d57600080fd5b60ff82811682821603908111156107d0576107d0614e1b565b600181815b808511156152fa5781600019048211156152e0576152e0614e1b565b808516156152ed57918102915b93841c93908002906152c4565b509250929050565b600082615311575060016107d0565b8161531e575060006107d0565b8160018114615334576002811461533e5761535a565b60019150506107d0565b60ff84111561534f5761534f614e1b565b50506001821b6107d0565b5060208310610133831016604e8410600b841016171561537d575081810a6107d0565b61538783836152bf565b806000190482111561539b5761539b614e1b565b029392505050565b6000611a2d60ff841683615302565b60208152600082518060208401526153d1816040850160208701615243565b601f01601f1916919091016040019291505056fea2646970667358221220a2859e7cbb6c4727341b2dd168c007af6edffe35264599d8a4f5966e82ebea5664736f6c63430008130033",
  "linkReferences": {},
  "deployedLinkReferences": {}
}