{
  "_format": "hh-sol-artifact-1",
  "contractName": "SoulZapFullV1_Lens",
  "sourceName": "contracts/lens/SoulZapFullV1_Lens.sol",
  "abi": [
    {
      "inputs": [
        {
          "internalType": "address",
          "name": "_wnative",
          "type": "address"
        },
        {
          "internalType": "contract IUniswapV2Factory[]",
          "name": "_factories",
          "type": "address[]"
        },
        {
          "internalType": "contract IUniswapV2Router02[]",
          "name": "_routers",
          "type": "address[]"
        },
        {
          "internalType": "address[]",
          "name": "_hopTokens",
          "type": "address[]"
        }
      ],
      "stateMutability": "nonpayable",
      "type": "constructor"
    },
    {
      "anonymous": false,
      "inputs": [
        {
          "indexed": true,
          "internalType": "address",
          "name": "previousOwner",
          "type": "address"
        },
        {
          "indexed": true,
          "internalType": "address",
          "name": "newOwner",
          "type": "address"
        }
      ],
      "name": "OwnershipTransferred",
      "type": "event"
    },
    {
      "inputs": [],
      "name": "WNATIVE",
      "outputs": [
        {
          "internalType": "address",
          "name": "",
          "type": "address"
        }
      ],
      "stateMutability": "view",
      "type": "function"
    },
    {
      "inputs": [
        {
          "internalType": "contract IUniswapV2Factory",
          "name": "_factory",
          "type": "address"
        },
        {
          "internalType": "contract IUniswapV2Router02",
          "name": "_router",
          "type": "address"
        }
      ],
      "name": "addFactory",
      "outputs": [],
      "stateMutability": "nonpayable",
      "type": "function"
    },
    {
      "inputs": [
        {
          "internalType": "address",
          "name": "token",
          "type": "address"
        }
      ],
      "name": "addHopToken",
      "outputs": [],
      "stateMutability": "nonpayable",
      "type": "function"
    },
    {
      "inputs": [
        {
          "internalType": "address[]",
          "name": "tokens",
          "type": "address[]"
        }
      ],
      "name": "addHopTokens",
      "outputs": [],
      "stateMutability": "nonpayable",
      "type": "function"
    },
    {
      "inputs": [
        {
          "internalType": "address",
          "name": "_pair",
          "type": "address"
        },
        {
          "internalType": "uint256",
          "name": "_inputAmount",
          "type": "uint256"
        },
        {
          "internalType": "address",
          "name": "_fromToken",
          "type": "address"
        }
      ],
      "name": "calculateOutputAmount",
      "outputs": [
        {
          "internalType": "uint256",
          "name": "",
          "type": "uint256"
        }
      ],
      "stateMutability": "view",
      "type": "function"
    },
    {
      "inputs": [
        {
          "internalType": "uint256",
          "name": "",
          "type": "uint256"
        }
      ],
      "name": "factories",
      "outputs": [
        {
          "internalType": "contract IUniswapV2Factory",
          "name": "",
          "type": "address"
        }
      ],
      "stateMutability": "view",
      "type": "function"
    },
    {
      "inputs": [
        {
          "internalType": "contract IUniswapV2Factory",
          "name": "",
          "type": "address"
        }
      ],
      "name": "factoryToRouter",
      "outputs": [
        {
          "internalType": "contract IUniswapV2Router02",
          "name": "",
          "type": "address"
        }
      ],
      "stateMutability": "view",
      "type": "function"
    },
    {
      "inputs": [
        {
          "internalType": "contract IUniswapV2Factory",
          "name": "factory",
          "type": "address"
        },
        {
          "internalType": "address",
          "name": "_fromToken",
          "type": "address"
        },
        {
          "internalType": "address",
          "name": "_toToken",
          "type": "address"
        }
      ],
      "name": "findPossibleHopTokens",
      "outputs": [
        {
          "internalType": "address[]",
          "name": "possibleHopTokens",
          "type": "address[]"
        }
      ],
      "stateMutability": "view",
      "type": "function"
    },
    {
      "inputs": [
        {
          "internalType": "address",
          "name": "_fromToken",
          "type": "address"
        },
        {
          "internalType": "address",
          "name": "_toToken",
          "type": "address"
        },
        {
          "internalType": "uint256",
          "name": "_amountIn",
          "type": "uint256"
        },
        {
          "internalType": "uint256",
          "name": "slippage",
          "type": "uint256"
        }
      ],
      "name": "getBestRoute",
      "outputs": [
        {
          "components": [
            {
              "internalType": "address",
              "name": "swapRouter",
              "type": "address"
            },
            {
              "internalType": "enum ISoulZap.SwapType",
              "name": "swapType",
              "type": "uint8"
            },
            {
              "internalType": "address[]",
              "name": "path",
              "type": "address[]"
            },
            {
              "internalType": "uint256",
              "name": "amountOutMin",
              "type": "uint256"
            }
          ],
          "internalType": "struct ISoulZap.SwapPath",
          "name": "bestPath",
          "type": "tuple"
        }
      ],
      "stateMutability": "view",
      "type": "function"
    },
    {
      "inputs": [
        {
          "internalType": "contract IUniswapV2Factory",
          "name": "factory",
          "type": "address"
        },
        {
          "internalType": "contract IUniswapV2Router02",
          "name": "router",
          "type": "address"
        },
        {
          "internalType": "address",
          "name": "_fromToken",
          "type": "address"
        },
        {
          "internalType": "address",
          "name": "_toToken",
          "type": "address"
        },
        {
          "internalType": "uint256",
          "name": "_amountIn",
          "type": "uint256"
        }
      ],
      "name": "getBestRouteFromFactory",
      "outputs": [
        {
          "internalType": "address[]",
          "name": "bestPath",
          "type": "address[]"
        },
        {
          "internalType": "uint256",
          "name": "maxOutputAmount",
          "type": "uint256"
        }
      ],
      "stateMutability": "view",
      "type": "function"
    },
    {
      "inputs": [
        {
          "internalType": "address",
          "name": "fromToken",
          "type": "address"
        },
        {
          "internalType": "uint256",
          "name": "amount",
          "type": "uint256"
        },
        {
          "internalType": "contract ICustomBillRefillable",
          "name": "bill",
          "type": "address"
        },
        {
          "internalType": "uint256",
          "name": "slippage",
          "type": "uint256"
        },
        {
          "internalType": "address",
          "name": "to",
          "type": "address"
        }
      ],
      "name": "getZapData",
      "outputs": [
        {
          "components": [
            {
              "components": [
                {
                  "internalType": "contract IERC20",
                  "name": "inputToken",
                  "type": "address"
                },
                {
                  "internalType": "uint256",
                  "name": "inputAmount",
                  "type": "uint256"
                },
                {
                  "internalType": "address",
                  "name": "token0",
                  "type": "address"
                },
                {
                  "internalType": "address",
                  "name": "token1",
                  "type": "address"
                },
                {
                  "components": [
                    {
                      "internalType": "address",
                      "name": "swapRouter",
                      "type": "address"
                    },
                    {
                      "internalType": "enum ISoulZap.SwapType",
                      "name": "swapType",
                      "type": "uint8"
                    },
                    {
                      "internalType": "address[]",
                      "name": "path",
                      "type": "address[]"
                    },
                    {
                      "internalType": "uint256",
                      "name": "amountOutMin",
                      "type": "uint256"
                    }
                  ],
                  "internalType": "struct ISoulZap.SwapPath",
                  "name": "path0",
                  "type": "tuple"
                },
                {
                  "components": [
                    {
                      "internalType": "address",
                      "name": "swapRouter",
                      "type": "address"
                    },
                    {
                      "internalType": "enum ISoulZap.SwapType",
                      "name": "swapType",
                      "type": "uint8"
                    },
                    {
                      "internalType": "address[]",
                      "name": "path",
                      "type": "address[]"
                    },
                    {
                      "internalType": "uint256",
                      "name": "amountOutMin",
                      "type": "uint256"
                    }
                  ],
                  "internalType": "struct ISoulZap.SwapPath",
                  "name": "path1",
                  "type": "tuple"
                },
                {
                  "components": [
                    {
                      "internalType": "address",
                      "name": "lpRouter",
                      "type": "address"
                    },
                    {
                      "internalType": "enum ISoulZap.LPType",
                      "name": "lpType",
                      "type": "uint8"
                    },
                    {
                      "internalType": "uint256",
                      "name": "minAmountLP0",
                      "type": "uint256"
                    },
                    {
                      "internalType": "uint256",
                      "name": "minAmountLP1",
                      "type": "uint256"
                    }
                  ],
                  "internalType": "struct ISoulZap.LiquidityPath",
                  "name": "liquidityPath",
                  "type": "tuple"
                },
                {
                  "internalType": "address",
                  "name": "to",
                  "type": "address"
                },
                {
                  "internalType": "uint256",
                  "name": "deadline",
                  "type": "uint256"
                }
              ],
              "internalType": "struct ISoulZap.ZapParams",
              "name": "zapParams",
              "type": "tuple"
            },
            {
              "internalType": "contract ICustomBillRefillable",
              "name": "bill",
              "type": "address"
            },
            {
              "internalType": "uint256",
              "name": "maxPrice",
              "type": "uint256"
            }
          ],
          "internalType": "struct ISoulZap.ZapParamsBond",
          "name": "params",
          "type": "tuple"
        },
        {
          "internalType": "bytes",
          "name": "encodedParams",
          "type": "bytes"
        },
        {
          "internalType": "bytes",
          "name": "encodedTx",
          "type": "bytes"
        }
      ],
      "stateMutability": "view",
      "type": "function"
    },
    {
      "inputs": [
        {
          "internalType": "uint256",
          "name": "amount",
          "type": "uint256"
        },
        {
          "internalType": "contract ICustomBillRefillable",
          "name": "bill",
          "type": "address"
        },
        {
          "internalType": "uint256",
          "name": "slippage",
          "type": "uint256"
        },
        {
          "internalType": "address",
          "name": "to",
          "type": "address"
        }
      ],
      "name": "getZapDataNative",
      "outputs": [
        {
          "components": [
            {
              "components": [
                {
                  "internalType": "address",
                  "name": "token0",
                  "type": "address"
                },
                {
                  "internalType": "address",
                  "name": "token1",
                  "type": "address"
                },
                {
                  "components": [
                    {
                      "internalType": "address",
                      "name": "swapRouter",
                      "type": "address"
                    },
                    {
                      "internalType": "enum ISoulZap.SwapType",
                      "name": "swapType",
                      "type": "uint8"
                    },
                    {
                      "internalType": "address[]",
                      "name": "path",
                      "type": "address[]"
                    },
                    {
                      "internalType": "uint256",
                      "name": "amountOutMin",
                      "type": "uint256"
                    }
                  ],
                  "internalType": "struct ISoulZap.SwapPath",
                  "name": "path0",
                  "type": "tuple"
                },
                {
                  "components": [
                    {
                      "internalType": "address",
                      "name": "swapRouter",
                      "type": "address"
                    },
                    {
                      "internalType": "enum ISoulZap.SwapType",
                      "name": "swapType",
                      "type": "uint8"
                    },
                    {
                      "internalType": "address[]",
                      "name": "path",
                      "type": "address[]"
                    },
                    {
                      "internalType": "uint256",
                      "name": "amountOutMin",
                      "type": "uint256"
                    }
                  ],
                  "internalType": "struct ISoulZap.SwapPath",
                  "name": "path1",
                  "type": "tuple"
                },
                {
                  "components": [
                    {
                      "internalType": "address",
                      "name": "lpRouter",
                      "type": "address"
                    },
                    {
                      "internalType": "enum ISoulZap.LPType",
                      "name": "lpType",
                      "type": "uint8"
                    },
                    {
                      "internalType": "uint256",
                      "name": "minAmountLP0",
                      "type": "uint256"
                    },
                    {
                      "internalType": "uint256",
                      "name": "minAmountLP1",
                      "type": "uint256"
                    }
                  ],
                  "internalType": "struct ISoulZap.LiquidityPath",
                  "name": "liquidityPath",
                  "type": "tuple"
                },
                {
                  "internalType": "address",
                  "name": "to",
                  "type": "address"
                },
                {
                  "internalType": "uint256",
                  "name": "deadline",
                  "type": "uint256"
                }
              ],
              "internalType": "struct ISoulZap.ZapParamsNative",
              "name": "zapParamsNative",
              "type": "tuple"
            },
            {
              "internalType": "contract ICustomBillRefillable",
              "name": "bill",
              "type": "address"
            },
            {
              "internalType": "uint256",
              "name": "maxPrice",
              "type": "uint256"
            }
          ],
          "internalType": "struct ISoulZap.ZapParamsBondNative",
          "name": "params",
          "type": "tuple"
        },
        {
          "internalType": "bytes",
          "name": "encodedParams",
          "type": "bytes"
        },
        {
          "internalType": "bytes",
          "name": "encodedTx",
          "type": "bytes"
        }
      ],
      "stateMutability": "view",
      "type": "function"
    },
    {
      "inputs": [
        {
          "internalType": "uint256",
          "name": "",
          "type": "uint256"
        }
      ],
      "name": "hopTokens",
      "outputs": [
        {
          "internalType": "address",
          "name": "",
          "type": "address"
        }
      ],
      "stateMutability": "view",
      "type": "function"
    },
    {
      "inputs": [
        {
          "internalType": "address",
          "name": "_token",
          "type": "address"
        }
      ],
      "name": "isInHopTokens",
      "outputs": [
        {
          "internalType": "bool",
          "name": "",
          "type": "bool"
        }
      ],
      "stateMutability": "view",
      "type": "function"
    },
    {
      "inputs": [],
      "name": "owner",
      "outputs": [
        {
          "internalType": "address",
          "name": "",
          "type": "address"
        }
      ],
      "stateMutability": "view",
      "type": "function"
    },
    {
      "inputs": [
        {
          "internalType": "contract IUniswapV2Factory",
          "name": "factory",
          "type": "address"
        },
        {
          "internalType": "address",
          "name": "token0",
          "type": "address"
        },
        {
          "internalType": "address",
          "name": "token1",
          "type": "address"
        }
      ],
      "name": "pairExists",
      "outputs": [
        {
          "internalType": "bool",
          "name": "",
          "type": "bool"
        }
      ],
      "stateMutability": "view",
      "type": "function"
    },
    {
      "inputs": [
        {
          "internalType": "contract IUniswapV2Factory",
          "name": "_factory",
          "type": "address"
        }
      ],
      "name": "removeFactory",
      "outputs": [],
      "stateMutability": "nonpayable",
      "type": "function"
    },
    {
      "inputs": [
        {
          "internalType": "address",
          "name": "token",
          "type": "address"
        }
      ],
      "name": "removeHopToken",
      "outputs": [],
      "stateMutability": "nonpayable",
      "type": "function"
    },
    {
      "inputs": [],
      "name": "renounceOwnership",
      "outputs": [],
      "stateMutability": "nonpayable",
      "type": "function"
    },
    {
      "inputs": [
        {
          "internalType": "address",
          "name": "newOwner",
          "type": "address"
        }
      ],
      "name": "transferOwnership",
      "outputs": [],
      "stateMutability": "nonpayable",
      "type": "function"
    }
  ],
  "bytecode": "0x60a06040523480156200001157600080fd5b5060405162002e5538038062002e5583398101604081905262000034916200035d565b83838383620000433362000186565b8151835114620000995760405162461bcd60e51b815260206004820152601c60248201527f457665727920666163746f7279206e65656473206120726f7574657200000000604482015260640160405180910390fd5b8251620000ae906001906020860190620001d6565b5060005b83518110156200015457828181518110620000d157620000d16200046d565b602002602001015160026000868481518110620000f257620000f26200046d565b60200260200101516001600160a01b03166001600160a01b0316815260200190815260200160002060006101000a8154816001600160a01b0302191690836001600160a01b0316021790555080806200014b9062000483565b915050620000b2565b506001600160a01b038416608052805162000177906003906020840190620001d6565b505050505050505050620004ab565b600080546001600160a01b038381166001600160a01b0319831681178455604051919092169283917f8be0079c531659141344cd1fd0a4f28419497f9722a3daafe3b4186f6b6457e09190a35050565b8280548282559060005260206000209081019282156200022e579160200282015b828111156200022e57825182546001600160a01b0319166001600160a01b03909116178255602090920191600190910190620001f7565b506200023c92915062000240565b5090565b5b808211156200023c576000815560010162000241565b6001600160a01b03811681146200026d57600080fd5b50565b634e487b7160e01b600052604160045260246000fd5b604051601f8201601f191681016001600160401b0381118282101715620002b157620002b162000270565b604052919050565b60006001600160401b03821115620002d557620002d562000270565b5060051b60200190565b600082601f830112620002f157600080fd5b815160206200030a6200030483620002b9565b62000286565b82815260059290921b840181019181810190868411156200032a57600080fd5b8286015b8481101562000352578051620003448162000257565b83529183019183016200032e565b509695505050505050565b600080600080608085870312156200037457600080fd5b8451620003818162000257565b602086810151919550906001600160401b0380821115620003a157600080fd5b818801915088601f830112620003b657600080fd5b8151620003c76200030482620002b9565b81815260059190911b8301840190848101908b831115620003e757600080fd5b938501935b8285101562000412578451620004028162000257565b82529385019390850190620003ec565b60408b015190985094505050808311156200042c57600080fd5b6200043a89848a01620002df565b945060608801519250808311156200045157600080fd5b50506200046187828801620002df565b91505092959194509250565b634e487b7160e01b600052603260045260246000fd5b600060018201620004a457634e487b7160e01b600052601160045260246000fd5b5060010190565b608051612987620004ce600039600081816102e001526109a101526129876000f3fe608060405234801561001057600080fd5b506004361061016c5760003560e01c80638da5cb5b116100cd578063c798fd3311610081578063dca2076511610066578063dca207651461034a578063e9c54e4d1461035d578063f2fde38b1461037e57600080fd5b8063c798fd3314610315578063d53cd9271461032857600080fd5b8063a72a9d58116100b2578063a72a9d58146102c8578063b381cf40146102db578063bdd0ad4c1461030257600080fd5b80638da5cb5b146102a4578063a6c5e335146102b557600080fd5b80636566afad1161012457806367970540116101095780636797054014610253578063715018a61461027c57806376edeeed1461028457600080fd5b80636566afad14610215578063672383c41461022857600080fd5b8063460594dd11610155578063460594dd146101bd5780634b37c73f146101dd578063519321fd146101f257600080fd5b806324162dea146101715780633f2b621f1461019b575b600080fd5b61018461017f366004611fee565b610391565b604051610192929190612096565b60405180910390f35b6101ae6101a93660046120b8565b61098f565b604051610192939291906122de565b6101d06101cb366004612321565b610b14565b604051610192919061236c565b6101f06101eb36600461237f565b610c1a565b005b61020561020036600461237f565b610d51565b6040519015158152602001610192565b6101f061022336600461239c565b610dba565b61023b6102363660046123d5565b610e28565b6040516001600160a01b039091168152602001610192565b61023b61026136600461237f565b6002602052600090815260409020546001600160a01b031681565b6101f0610e52565b6102976102923660046123ee565b610e66565b6040516101929190612434565b6000546001600160a01b031661023b565b6101f06102c336600461237f565b610fbf565b6101f06102d63660046124b2565b6110e8565b61023b7f000000000000000000000000000000000000000000000000000000000000000081565b61023b6103103660046123d5565b61115d565b6101f061032336600461237f565b61116d565b61033b610336366004612551565b6111c7565b60405161019293929190612685565b610205610358366004612321565b611275565b61037061036b366004612698565b61132c565b604051908152602001610192565b6101f061038c36600461237f565b6115e0565b6060600060606103d56040518060400160405280600581526020017f7374617274000000000000000000000000000000000000000000000000000000815250611675565b6103e0888787611275565b1561053d5760408051600280825260608201835290916020830190803683370190505092508583600081518110610419576104196126cf565b60200260200101906001600160a01b031690816001600160a01b031681525050848360018151811061044d5761044d6126cf565b6001600160a01b03928316602091820292909201015260405163d06ca61f60e01b815260009189169063d06ca61f9061048c90889088906004016126e5565b600060405180830381865afa1580156104a9573d6000803e3d6000fd5b505050506040513d6000823e601f3d908101601f191682016040526104d191908101906126fe565b905080600182516104e2919061279a565b815181106104f2576104f26126cf565b6020026020010151925061053b6040518060400160405280600681526020017f6469726563740000000000000000000000000000000000000000000000000000815250846116d1565b505b600061054a898888610b14565b9050805160000361055c575050610985565b6040805160038082526080820190925290602082016060803683370190505091508682600081518110610591576105916126cf565b60200260200101906001600160a01b031690816001600160a01b03168152505085826002815181106105c5576105c56126cf565b60200260200101906001600160a01b031690816001600160a01b03168152505060005b81518110156109815760006001600160a01b031682828151811061060e5761060e6126cf565b60200260200101516001600160a01b0316031561098157818181518110610637576106376126cf565b602002602001015183600181518110610652576106526126cf565b60200260200101906001600160a01b031690816001600160a01b0316815250506106cb83600081518110610688576106886126cf565b6020026020010151846001815181106106a3576106a36126cf565b6020026020010151856002815181106106be576106be6126cf565b602002602001015161172f565b60405163d06ca61f60e01b81526000906001600160a01b038b169063d06ca61f906106fc908a9088906004016126e5565b600060405180830381865afa158015610719573d6000803e3d6000fd5b505050506040513d6000823e601f3d908101601f1916820160405261074191908101906126fe565b905061078d84600181518110610759576107596126cf565b60200260200101518260018451610770919061279a565b81518110610780576107806126cf565b60200260200101516117a5565b84816001835161079d919061279a565b815181106107ad576107ad6126cf565b6020026020010151111561096e5780600182516107ca919061279a565b815181106107da576107da6126cf565b60200260200101519450600367ffffffffffffffff8111156107fe576107fe612447565b604051908082528060200260200182016040528015610827578160200160208202803683370190505b5095508360008151811061083d5761083d6126cf565b602002602001015186600081518110610858576108586126cf565b60200260200101906001600160a01b031690816001600160a01b0316815250508360018151811061088b5761088b6126cf565b6020026020010151866001815181106108a6576108a66126cf565b60200260200101906001600160a01b031690816001600160a01b031681525050836002815181106108d9576108d96126cf565b6020026020010151866002815181106108f4576108f46126cf565b60200260200101906001600160a01b031690816001600160a01b03168152505061096e6040518060400160405280600a81526020017f626574746572706174680000000000000000000000000000000000000000000081525087600181518110610960576109606126cf565b60200260200101518761180d565b5080610979816127b1565b9150506105e8565b5050505b9550959350505050565b610997611e94565b60608060006109c97f00000000000000000000000000000000000000000000000000000000000000008989898961186d565b905060006040518060e001604052808360000151604001516001600160a01b031681526020018360000151606001516001600160a01b031681526020018360000151608001518152602001836000015160a001518152602001836000015160c001518152602001876001600160a01b031681526020014264174876e800610a5091906127ca565b81525090506040518060600160405280828152602001896001600160a01b031681526020018360400151815250945084604051602001610a9091906127e2565b60408051601f198184030181529082905294507f6b95c8b80000000000000000000000000000000000000000000000000000000090610ad39087906024016127e2565b604051602081830303815290604052906001600160e01b0319166020820180516001600160e01b038381831617835250505050925050509450945094915050565b60035460609067ffffffffffffffff811115610b3257610b32612447565b604051908082528060200260200182016040528015610b5b578160200160208202803683370190505b5090506000805b600354811015610c1157600060038281548110610b8157610b816126cf565b60009182526020822001546001600160a01b03169150610ba2888884611275565b90506000610bb1898489611275565b9050818015610bbd5750805b15610bfb5782868681518110610bd557610bd56126cf565b6001600160a01b039092166020928302919091019091015284610bf7816127b1565b9550505b5050508080610c09906127b1565b915050610b62565b50509392505050565b610c22611bb5565b60005b600154811015610d2957816001600160a01b031660018281548110610c4c57610c4c6126cf565b6000918252602090912001546001600160a01b031603610d175760018054610c7590829061279a565b81548110610c8557610c856126cf565b600091825260209091200154600180546001600160a01b039092169183908110610cb157610cb16126cf565b9060005260206000200160006101000a8154816001600160a01b0302191690836001600160a01b031602179055506001805480610cf057610cf06127f5565b600082815260209020810160001990810180546001600160a01b0319169055019055610d29565b80610d21816127b1565b915050610c25565b506001600160a01b0316600090815260026020526040902080546001600160a01b0319169055565b6000805b600354811015610db157826001600160a01b031660038281548110610d7c57610d7c6126cf565b6000918252602090912001546001600160a01b031603610d9f5750600192915050565b80610da9816127b1565b915050610d55565b50600092915050565b610dc2611bb5565b600180548082019091557fb10e2d527612073b26eecdfd717e6a320cf44b4afac2b0732d9fcbe2b7fa0cf60180546001600160a01b039384166001600160a01b031991821681179092556000918252600260205260409091208054929093169116179055565b60018181548110610e3857600080fd5b6000918252602090912001546001600160a01b0316905081565b610e5a611bb5565b610e646000611c0f565b565b610e92604080516080810190915260008082526020820190815260200160608152602001600081525090565b6000602082018190526060906001600160a01b0380871690881603610ebc57505060018152610fb7565b60005b600154811015610f885760006002600060018481548110610ee257610ee26126cf565b60009182526020808320909101546001600160a01b03908116845290830193909352604090910190205460018054919092169250610f49919084908110610f2b57610f2b6126cf565b6000918252602090912001546001600160a01b0316828b8b8b610391565b60608701519195509350831115610f75576001600160a01b038116855260408501849052606085018390525b5080610f80816127b1565b915050610ebf565b50612710610f96858261279a565b8460600151610fa5919061280b565b610faf919061282a565b606084015250505b949350505050565b610fc7611bb5565b60005b6003548110156110e457816001600160a01b031660038281548110610ff157610ff16126cf565b6000918252602090912001546001600160a01b0316036110d25760035461101a9060019061279a565b811461109b57600380546110309060019061279a565b81548110611040576110406126cf565b600091825260209091200154600380546001600160a01b03909216918390811061106c5761106c6126cf565b9060005260206000200160006101000a8154816001600160a01b0302191690836001600160a01b031602179055505b60038054806110ac576110ac6127f5565b600082815260209020810160001990810180546001600160a01b03191690550190555050565b806110dc816127b1565b915050610fca565b5050565b6110f0611bb5565b60005b81518110156110e4576003828281518110611110576111106126cf565b60209081029190910181015182546001810184556000938452919092200180546001600160a01b0319166001600160a01b0390921691909117905580611155816127b1565b9150506110f3565b60038181548110610e3857600080fd5b611175611bb5565b600380546001810182556000919091527fc2575a0e9e593c00f959f8c92f12db2869c3395a3b0502d05e2516446f71f85b0180546001600160a01b0319166001600160a01b0392909216919091179055565b6111cf611ebb565b6060806111df888888888861186d565b9250826040516020016111f2919061284c565b60408051601f198184030181529082905292507f9c87d94d000000000000000000000000000000000000000000000000000000009061123590859060240161284c565b604051602081830303815290604052906001600160e01b0319166020820180516001600160e01b0383818316178352505050509050955095509592505050565b6040517fe6a439050000000000000000000000000000000000000000000000000000000081526001600160a01b0383811660048301528281166024830152600091829186169063e6a4390590604401602060405180830381865afa1580156112e1573d6000803e3d6000fd5b505050506040513d601f19601f82011682018060405250810190611305919061285f565b90506001600160a01b03811661131f576000915050611325565b60019150505b9392505050565b600080849050600080826001600160a01b0316630902f1ac6040518163ffffffff1660e01b8152600401606060405180830381865afa158015611373573d6000803e3d6000fd5b505050506040513d601f19601f82011682018060405250810190611397919061289f565b50915091506000856001600160a01b0316846001600160a01b0316630dfe16816040518163ffffffff1660e01b8152600401602060405180830381865afa1580156113e6573d6000803e3d6000fd5b505050506040513d601f19601f8201168201806040525081019061140a919061285f565b6001600160a01b03161461141e5781611420565b825b6dffffffffffffffffffffffffffff1690506000866001600160a01b0316856001600160a01b0316630dfe16816040518163ffffffff1660e01b8152600401602060405180830381865afa15801561147c573d6000803e3d6000fd5b505050506040513d601f19601f820116820180604052508101906114a0919061285f565b6001600160a01b0316146114b457836114b6565b825b6dffffffffffffffffffffffffffff16905060026000866001600160a01b031663c45a01556040518163ffffffff1660e01b8152600401602060405180830381865afa15801561150a573d6000803e3d6000fd5b505050506040513d601f19601f8201168201806040525081019061152e919061285f565b6001600160a01b039081168252602082019290925260409081016000205490517f054d50d4000000000000000000000000000000000000000000000000000000008152600481018b9052602481018590526044810184905291169063054d50d490606401602060405180830381865afa1580156115af573d6000803e3d6000fd5b505050506040513d601f19601f820116820180604052508101906115d391906128e4565b9998505050505050505050565b6115e8611bb5565b6001600160a01b0381166116695760405162461bcd60e51b815260206004820152602660248201527f4f776e61626c653a206e6577206f776e657220697320746865207a65726f206160448201527f646472657373000000000000000000000000000000000000000000000000000060648201526084015b60405180910390fd5b61167281611c0f565b50565b6116728160405160240161168991906128fd565b60408051601f198184030181529190526020810180516001600160e01b03167f41304fac00000000000000000000000000000000000000000000000000000000179052611c5f565b6110e482826040516024016116e7929190612910565b60408051601f198184030181529190526020810180516001600160e01b03167fb60e72cc00000000000000000000000000000000000000000000000000000000179052611c5f565b6040516001600160a01b0380851660248301528084166044830152821660648201526117a09060840160408051601f198184030181529190526020810180516001600160e01b03167f018c84c200000000000000000000000000000000000000000000000000000000179052611c5f565b505050565b6040516001600160a01b0383166024820152604481018290526110e49060640160408051601f198184030181529190526020810180516001600160e01b03167f8309e8a800000000000000000000000000000000000000000000000000000000179052611c5f565b6117a083838360405160240161182593929190612923565b60408051601f198184030181529190526020810180516001600160e01b03167f0d26b92500000000000000000000000000000000000000000000000000000000179052611c5f565b611875611ebb565b6000846001600160a01b031663dbc162de6040518163ffffffff1660e01b8152600401602060405180830381865afa1580156118b5573d6000803e3d6000fd5b505050506040513d601f19601f820116820180604052508101906118d9919061285f565b9050600080826001600160a01b0316630dfe16816040518163ffffffff1660e01b8152600401602060405180830381865afa925050508015611938575060408051601f3d908101601f191682019092526119359181019061285f565b60015b611972573d808015611966576040519150601f19603f3d011682016040523d82523d6000602084013e61196b565b606091505b5050611975565b91505b826001600160a01b031663d21220a76040518163ffffffff1660e01b8152600401602060405180830381865afa9250505080156119cf575060408051601f3d908101601f191682019092526119cc9181019061285f565b60015b611a09573d8080156119fd576040519150601f19603f3d011682016040523d82523d6000602084013e611a02565b606091505b5050611a0c565b90505b611a14611eca565b611a234264174876e8006127ca565b610100820152602081018990526001600160a01b03808b168252831615801590611a5557506001600160a01b03821615155b15611ab7576000611a6760028b61282a565b6001600160a01b038086166040850152841660608401529050611a8c8b85838b610e66565b6080830152611a9d8b84838b610e66565b60a0830152611aac8582611c80565b60c083015250611aff565b60405162461bcd60e51b815260206004820152601f60248201527f4f6e6c79206c7020626f6e647320737570706f7274656420666f72206e6f77006044820152606401611660565b6000612710611b0e89826127ca565b8a6001600160a01b031663e796059a6040518163ffffffff1660e01b8152600401602060405180830381865afa158015611b4c573d6000803e3d6000fd5b505050506040513d601f19601f82011682018060405250810190611b7091906128e4565b611b7a919061280b565b611b84919061282a565b604080516060810182529384526001600160a01b03909a166020840152988201989098529998505050505050505050565b6000546001600160a01b03163314610e645760405162461bcd60e51b815260206004820181905260248201527f4f776e61626c653a2063616c6c6572206973206e6f7420746865206f776e65726044820152606401611660565b600080546001600160a01b038381166001600160a01b0319831681178455604051919092169283917f8be0079c531659141344cd1fd0a4f28419497f9722a3daafe3b4186f6b6457e09190a35050565b80516a636f6e736f6c652e6c6f67602083016000808483855afa5050505050565b611cac604080516080810190915260008082526020820190815260200160008152602001600081525090565b600060026000856001600160a01b031663c45a01556040518163ffffffff1660e01b8152600401602060405180830381865afa158015611cf0573d6000803e3d6000fd5b505050506040513d601f19601f82011682018060405250810190611d14919061285f565b6001600160a01b03166001600160a01b0316815260200190815260200160002060009054906101000a90046001600160a01b03169050600080856001600160a01b0316630902f1ac6040518163ffffffff1660e01b8152600401606060405180830381865afa158015611d8b573d6000803e3d6000fd5b505050506040513d601f19601f82011682018060405250810190611daf919061289f565b506040517fad615dec000000000000000000000000000000000000000000000000000000008152600481018890526dffffffffffffffffffffffffffff92831660248201819052919092166044830181905290935091506000906001600160a01b0385169063ad615dec90606401602060405180830381865afa158015611e3a573d6000803e3d6000fd5b505050506040513d601f19601f82011682018060405250810190611e5e91906128e4565b604080516080810182526001600160a01b0396909616865260006020870152850196909652505050606081019290925250919050565b6040518060600160405280611ea7611f96565b815260006020820181905260409091015290565b6040518060600160405280611ea75b60405180610120016040528060006001600160a01b031681526020016000815260200160006001600160a01b0316815260200160006001600160a01b03168152602001611f39604080516080810190915260008082526020820190815260200160608152602001600081525090565b8152602001611f6a604080516080810190915260008082526020820190815260200160608152602001600081525090565b815260408051608081018252600080825260208281018290529282018190526060820152910190611ea7565b6040805160e08101825260008082526020820152908101611f39604080516080810190915260008082526020820190815260200160608152602001600081525090565b6001600160a01b038116811461167257600080fd5b600080600080600060a0868803121561200657600080fd5b853561201181611fd9565b9450602086013561202181611fd9565b9350604086013561203181611fd9565b9250606086013561204181611fd9565b949793965091946080013592915050565b600081518084526020808501945080840160005b8381101561208b5781516001600160a01b031687529582019590820190600101612066565b509495945050505050565b6040815260006120a96040830185612052565b90508260208301529392505050565b600080600080608085870312156120ce57600080fd5b8435935060208501356120e081611fd9565b92506040850135915060608501356120f781611fd9565b939692955090935050565b6001811061167257634e487b7160e01b600052602160045260246000fd5b6000608083016001600160a01b0380845116855260208085015161214381612102565b8682015260408581015160809188019190915280519384905281019260009060a08801905b8083101561218a57855185168252948301946001929092019190830190612168565b5060608701516060890152809550505050505092915050565b6001600160a01b03815116825260208101516121be81612102565b602083015260408181015190830152606090810151910152565b60008151606084526001600160a01b0380825116606086015280602083015116608086015250604081015161014060a08601526122196101a0860182612120565b90506060820151605f198683030160c08701526122368282612120565b915050608082015161224b60e08701826121a3565b5060a08201516001600160a01b0390811661016087015260c090920151610180860152602084810151928316908601525b60408401516040860152809250505092915050565b6000815180845260005b818110156122b75760208185018101518683018201520161229b565b818111156122c9576000602083870101525b50601f01601f19169290920160200192915050565b6060815260006122f160608301866121d8565b82810360208401526123038186612291565b905082810360408401526123178185612291565b9695505050505050565b60008060006060848603121561233657600080fd5b833561234181611fd9565b9250602084013561235181611fd9565b9150604084013561236181611fd9565b809150509250925092565b6020815260006113256020830184612052565b60006020828403121561239157600080fd5b813561132581611fd9565b600080604083850312156123af57600080fd5b82356123ba81611fd9565b915060208301356123ca81611fd9565b809150509250929050565b6000602082840312156123e757600080fd5b5035919050565b6000806000806080858703121561240457600080fd5b843561240f81611fd9565b9350602085013561241f81611fd9565b93969395505050506040820135916060013590565b6020815260006113256020830184612120565b634e487b7160e01b600052604160045260246000fd5b604051601f8201601f1916810167ffffffffffffffff8111828210171561248657612486612447565b604052919050565b600067ffffffffffffffff8211156124a8576124a8612447565b5060051b60200190565b600060208083850312156124c557600080fd5b823567ffffffffffffffff8111156124dc57600080fd5b8301601f810185136124ed57600080fd5b80356125006124fb8261248e565b61245d565b81815260059190911b8201830190838101908783111561251f57600080fd5b928401925b8284101561254657833561253781611fd9565b82529284019290840190612524565b979650505050505050565b600080600080600060a0868803121561256957600080fd5b853561257481611fd9565b945060208601359350604086013561258b81611fd9565b92506060860135915060808601356125a281611fd9565b809150509295509295909350565b60008151606084526125ce6060850182516001600160a01b03169052565b6020810151608085015260408101516001600160a01b03811660a08601525060608101516001600160a01b03811660c086015250608081015161018060e086015261261d6101e0860182612120565b905060a0820151610100605f19878403018188015261263c8383612120565b925060c084015191506126536101208801836121a3565b60e08401516001600160a01b039081166101a08901529301516101c0870152506020848101519283169086015261227c565b6060815260006122f160608301866125b0565b6000806000606084860312156126ad57600080fd5b83356126b881611fd9565b925060208401359150604084013561236181611fd9565b634e487b7160e01b600052603260045260246000fd5b828152604060208201526000610fb76040830184612052565b6000602080838503121561271157600080fd5b825167ffffffffffffffff81111561272857600080fd5b8301601f8101851361273957600080fd5b80516127476124fb8261248e565b81815260059190911b8201830190838101908783111561276657600080fd5b928401925b828410156125465783518252928401929084019061276b565b634e487b7160e01b600052601160045260246000fd5b6000828210156127ac576127ac612784565b500390565b6000600182016127c3576127c3612784565b5060010190565b600082198211156127dd576127dd612784565b500190565b60208152600061132560208301846121d8565b634e487b7160e01b600052603160045260246000fd5b600081600019048311821515161561282557612825612784565b500290565b60008261284757634e487b7160e01b600052601260045260246000fd5b500490565b60208152600061132560208301846125b0565b60006020828403121561287157600080fd5b815161132581611fd9565b80516dffffffffffffffffffffffffffff8116811461289a57600080fd5b919050565b6000806000606084860312156128b457600080fd5b6128bd8461287c565b92506128cb6020850161287c565b9150604084015163ffffffff8116811461236157600080fd5b6000602082840312156128f657600080fd5b5051919050565b6020815260006113256020830184612291565b6040815260006120a96040830185612291565b6060815260006129366060830186612291565b6001600160a01b03949094166020830152506040015291905056fea2646970667358221220cdf61be5250d6ce3fc77e1a06e46a1f45ca4117f39012437b27f3bb906fa4fe064736f6c634300080f0033",
  "linkReferences": {},
  "deployedLinkReferences": {}
}