{
    "_format": "hh-sol-artifact-1",
    "contractName": "SoulZap_UniV2_Extended_Lens_V1",
    "sourceName": "contracts/full-versions/SoulZap_UniV2_Extended_Lens_V1.sol",
    "abi": [
        {
            "inputs": [
                {
                    "internalType": "contract SoulZap_UniV2",
                    "name": "_soulZap",
                    "type": "address"
                },
                {
                    "internalType": "contract IWETH",
                    "name": "_wnative",
                    "type": "address"
                },
                {
                    "internalType": "address",
                    "name": "_feeStableToken",
                    "type": "address"
                },
                {
                    "internalType": "contract IUniswapV2Router02",
                    "name": "_router",
                    "type": "address"
                },
                {
                    "internalType": "address[]",
                    "name": "_hopTokens",
                    "type": "address[]"
                }
            ],
            "stateMutability": "nonpayable",
            "type": "constructor"
        },
        {
            "inputs": [
                {
                    "internalType": "address",
                    "name": "authority",
                    "type": "address"
                }
            ],
            "name": "AccessManagedInvalidAuthority",
            "type": "error"
        },
        {
            "inputs": [
                {
                    "internalType": "address",
                    "name": "caller",
                    "type": "address"
                },
                {
                    "internalType": "uint32",
                    "name": "delay",
                    "type": "uint32"
                }
            ],
            "name": "AccessManagedRequiredDelay",
            "type": "error"
        },
        {
            "inputs": [
                {
                    "internalType": "address",
                    "name": "caller",
                    "type": "address"
                }
            ],
            "name": "AccessManagedUnauthorized",
            "type": "error"
        },
        {
            "anonymous": false,
            "inputs": [
                {
                    "indexed": false,
                    "internalType": "address",
                    "name": "authority",
                    "type": "address"
                }
            ],
            "name": "AuthorityUpdated",
            "type": "event"
        },
        {
            "inputs": [],
            "name": "WNATIVE",
            "outputs": [
                {
                    "internalType": "contract IWETH",
                    "name": "",
                    "type": "address"
                }
            ],
            "stateMutability": "view",
            "type": "function"
        },
        {
            "inputs": [
                {
                    "internalType": "address",
                    "name": "token",
                    "type": "address"
                }
            ],
            "name": "addHopToken",
            "outputs": [],
            "stateMutability": "nonpayable",
            "type": "function"
        },
        {
            "inputs": [
                {
                    "internalType": "address[]",
                    "name": "tokens",
                    "type": "address[]"
                }
            ],
            "name": "addHopTokens",
            "outputs": [],
            "stateMutability": "nonpayable",
            "type": "function"
        },
        {
            "inputs": [],
            "name": "authority",
            "outputs": [
                {
                    "internalType": "address",
                    "name": "",
                    "type": "address"
                }
            ],
            "stateMutability": "view",
            "type": "function"
        },
        {
            "inputs": [
                {
                    "internalType": "address",
                    "name": "_pair",
                    "type": "address"
                },
                {
                    "internalType": "uint256",
                    "name": "_inputAmount",
                    "type": "uint256"
                },
                {
                    "internalType": "address",
                    "name": "_fromToken",
                    "type": "address"
                }
            ],
            "name": "calculateOutputAmount",
            "outputs": [
                {
                    "internalType": "uint256",
                    "name": "",
                    "type": "uint256"
                }
            ],
            "stateMutability": "view",
            "type": "function"
        },
        {
            "inputs": [
                {
                    "internalType": "address",
                    "name": "_feeStableToken",
                    "type": "address"
                }
            ],
            "name": "changeFeeStableToken",
            "outputs": [],
            "stateMutability": "nonpayable",
            "type": "function"
        },
        {
            "inputs": [],
            "name": "factory",
            "outputs": [
                {
                    "internalType": "contract IUniswapV2Factory",
                    "name": "",
                    "type": "address"
                }
            ],
            "stateMutability": "view",
            "type": "function"
        },
        {
            "inputs": [],
            "name": "feeStableToken",
            "outputs": [
                {
                    "internalType": "address",
                    "name": "",
                    "type": "address"
                }
            ],
            "stateMutability": "view",
            "type": "function"
        },
        {
            "inputs": [
                {
                    "internalType": "address",
                    "name": "_fromToken",
                    "type": "address"
                },
                {
                    "internalType": "address",
                    "name": "_toToken",
                    "type": "address"
                }
            ],
            "name": "findPossibleHopTokens",
            "outputs": [
                {
                    "internalType": "address[]",
                    "name": "possibleHopTokens",
                    "type": "address[]"
                }
            ],
            "stateMutability": "view",
            "type": "function"
        },
        {
            "inputs": [
                {
                    "internalType": "address",
                    "name": "_fromToken",
                    "type": "address"
                },
                {
                    "internalType": "address",
                    "name": "_toToken",
                    "type": "address"
                },
                {
                    "internalType": "uint256",
                    "name": "_amountIn",
                    "type": "uint256"
                },
                {
                    "internalType": "uint256",
                    "name": "_slippage",
                    "type": "uint256"
                }
            ],
            "name": "getBestRoute",
            "outputs": [
                {
                    "components": [
                        {
                            "internalType": "address",
                            "name": "swapRouter",
                            "type": "address"
                        },
                        {
                            "internalType": "enum ISoulZap_UniV2.SwapType",
                            "name": "swapType",
                            "type": "uint8"
                        },
                        {
                            "internalType": "address[]",
                            "name": "path",
                            "type": "address[]"
                        },
                        {
                            "internalType": "uint256",
                            "name": "amountOutMin",
                            "type": "uint256"
                        }
                    ],
                    "internalType": "struct ISoulZap_UniV2.SwapPath",
                    "name": "bestPath",
                    "type": "tuple"
                },
                {
                    "internalType": "uint256",
                    "name": "priceImpactPercentage",
                    "type": "uint256"
                }
            ],
            "stateMutability": "view",
            "type": "function"
        },
        {
            "inputs": [
                {
                    "internalType": "address",
                    "name": "fromToken",
                    "type": "address"
                },
                {
                    "internalType": "uint256",
                    "name": "amount",
                    "type": "uint256"
                },
                {
                    "internalType": "contract IUniswapV2Pair",
                    "name": "lp",
                    "type": "address"
                },
                {
                    "internalType": "uint256",
                    "name": "slippage",
                    "type": "uint256"
                },
                {
                    "internalType": "address",
                    "name": "to",
                    "type": "address"
                }
            ],
            "name": "getZapData",
            "outputs": [
                {
                    "components": [
                        {
                            "internalType": "contract IERC20",
                            "name": "inputToken",
                            "type": "address"
                        },
                        {
                            "internalType": "uint256",
                            "name": "inputAmount",
                            "type": "uint256"
                        },
                        {
                            "internalType": "address",
                            "name": "token0",
                            "type": "address"
                        },
                        {
                            "internalType": "address",
                            "name": "token1",
                            "type": "address"
                        },
                        {
                            "components": [
                                {
                                    "internalType": "address",
                                    "name": "swapRouter",
                                    "type": "address"
                                },
                                {
                                    "internalType": "enum ISoulZap_UniV2.SwapType",
                                    "name": "swapType",
                                    "type": "uint8"
                                },
                                {
                                    "internalType": "address[]",
                                    "name": "path",
                                    "type": "address[]"
                                },
                                {
                                    "internalType": "uint256",
                                    "name": "amountOutMin",
                                    "type": "uint256"
                                }
                            ],
                            "internalType": "struct ISoulZap_UniV2.SwapPath",
                            "name": "path0",
                            "type": "tuple"
                        },
                        {
                            "components": [
                                {
                                    "internalType": "address",
                                    "name": "swapRouter",
                                    "type": "address"
                                },
                                {
                                    "internalType": "enum ISoulZap_UniV2.SwapType",
                                    "name": "swapType",
                                    "type": "uint8"
                                },
                                {
                                    "internalType": "address[]",
                                    "name": "path",
                                    "type": "address[]"
                                },
                                {
                                    "internalType": "uint256",
                                    "name": "amountOutMin",
                                    "type": "uint256"
                                }
                            ],
                            "internalType": "struct ISoulZap_UniV2.SwapPath",
                            "name": "path1",
                            "type": "tuple"
                        },
                        {
                            "components": [
                                {
                                    "internalType": "address",
                                    "name": "lpRouter",
                                    "type": "address"
                                },
                                {
                                    "internalType": "enum ISoulZap_UniV2.LPType",
                                    "name": "lpType",
                                    "type": "uint8"
                                },
                                {
                                    "internalType": "uint256",
                                    "name": "minAmountLP0",
                                    "type": "uint256"
                                },
                                {
                                    "internalType": "uint256",
                                    "name": "minAmountLP1",
                                    "type": "uint256"
                                }
                            ],
                            "internalType": "struct ISoulZap_UniV2.LiquidityPath",
                            "name": "liquidityPath",
                            "type": "tuple"
                        },
                        {
                            "internalType": "address",
                            "name": "to",
                            "type": "address"
                        },
                        {
                            "internalType": "uint256",
                            "name": "deadline",
                            "type": "uint256"
                        }
                    ],
                    "internalType": "struct ISoulZap_UniV2.ZapParams",
                    "name": "zapParams",
                    "type": "tuple"
                },
                {
                    "internalType": "bytes",
                    "name": "encodedTx",
                    "type": "bytes"
                },
                {
                    "components": [
                        {
                            "internalType": "address",
                            "name": "swapRouter",
                            "type": "address"
                        },
                        {
                            "internalType": "enum ISoulZap_UniV2.SwapType",
                            "name": "swapType",
                            "type": "uint8"
                        },
                        {
                            "internalType": "address[]",
                            "name": "path",
                            "type": "address[]"
                        },
                        {
                            "internalType": "uint256",
                            "name": "amountOutMin",
                            "type": "uint256"
                        }
                    ],
                    "internalType": "struct ISoulZap_UniV2.SwapPath",
                    "name": "feeSwapPath",
                    "type": "tuple"
                },
                {
                    "internalType": "uint256[]",
                    "name": "priceImpactPercentages",
                    "type": "uint256[]"
                }
            ],
            "stateMutability": "view",
            "type": "function"
        },
        {
            "inputs": [
                {
                    "internalType": "address",
                    "name": "fromToken",
                    "type": "address"
                },
                {
                    "internalType": "uint256",
                    "name": "amount",
                    "type": "uint256"
                },
                {
                    "internalType": "contract ICustomBillRefillable",
                    "name": "bill",
                    "type": "address"
                },
                {
                    "internalType": "uint256",
                    "name": "slippage",
                    "type": "uint256"
                },
                {
                    "internalType": "address",
                    "name": "to",
                    "type": "address"
                }
            ],
            "name": "getZapDataBond",
            "outputs": [
                {
                    "components": [
                        {
                            "internalType": "contract IERC20",
                            "name": "inputToken",
                            "type": "address"
                        },
                        {
                            "internalType": "uint256",
                            "name": "inputAmount",
                            "type": "uint256"
                        },
                        {
                            "internalType": "address",
                            "name": "token0",
                            "type": "address"
                        },
                        {
                            "internalType": "address",
                            "name": "token1",
                            "type": "address"
                        },
                        {
                            "components": [
                                {
                                    "internalType": "address",
                                    "name": "swapRouter",
                                    "type": "address"
                                },
                                {
                                    "internalType": "enum ISoulZap_UniV2.SwapType",
                                    "name": "swapType",
                                    "type": "uint8"
                                },
                                {
                                    "internalType": "address[]",
                                    "name": "path",
                                    "type": "address[]"
                                },
                                {
                                    "internalType": "uint256",
                                    "name": "amountOutMin",
                                    "type": "uint256"
                                }
                            ],
                            "internalType": "struct ISoulZap_UniV2.SwapPath",
                            "name": "path0",
                            "type": "tuple"
                        },
                        {
                            "components": [
                                {
                                    "internalType": "address",
                                    "name": "swapRouter",
                                    "type": "address"
                                },
                                {
                                    "internalType": "enum ISoulZap_UniV2.SwapType",
                                    "name": "swapType",
                                    "type": "uint8"
                                },
                                {
                                    "internalType": "address[]",
                                    "name": "path",
                                    "type": "address[]"
                                },
                                {
                                    "internalType": "uint256",
                                    "name": "amountOutMin",
                                    "type": "uint256"
                                }
                            ],
                            "internalType": "struct ISoulZap_UniV2.SwapPath",
                            "name": "path1",
                            "type": "tuple"
                        },
                        {
                            "components": [
                                {
                                    "internalType": "address",
                                    "name": "lpRouter",
                                    "type": "address"
                                },
                                {
                                    "internalType": "enum ISoulZap_UniV2.LPType",
                                    "name": "lpType",
                                    "type": "uint8"
                                },
                                {
                                    "internalType": "uint256",
                                    "name": "minAmountLP0",
                                    "type": "uint256"
                                },
                                {
                                    "internalType": "uint256",
                                    "name": "minAmountLP1",
                                    "type": "uint256"
                                }
                            ],
                            "internalType": "struct ISoulZap_UniV2.LiquidityPath",
                            "name": "liquidityPath",
                            "type": "tuple"
                        },
                        {
                            "internalType": "address",
                            "name": "to",
                            "type": "address"
                        },
                        {
                            "internalType": "uint256",
                            "name": "deadline",
                            "type": "uint256"
                        }
                    ],
                    "internalType": "struct ISoulZap_UniV2.ZapParams",
                    "name": "zapParams",
                    "type": "tuple"
                },
                {
                    "internalType": "bytes",
                    "name": "encodedTx",
                    "type": "bytes"
                },
                {
                    "components": [
                        {
                            "internalType": "address",
                            "name": "swapRouter",
                            "type": "address"
                        },
                        {
                            "internalType": "enum ISoulZap_UniV2.SwapType",
                            "name": "swapType",
                            "type": "uint8"
                        },
                        {
                            "internalType": "address[]",
                            "name": "path",
                            "type": "address[]"
                        },
                        {
                            "internalType": "uint256",
                            "name": "amountOutMin",
                            "type": "uint256"
                        }
                    ],
                    "internalType": "struct ISoulZap_UniV2.SwapPath",
                    "name": "feeSwapPath",
                    "type": "tuple"
                },
                {
                    "internalType": "uint256[]",
                    "name": "priceImpactPercentages",
                    "type": "uint256[]"
                },
                {
                    "components": [
                        {
                            "internalType": "contract ICustomBillRefillable",
                            "name": "bill",
                            "type": "address"
                        },
                        {
                            "internalType": "uint256",
                            "name": "maxPrice",
                            "type": "uint256"
                        }
                    ],
                    "internalType": "struct SoulZap_Ext_ApeBond_Lens.ZapParams_Ext_Bonds",
                    "name": "zapParamsBonds",
                    "type": "tuple"
                }
            ],
            "stateMutability": "view",
            "type": "function"
        },
        {
            "inputs": [
                {
                    "internalType": "uint256",
                    "name": "amount",
                    "type": "uint256"
                },
                {
                    "internalType": "contract ICustomBillRefillable",
                    "name": "bill",
                    "type": "address"
                },
                {
                    "internalType": "uint256",
                    "name": "slippage",
                    "type": "uint256"
                },
                {
                    "internalType": "address",
                    "name": "to",
                    "type": "address"
                }
            ],
            "name": "getZapDataBondNative",
            "outputs": [
                {
                    "components": [
                        {
                            "internalType": "address",
                            "name": "token0",
                            "type": "address"
                        },
                        {
                            "internalType": "address",
                            "name": "token1",
                            "type": "address"
                        },
                        {
                            "components": [
                                {
                                    "internalType": "address",
                                    "name": "swapRouter",
                                    "type": "address"
                                },
                                {
                                    "internalType": "enum ISoulZap_UniV2.SwapType",
                                    "name": "swapType",
                                    "type": "uint8"
                                },
                                {
                                    "internalType": "address[]",
                                    "name": "path",
                                    "type": "address[]"
                                },
                                {
                                    "internalType": "uint256",
                                    "name": "amountOutMin",
                                    "type": "uint256"
                                }
                            ],
                            "internalType": "struct ISoulZap_UniV2.SwapPath",
                            "name": "path0",
                            "type": "tuple"
                        },
                        {
                            "components": [
                                {
                                    "internalType": "address",
                                    "name": "swapRouter",
                                    "type": "address"
                                },
                                {
                                    "internalType": "enum ISoulZap_UniV2.SwapType",
                                    "name": "swapType",
                                    "type": "uint8"
                                },
                                {
                                    "internalType": "address[]",
                                    "name": "path",
                                    "type": "address[]"
                                },
                                {
                                    "internalType": "uint256",
                                    "name": "amountOutMin",
                                    "type": "uint256"
                                }
                            ],
                            "internalType": "struct ISoulZap_UniV2.SwapPath",
                            "name": "path1",
                            "type": "tuple"
                        },
                        {
                            "components": [
                                {
                                    "internalType": "address",
                                    "name": "lpRouter",
                                    "type": "address"
                                },
                                {
                                    "internalType": "enum ISoulZap_UniV2.LPType",
                                    "name": "lpType",
                                    "type": "uint8"
                                },
                                {
                                    "internalType": "uint256",
                                    "name": "minAmountLP0",
                                    "type": "uint256"
                                },
                                {
                                    "internalType": "uint256",
                                    "name": "minAmountLP1",
                                    "type": "uint256"
                                }
                            ],
                            "internalType": "struct ISoulZap_UniV2.LiquidityPath",
                            "name": "liquidityPath",
                            "type": "tuple"
                        },
                        {
                            "internalType": "address",
                            "name": "to",
                            "type": "address"
                        },
                        {
                            "internalType": "uint256",
                            "name": "deadline",
                            "type": "uint256"
                        }
                    ],
                    "internalType": "struct ISoulZap_UniV2.ZapParamsNative",
                    "name": "zapParams",
                    "type": "tuple"
                },
                {
                    "internalType": "bytes",
                    "name": "encodedTx",
                    "type": "bytes"
                },
                {
                    "components": [
                        {
                            "internalType": "address",
                            "name": "swapRouter",
                            "type": "address"
                        },
                        {
                            "internalType": "enum ISoulZap_UniV2.SwapType",
                            "name": "swapType",
                            "type": "uint8"
                        },
                        {
                            "internalType": "address[]",
                            "name": "path",
                            "type": "address[]"
                        },
                        {
                            "internalType": "uint256",
                            "name": "amountOutMin",
                            "type": "uint256"
                        }
                    ],
                    "internalType": "struct ISoulZap_UniV2.SwapPath",
                    "name": "feeSwapPath",
                    "type": "tuple"
                },
                {
                    "internalType": "uint256[]",
                    "name": "priceImpactPercentages",
                    "type": "uint256[]"
                },
                {
                    "components": [
                        {
                            "internalType": "contract ICustomBillRefillable",
                            "name": "bill",
                            "type": "address"
                        },
                        {
                            "internalType": "uint256",
                            "name": "maxPrice",
                            "type": "uint256"
                        }
                    ],
                    "internalType": "struct SoulZap_Ext_ApeBond_Lens.ZapParams_Ext_Bonds",
                    "name": "zapParamsBonds",
                    "type": "tuple"
                }
            ],
            "stateMutability": "view",
            "type": "function"
        },
        {
            "inputs": [
                {
                    "internalType": "uint256",
                    "name": "amount",
                    "type": "uint256"
                },
                {
                    "internalType": "contract IUniswapV2Pair",
                    "name": "lp",
                    "type": "address"
                },
                {
                    "internalType": "uint256",
                    "name": "slippage",
                    "type": "uint256"
                },
                {
                    "internalType": "address",
                    "name": "to",
                    "type": "address"
                }
            ],
            "name": "getZapDataNative",
            "outputs": [
                {
                    "components": [
                        {
                            "internalType": "address",
                            "name": "token0",
                            "type": "address"
                        },
                        {
                            "internalType": "address",
                            "name": "token1",
                            "type": "address"
                        },
                        {
                            "components": [
                                {
                                    "internalType": "address",
                                    "name": "swapRouter",
                                    "type": "address"
                                },
                                {
                                    "internalType": "enum ISoulZap_UniV2.SwapType",
                                    "name": "swapType",
                                    "type": "uint8"
                                },
                                {
                                    "internalType": "address[]",
                                    "name": "path",
                                    "type": "address[]"
                                },
                                {
                                    "internalType": "uint256",
                                    "name": "amountOutMin",
                                    "type": "uint256"
                                }
                            ],
                            "internalType": "struct ISoulZap_UniV2.SwapPath",
                            "name": "path0",
                            "type": "tuple"
                        },
                        {
                            "components": [
                                {
                                    "internalType": "address",
                                    "name": "swapRouter",
                                    "type": "address"
                                },
                                {
                                    "internalType": "enum ISoulZap_UniV2.SwapType",
                                    "name": "swapType",
                                    "type": "uint8"
                                },
                                {
                                    "internalType": "address[]",
                                    "name": "path",
                                    "type": "address[]"
                                },
                                {
                                    "internalType": "uint256",
                                    "name": "amountOutMin",
                                    "type": "uint256"
                                }
                            ],
                            "internalType": "struct ISoulZap_UniV2.SwapPath",
                            "name": "path1",
                            "type": "tuple"
                        },
                        {
                            "components": [
                                {
                                    "internalType": "address",
                                    "name": "lpRouter",
                                    "type": "address"
                                },
                                {
                                    "internalType": "enum ISoulZap_UniV2.LPType",
                                    "name": "lpType",
                                    "type": "uint8"
                                },
                                {
                                    "internalType": "uint256",
                                    "name": "minAmountLP0",
                                    "type": "uint256"
                                },
                                {
                                    "internalType": "uint256",
                                    "name": "minAmountLP1",
                                    "type": "uint256"
                                }
                            ],
                            "internalType": "struct ISoulZap_UniV2.LiquidityPath",
                            "name": "liquidityPath",
                            "type": "tuple"
                        },
                        {
                            "internalType": "address",
                            "name": "to",
                            "type": "address"
                        },
                        {
                            "internalType": "uint256",
                            "name": "deadline",
                            "type": "uint256"
                        }
                    ],
                    "internalType": "struct ISoulZap_UniV2.ZapParamsNative",
                    "name": "zapParams",
                    "type": "tuple"
                },
                {
                    "internalType": "bytes",
                    "name": "encodedTx",
                    "type": "bytes"
                },
                {
                    "components": [
                        {
                            "internalType": "address",
                            "name": "swapRouter",
                            "type": "address"
                        },
                        {
                            "internalType": "enum ISoulZap_UniV2.SwapType",
                            "name": "swapType",
                            "type": "uint8"
                        },
                        {
                            "internalType": "address[]",
                            "name": "path",
                            "type": "address[]"
                        },
                        {
                            "internalType": "uint256",
                            "name": "amountOutMin",
                            "type": "uint256"
                        }
                    ],
                    "internalType": "struct ISoulZap_UniV2.SwapPath",
                    "name": "feeSwapPath",
                    "type": "tuple"
                },
                {
                    "internalType": "uint256[]",
                    "name": "priceImpactPercentages",
                    "type": "uint256[]"
                }
            ],
            "stateMutability": "view",
            "type": "function"
        },
        {
            "inputs": [
                {
                    "internalType": "uint256",
                    "name": "",
                    "type": "uint256"
                }
            ],
            "name": "hopTokens",
            "outputs": [
                {
                    "internalType": "address",
                    "name": "",
                    "type": "address"
                }
            ],
            "stateMutability": "view",
            "type": "function"
        },
        {
            "inputs": [],
            "name": "isConsumingScheduledOp",
            "outputs": [
                {
                    "internalType": "bytes4",
                    "name": "",
                    "type": "bytes4"
                }
            ],
            "stateMutability": "view",
            "type": "function"
        },
        {
            "inputs": [
                {
                    "internalType": "address",
                    "name": "_token",
                    "type": "address"
                }
            ],
            "name": "isInHopTokens",
            "outputs": [
                {
                    "internalType": "bool",
                    "name": "",
                    "type": "bool"
                }
            ],
            "stateMutability": "view",
            "type": "function"
        },
        {
            "inputs": [
                {
                    "internalType": "address",
                    "name": "token0",
                    "type": "address"
                },
                {
                    "internalType": "address",
                    "name": "token1",
                    "type": "address"
                }
            ],
            "name": "pairExists",
            "outputs": [
                {
                    "internalType": "bool",
                    "name": "",
                    "type": "bool"
                }
            ],
            "stateMutability": "view",
            "type": "function"
        },
        {
            "inputs": [
                {
                    "internalType": "address",
                    "name": "token",
                    "type": "address"
                }
            ],
            "name": "removeHopToken",
            "outputs": [],
            "stateMutability": "nonpayable",
            "type": "function"
        },
        {
            "inputs": [],
            "name": "router",
            "outputs": [
                {
                    "internalType": "contract IUniswapV2Router02",
                    "name": "",
                    "type": "address"
                }
            ],
            "stateMutability": "view",
            "type": "function"
        },
        {
            "inputs": [
                {
                    "internalType": "address",
                    "name": "newAuthority",
                    "type": "address"
                }
            ],
            "name": "setAuthority",
            "outputs": [],
            "stateMutability": "nonpayable",
            "type": "function"
        },
        {
            "inputs": [],
            "name": "soulFeeManager",
            "outputs": [
                {
                    "internalType": "contract ISoulFeeManager",
                    "name": "",
                    "type": "address"
                }
            ],
            "stateMutability": "view",
            "type": "function"
        },
        {
            "inputs": [],
            "name": "soulZap",
            "outputs": [
                {
                    "internalType": "contract SoulZap_UniV2",
                    "name": "",
                    "type": "address"
                }
            ],
            "stateMutability": "view",
            "type": "function"
        }
    ],
    "bytecode": "0x60a060405234801562000010575f80fd5b506040516200390038038062003900833981016040819052620000339162000327565b8484848484846001600160a01b031663bf7e214f6040518163ffffffff1660e01b8152600401602060405180830381865afa15801562000075573d5f803e3d5ffd5b505050506040513d601f19601f820116820180604052508101906200009b91906200044c565b620000a68162000218565b50600280546001600160a01b0319166001600160a01b0384169081179091556040805163c45a015560e01b8152905163c45a0155916004808201926020929091908290030181865afa158015620000ff573d5f803e3d5ffd5b505050506040513d601f19601f820116820180604052508101906200012591906200044c565b600180546001600160a01b0319166001600160a01b03928316179055841660805280516200015b9060039060208401906200026b565b50600680546001600160a01b038088166001600160a01b031992831681179093556004805491871691909216178155604080516335898f6960e11b81529051636b131ed2928281019260209291908290030181865afa158015620001c1573d5f803e3d5ffd5b505050506040513d601f19601f82011682018060405250810190620001e791906200044c565b600580546001600160a01b0319166001600160a01b0392909216919091179055506200047198505050505050505050565b5f80546001600160a01b0319166001600160a01b0383169081179091556040519081527f2f658b440c35314f52658ea8a740e05b284cdc84dc9ae01e891f21b8933e7cad9060200160405180910390a150565b828054828255905f5260205f20908101928215620002c1579160200282015b82811115620002c157825182546001600160a01b0319166001600160a01b039091161782556020909201916001909101906200028a565b50620002cf929150620002d3565b5090565b5b80821115620002cf575f8155600101620002d4565b6001600160a01b0381168114620002fe575f80fd5b50565b80516200030e81620002e9565b919050565b634e487b7160e01b5f52604160045260245ffd5b5f805f805f60a086880312156200033c575f80fd5b85516200034981620002e9565b809550506020808701516200035e81620002e9565b60408801519095506200037181620002e9565b60608801519094506200038481620002e9565b60808801519093506001600160401b0380821115620003a1575f80fd5b818901915089601f830112620003b5575f80fd5b815181811115620003ca57620003ca62000313565b8060051b604051601f19603f83011681018181108582111715620003f257620003f262000313565b60405291825284820192508381018501918c83111562000410575f80fd5b938501935b828510156200043957620004298562000301565b8452938501939285019262000415565b8096505050505050509295509295909350565b5f602082840312156200045d575f80fd5b81516200046a81620002e9565b9392505050565b608051613468620004985f395f81816102f50152818161053e015261125001526134685ff3fe608060405234801561000f575f80fd5b5060043610610184575f3560e01c8063a72a9d58116100dd578063c798fd3311610088578063e9c54e4d11610063578063e9c54e4d146103ba578063eb6012f2146103db578063f887ea40146103ff575f80fd5b8063c798fd3314610360578063d53cd92714610373578063e71d594314610396575f80fd5b8063bf7e214f116100b8578063bf7e214f1461032a578063c23854551461033a578063c45a01551461034d575f80fd5b8063a72a9d58146102dd578063b381cf40146102f0578063bdd0ad4c14610317575f80fd5b8063689ab3031161013d5780637a9e5e4b116101185780637a9e5e4b1461027e5780638fb3603714610291578063a6c5e335146102ca575f80fd5b8063689ab303146102355780636b131ed21461024a57806376edeeed1461025d575f80fd5b80633f2b621f1161016d5780633f2b621f146101dc578063519321fd146101ff57806366a7bc4b14610222575f80fd5b8063232b2e3514610188578063281c28d1146101b1575b5f80fd5b61019b610196366004612955565b610412565b6040516101a891906129cf565b60405180910390f35b6006546101c4906001600160a01b031681565b6040516001600160a01b0390911681526020016101a8565b6101ef6101ea3660046129e8565b610506565b6040516101a89493929190612c08565b61021261020d366004612c5f565b61065c565b60405190151581526020016101a8565b610212610230366004612955565b6106b8565b610248610243366004612c5f565b610754565b005b6005546101c4906001600160a01b031681565b61027061026b366004612c7a565b610782565b6040516101a8929190612cbd565b61024861028c366004612c5f565b610b74565b610299610c0a565b6040517fffffffff0000000000000000000000000000000000000000000000000000000090911681526020016101a8565b6102486102d8366004612c5f565b610c45565b6102486102eb366004612d46565b610d59565b6101c47f000000000000000000000000000000000000000000000000000000000000000081565b6101c4610325366004612dd5565b610dc5565b5f546001600160a01b03166101c4565b6004546101c4906001600160a01b031681565b6001546101c4906001600160a01b031681565b61024861036e366004612c5f565b610ded565b610386610381366004612dec565b610e47565b6040516101a89493929190612f09565b6103a96103a4366004612dec565b610efd565b6040516101a8959493929190612f1b565b6103cd6103c8366004612f94565b610fd2565b6040519081526020016101a8565b6103ee6103e93660046129e8565b611204565b6040516101a8959493929190612fd3565b6002546101c4906001600160a01b031681565b60035460609067ffffffffffffffff81111561043057610430612cde565b604051908082528060200260200182016040528015610459578160200160208202803683370190505b5090505f805b6003548110156104fe575f6003828154811061047d5761047d612fe5565b5f9182526020822001546001600160a01b0316915061049c87836106b8565b90505f6104a983886106b8565b90508180156104b55750805b156104f357828686815181106104cd576104cd612fe5565b6001600160a01b0390921660209283029190910190910152846104ef8161300d565b9550505b50505060010161045f565b505092915050565b61050e612830565b604080516080810182525f8082526020820181905260609282018390528183015260606105396128d8565b6105667f00000000000000000000000000000000000000000000000000000000000000008a8a8a8a611379565b8094508195508293505050506040518060e0016040528082604001516001600160a01b0316815260200182606001516001600160a01b03168152602001826080015181526020018260a0015181526020018260c001518152602001876001600160a01b031681526020014264174876e8006105e19190613025565b90526040519095507f0da237a9000000000000000000000000000000000000000000000000000000009061061b9087908690602401613038565b604051602081830303815290604052906001600160e01b0319166020820180516001600160e01b038381831617835250505050935050945094509450949050565b5f805b6003548110156106b057826001600160a01b03166003828154811061068657610686612fe5565b5f918252602090912001546001600160a01b0316036106a85750600192915050565b60010161065f565b505f92915050565b60015460405163e6a4390560e01b81526001600160a01b03848116600483015283811660248301525f92839291169063e6a4390590604401602060405180830381865afa15801561070b573d5f803e3d5ffd5b505050506040513d601f19601f8201168201806040525081019061072f9190613065565b90506001600160a01b038116610748575f91505061074e565b60019150505b92915050565b610760335b5f36611939565b600480546001600160a01b0319166001600160a01b0392909216919091179055565b6107ac60408051608081019091525f80825260208201908152602001606081526020015f81525090565b5f846001600160a01b0316866001600160a01b0316036107d45750606081018390525f610b6b565b5f602083018190526002546001600160a01b03168352806107f6888888611a48565b60408601829052909250905061271061080f8682613080565b6108199083613093565b61082391906130aa565b606085015260408051808201909152600b81526a61637475616c507269636560a81b602082015286906108569082611f47565b5f5b600186604001515161086a9190613080565b811015610af4575f8660400151828151811061088857610888612fe5565b602002602001015190505f87604001518360016108a59190613025565b815181106108b5576108b5612fe5565b602090810291909101015160015460405163e6a4390560e01b81526001600160a01b03858116600483015280841660248301529293505f928392169063e6a4390590604401602060405180830381865afa158015610915573d5f803e3d5ffd5b505050506040513d601f19601f820116820180604052508101906109399190613065565b6001600160a01b0316630902f1ac6040518163ffffffff1660e01b8152600401606060405180830381865afa158015610974573d5f803e3d5ffd5b505050506040513d601f19601f8201168201806040525081019061099891906130fe565b506dffffffffffffffffffffffffffff1691506dffffffffffffffffffffffffffff169150826001600160a01b0316846001600160a01b031611156109d957905b60015460405163e6a4390560e01b81526001600160a01b0386811660048301528581166024830152610a7392169063e6a4390590604401602060405180830381865afa158015610a2b573d5f803e3d5ffd5b505050506040513d601f19601f82011682018060405250810190610a4f9190613065565b828480610a6483670de0b6b3a7640000613093565b610a6e91906130aa565b611fa5565b81610a8682670de0b6b3a7640000613093565b610a9091906130aa565b610a9a9087613093565b95508415610ab757610ab4670de0b6b3a7640000876130aa565b95505b610ae46040518060400160405280600b81526020016a61637475616c507269636560a81b81525087611f47565b5050600190920191506108589050565b5080856060015169021e19e0c9bab2400000610b109190613093565b610b1a91906130aa565b610b2690612710613080565b9350610b676040518060400160405280600c81526020017f707269636520696d70616374000000000000000000000000000000000000000081525085611f47565b5050505b94509492505050565b5f5433906001600160a01b03168114610baf5760405162d1953b60e31b81526001600160a01b03821660048201526024015b60405180910390fd5b816001600160a01b03163b5f03610bfd576040517fc2f31e5e0000000000000000000000000000000000000000000000000000000081526001600160a01b0383166004820152602401610ba6565b610c0682612021565b5050565b5f8054600160a01b900460ff16610c2057505f90565b507f8fb360370000000000000000000000000000000000000000000000000000000090565b610c4e33610759565b5f5b600354811015610c0657816001600160a01b031660038281548110610c7757610c77612fe5565b5f918252602090912001546001600160a01b031603610d5157600354610c9f90600190613080565b8114610d1c5760038054610cb590600190613080565b81548110610cc557610cc5612fe5565b5f91825260209091200154600380546001600160a01b039092169183908110610cf057610cf0612fe5565b905f5260205f20015f6101000a8154816001600160a01b0302191690836001600160a01b031602179055505b6003805480610d2d57610d2d61313e565b5f8281526020902081015f1990810180546001600160a01b03191690550190555050565b600101610c50565b610d6233610759565b5f5b8151811015610c06576003828281518110610d8157610d81612fe5565b6020908102919091018101518254600180820185555f9485529290932090920180546001600160a01b0319166001600160a01b039093169290921790915501610d64565b60038181548110610dd4575f80fd5b5f918252602090912001546001600160a01b0316905081565b610df633610759565b600380546001810182555f919091527fc2575a0e9e593c00f959f8c92f12db2869c3395a3b0502d05e2516446f71f85b0180546001600160a01b0319166001600160a01b0392909216919091179055565b610e4f6128d8565b604080516080810182525f808252602082018190526060928201839052818301526060610e7f8989898989611379565b60405192965090935091507f5d4d7de80000000000000000000000000000000000000000000000000000000090610ebc9086908590602401613152565b604051602081830303815290604052906001600160e01b0319166020820180516001600160e01b038381831617835250505050925095509550955095915050565b610f056128d8565b604080516080810182525f80825260208201819052606092820183905281830152604080518082019091525f8082526020820152606090610f498a8a8a8a8a612074565b602081015160405194995092965090945092507fa8c2c5540000000000000000000000000000000000000000000000000000000091610f9091889187918d91602401613164565b604051602081830303815290604052906001600160e01b0319166020820180516001600160e01b03838183161783525050505093509550955095509550959050565b5f808490505f80826001600160a01b0316630902f1ac6040518163ffffffff1660e01b8152600401606060405180830381865afa158015611015573d5f803e3d5ffd5b505050506040513d601f19601f8201168201806040525081019061103991906130fe565b50915091505f856001600160a01b0316846001600160a01b0316630dfe16816040518163ffffffff1660e01b8152600401602060405180830381865afa158015611085573d5f803e3d5ffd5b505050506040513d601f19601f820116820180604052508101906110a99190613065565b6001600160a01b0316146110bd57816110bf565b825b6dffffffffffffffffffffffffffff1690505f866001600160a01b0316856001600160a01b0316630dfe16816040518163ffffffff1660e01b8152600401602060405180830381865afa158015611118573d5f803e3d5ffd5b505050506040513d601f19601f8201168201806040525081019061113c9190613065565b6001600160a01b0316146111505783611152565b825b6002546040517f054d50d4000000000000000000000000000000000000000000000000000000008152600481018b9052602481018590526dffffffffffffffffffffffffffff929092166044830181905292506001600160a01b03169063054d50d490606401602060405180830381865afa1580156111d3573d5f803e3d5ffd5b505050506040513d601f19601f820116820180604052508101906111f791906131a5565b9998505050505050505050565b61120c612830565b604080516080810182525f80825260208201819052606092820183905281830152604080518082019091525f808252602082015260609061124b6128d8565b6112787f00000000000000000000000000000000000000000000000000000000000000008b8b8b8b612074565b809550819650829750839450505050506040518060e0016040528082604001516001600160a01b0316815260200182606001516001600160a01b03168152602001826080015181526020018260a0015181526020018260c001518152602001886001600160a01b031681526020014264174876e8006112f79190613025565b905260208301516040519197507f9340f1a2000000000000000000000000000000000000000000000000000000009161133891899188918e916024016131bc565b604051602081830303815290604052906001600160e01b0319166020820180516001600160e01b038381831617835250505050945050945094509450945094565b6113816128d8565b6113ab60408051608081019091525f80825260208201908152602001606081526020015f81525090565b60606113bc4264174876e800613025565b61010084015260208084018890526001600160a01b03808a16855285811660e0860152600554600654604080517fd3c277e700000000000000000000000000000000000000000000000000000000815290515f959385169463fcee45f49493169263d3c277e792600480820193918290030181865afa158015611441573d5f803e3d5ffd5b505050506040513d601f19601f8201168201806040525081019061146591906131a5565b6040518263ffffffff1660e01b815260040161148391815260200190565b602060405180830381865afa15801561149e573d5f803e3d5ffd5b505050506040513d601f19601f820116820180604052508101906114c291906131a5565b90505f60055f9054906101000a90046001600160a01b03166001600160a01b031663d73792a96040518163ffffffff1660e01b8152600401602060405180830381865afa158015611515573d5f803e3d5ffd5b505050506040513d601f19601f8201168201806040525081019061153991906131a5565b611543838b613093565b61154d91906130aa565b905080156115625761155f818a613080565b98505b815f036115775761157460648a6130aa565b90505b6004545f908190611593908d906001600160a01b031685611a48565b6002546001600160a01b031688525f60208901526040880182905290925090506127106115c08a82613080565b6115ca9083613093565b6115d491906130aa565b606087015260408051808201909152601081527f666565737761707061746820646f6e6500000000000000000000000000000000602082015261161690612221565b5f806116576040518060400160405280600981526020017f6c706164647265737300000000000000000000000000000000000000000000008152508d612280565b8b6001600160a01b0316630dfe16816040518163ffffffff1660e01b8152600401602060405180830381865afa9250505080156116b1575060408051601f3d908101601f191682019092526116ae91810190613065565b60015b6116ea573d8080156116de576040519150601f19603f3d011682016040523d82523d5f602084013e6116e3565b606091505b50506116ed565b91505b8b6001600160a01b031663d21220a76040518163ffffffff1660e01b8152600401602060405180830381865afa925050508015611747575060408051601f3d908101601f1916820190925261174491810190613065565b60015b611780573d808015611774576040519150601f19603f3d011682016040523d82523d5f602084013e611779565b606091505b5050611783565b90505b6117c36040518060400160405280600f81526020017f746f6b656e20616464726573736573000000000000000000000000000000000081525083836122de565b6001600160a01b038216158015906117e357506001600160a01b03811615155b156118c6575f6117f460028f6130aa565b6001600160a01b0380851660408d0152831660608c015290506002604051908082528060200260200182016040528015611838578160200160208202803683370190505b5097506118478f84838f610782565b8b6080018a5f8151811061185d5761185d612fe5565b602002602001018281525082905250506118798f83838f610782565b8b60a0018a60018151811061189057611890612fe5565b602002602001018281525082905250506118bb8d8b60800151606001518c60a0015160600151612343565b60c08b015250611928565b6040517f08c379a000000000000000000000000000000000000000000000000000000000815260206004820152601860248201527f6c702061646472657373206e6f742061637475616c206c7000000000000000006044820152606401610ba6565b505050505050955095509592505050565b5f8061196c61194f5f546001600160a01b031690565b863061195e60045f898b6131ce565b611967916131f5565b6125a2565b9150915081611a415763ffffffff811615611a1e575f805460ff60a01b198116600160a01b179091556040517f94c7d7ee0000000000000000000000000000000000000000000000000000000081526001600160a01b03909116906394c7d7ee906119df9088908890889060040161323b565b5f604051808303815f87803b1580156119f6575f80fd5b505af1158015611a08573d5f803e3d5ffd5b50505f805460ff60a01b1916905550611a419050565b60405162d1953b60e31b81526001600160a01b0386166004820152602401610ba6565b5050505050565b60605f836001600160a01b0316856001600160a01b031603611a6b575081611f3f565b611a7585856106b8565b15611b9257604080516002808252606082018352909160208301908036833701905050915084825f81518110611aad57611aad612fe5565b60200260200101906001600160a01b031690816001600160a01b0316815250508382600181518110611ae157611ae1612fe5565b6001600160a01b03928316602091820292909201015260025460405163d06ca61f60e01b81525f92919091169063d06ca61f90611b249087908790600401613279565b5f60405180830381865afa158015611b3e573d5f803e3d5ffd5b505050506040513d5f823e601f3d908101601f19168201604052611b659190810190613299565b90508060018251611b769190613080565b81518110611b8657611b86612fe5565b60200260200101519150505b5f611b9d8686610412565b905080515f03611bb057505f9050611f3f565b604080516003808252608082019092525f916020820160608036833701905050905086815f81518110611be557611be5612fe5565b60200260200101906001600160a01b031690816001600160a01b0316815250508581600281518110611c1957611c19612fe5565b6001600160a01b039092166020928302919091019091015260015f5b8351811015611f3a575f6001600160a01b0316848281518110611c5a57611c5a612fe5565b60200260200101516001600160a01b03160315611f3a57838181518110611c8357611c83612fe5565b602002602001015183600181518110611c9e57611c9e612fe5565b6001600160a01b03928316602091820292909201015260025460405163d06ca61f60e01b81525f92919091169063d06ca61f90611ce1908b908890600401613279565b5f60405180830381865afa158015611cfb573d5f803e3d5ffd5b505050506040513d5f823e601f3d908101601f19168201604052611d229190810190613299565b9050611d6e84600181518110611d3a57611d3a612fe5565b60200260200101518260018451611d519190613080565b81518110611d6157611d61612fe5565b60200260200101516126db565b858160018351611d7e9190613080565b81518110611d8e57611d8e612fe5565b60200260200101511115611f3157611df4845f81518110611db157611db1612fe5565b602002602001015185600181518110611dcc57611dcc612fe5565b602002602001015186600281518110611de757611de7612fe5565b6020026020010151612743565b8215611eb957604080516003808252608082019092529060208201606080368337019050509650835f81518110611e2d57611e2d612fe5565b6020026020010151875f81518110611e4757611e47612fe5565b60200260200101906001600160a01b031690816001600160a01b03168152505083600281518110611e7a57611e7a612fe5565b602002602001015187600281518110611e9557611e95612fe5565b60200260200101906001600160a01b031690816001600160a01b0316815250505f92505b83600181518110611ecc57611ecc612fe5565b602002602001015187600181518110611ee757611ee7612fe5565b60200260200101906001600160a01b031690816001600160a01b0316815250508060018251611f169190613080565b81518110611f2657611f26612fe5565b602002602001015195505b50600101611c35565b505050505b935093915050565b610c068282604051602401611f5d92919061331a565b60408051601f198184030181529190526020810180516001600160e01b03167fb60e72cc000000000000000000000000000000000000000000000000000000001790526127b0565b6040516001600160a01b038516602482015260448101849052606481018390526084810182905261201b9060a40160408051601f198184030181529190526020810180516001600160e01b03167f34f0e636000000000000000000000000000000000000000000000000000000001790526127b0565b50505050565b5f80546001600160a01b0319166001600160a01b0383169081179091556040519081527f2f658b440c35314f52658ea8a740e05b284cdc84dc9ae01e891f21b8933e7cad9060200160405180910390a150565b61207c6128d8565b6120a660408051608081019091525f80825260208201908152602001606081526020015f81525090565b604080518082019091525f80825260208201526060905f876001600160a01b031663dbc162de6040518163ffffffff1660e01b8152600401602060405180830381865afa1580156120f9573d5f803e3d5ffd5b505050506040513d601f19601f8201168201806040525081019061211d9190613065565b905061215e6040518060400160405280600381526020017f6c703d000000000000000000000000000000000000000000000000000000000081525082612280565b61216b8a8a838a8a611379565b919650945092505f6127106121808982613025565b8a6001600160a01b031663e796059a6040518163ffffffff1660e01b8152600401602060405180830381865afa1580156121bc573d5f803e3d5ffd5b505050506040513d601f19601f820116820180604052508101906121e091906131a5565b6121ea9190613093565b6121f491906130aa565b604080518082019091526001600160a01b03909a168a5260208a0152509399929850909650909350505050565b61227d81604051602401612235919061332c565b60408051601f198184030181529190526020810180516001600160e01b03167f41304fac000000000000000000000000000000000000000000000000000000001790526127b0565b50565b610c06828260405160240161229692919061333e565b60408051601f198184030181529190526020810180516001600160e01b03167f319af333000000000000000000000000000000000000000000000000000000001790526127b0565b61233e8383836040516024016122f693929190613368565b60408051601f198184030181529190526020810180516001600160e01b03167ffcec75e0000000000000000000000000000000000000000000000000000000001790526127b0565b505050565b61236c60408051608081019091525f808252602082019081526020015f81526020015f81525090565b5f80856001600160a01b0316630902f1ac6040518163ffffffff1660e01b8152600401606060405180830381865afa1580156123aa573d5f803e3d5ffd5b505050506040513d601f19601f820116820180604052508101906123ce91906130fe565b50600254604051632b58577b60e21b8152600481018990526dffffffffffffffffffffffffffff9384166024820181905292909316604484018190529194509092505f916001600160a01b039091169063ad615dec90606401602060405180830381865afa158015612442573d5f803e3d5ffd5b505050506040513d601f19601f8201168201806040525081019061246691906131a5565b90506124a86040518060400160405280600d81526020017f6c6971756964697479706174680000000000000000000000000000000000000081525082876127d0565b8481111561256e57600254604051632b58577b60e21b81526004810187905260248101849052604481018590526001600160a01b039091169063ad615dec90606401602060405180830381865afa158015612505573d5f803e3d5ffd5b505050506040513d601f19601f8201168201806040525081019061252991906131a5565b955084905061256e6040518060400160405280601581526020017f6c697175696469747970617468204348414e474544000000000000000000000081525082886127d0565b604080516080810182526002546001600160a01b031681525f60208201529081019690965260608601525092949350505050565b6040516001600160a01b03848116602483015283811660448301527fffffffff00000000000000000000000000000000000000000000000000000000831660648301525f9182918291829189169060840160408051601f198184030181529181526020820180516001600160e01b03167fb70096130000000000000000000000000000000000000000000000000000000017905251612641919061339a565b5f60405180830381855afa9150503d805f8114612679576040519150601f19603f3d011682016040523d82523d5f602084013e61267e565b606091505b509150915081156126d05760408151106126b057808060200190518101906126a691906133c4565b90945092506126d0565b60208151106126d057808060200190518101906126cd91906133f5565b93505b505094509492505050565b6040516001600160a01b038316602482015260448101829052610c069060640160408051601f198184030181529190526020810180516001600160e01b03167f8309e8a8000000000000000000000000000000000000000000000000000000001790526127b0565b6040516001600160a01b03808516602483015280841660448301528216606482015261233e9060840160408051601f198184030181529190526020810180516001600160e01b03167f018c84c2000000000000000000000000000000000000000000000000000000001790525b80516a636f6e736f6c652e6c6f67602083015f808483855afa5050505050565b61233e8383836040516024016127e89392919061340e565b60408051601f198184030181529190526020810180516001600160e01b03167fca47c4eb000000000000000000000000000000000000000000000000000000001790526127b0565b6040805160e0810182525f808252602082015290810161287060408051608081019091525f80825260208201908152602001606081526020015f81525090565b815260200161289f60408051608081019091525f80825260208201908152602001606081526020015f81525090565b8152604080516080810182525f8082526020828101829052928201819052606082015291019081525f6020820181905260409091015290565b6040518061012001604052805f6001600160a01b031681526020015f81526020015f6001600160a01b031681526020015f6001600160a01b0316815260200161287060408051608081019091525f80825260208201908152602001606081526020015f81525090565b6001600160a01b038116811461227d575f80fd5b5f8060408385031215612966575f80fd5b823561297181612941565b9150602083013561298181612941565b809150509250929050565b5f815180845260208085019450602084015f5b838110156129c45781516001600160a01b03168752958201959082019060010161299f565b509495945050505050565b602081525f6129e1602083018461298c565b9392505050565b5f805f80608085870312156129fb575f80fd5b843593506020850135612a0d81612941565b9250604085013591506060850135612a2481612941565b939692955090935050565b6001811061227d57634e487b7160e01b5f52602160045260245ffd5b5f608083016001600160a01b03808451168552602080850151612a6d81612a2f565b8060208801525060408501516080604088015283815180865260a0890191506020830195505f92505b80831015612ab857855185168252948301946001929092019190830190612a96565b5060608701516060890152809550505050505092915050565b6001600160a01b0381511682526020810151612aec81612a2f565b602083015260408181015190830152606090810151910152565b5f6101406001600160a01b038084511685528060208501511660208601526040840151826040870152612b3b83870182612a4b565b92505060608401518583036060870152612b558382612a4b565b9250506080840151612b6a6080870182612ad1565b5060a08401511661010085015260c09092015161012090930192909252919050565b5f5b83811015612ba6578181015183820152602001612b8e565b50505f910152565b5f8151808452612bc5816020860160208601612b8c565b601f01601f19169290920160200192915050565b5f815180845260208085019450602084015f5b838110156129c457815187529582019590820190600101612bec565b608081525f612c1a6080830187612b06565b8281036020840152612c2c8187612bae565b90508281036040840152612c408186612a4b565b90508281036060840152612c548185612bd9565b979650505050505050565b5f60208284031215612c6f575f80fd5b81356129e181612941565b5f805f8060808587031215612c8d575f80fd5b8435612c9881612941565b93506020850135612ca881612941565b93969395505050506040820135916060013590565b604081525f612ccf6040830185612a4b565b90508260208301529392505050565b634e487b7160e01b5f52604160045260245ffd5b604051601f8201601f1916810167ffffffffffffffff81118282101715612d1b57612d1b612cde565b604052919050565b5f67ffffffffffffffff821115612d3c57612d3c612cde565b5060051b60200190565b5f6020808385031215612d57575f80fd5b823567ffffffffffffffff811115612d6d575f80fd5b8301601f81018513612d7d575f80fd5b8035612d90612d8b82612d23565b612cf2565b81815260059190911b82018301908381019087831115612dae575f80fd5b928401925b82841015612c54578335612dc681612941565b82529284019290840190612db3565b5f60208284031215612de5575f80fd5b5035919050565b5f805f805f60a08688031215612e00575f80fd5b8535612e0b81612941565b9450602086013593506040860135612e2281612941565b9250606086013591506080860135612e3981612941565b809150509295509295909350565b80516001600160a01b031682525f610180602083015160208501526040830151612e7c60408601826001600160a01b03169052565b506060830151612e9760608601826001600160a01b03169052565b506080830151816080860152612eaf82860182612a4b565b91505060a083015184820360a0860152612ec98282612a4b565b91505060c0830151612ede60c0860182612ad1565b5060e08301516001600160a01b03166101408501526101009092015161016090930192909252919050565b608081525f612c1a6080830187612e47565b60c081525f612f2d60c0830188612e47565b8281036020840152612f3f8188612bae565b90508281036040840152612f538187612a4b565b90508281036060840152612f678186612bd9565b84516001600160a01b03166080850152602085015160a08501529150612f8a9050565b9695505050505050565b5f805f60608486031215612fa6575f80fd5b8335612fb181612941565b9250602084013591506040840135612fc881612941565b809150509250925092565b60c081525f612f2d60c0830188612b06565b634e487b7160e01b5f52603260045260245ffd5b634e487b7160e01b5f52601160045260245ffd5b5f6001820161301e5761301e612ff9565b5060010190565b8082018082111561074e5761074e612ff9565b604081525f61304a6040830185612b06565b828103602084015261305c8185612a4b565b95945050505050565b5f60208284031215613075575f80fd5b81516129e181612941565b8181038181111561074e5761074e612ff9565b808202811582820484141761074e5761074e612ff9565b5f826130c457634e487b7160e01b5f52601260045260245ffd5b500490565b80516dffffffffffffffffffffffffffff811681146130e6575f80fd5b919050565b805163ffffffff811681146130e6575f80fd5b5f805f60608486031215613110575f80fd5b613119846130c9565b9250613127602085016130c9565b9150613135604085016130eb565b90509250925092565b634e487b7160e01b5f52603160045260245ffd5b604081525f61304a6040830185612e47565b608081525f6131766080830187612e47565b82810360208401526131888187612a4b565b6001600160a01b0395909516604084015250506060015292915050565b5f602082840312156131b5575f80fd5b5051919050565b608081525f6131766080830187612b06565b5f80858511156131dc575f80fd5b838611156131e8575f80fd5b5050820193919092039150565b7fffffffff0000000000000000000000000000000000000000000000000000000081358181169160048510156104fe5760049490940360031b84901b1690921692915050565b6001600160a01b038416815260406020820152816040820152818360608301375f818301606090810191909152601f909201601f1916010192915050565b828152604060208201525f613291604083018461298c565b949350505050565b5f60208083850312156132aa575f80fd5b825167ffffffffffffffff8111156132c0575f80fd5b8301601f810185136132d0575f80fd5b80516132de612d8b82612d23565b81815260059190911b820183019083810190878311156132fc575f80fd5b928401925b82841015612c5457835182529284019290840190613301565b604081525f612ccf6040830185612bae565b602081525f6129e16020830184612bae565b604081525f6133506040830185612bae565b90506001600160a01b03831660208301529392505050565b606081525f61337a6060830186612bae565b6001600160a01b0394851660208401529290931660409091015292915050565b5f82516133ab818460208701612b8c565b9190910192915050565b805180151581146130e6575f80fd5b5f80604083850312156133d5575f80fd5b6133de836133b5565b91506133ec602084016130eb565b90509250929050565b5f60208284031215613405575f80fd5b6129e1826133b5565b606081525f6134206060830186612bae565b6020830194909452506040015291905056fea26469706673582212209a3b76c0bb21f931b130870fde746f2eda1488dedb5b84756dddf1203d34602564736f6c63430008170033",
    "linkReferences": {},
    "deployedLinkReferences": {}
}